:020000040800F2
:10000000F0980120690200087102000873020008DC
:10001000750200087702000879020008000000005D
:10002000000000000000000000000000E1200008C7
:100030007D02000800000000811F00080521000863
:10004000830200088302000883020008830200087C
:10005000830200088302000883020008830200086C
:10006000830200088302000883020008830200085C
:10007000830200088302000883020008830200084C
:10008000830200088302000883020008830200083C
:10009000830200088302000883020008830200082C
:1000A000830200088302000883020008830200081C
:1000B000D12100088302000883020008830200089F
:1000C00083020008830200088302000883020008FC
:1000D0008302000883020008B5220008830200089A
:1000E00083020008830200088302000883020008DC
:1000F00083020008830200088302000883020008CC
:1001000083020008830200088302000883020008BB
:1001100083020008830200088302000883020008AB
:10012000830200088302000883020008830200089B
:10013000830200088302000883020008830200088B
:10014000830200088302000883020008830200087B
:10015000830200088302000883020008830200086B
:10016000830200088302000883020008830200085B
:1001700083020008830200088302000800000000D8
:10018000830200088302000800F002F800F05CF827
:100190000AA090E8000C82448344AAF10107DA45E2
:1001A00001D100F051F8AFF2090EBAE80F0013F0D8
:1001B000010F18BFFB1A43F001031847345D00001C
:1001C000545D0000103A24BF78C878C1FAD85207AD
:1001D00024BF30C830C144BF04680C6070470000C1
:1001E0000023002400250026103A28BF78C1FBD840
:1001F000520728BF30C148BF0B607047672905F020
:100200006A85692900F04A81642900F047817829CC
:1002100000F08081002070471FB505F047FD9DE884
:10022000030000F097FB01F0BFF90400002000215B
:1002300005F088FA401C60600020002105F098FA63
:10024000E0601FBD10B510BD01F03CFB1146FFF78B
:10025000E3FF02F0F7FB01F09DFD03B4FFF7F2FFAF
:1002600003BC01F0CDFD0000094880470948004764
:10027000FEE7FEE7FEE7FEE7FEE7FEE7FEE7FEE756
:10028000FEE7FEE704480549054A064B70470000B3
:10029000B521000889010008F0920120F0980120A2
:1002A000F0940120F094012070B5064600F032FB76
:1002B000056806F10B0020F00704B4429CBF002043
:1002C00070BD2B466A68BAB11068A04210D304F121
:1002D000080188423CBF5068586007D35168101924
:1002E00041601168091B016058601460101D70BDE9
:1002F00013465268002AE7D12146284600F016FB33
:100300000028DED170BD70B50446051F00F002FB69
:100310000068002C14BF446870BD002C18BFAC42AC
:100320003CBF20466468F8D301680A18AA4218BF87
:10033000456003D12A6805461144016028684119C7
:10034000A1421CBF6C6070BD61686960216808448F
:10035000286070BD70B50D460646041F00F0DAFA3D
:100360000268BDB1DEB105F10B0020F00701A94222
:100370003CBF002070BD23688B4238BF506813D348
:100380005A1A082A36D3601840F8042B2160FFF768
:10039000BAFF2FE03046FFF7B6FF002070BD2846B9
:1003A000BDE87040FFF780BF002818BFA0423CBFE7
:1003B00002464068F8D303EB040C84451CD1D0F806
:1003C00000C06344994217D8A3EB010CBCF1080F9D
:1003D0000DD3D0F804C06318C3F804C0D4F800C02B
:1003E00000686044401A18602160536002E0236096
:1003F00040685060201D70BD2846FFF755FF05007E
:1004000008D031462068021F284601F097F8201DC9
:10041000FFF779FF284670BD10B5044600F072FA68
:100420000068005DC00602D504F1200010BD204622
:1004300010BD00000FB4044910B503AA029800F0E3
:100440003FFD10BC5DF814FB7800002070B5044639
:1004500085690068C10601D5302600E02026C00766
:1004600007D070BDD4E9012130469047206A401C76
:1004700020626D1EF6D570BD70B5044685690078A2
:10048000C00707D170BDD4E9012120209047206A20
:10049000401C20626D1EF6D570BD00002DE9F041B4
:1004A0000646002410687529314616A510D0AFF312
:1004B0000080002802DA404213A507E031688A076D
:1004C00001D512A502E0490704D511A5012401E0D8
:1004D000AFF3008000210A2206F1240709E0B0FBF7
:1004E000F2FCB0FBF2F302FB1C00303078541846EB
:1004F000491C0028F3D123462A463046BDE8F04186
:1005000000F05EBA000000002D0000002B0000008B
:100510002000000070B504460D4621461068AFF378
:1005200000802188090502D50F4A7A4402E00E4A6C
:100530007A440E32002104F1240305E000F00F0696
:100540000009965D5E54491C0028F7D120780023ED
:10055000000704D5702D02D009B1022311322046C4
:10056000BDE8704000F02CBAA85800002DE9F05FFB
:10057000894604464FF0000ADFF824B1FB44C0F876
:1005800020A02046E168884700287DD0252806D095
:10059000D4E901219047206A401C2062F1E7002540
:1005A0005F462046E16888472028064607DB312E53
:1005B00005D2B81910F8200C08B10543F1E7A807D7
:1005C00001D525F00405C4F81CA00027C4F818A024
:1005D0002A2E09D0304605F066F838B304EB8708B8
:1005E000303EC8F8186019E059F8041B204604EBA7
:1005F00087029161E1688847012F064618D1E069BA
:10060000002820DA25F020051DE0D8F8180000EBBE
:10061000800006EB40003038C8F818002046E1683A
:100620008847064605F03FF80028EED1012F0AD092
:100630002E2E08D12046E16888477F1C0646022FEF
:1006400045F02005C4DBA069002803DA404245F0EC
:100650000105A061E80701D025F01005A6B1A6F1BB
:100660004100192802D8203645F400654A46314633
:10067000204625604D46FFF7C1FD60B1012807D037
:10068000ED1D25F0070000E007E000F1080978E71C
:1006900005F1040975E730467AE7206ABDE8F09F66
:1006A0007E58000070B5064600F038F9046805462B
:1006B00030460A22002100F009FF2C6070BD10B501
:1006C000431C02E010F8011B71B18107FAD14FF011
:1006D000013202C88C1A8C4314EAC211F9D0C01A34
:1006E0000A0603D0C01E10BDC01A10BD0A0401D0F6
:1006F000801E10BD0902FCD0401E10BD40EA01035F
:1007000070B59B072ED14FF00136042A2AD308C8B2
:1007100010C99D1B9D43121F15EAC61517D0D8B2EC
:10072000E1B2401A50EA056110D198B2A1B2401A64
:1007300050EA05410AD123F07F4024F07F41401A5E
:1007400050EA052102D1180EA0EB146070BDA3423F
:10075000DBD018BA21BA884201D9012070BD4FF010
:10076000FF3070BD0AB9002070BD10F8013B11F8D0
:10077000014B63B1A3420AD1521E08D010F8013BCD
:1007800011F8014B1BB1A34201D1521EEDD1181B30
:1007900070BD032A40F2308010F0030C00F0158089
:1007A00011F8013BBCF1020F624498BF11F801CB74
:1007B00000F8013B38BF11F8013BA2F1040298BFD9
:1007C00000F801CB38BF00F8013B11F0030300F043
:1007D000B586083AC0F0088051F8043B083A51F851
:1007E00004CBA0E80810F5E7121D5CBF51F8043BEC
:1007F00040F8043BAFF30080D20724BF11F8013B5F
:1008000011F801CB48BF11F8012B24BF00F8013BC0
:1008100000F801CB48BF00F8012B704702F0FF033E
:1008200043EA032242EA024200F002B84FF000021B
:1008300000B5134694469646203922BFA0E80C50D6
:10084000A0E80C50B1F12001BFF4F7AF090728BFB1
:10085000A0E80C5048BF0CC05DF804EB890028BF2D
:1008600040F8042B08BF704748BF20F8022B11F056
:10087000804F18BF00F8012B7047000000000000F7
:1008800030B44FF0013C50F8042B51F8043BCCFA43
:1008900052F4D51A20D1FCB950F8042B51F8043B7E
:1008A000CCFA52F4D51A17D1B4B950F8042B51F838
:1008B000043BCCFA52F4D51A0ED16CB950F8042B83
:1008C00051F8043BCCFA52F4D51A05D1002CDAD0F9
:1008D00030BC4FF00000704729BAB1FA81F111F035
:1008E0001801D1F120008440F2D1CA40CB4012F06F
:1008F000FF0213F0FF0330BCD01A704770477047F7
:100900007047000010B500F04FFE001D10BD00BF85
:10091000354E000000487047200000200048704716
:1009200018000020704770477047704738B504467C
:100930000A4600206946AFF30080002808BF38BD92
:1009400002460099204600F033FE012038BD012008
:1009500000F0B0BFF8B5AFF30080054600200C46AC
:10096000102000BF0646A819A0420DD9324669469C
:100970000020AFF30080070008BF00F09BFF009845
:10098000A04218BF0546C419FFF7C4FF056007461B
:10099000F01D20F007004619284600F00AF8B4427E
:1009A00008BFF8BDA21B31463868BDE8F84000F02A
:1009B000FFBD00210160C0E90110704710207047A1
:1009C0002DE9F0470D4699469246044600F1240869
:1009D0000168880604D5E06921F01001216000E07B
:1009E0000120A84201DD471B00E00027A1697A1918
:1009F00002EB0900081AA0612078C00602D4204644
:100A0000FFF724FD002608E0D4E901211AF80600CA
:100A10009047206A401C761C20624E45F4DB20780B
:100A2000C0060AD52046FFF711FD06E0D4E90121F2
:100A300030209047206A401C2062381EA7F1010731
:100A4000F4DC07E0D4E9012118F805009047206A9A
:100A5000401C2062281EA5F10105F3DC2046FFF7AB
:100A60000BFD2078000602D50220BDE8F0870120AA
:100A7000FBE72DE9FF4F0C461E464FF0FF378BB0CA
:100A8000D2E90001DDF860800A908A46C1F30A5578
:100A900005B93D46002108464FF00000BAF1000FAD
:100AA00000F4400005DA00EB80004FF4400101EA59
:100AB00050004FEA9059B9F1010F00DDB9460A988C
:100AC00050EA4A000ED044F61050A5F2FF354543D7
:100AD0002F14B8F1000F1ED07542291E1EDDC9F17A
:100AE00000021CE0B8F1010F4FF0000001D03021EE
:100AF00003E0F24305E02154401CB042FBDB3046EA
:100B00000022002121540B99C1F80880C1E900207E
:100B10000FB0BDE8F08FBD1B6D1CDEE74A4600DA62
:100B2000694206A800F050FE06AB93E8070003AB4D
:100B300083E8070050460A9904F03EF88DE8070064
:100B4000A0F500501F3800900398002D0ADD42F2F6
:100B50001F014A460844002303A90390684604F095
:100B6000E9FA09E0A0F500504A461F38002303A91E
:100B70000390684604F008FB8DE807000004000CB1
:100B800003D04FF0FF30410800E01046B8F1000FED
:100B900003D00022009215461EE0751E05D400F019
:100BA00034FD303262556D1EF9D5B346012208433B
:100BB00002D000227F1C04E02078302801D10022DE
:100BC0007F1E002A099784D01DE0112D07DA00F05E
:100BD0001CFD303262556D1C50EA0102F5D108430C
:100BE00002D00098C8B10EE00021681E05E0235C29
:100BF000625C63542254401E491C8142F7DBAB46C1
:100C0000A81B401E0990002004F80B000B98099ABD
:100C1000C0F80880C0E9002B7AE711264FF00008E1
:100C200057E72DE9F04F88460446D21D22F0070110
:100C300091B0D1E90001CDE90A0104F0F1FB0246CF
:100C40000B98C00F01D02D2007E02068810701D547
:100C50002B2002E0202101EAC000032A099001D0E4
:100C6000072A05DB03464146204600F01DFD0BE147
:100C70002078800601D5E06900E00620B8F1650F14
:100C8000814606D0B8F1660F18D0B8F1670F70D161
:100C900031E00020B9F1110F009001DB112301E0D8
:100CA00009F101030AAA01A90CA8FFF7E2FEDDE998
:100CB0000C70002609F10105834647E001204B46F0
:100CC00000904FF000470AAA01A90CA8FFF7D1FE37
:100CD000DDE90DB00C995D46002610B909F101005F
:100CE0000D18B9EB050003D4C0F1FF3609F1010579
:100CF000A5EB09002BE0B9F1010F01DA4FF0010972
:100D00000020B9F1110F0090484601DD112300E0E9
:100D100003460AAA01A90CA8FFF7ABFEDDE90C7097
:100D20004D4600268346207800070AD4AB4500DAFA
:100D30005D4601A8012D04DD411911F8011C30297F
:100D400007D04F4502DA17F1040F04DA012082467A
:100D50000FE06D1EEEE7002F02DCED1B3E4403E0CA
:100D6000781CA84200DD7D1CB81B00F1010A4FF081
:100D700000472078000703D4AA4501DB4FF0FF3A73
:100D80000021B7F1004F0DF143088DF8431024D036
:100D900002202B23002F01DA7F422D230A21021E7D
:100DA000A0F1010000DC5FB197FBF1FC97FBF1F2D1
:100DB00001FB1C7C17460CF1300C08F801CDEEE766
:100DC000A8F1010003702188090501D5452100E043
:100DD0006521A0F1010800F8011C09980FA9A1EBF9
:100DE0000807FF1D00B10120411901EBEA70A1695C
:100DF0003844081A401EA0612078C00602D420465C
:100E0000FFF724FB099828B1D4E901219047206A13
:100E1000401C20622078C00622D52046FFF716FB32
:100E20001EE0002E04DBB34502DD01A8805D00E07A
:100E30003020D4E901219047206A401C2062761CB2
:100E4000AAF101005FEA000A0AD100F0ADFBC06818
:100E50000168405CD4E901219047206A401C20626F
:100E6000281EA5F10105DCDC07E0D4E9012118F812
:100E7000010B9047206A401C2062381EA7F1010731
:100E8000F3DC2046FFF7F8FA032011B041E600003A
:100E900001694A1C02610878704700B58FB0CDE93E
:100EA00001310021059105497944CDE9031011462E
:100EB0006846FFF75BFB0FB000BD0000E5FFFFFFDA
:100EC000074B70B50D467B44FFF7E7FF0446284605
:100ED00000F0ECFC10B14FF0FF3070BD204670BD4B
:100EE000DB1800002DE9FF4F06468BB00878FF287D
:100EF00006D0491C2D2805D000244FF0000908E039
:100F000000200CE00124F8E709EB8903491C00EB01
:100F100043090878FF28F7D114B1C9F100008146D0
:100F2000107800252C46AA4629462D2801D02B28CA
:100F300004D1521C2D2813D0002082468B461078F5
:100F4000FF280FD04FF0000C0A21521CA5FB01789E
:100F500004FB018105FB0C11C5194BEB0104EEE705
:100F60000120EAE7002108464FF00000BAF1000F27
:100F700002D000EB80004008C0F38157012F01DD53
:100F80004FF0FF370E9955EA040009EB01080BD02A
:100F90004FF0020918F5FA7F16DA4FEACA70002FEF
:100FA000706008DD012007E04FEACA70C6E900B0B2
:100FB0000FB0BDE8F08F00203060FFF7AFFCC0F845
:100FC00000901821084616E0B8F5FA7F18DD002FCA
:100FD00002DAF748784401E0F6487844D0E9001096
:100FE000C6E9001040EACA707060FFF797FCC0F8CD
:100FF0000090142108460FB0BDE8F04F04F068BE21
:10100000002108464FF00000B8F10001099002DA13
:10101000C7F1000200E03A4601DAC8F1000106A873
:1010200000F0D2FB06AB93E8070003AB83E80700B0
:1010300044F23E005BEA04010090584604D144F2B9
:101040001E012C465D460091210C0904014306D186
:101050000099240444EA15442D041039009104F049
:101060007F41014306D10099240244EA15642D0210
:101070000839009104F07041014306D10099240120
:1010800044EA15742D01091F009104F04041014309
:1010900006D10099A40044EA9574AD00891E009120
:1010A00004F00041084304D100986D196441401ECA
:1010B00000904FF001033A466846B8F1000FCDE9C1
:1010C000014503A902DD04F074F801E004F047F8DB
:1010D000BAF1000F04460D4601D084F0004400210F
:1010E00008464FF00000099940F2FF77484010F0A1
:1010F0000C0F07D124F00040284303D0C4F30A505A
:10110000B84212D1FFF70AFCC0F80090C4F30A50AD
:10111000B8420AD1A8487844D0E90010C6E90010C6
:1011200004F000410843706042E7C6E900543FE71D
:101130002DE9FF4F1F464FF0000A4FF0FF3845469C
:1011400091B0D7E90146CDF83CA000F02DFAC06877
:101150000168405C1090B96912986D1C8847396A23
:10116000814688470028F6D1B9F1FF3F0AD0002E0A
:1011700024F4D06411DDB9F12B0F08D0B9F12D0F93
:101180000BD102E0404615B013E744F48064B9691E
:1011900012986D1C8847761E8146600504A901D50A
:1011A0002D2000E02B20002E01F1010B0DF1300865
:1011B0008DF810003FDDB9F1690F08D0B9F1490F82
:1011C00005D0B9F16E0F02D0B9F14E0F1CD13B46DC
:1011D00001A8009580E85002DDE912126FF00200CC
:1011E00004F0DFFDC11CCED10EE0B96912986D1C70
:1011F000884781461398761E44F4007405600F9862
:10120000401C002E0F9016DDB9F1300FEDD0B9F172
:10121000780F02D0B9F1580F0DD10F9801280AD1DB
:101220003B46CDE90054DDE91212001F029604F09E
:10123000B6FDC11CA7D1109989453ED144F0800468
:1012400006E01399681CAAF1010A44F400740860CE
:10125000B9696D1C1298761E884730288146F0D0F7
:101260002BE01099894505D1200603D4761E44F061
:10127000800418E0484604F016FA08B3761E0DF113
:1012800023029345A9F1300044F4007406D20BF810
:10129000010B200607D5AAF1010003E0200602D4C5
:1012A0000AF101008246A00502D51399681C086066
:1012B000B96912986D1C88478146002ED1DC53E035
:1012C000002E51DDB9F1650F02D0B9F1450F4BD1B8
:1012D000A00549D5B9696D1C1298761E24F4407496
:1012E0008847002E81460CDD2B2804D0B9F12D0F44
:1012F00007D144F48074B96912986D1C8847761E32
:101300008146E00501D52D2100E02B2108F8011BC5
:10131000CDF8008021E0761E0DF13901884544F4B6
:1013200000740CD2A9F1300010F0FF0088F8000022
:1013300002D10099884509D908F1010806E0E005C5
:1013400001D51E4801E042F20F708246B969129839
:101350006D1C8847814613980560002E04DD4846C1
:1013600004F0A1F90028D6D1F96912988847FF2026
:1013700053468BF8000088F8000000200A900B907C
:1013800004AA0CA90AA8FFF7ADFDA00502D46FF0CE
:101390000100F8E614F0240F12D0E0071CD13868E1
:1013A000DDE90A12031D3B600068C0E9001213E08A
:1013B000404F0000324F0000F64D0000F1D8FFFF13
:1013C0000AA9684604F05CF9E00705D13868009A7C
:1013D000011D3960006802602846D4E6426842B1C7
:1013E000016811F8013B23B1521EC0E900121846F2
:1013F00070470121C160881E704742685AB1C368B6
:10140000016843B983688B4205D0491E521CC0E96C
:101410000012002070474FF0FF3070470FB40B00F0
:1014200010B54FF000048AB00FA900910E99CC605E
:10143000234C7C44234A7A44CDE9064200D004235D
:101440006FF00042CDE901321F4A7A446B460892A0
:101450000246002004F0A1FC0AB010BC5DF814FBA9
:10146000F0B507464FF0FF301E4615460C463B468A
:1014700085B06A460091CDE9010131460020049013
:1014800004A8FFF7CBFF04990346601825B109B102
:10149000024600E022462A6000290ED0002B02DD21
:1014A0000099814209D03B466A463146001B0094B0
:1014B000CDE9010404A8FFF7B1FF05B0F0BD0000BD
:1014C000A7FFFFFFC1FFFFFF470200002DE9F04724
:1014D00091460F4680460446002614F8015B2DB164
:1014E000FFF710FA0068405DC007F6D12B2D02D03F
:1014F0002D2D18D0641E4A463946204600F014F9B6
:1015000027B13968A14201D1C7F800804FF0020429
:1015100071050BD54042002803DDFFF7FFF9046099
:10152000A007BDE8F08746F48066E4E70028F8DA13
:10153000FFF7F4F904606FF00040F2E710B5203ACD
:10154000C0F00B80B1E81850A0E81850B1E818506E
:10155000A0E81850203ABFF4F5AF5FEA027C24BF40
:10156000B1E81850A0E8185044BF18C918C0BDE829
:1015700010405FEA827C24BF51F8043B40F8043BF2
:1015800008BF7047D20728BF31F8023B48BF11F8A7
:10159000012B28BF20F8023B48BF00F8012B704701
:1015A00000487047180000200048704738000020AD
:1015B000034640688C46002818BF88423CBF03465B
:1015C0004068F8D318681844884207D00CF103002B
:1015D00020F00700001D411A521A0146081D0A603A
:1015E000FEF791BEB2F120030AD5C2F1200301FA41
:1015F00002F120FA03F341EA030100FA02F0704716
:1016000000FA03F14FF00000704730B5B0F10A0264
:1016100071F100034FEA900E4EEA817EB0EB0E00AE
:1016200061EB91014FEA101E4EEA017E10EB0E00B5
:1016300041EB11114FEA102E4EEA016E10EB0E0035
:1016400041EB11214FEA104E4EEA014E10EB0E0015
:1016500041EB1141401841F100014FEAD00040EA4E
:1016600041704FEAD1014FEA810444EA907410EBD3
:10167000800544EB01046D1944EB0404521BA341A3
:101680004FF0000348BF0A3200D530BD401C41F185
:10169000000130BD10B50446FFF734F90068005D65
:1016A00000F0010010BD00002DE9F0411F46044686
:1016B00003260168072A01F4006004DB08B116A5BF
:1016C00005E016A503E008B115A500E015A521F079
:1016D00010002060A069C01EA0610FB1401EA06173
:1016E0002046FEF7B3FE4FB1D4E9012138469047BA
:1016F000206A401C2062C01C206206E0206AFAE7D3
:10170000D4E9012115F8010B9047761EF8D2204646
:10171000FEF7B2FEBDE8F0814E414E006E616E00F4
:10172000494E4600696E66002DE9F05F8246154617
:101730008B4600270AF10104B9460078302801D011
:101740009DB113E014F8010B0127782803D0582825
:1017500001D045B10AE00DB1102D07D1002714F8D2
:10176000010B102502E0082500E00A250026B046FE
:101770000EE005FB080005FB06F101271FFA80F8C3
:1017800001EB1046B6F5803F00D3B94614F8010BC3
:10179000294600F0C7F80028EBDABBF1000F05D0AE
:1017A0000FB1641E00E05446CBF80040B9F1000FC1
:1017B00006D0FFF7B3F802210160C81EBDE8F09F14
:1017C00048EA0640FAE700002DE9F0478146164650
:1017D0008AB0354878440DC88DE80D003248784409
:1017E000801C03AC0DC884E80D0041F69B30084412
:1017F000372190FBF1F290FBF1F5A5F1800501FB9B
:1018000012041B3C02D56442012000E00020DFF8F6
:1018100098A080460027FA44AAF1BE0A0EE0E0072D
:101820000AD03246684607EB470101230AEB8101E3
:1018300003F0AAFC8DE8070064107F1C002CEED199
:10184000194F7F44AE3F19E0E80715D007EB0410AD
:101850000DF1180A90E80E008AE80E00C068F04208
:1018600001D1981908903246012306A903A803F074
:101870008BFC03AB83E807006D10641C002DE3D1E3
:101880004FF0010332466946B8F1000F03A802D0B9
:1018900003F050FC01E003F077FCC9E90001C9F84E
:1018A00008200AB0BDE8F087B4460000007B00F0D5
:1018B0008000704710B500F07BFABDE8104000F0E2
:1018C00072BA70477546FFF76BFEAE460500694673
:1018D000534620F00700854618B020B5FEF7D2FC2D
:1018E000BDE820404FF000064FF000074FF0000821
:1018F0004FF0000BAC46ACE8C009ACE8C009ACE85E
:10190000C009ACE8C00921F007018D46704710B549
:10191000FFF704F8006810BD10B50446FEF7FEFF9F
:10192000046010BD3A2800D2303820F02002412A4D
:1019300001D3A2F13700884201D34FF0FF30704746
:101940002DE9FF4F1F464FF03C0987B04FF0004292
:10195000DDE9141001F10108DDF858A002EA405059
:101960000390002005908346054604460490B9691B
:10197000461E08988847AAF1010A0290BAF1000FA2
:101980003BDD02982E2815D01021FFF7CBFF002851
:101990002EDB4FF0010B0599014317D0B9F1000F71
:1019A0000BDB4A46C117FFF71DFE05430C43A9F1A7
:1019B000040905E0012004900BE008B145F00105A1
:1019C00001200590049820B9361D02E0049800B16A
:1019D000361FB969089808F101088847BBF1000F64
:1019E000AAF1010A0290C9D00999C1F80080C5E79F
:1019F0000298702808D0502806D0F96908988847BE
:101A0000BBF1000F14D04FE0002002900120BBF189
:101A1000000F049009D0B969089808F101088847B7
:101A2000AAF10109B9F1000F07DCF96908988847A4
:101A30006FF001000BB0BDE8F08F2B2804D02D28EB
:101A40000CD14FF0FF300490B969089808F10108F3
:101A50008847A9F10109B9F1000FE6DD411CE4D086
:101A60000A21FFF75FFF0028DFDB029908F1010878
:101A700001EB810100EB41000290B96908988847A9
:101A80000A21FFF74FFF099AA9F10109B9F1000FE7
:101A9000C2F8008001DD0028E7DAF9690898884774
:101AA0000499029800FB016655EA040004D004F092
:101AB0004041090002D006E0039898E0A40044EAFF
:101AC0009574AD00B61E04F00041080002D16D19F6
:101AD0006441761E159810F0240F03D04FF00B09C7
:101AE0005C4803E04FF028096FF07D0082465645C0
:101AF00007DAAAEB06018944B9F1410F01DD4FF085
:101B0000410901200021A9F10102FFF76BFD024606
:101B100028400B462140084301D0012100E000216C
:101B2000501E029143F1FF3128402140084301D06B
:101B3000012000E000200299834651EA0B014FD0BA
:101B4000002108464FF00000039900F4400039B12D
:101B500000EB80004FF4400100EBD07001EA600020
:101B60008015012802DD4FF0FF3000E013D0401C4B
:101B700036D0029860B3BBF1000F0CD14A46012069
:101B80000021FFF72FFD28402140084301D001200C
:101B900000E00020E0B101204A460021FFF722FDCD
:101BA000034640190A4661412D1A8C4111D3B9F1FF
:101BB000400F09DD159810F0240F02D0AAF1340669
:101BC00003E0AAF1170600E0761C00254FF0004460
:101BD00006E05B1E42F1FF3220EA030521EA02041F
:101BE000CAF10100B04206DA1B490398084301908C
:101BF000002000900EE0039AC4F3D321E80A0A43C0
:101C0000164940EA44500A433146CDE9000268468D
:101C100003F03FFD159810F0240F0BD01598C00766
:101C200015D13868DDE90012031D3B600068C0E98A
:101C300000120CE002A8694603F022FD1598C007C7
:101C400005D13868029A011D39600068026040467B
:101C5000F0E6000002FCFFFF0000F07F0000F03F14
:101C60002DE9FF4F92461D4685B04FF00041DDE95A
:101C7000124BDDE914727F1E01EA4B50414940F0DE
:101C8000FF4940EA0108002122F020004928049180
:101C900002D04E2828D04CE03BA0012607C88DE892
:101CA0000700A9690698641C88477F1E014606D470
:101CB0001DF8060018B121F0200181420BD0E9691E
:101CC00006988847032E34D0082E32D06FF00100DA
:101CD00009B0BDE8F08F761C032E01D0082EE0D1AC
:101CE000601CCAF80000DCE7A9690698641C8847F4
:101CF0007F1E2AD420F02000412826D1A969069809
:101D0000641C88477F1E20D420F020004E281CD160
:101D1000A9690698641C88477F1E48F4002849F486
:101D20008009CAF8004001D4282806D0E96906983D
:101D300088475FEACB7012D022E0A9690698641C3C
:101D400088477F1E01D4002803DAE969069888478E
:101D5000BCE72928F1D1641CCAF80040E9E71BF070
:101D6000240F07D028680499031D2B600068C0E980
:101D7000001805E02868021D2A600068C0F800907D
:101D80002046A5E70000F07F494E46494E49545988
:101D90000000000010B50446AFF300802046BDE807
:101DA0001040FEF75ABA002801D000F029B8704759
:101DB00010B5012805D0002103A000F027F801206C
:101DC00010BD09A1F8E7000053494752544D454D55
:101DD0003A204F7574206F662068656170206D65CC
:101DE0006D6F7279000000003A2048656170206DC7
:101DF000656D6F727920636F7272757074656400BF
:101E000001491820ABBEFEE72600020070B505466A
:101E10000C460A2000E06D1C00F011F835B128785E
:101E20000028F8D102E0641C00F009F814B1207811
:101E30000028F8D1BDE870400A20AFF3008008B553
:101E400069468DF800000320ABBE08BD2DE9F041C6
:101E5000D1F8008000234FF0030C4FF0010E002456
:101E60000FE000BFC268AA43C260CA79C5689A4041
:101E70002A43C2600134102C03F1020308BFBDE8FD
:101E8000F08128FA04F5ED07F4D006680CFA03F5A2
:101E9000AE4306600E79076806FA03F2013E3A4344
:101EA000012E0260DED88268EE43324082604A79B9
:101EB0008E7987689A403A43826042680EFA04F746
:101EC000BA43426006FA04F2466892B23243426074
:101ED000C8E700001C2303EA810C6FF0030303EA48
:101EE000510108440F23016A03FA0CF3994301627C
:101EF000016A02FA0CF21143016270474183704794
:101F00000183704710B5C17800294EF20011CEF25E
:101F100000011CD04EF60C52CEF2000212680723CC
:101F200023EA12220F23C2F1040C23FA02FE4278A4
:101F300084785FFA8CF390F800C09A4004EA0E03AC
:101F40001A43120101EB0C0383F8002300E08031F7
:101F50000078012300F01F0203FA02F2C0F34210DE
:101F600041F8202010BD000040F080604EF60C517A
:101F700040F0FD70CEF200010860704700000000E4
:101F8000EFF30980BFF36F8F154B1A681EF0100F27
:101F900008BF20ED108A20E9F04F10602DE90900FC
:101FA0004FF0500080F31188BFF34F8FBFF36F8F56
:101FB00002F07CF94FF0000080F31188BDE80900C1
:101FC00019680868B0E8F04F1EF0100F08BFB0ECB9
:101FD000108A80F30988BFF36F8F704700BF00BF7E
:101FE000E8000020002943F63001C4F202010A682B
:101FF0000CBF22EA0000104308607047002943F636
:102000004001C4F202010A680CBF22EA000010433A
:1020100008607047002943F62001C4F202010A68F3
:102020000CBF22EA0000104308607047002943F605
:102030002401C4F202010A680CBF22EA0000104326
:102040000860704710B543F60404C4F202046268E5
:1020500002F00C0342F20042082BC0F2F40206D058
:10206000042B20D141F20022C0F27A021BE0D4F806
:1020700000C0236803F03F0E5FEA4C2341F20023C7
:10208000C0F27A0358BF13462268B3FBFEFCC2F3CA
:102090008812236802FB0CFCC3F30143022202EB0B
:1020A0004302BCFBF2F20260626845F6B463C2F31D
:1020B0000312C0F600039A5C0168D1404160626877
:1020C000C2F382229A5C21FA02F282606268C2F351
:1020D00042329A5CD140C16010BD00000000000097
:1020E000074B19680868B0E8F04F80F30988BFF320
:1020F0006F8F4FF0000080F31188704700BF00BF62
:10210000E800002080B54FF0500080F31188BFF345
:102110006F8FBFF34F8F02F04FFB30B14EF604507C
:10212000CEF200004FF080510160002080F3118852
:1021300080BD000043F60400C4F20200416801F0D3
:102140000C0242F20041082AC0F2F40106D0042A2F
:102150001DD141F20021C0F27A0118E00268036843
:10216000520241F20022C0F27A0258BF0A460168C8
:1021700003F03F03B2FBF3F2C1F38811036851434C
:10218000C3F30142022303EB4202B1FBF2F140F23E
:102190000002C2F200021160406845F6A461C0F37B
:1021A0000310C0F60001085C116821FA00F010600D
:1021B000704700004EF68850CEF20000016841F4EE
:1021C000700101604FF0006140F8801C7047000012
:1021D00080B54FF08040012100F018F8002808BFBA
:1021E00080BD4FF08040012100F002F880BD00006A
:1021F000C9430182704700000288002942F00103B0
:1022000008BF22F00103038070470000028A808922
:102210000A4018BF0122084018BF01201040704733
:1022200010B540F6FF32B0F800E0C4F2000240F210
:10223000004C9042C4F2010C0FDCB0F1804F19D079
:1022400040F20042C4F20002904213D040F6000275
:10225000C4F2000290420DD011E040F60042C4F2F8
:102260000002904206D0604504D00022C4F2010270
:10227000904204D14A882EF0700342EA030E41F2E4
:10228000004340F48062C4F200039A4204D00C89F7
:102290002EF4407344EA030EA0F800E04B68624558
:1022A000C3620B88038504BF897A0186012181827C
:1022B00010BD000010B544F20044C4F200042046F2
:1022C00040F2255100F0BAF8002808BF10BD2046A2
:1022D00000F046F9C1B20A2908D140F26410C2F2F6
:1022E000000000F023FB00F04DFA10BD40F2A411F5
:1022F000C2F200010A68531C0B6040F26411C2F282
:102300000001885410BD00008289002942F4005366
:1023100008BF22F4005383817047000080B547F264
:10232000FF71C4F20001884219DC44F6FF31C4F2A7
:10233000000188422DDC44F20041C4F200018842D1
:102340004ED044F60001C4F2000188425AD14FF445
:1023500080200121FFF75EFE4FF480205AE040F616
:10236000FF71C4F20101884227DC47F60001C4F284
:10237000000188423CD047F60041C4F20001884287
:1023800040D14FF000400121FFF744FE4FF00040E4
:1023900040E044F60041C4F20001884233D045F2E7
:1023A0000001C4F2000188422CD14FF480100121B9
:1023B000FFF730FE4FF480102CE041F20041C4F2F0
:1023C000010188422AD041F20001C4F20101884291
:1023D00018BF80BD10200121FFF728FE102022E049
:1023E0004FF400300121FFF715FE4FF4003011E0EB
:1023F0004FF080400121FFF70DFE4FF0804000219B
:10240000FFF708FE80BD4FF400200121FFF702FE18
:102410004FF400200021FFF7FDFD80BD20200121A9
:10242000FFF704FE20200021FFF700FE80BD000022
:102430000088084018BF01207047000001F01F020B
:102440004FF0010CC1F34213022B0CFA02F206D03A
:10245000012B14BF00F1140300F10C0301E000F1A3
:1024600010031B880088090A1A4020FA01F018BFDF
:102470000122104070470000C1F3421301F01F0C0D
:102480001421022B08BF1021012B4FF0010308BFBC
:102490000C21002A03FA0CF243580CBF23EA020273
:1024A0001A4342507047000070B584B00446008A59
:1024B0000D46C98820F4405008432082A0894EF67A
:1024C000F3110840A9882A896B89084310431843EF
:1024D000A081A08AA98920F4407008436E46A0829A
:1024E0003046FFF7AFFD41F2004144F48060C4F292
:1024F0000101884214BF06F1080006F10C000068D3
:102500001922B4F90C1050432A680223002948BF4D
:10251000012302FA03F1B0FBF1F048F21F51C5F2BA
:10252000EB11A0FB01235A096FF0630302FB0300C8
:10253000B4F90C300426002B48BF032600FA06F03D
:1025400000F13200A0FB01014FF00F0048BF07204F
:1025500000EA511040EA0210208104B070BD000072
:1025600080886FF35F2070476FF35F218180704731
:10257000B8B10368ABB1D0E901C2624528BF70476A
:102580008268624508D200BF995C202904D80132D4
:1025900094458260F8D16246624504BF511E816055
:1025A000704700207047000070B5002808BF70BD5C
:1025B00040F204060446C2F2000603E071682846B1
:1025C0008847CCB1607B25462468C00704D1A86841
:1025D000002818BFFFF7E8FF687BC00703D1286910
:1025E00008B171688847687B8007E7D4286A0028AB
:1025F000E4D071688847E1E770BD000080B5002233
:1026000000F0E2F880BD000010B50168282088477E
:10261000044618B120462821FEF708F9204610BDCF
:1026200080B50021002200F06FF880BD2DE9F04355
:1026300087B040F2D80840F2DC091446054600266F
:10264000C2F20008C2F2000900280696CDE904662D
:10265000CDE90266CDE90066C8F80060C9F80060FF
:1026600018BF00291CD116B13046FFF79DFF95B168
:10267000DDE9011200260029084618BF01388A4208
:1026800038BF1046002C1CBF29182160C8F8005024
:10269000C9F8000000E00026304607B0BDE8F0832E
:1026A0000020CDE90051029040F20400C2F2000087
:1026B0001F4690E80E000DF1100C8CE80E00FFF79D
:1026C000A3FFF0B10646684601F074FAFFF750FF29
:1026D0000146304600F0F8FC0028C4D057B16846E7
:1026E000FFF746FFDDE901108842BCD20099085C83
:1026F0000028B8D1002CCFD000980299084420605F
:10270000CAE70026AFE70000002804BF002070479A
:1027100070B5144606460D46FDF7D1FF411C304604
:102720002A462346FFF782FF70BD0000F0B581B056
:10273000054600284FF001001FD00F46E9B1BD4209
:102740001DD02C782046FDF767FE397806460846EE
:10275000FDF762FE86420FD1013701357CB115F8D5
:10276000014B2046FDF758FE17F8011B06460846A8
:10277000FDF752FE8642F1D0301A01B0F0BD0020C4
:1027800001B0F0BD80B540F26410C2F200004021FB
:10279000FEF74CF840F2A410C2F2000000210160E4
:1027A00080BD0000B0B544F200450446C4F2000507
:1027B00028468021FFF73CFE0028F9D0E1B22846E8
:1027C000FFF7D2FE2046B0BDB0B5F0B10C46E1B186
:1027D00085688AB195B1296A89B12046FEF750F81B
:1027E00068B12D68002DF6D108E000BF296A2046A7
:1027F000FFF79CFF18B12D68002DF7D1002525B1FA
:10280000286A002818BF2846B0BD0020B0BD0000CF
:1028100010B584B010200121FFF7F0FB002041F239
:10282000000401904FF6FF70C4F20004029001A969
:102830002046FFF7F5FC20460121FFF7DDFC04B040
:1028400010BD000080B582B008200121FFF7CAFB4F
:102850004FF47C40009040F20130019040F600407F
:10286000C4F202006946FFF7F1FA02B080BD000031
:1028700070B588B001200121FFF7B4FB4FF40030A0
:102880000121FFF7BBFB44F20044C4F2000404F54D
:10289000DE35284602210722FFF71CFB28460321CC
:1028A0000722FFF717FB0420069040F20230C0F227
:1028B000001006AE079028463146FFF7C7FA0820F9
:1028C000069040F20230ADF81C0028463146FFF772
:1028D000BDFA4FF4A060FFF747FB40F22610C0F2AC
:1028E0000010019001A8FFF70DFB204600210025F4
:1028F000FFF70AFD2046FFF711FD4FF4E130CDE967
:1029000002054FF44020049002A92046ADF814506F
:10291000FFF7CAFD204640F225510122FFF7ACFD2A
:1029200020460121FFF7F0FC08B070BD10B5FFF79D
:1029300077FE40F2E00445F6C461C2F20004C0F63E
:1029400000012060FFF75AFE90B1206845F6C4618F
:10295000C0F60001FFF752FE0069FDF7A3FE40F24A
:10296000B811C2F20001086009681EA0FDF762FDFF
:10297000206845F6CB61C0F60001FFF73FFE90B13D
:10298000206845F6CB61C0F60001FFF737FE00690D
:10299000FDF788FE40F2BC11C2F200010860096830
:1029A00018A0FDF747FD206845F6D261C0F600018A
:1029B000FFF724FE90B1206845F6D261C0F6000111
:1029C000FFF71CFE0069FDF76DFE40F2C011C2F278
:1029D00000010860096813A0FDF72CFD2068FFF7CF
:1029E000E3FD10BD5468652076616C7565206F66E7
:1029F0002074686574615F312069733A2025640A28
:102A0000000000005468652076616C7565206F6673
:102A10002074686574615F322069733A2025640A06
:102A2000000000005468652076616C7565206F6653
:102A30002074686574615F332069733A2025640AE5
:102A40000000000082B0FFF7B5FBFFF773FBFFF754
:102A5000F9FEFFF7DDFE4FF4A060FFF785FAFFF700
:102A600007FF40F2AC10C2F20000019043F6E530DF
:102A70000225C0F600002AA1C8220023009501F01B
:102A800051FE40F2A814C2F200040128206028D1AF
:102A900040F2B01C43F66940C2F2000CC0F60000E0
:102AA00021A1C82200230095CDF804C001F03AFE10
:102AB000012820601FD1022040F2B415009043F697
:102AC000ED40C2F20005C0F6000019A1C8220023A3
:102AD000019501F027FE0128206016D101F090FB3E
:102AE000FEE74FF0500080F31188BFF36F8FBFF304
:102AF0004F8F00BFFEE74FF0500080F31188BFF307
:102B00006F8FBFF34F8F00BFFEE74FF0500080F391
:102B10001188BFF36F8FBFF34F8F00BFFEE700BF79
:102B20005461736B2D3100005461736B2D320000C2
:102B30005461736B2D3300002DE9F0470C46C968D2
:102B4000CA087C2A6ED8824601312268A068E160FA
:102B5000115C5B2961D10130A0602046FFF708FDC0
:102B6000002C57D0D4E90110884253D22268125C5D
:102B70005D2A14D100264FF00009E068002EA0F174
:102B80000100E0604FF0200018BFC6F80490CAE9C9
:102B90000260A0680130A0600120BDE8F087884293
:102BA00038D2013804F1100800264FF00009A06067
:102BB0004046FFF729FDC0B105460746002E1EBF5F
:102BC000C9F80070C7F804903546A0680130A060CD
:102BD0002046FFF7CDFC3846214600F075FA30B1AB
:102BE0002046FFF7C5FC012002E0002002E00020A3
:102BF0002E46B94690B1D4E9011088420ED222681F
:102C0000125C2C2AD4D0884208D22168085C5D2846
:102C1000B3D003E0A0680138A060002616B13046AA
:102C2000FFF7C2FC0020BDE8F087000084460022C8
:102C300000200BE06FF02F0119440844032A02F131
:102C4000010238BF0001042A08BF70471CF8023097
:102C5000A3F130010A29EDD3A3F14101062903D2E2
:102C60006FF03601E8E700BFA3F16101052984BFD9
:102C7000002070476FF05601DEE700000000000002
:102C80002DE9F04391B000270029109700F07880DB
:102C9000804608680C46002800F03980D4E90121FC
:102CA000E9464318002000BF0F18974280F0328099
:102CB0001F5CA7F12B053A2D00F22C80DFE805F010
:102CC0001E2A1E252A1E1E1E1E1E1E1E1E1E1E2AF9
:102CD0002A2A2A2A2A2A2A2A2A2A1E2A2A2A2A2A60
:102CE0002A2A2A2A2A2A2A2A2A2A2A2A2A2A2A2A44
:102CF0002A2A2A2A2A2A2A2A2A2A1E0009F80070A1
:102D000001303F287FF4D0AF03E02E27F6E70027FD
:102D100036E03F20002709F8007010A9484602F06D
:102D20007BFC109881452BD09FED171B57EC105B57
:102D300053EC112B2846394688ED060B02F0A1FF13
:102D400068B99FED130B284653EC102B394602F05F
:102D50009FFF38B92846394602F0A2FD04E06FF023
:102D6000004001E04FF00040C8F814000820C8F807
:102D70000C001098A168A0EB090008440127A0608E
:102D8000384611B0BDE8F0830000C0FFFFFFDF410F
:102D9000000000000000E0C12DE9F04F81B00C46BA
:102DA000C968CA087C2A00F297800546481C002C96
:102DB000E06000F08C80D4E90110884280F08780C8
:102DC0002168095C7B2940F082800130A0602046A8
:102DD000FFF7CEFBD4E90110884219D22268125CB9
:102DE0007D2A18D100274FF00009E068002FA0F1DC
:102DF0000100E0604FF0400018BFC7F80490C5E93B
:102E00000270A0680130A060012001B0BDE8F08F21
:102E10000138A0605BE0421E8842A26057D204F1F4
:102E2000100800274FF000094046FFF7EDFBA0B364
:102E300082460646002F1EBFC9F80060C6F80490FF
:102E4000BA46A0680130A0602046FFF791FB3046EB
:102E5000214600F045F84FF0000B18B32046FFF76D
:102E600087FBD4E90120316990423162C6F810B085
:102E700018D22168095C3A2912D10130A06020469D
:102E8000FFF776FB3046214600F01EF940B12046A0
:102E9000FFF76EFB4FF0010B04E04FF0000B03E077
:102EA0004FF0000B5746B146BBF1000F10D0D4E9EC
:102EB000011088420CD22268125C2C2AB4D08842BD
:102EC00006D22168085C7D283FF48FAF00E0002720
:102ED00017B13846FFF768FB002001B0BDE8F08F5E
:102EE0002DE9F04F81B0D1F800C08A6886460CEB1E
:102EF0000206B04618F8010B89464FF0000B222855
:102F0000CDF800B040F0C080D9E90032A8EB030052
:102F1000904217D201270020454608E0222C14D009
:102F20000137D9E90032F519E91A91420DD2F45D61
:102F30005C2CF3D17C1C3119C91A91421AD2013090
:102F40002746EDE7002001274546A5EB0C019142FD
:102F500010D2F15D22290DD1AA1BD9F81010101A38
:102F6000013074468847A6468346002818BF0120D2
:102F700030B989E04FF0000B0020002800F0848079
:102F8000022FCDF800B0C0F28C8006EB070A4FF09C
:102F9000080C0C240A260D2709E000BF009908F14F
:102FA000010801F8010B0091D04580F07A8098F873
:102FB00000005C28F2D1A5EB08000128C0F2608077
:102FC00098F801100020A1F12202532A00F2468055
:102FD000DFE802F02A444444444444444444444422
:102FE000442A4444444444444444444444444444BB
:102FF0004444444444444444444444444444444491
:1030000044444444444444444444444444442A449A
:10301000444444442C44444430444444444444449C
:103020003444444438443C48009811E0009800F887
:1030300001CB0FE0009800F8014B0BE0009800F87E
:10304000016B07E0009800F8017B03E0009809217C
:1030500000F8011B009002208044012000287FF42A
:10306000A3AF11E0404651466A46774600F080FE25
:103070000A260C244FF0080CBE460D270028EBD181
:10308000002000287FF490AFBBF1000F03D0D9F8E7
:10309000141058468847D9F80000A8EB000100201A
:1030A0000CE00098002101701020CEF80C00D9F837
:1030B0000000CEF810B0281A411C0120C9F80810F1
:1030C00001B0BDE8F08F00002DE9F04700297AD06B
:1030D0000E680C46002E76D0D4E901A7804607F191
:1030E0000409D14509D845F6E461F019C0F600019C
:1030F00004220425FDF702FBE8B37D1D554508D8E1
:1031000045F6D961F019C0F600010522FDF7F6FA7F
:10311000C0B3D14508D845F6DF61F019C0F600010B
:103120000422FDF7EBFAC8B3574524BF0020BDE8E1
:10313000F087F05D222805D140462146FFF7D0FEFA
:10314000BDE8F087574524BF0020BDE8F087F05D5B
:103150002D281DD0303809281AD9574524BF002002
:10316000BDE8F087F05D5B2822D140462146FFF79D
:10317000E3FCBDE8F0870120C8F80C50C4F80890C3
:10318000BDE8F0870120C8F80C00A560BDE8F08715
:1031900040462146FFF774FDBDE8F0870220C8F8DD
:1031A0000C000120C8F81400C4F80890BDE8F087AE
:1031B000574508D2F05D7B2805D140462146FFF7F0
:1031C000EBFDBDE8F0870020BDE8F087F0B581B0E9
:1031D0000D4649F2DC2140F2E806C2F20101C2F2DA
:1031E00000060F6831680446081D00F03FFE10B16C
:1031F000601C0FD027E0306849F2DC12C06AC2F2CE
:1032000001020121136801FA00F023EA00001060B6
:10321000601C18D1BDB149F2B420C2F2010041686E
:10322000326891608A683368DA6032688B68043289
:103230005A60326804328A6031684861016801313D
:10324000016001B0F0BD3068E41944600AD340F277
:10325000F800C2F2000000683168043100F02AFE74
:1032600001B0F0BD40F2F000C2F200000068316829
:10327000043100F01FFE49F24020C2F20100016853
:103280008C4238BF046001B0F0BD00002DE9F04170
:10329000044600F037FE49F2CC10C2F2010001688A
:1032A00040F2E80501310160C2F20005296849F2E7
:1032B000A828C2F2010849B1D8F8000060B928680E
:1032C000E16AC06A884298BF2C6005E02C60006803
:1032D000012801D100F06EF949F2D810C2F20100C4
:1032E000016849F2DC12013101602164E06AC2F236
:1032F00001020121136881401943116040F200115D
:1033000000EB8000C2F2000101EB80025368271D30
:103310009E68A360E6609E689F607760626151F876
:103320002020013241F8202000F010FED8F80000E3
:10333000002818BF2868BDE8F081000070B500F0D3
:10334000E1FD49F2E026C2F20106306810B100F05A
:10335000FDFD70BD49F2E014C2F20104204600F008
:1033600099FD49F2F415C2F20105284600F092FDDC
:1033700040F2EC00C2F20000046040F2FC00C2F235
:10338000000005600A200C21002201F05FF80028EF
:103390003060DCD002A100F051FE00F0D7FD70BD1E
:1033A000546D725100000000F0B581B049F2D015A3
:1033B000C2F201052868E0B149F2C82649F2CC17EB
:1033C000C2F20106C2F2010700F09CFDF068C46879
:1033D000201D00F04BFD386801383860286801383E
:1033E000286000F0B3FD204600F01AF82868002895
:1033F000EAD101B0F0BD000080B5026C002A08BF20
:1034000080BDD0E902C31344C360634524BF036891
:10341000C360C36808461946FDF7BBF980BD0000CC
:1034200010B50446006B00F0A9FD204600F0A6FD93
:1034300010BD000040F2EC01C2F2000109680A6808
:10344000B2FA82F35B090360002A0EBF0020C8684D
:103450000068704740F2C410C2F20000C21D22F0A2
:10346000070210F0070CA0EB020318BF104649F248
:10347000AC22C2F201020021C2E900014FF4C832BD
:10348000BCF1000F18BF03F5C8320244083A40F2FD
:10349000F40322F00702C2F200031A60C2E900112D
:1034A000111A1A68C0E9002149F23C20C2F2010059
:1034B000016049F23420C2F20100016049F20820A3
:1034C000C2F2010001210170704700004EF6045461
:1034D000CEF200044FF08055FFF766FF2560BFF382
:1034E0004F8FBFF36F8FF7E7B0B5049D002914BF6E
:1034F0002A602D60C5E90F01284601211C4600F015
:10350000CFFF85F84C40B0BD2DE9F0470A9C8146BD
:10351000206B16460F46089D9100A5229846FDF7A0
:103520007DF9206BCFB104F134010022BB5C8B54D8
:10353000BB5C1BB1092A02F10102F7D3002184F818
:103540003D10052D0ED34FF0500080F31188BFF3CE
:103550006F8FBFF34F8F00BFFEE7002184F8341058
:10356000052DF0D200EB8600043820F00706DDF8C8
:1035700024A00027201DE562C4E9125700F096FC44
:1035800004F1180000F092FCC5F10500A06130467E
:103590004946424624616462276584F8547000F00D
:1035A000F5FABAF1000F206018BFCAF80040BDE874
:1035B000F0870000B0B540F200150024C2F200050B
:1035C000281900F067FC1434642CF9D149F20C245A
:1035D000C2F20104204600F05DFC49F22025C2F24F
:1035E0000105284600F056FC49F25420C2F20100C1
:1035F00000F050FC49F2C820C2F2010000F04AFC81
:1036000049F2B420C2F2010000F044FC40F2F000A4
:10361000C2F20000046040F2F800C2F2000005604F
:10362000B0BD000080B549F2AC22C2F2010200BF79
:10363000114612688242FBD3D1F804C001EB0C039F
:10364000834203D14068604448600846D0F804E0F3
:1036500000EB0E03934201D0026010E040F2F4034D
:10366000C2F20003D3F800C0624506D00B6852686E
:103670001B687244C0E9003201E0C0F800C081421A
:1036800018BF086080BD000080B58C46014641F837
:1036900004CF9445006108D99A4201D29C4511D2C9
:1036A00040F2EC00C2F2000007E08069D21A8242C8
:1036B00008D240F2FC00C2F20000006800F0FAFB01
:1036C000002080BD012080BD10B5044600F01AFC2A
:1036D000A06BB0FA80F0440900F038FC204610BD21
:1036E00008480068006880F308884FF0000080F305
:1036F000148862B661B6BFF34F8FBFF36F8F00DFE0
:1037000000BF00BF08ED00E070B540F2EC02C2F26D
:10371000000212680646D2680D46D468201D00F0EB
:10372000A5FB94F82800410704D400F0FE0084F8BB
:10373000280004E0204631462A4600F0C5F8216AF8
:103740002046884770BD00002DE9F04184B049F261
:10375000E024C2F20104206801A9002200F0E8FE82
:10376000002863D0E84601AD0DE000F0FE0086F8C9
:103770002800316A3046884720682946002200F038
:10378000D7FE002852D001980028F5D4039E706916
:1037900010B1301D00F06AFB404600F0C7F80199F7
:1037A00001390829E8D80746DFE801F0050520239C
:1037B00033050520230096F82800029BB16940F0EC
:1037C000010086F82800194430463A46FFF75CFFAE
:1037D0000028D1D096F828004107C6D50298B169D3
:1037E0003A460144304600F06FF8C2E796F82800E8
:1037F00017E096F8280040F00101029886F828109A
:10380000B061B0B1C11930463A463B46FFF73CFFC4
:10381000B2E796F82800810703D4304600F0AEFBEB
:10382000AAE700F0FE0086F82800A5E704B0BDE88E
:10383000F0814FF0500080F31188BFF36F8FBFF31A
:103840004F8F00BFFEE7000070B582B00E46044601
:1038500000F024FD01A800F069F8019919B101F008
:10386000D9F802B070BD05464EB9A54207D301F0A4
:10387000D1F820462946FFF747FF02B070BD4EB190
:1038800040F2FC00C2F2000000680068B0FA80F06C
:10389000420900E0002249F2E020C2F20100006883
:1038A000611B00F0FBFB01F0B5F80028D9D14EF602
:1038B0000450CEF200004FF080510160BFF34F8FF3
:1038C000BFF36F8F02B070BD70B5054680690E46BC
:1038D0000144284633461446FFF7D6FE002808BFA9
:1038E00070BD00BFA869296A064428468847A869B0
:1038F0002246811928463346FFF7C6FE0028F1D13B
:1039000070BD000040F2F000C2F2000001680968DA
:1039100019B10068C068006801E04FF0FF3049F25B
:103920004021C2F2010108607047000070B50446F2
:1039300000F03CFF40F2E406C2F2000631680546A2
:10394000884203D200F008F8012000E00020206047
:103950002846356070BD000010B540F2EC04C2F29C
:1039600000042068016849B1C0684FF0FF31006869
:10397000FFF7CAFE206801680029F5D140F2FC017A
:10398000C2F200010A680860226010BD81B0002008
:10399000009040F21000C2F2000000684FF05001A9
:1039A00081F31188BFF36F8FBFF34F8F013001D0C8
:1039B000FEE700BF00980028FCD001B0704700006F
:1039C00082B001AC2046FFF735FD0199FFF73CFFBF
:1039D000FFF7BAFEF6E70000F0B581B0044600F04C
:1039E00091FA94F94560012E0FDB04F1240500BF24
:1039F000286850B1284600F091FF002818BF00F059
:103A0000A5FB70B2013E0128F2DCFF2684F8456078
:103A100000F09CFA00F076FA94F94470012F0EDB66
:103A200004F11005286850B1284600F077FF0028FF
:103A300018BF00F08BFB78B2013F0128F2DC84F85C
:103A4000446000F083FA01B0F0BD00002DE9F047BA
:103A5000044600F023FC40F2F40AC2F2000ADAF84D
:103A60000000002808BFFFF7F5FC49F20820C2F269
:103A700001000578002D18BF4FF00045254254D1B4
:103A8000BCB114F1090F14D804F1080111F00700BA
:103A900010D0081A083088420BD9410700F0748012
:103AA0004FF0500080F31188BFF36F8FBFF34F8F3B
:103AB000FEE7002149F23428C2F20108D8F800904C
:103AC000481E484531D249F2AC20C2F201000668D6
:103AD000374657F8042F8A4211D2306858B100BFD8
:103AE00030463668374657F8042F8A4207D2336883
:103AF000002BF5D103E049F2AC20C2F20100DAF864
:103B000000309E4211D004683368521A112A0360B3
:103B100020D37018430719D04FF0500080F311885C
:103B2000BFF36F8FBFF34F8FFEE7002400F072FFEB
:103B3000600708D04FF0500080F31188BFF36F8FFB
:103B4000BFF34F8FFEE72046BDE8F0874260396043
:103B5000FFF768FD49F23C213868C2F201010B68A9
:103B6000A9EB00029A42C8F8002038BF0A60002181
:103B7000316049F24821C2F201010A682843083441
:103B80003860501C0860D1E7014693E7034643F6CE
:103B90008D10C0F600004FF0807C21F0010103E998
:103BA00003106FF0020043F8240CA3F1440043F823
:103BB000202C7047B0B520B10446006808B1A56854
:103BC0000DB10020B0BD6168052907D304A103220F
:103BD000FCF794FD002804BFE81CA0602046B0BD9F
:103BE000EFBBBF0040F6004440F2CC0540F2B816EF
:103BF0004EF60458C4F20204C2F20005C2F20006F6
:103C0000CEF200084FF0805720E000BF20464FF46E
:103C10008061FEF775F94FF0FF302968084428608D
:103C200020464FF40061FEF76BF9012000F058FACE
:103C300020464FF40061FEF761F9012000F050FAD0
:103C4000C8F80070BFF34F8FBFF36F8F28683168DB
:103C50008842DBDC31688842F2DA20464FF480612A
:103C6000FEF74CF90120D8E740F6004440F2D005B9
:103C700040F2BC164EF60458C4F20204C2F200052B
:103C8000C2F20006CEF200084FF0805720E000BFDD
:103C900020464FF48051FEF733F94FF0FF3029688A
:103CA0000844286020464FF40051FEF729F901200E
:103CB00000F016FA20464FF40051FEF71FF90120DC
:103CC00000F00EFAC8F80070BFF34F8FBFF36F8F8C
:103CD000286831688842DBDC31688842F2DA2046A5
:103CE0004FF48051FEF70AF90120D8E740F600446E
:103CF00040F2D40540F2C0164EF60458C4F2020455
:103D0000C2F20005C2F20006CEF200084FF0805762
:103D100020E000BF20464FF48041FEF7F1F84FF05D
:103D2000FF3029680844286020464FF40041FEF720
:103D3000E7F8012000F0D4F920464FF40041FEF7E7
:103D4000DDF8012000F0CCF9C8F80070BFF34F8F08
:103D5000BFF36F8F286831688842DBDC31688842A6
:103D6000F2DA20464FF48041FEF7C8F80120D8E788
:103D7000F0B581B00646081A062874DBB01C0F4661
:103D80001446FEF753FF054640F2FF3025EA0000D7
:103D9000B0F55C4F67D0B0F5584F21D1B01D391A3E
:103DA000062926DB00785C2823D1F079752820D1FC
:103DB00006F10800FEF73AFF40F2FF3120EA010168
:103DC000B1F55C4F15D14FF60041C0F20F0101EA89
:103DD00085216FF39F20084400F5803501200AE01B
:103DE0000620802D0BD24FF0000C0122531E17D15C
:103DF0002BE000250020B0B30C20802DF3D3B5F5C7
:103E0000006F05D24FF0C00C0222531E08D11CE0F7
:103E1000B5F5803F11D24FF0E00C0322531E14D0B1
:103E2000DFB202262168AB0966F39F15CD55F9B2C2
:103E3000013F01291D46F5D108E0290C102912D8AF
:103E40004FF0F00C0422531EEAD12B46276803F0F2
:103E50007F01012A88BF43EA0C01397021681144AF
:103E6000216001B0F0BD002001B0F0BDD0E9012318
:103E7000016993604B68D0F808C08342CCF80420F5
:103E800001D182684A600022026108680138086036
:103E9000086870474FF0FF31024642F8081F0021C2
:103EA0004260C0E903220160704700000021016107
:103EB0007047000080B5D1F800C01CF1010207D0A6
:103EC00000F108039E465B681A686245FAD901E072
:103ED000D0F810E0DEF8042008614A609160C1F873
:103EE00008E0CEF8041001680131016080BD0000D7
:103EF000DFF80C00016841F470010160704700BFF9
:103F000088ED00E04FF0500080F31188BFF36F8F11
:103F1000BFF34F8F40F21000C2F2000001684A1C4C
:103F2000026001B170474EF60450CEF20000006806
:103F3000000608BF70474FF0500080F31188BFF3B0
:103F40006F8FBFF34F8F00BFFEE7000040F21000FD
:103F5000C2F20000016839B10139016018BF704731
:103F6000002080F3118870474FF0500080F31188D3
:103F7000BFF36F8FBFF34F8FFEE70000B0B500288F
:103F800008BFB0BD044649F20820C2F20100007823
:103F900054F8041C002818BF4FF0004008420CD011
:103FA000A4F108052A6892B14FF0500080F31188FF
:103FB000BFF36F8FBFF34F8FFEE74FF0500080F3DA
:103FC0001188BFF36F8FBFF34F8F00BFFEE721EA69
:103FD000000044F8040C00F061F949F23421C2F207
:103FE000010154F8040C0A68104408602846FFF7E1
:103FF00019FB49F24C20C2F2010001680131016055
:1040000000F008FDB0BD00004EF21000CEF200003E
:1040100000210160816040F20001C2F200010968E4
:1040200044F6D352C1F26202A1FB02124FF0FF31FB
:1040300001EB92114160072101607047B0B5D0B12A
:104040004FF0000C09B349F2682EC2F2010E0022B3
:10405000002302E00832402A1AD00EEB0204656801
:10406000854214D0002BF5D15EF80230002B18BF2A
:1040700064462346EEE74FF0500080F31188BFF30B
:104080006F8FBFF34F8F00BFFEE7002300E0234692
:10409000002B18BFC3E90010B0BD000070B5154675
:1040A0000E460446FFF72EFF94F84400FF2804BF95
:1040B000002084F8440094F84500FF2804BF002045
:1040C00084F84500FFF742FFA06B28B904F12400F3
:1040D00031462A4600F05CF82046FFF77DFC70BDB3
:1040E00010B5C0B1044649F2D410C2F20100006814
:1040F00048B14FF0500080F31188BFF36F8FBFF3CA
:104100004F8F00BFFEE700F0C9F820460021FFF7FF
:104110005DF800F07FFC4EF60450CEF200004FF048
:1041200080510160BFF34F8FBFF36F8F10BD000050
:1041300049F24421C2F201010968016049F2DC211F
:10414000C2F20101096841607047000049F2E820AD
:10415000C2F20100012101607047000010B568B192
:104160000C4640F2E801C2F2000109681831FFF77D
:10417000A1FE20460121FFF729F810BD4FF05000A5
:1041800080F31188BFF36F8FBFF34F8FFEE70000FE
:1041900010B558B340F2E80CC2F2000CD0F804E0BD
:1041A000DCF80030002AC3F81CE0DEF80830DCF848
:1041B00000402362DCF80030DEF8084003F1180309
:1041C0006360DCF8003003F11803CEF80830DCF847
:1041D00000309862036803F10103036018BF4FF0D9
:1041E000FF3108461146FEF7F1FF10BD4FF05000B9
:1041F00080F31188BFF36F8FBFF34F8FFEE700008E
:1042000080B582B0002049F2382C009043F2CD40B6
:10421000C2F2010CC0F600001EA182220023CDF8DC
:1042200004C000F07FFA012808BF00F095FC411C93
:1042300025D001281CD14FF0500080F31188BFF326
:104240006F8FBFF34F8F49F24020C2F201004FF051
:10425000FF31016049F2A820C2F201000121016092
:1042600049F2DC20C2F201000021016000F062F896
:1042700045F6EC60C0F60000006802B080BD4FF06B
:10428000500080F31188BFF36F8FBFF34F8F00BFD3
:10429000FEE700BF49444C450000000049F2D4103D
:1042A000C2F20100016801310160704749F2D41087
:1042B000C2F20100006830B149F2E820C2F2010008
:1042C00001210160704749F2E820C2F2010000219B
:1042D000016049F2DC10C2F201000068B0FA80F01F
:1042E000C0B2C0F11F0040F2001100EB8000C2F22A
:1042F000000151F8202092B101EB800050F8041F1A
:104300004968021D9142016001D14968016000685D
:1043100040F2E801C068C2F20001086070474FF047
:10432000500080F31188BFF36F8FBFF34F8F00BF32
:10433000FEE7000080B582B04EF20040CEF20000F1
:104340004CF27021C4F20F11D0F800294B1C9A4294
:1043500009D14FF0500080F31188BFF36F8FBFF386
:104360004F8F00BFFEE7D0F800298A4209D14FF0F5
:10437000500080F31188BFF36F8FBFF34F8F00BFE2
:10438000FEE7017849F2C4120191FF210170017822
:10439000C2F201028DF803109DF8031001F05001E4
:1043A000117049F2C811C2F2010107220A609DF999
:1043B0000330B3F1FF3F2FDD032A3CD14FF4E0631C
:1043C00003EA02220A6001990170D0F8201941F431
:1043D0007001C0F82019D0F8201941F07041C0F8E0
:1043E0002019FFF711FE40F21000C2F20000002178
:1043F0000160FFF77DFD4EF63470CEF200000168DB
:1044000041F040410160FFF76BF9FFF74FFFFFF705
:10441000BDFA002002B080BD072200BF9DF8033026
:10442000013A5B008DF803309DF90330002BF5D481
:104430000A60032AC2D04FF0500080F31188BFF306
:104440006F8FBFF34F8F00BFFEE70000F0B581B064
:10445000C0B105460E46A0FB010199B906FB05F067
:1044600010F1510F0ED850301446FFF7EFFA90B10B
:10447000074600F150022846314623460097FFF7D1
:1044800033F809E04FF0500080F31188BFF36F8FCD
:10449000BFF34F8FFEE70027384601B0F0BD0000A4
:1044A00070B528B30446C06B58B30D46216C002686
:1044B000A0FB010171BBFFF725FD2068D4E90F12B5
:1044C000A66302FB0103013901FB0201C4E90103F8
:1044D000FF20E16084F8440084F8450004F11000F6
:1044E0008DB1FFF7D7FC04F12400FFF7D3FC0EE0F9
:1044F0004FF0500080F31188BFF36F8FBFF34F8FE1
:10450000FEE7002606E0016809B100F007FAFFF7B0
:104510001DFD0126002E1CBF304670BD4FF050001F
:1045200080F31188BFF36F8FBFF34F8FFEE700005A
:104530002DE9F04F85B0049298B10C46054600294C
:1045400000F0978000F01EF9A8B9049898B14FF0D8
:10455000500080F31188BFF36F8FBFF34F8F00BF00
:10456000FEE74FF0500080F31188BFF36F8FBFF369
:104570004F8F00BFFEE705F124000090002005F1F9
:1045800010094FF0000B02AF0DF1100A019009E085
:104590002846FFF721FA00F03DFA2846FFF794F885
:1045A000002874D1FFF7AEFCD5F83880B8F1000FC1
:1045B00012D028462146FEF71FFFA8F10100A8638C
:1045C000286910B1484600F0A9F9FFF7BFFC0020A8
:1045D000012698B95CE000BF049848B1019820B961
:1045E0003846FFF7A5FD01200190012030B94FE0CA
:1045F000FFF7ACFC00260020002849D0FFF7A6FCFE
:10460000FFF74CFEFFF77EFC95F84400FF2808BF3B
:1046100085F844B095F84500FF2808BF85F845B0F7
:10462000FFF794FC3846514600F036F80028AFD129
:104630002846FFF749F8B0B104990098FFF78EFDBE
:104640002846FFF7C9F900F0E5F90028AAD14EF68F
:104650000450CEF200004FF080510160BFF34F8F45
:10466000BFF36F8F9EE72846FFF7B6F900F0D2F947
:1046700098E7286C00283FF465AF4FF0500080F3B6
:104680001188BFF36F8FBFF34F8F00BFFEE7002687
:10469000304605B0BDE8F08FB0B5E0B10C4621B3AF
:1046A0000546FFF72FFC49F2DC20C2F20100016849
:1046B0002068421C23D049F244236A68C2F20103F5
:1046C000D3F800C091421CD32B689C4519D0002020
:1046D0002060012422E04FF0500080F31188BFF3E6
:1046E0006F8FBFF34F8F00BFFEE74FF0500080F396
:1046F0001188BFF36F8FBFF34F8F00BFFEE7002419
:104700000CE0891A884206D9401A20602846FFF733
:104710000FFD002402E0002020600124FFF716FCBA
:104720002046B0BD2DE9F04383B00746900098467F
:1047300015468946FFF78AF978B106465820FFF7F3
:1047400085F938B10446066354B94FF0FF3003B021
:10475000BDE8F0833046FFF711FC0024002CF4D0B4
:10476000DDE90A102A46CDE900103846494643469D
:104770000294FEF7C9FE2046FEF788FD012003B033
:10478000BDE8F08349F2A820C2F2010000680028C9
:1047900004BF0120704749F2D410C2F20100006842
:1047A000B0FA80F0400940007047000049F2DC2078
:1047B000C2F20100006870472DE9F04F81B049F264
:1047C000D410C2F20100006850B149F25020C2F288
:1047D0000100016801310160002001B0BDE8F08FE7
:1047E00049F2DC20C2F20100016811F1010BC0F8AE
:1047F00000B021D340F2F000C2F200000168096865
:1048000049B14FF0500080F31188BFF36F8FBFF3B1
:104810004F8F00BFFEE740F2F802C2F200020168CB
:104820001368036049F244201160C2F2010001687C
:1048300001310160FFF766F849F2402CC2F2010C29
:10484000DCF800008345C7D340F2F00AC2F2000A48
:10485000DAF800000068002857D049F2DC1940F26D
:1048600000134FF000084FF0010EC2F20109C2F22E
:10487000000321E0C5F82880386801383860E86A0C
:10488000D9F800100EFA00F2114300EB8000C9F8CD
:10489000001003EB80014A6869619468AA60EC60CB
:1048A00094689660666053F82010013143F8201038
:1048B000DAF80000006840B3DAF80050ED68ED68FF
:1048C0002E4656F8047FBB4524D3D5E902206F69F4
:1048D00090607868E968B0424A6001D1E868786021
:1048E000C5F81480386801383860AF6A002FC6D028
:1048F000D5E9070105F11802816079682C6A9142B7
:104900006060B7D1286A7860B4E74FF0FF30CCF828
:10491000000061E7CCF800705EE7000010B5C068E9
:10492000C06840B3D0E90731826A9960516800F1EC
:10493000180CD0F820E06145CEF8043001D1016AAE
:1049400051600021816211680139116049F2D4116E
:10495000C2F201010968C1B149F25422C2F2010256
:10496000516882628B68C16103628B68C1F808C0BC
:10497000C3F804C039E04FF0500080F31188BFF352
:104980006F8FBFF34F8F00BFFEE7D0E9023142695E
:104990009960516800F1040CD0F80CE06145CEF844
:1049A000043001D1C1685160116849F2DC14013949
:1049B0001160C16AC2F201044FF0010E22680EFAC2
:1049C00001F31A43226040F2001201EB8101C2F2AE
:1049D000000202EB8102516842618B688160C36012
:1049E0008B68C1F808C0C3F804C0116801311160B8
:1049F00040F2E801C2F20001C06A0968C96A88424F
:104A000091BF002049F2E821C2F20101012088BFD4
:104A1000086010BD2DE9F04F81B049F2D414C2F204
:104A200001042068002875D0FFF76CFA206801386F
:104A300020602068002840F0898049F2CC10C2F242
:104A400001000068002800F0818049F2542AC2F277
:104A5000010ADAF8001049F2E8280029C2F2010838
:104A600065D049F2DC1B40F2001440F2E80E4FF032
:104A7000000C4FF00109C2F2010BC2F20004C2F2B5
:104A8000000E25E0086801380860F06ADBF80010C5
:104A900009FA00F21143CBF8001000EB800104EB9F
:104AA000810255687261AB68B560F360AB68AF6056
:104AB0005F6054F82120013244F82120DEF8001014
:104AC000C96A884228BFC8F80090DAF8000050B3DD
:104AD000DAF80C10CE68D6E90752B76AAA607A688D
:104AE00006F11801306A8A42456001D1306A786067
:104AF000C6F828C0386801383860D6E90202716902
:104B000082604A68371DF568BA426860BAD1F068B9
:104B10004860B7E74FF0500080F31188BFF36F8F04
:104B2000BFF34F8FFEE7002E18BFFEF7EBFE49F2F2
:104B30005024C2F20104256835B100BFFFF73CFEE6
:104B4000013DFBD100202060D8F80000FFF7FEF9FE
:104B5000002001B0BDE8F08F80B582B0FEF7EEFB1B
:104B600049F2E020C2F20100006890B1022049F24F
:104B7000E42C009043F6C110C2F2010CC0F6000014
:104B80000BA14FF482720023CDF804C0FFF7CAFDD9
:104B900000E0002000281CBF02B080BD4FF0500094
:104BA00080F31188BFF36F8FBFF34F8FFEE700BF15
:104BB000546D7220537663005FEA400C08BF91F099
:104BC000000F4FEA8C234FEAC12243EA51514FEACA
:104BD0001C5018BF00F5F0404FEA300018BF41F0FC
:104BE00000415FEA6C5C00F02980BCF1FF3F08BF28
:104BF00040F080407047130C06BF12044FF0100CB9
:104C00004FF0000C130E04BF12020CF1080C130F2E
:104C100004BF12010CF1040C930F04BF92000CF1BD
:104C2000020CD30F04BF52000CF1010C11464FF0DF
:104C30000002A0F11F00A0EB0C00704711F0004F24
:104C400008BF704731F000413FF4D5AF0B0C06BFF1
:104C500009044FF0100C4FF0000C0B0E04BF0902BA
:104C60000CF1080C0B0F04BF09010CF1040C8B0FA5
:104C700004BF89000CF1020CCB0F04BF49000CF1FA
:104C8000010CCCF1200322FA03F341EA030102FAFA
:104C90000CF2A0EB0C0000F10100704723F07F47FD
:104CA00020F07F4C80EA030000F00040ACEB0703EB
:104CB00003F57C5303F1FF032DE9804909B44FEA62
:104CC000144324EA03484FEA154B25EA0B4E0FF232
:104CD000042606EB13273E7803FB0667C7F500079B
:104CE00007FB06F64FEAD64606F102064FEA5437AE
:104CF00007FB066CCCF1005C4FEA1C472CEA074C22
:104D00000CFB06F507FB06F404EB15464FEA961676
:104D100049085FEA320234BF00204FF000404FEAFA
:104D2000D13706FB07FC4FEA1C4C0CFB0BF7D21BE0
:104D300003FB0CF761EB07010CFB0EF7B0EB074030
:104D400072EB17420CFB08F734BFA2EB0742B2EB41
:104D5000074261EB17414FEA0C444FEA910706FB0B
:104D600007FC4FEA1C4C0CFB0BF7B0EBC74072EB97
:104D7000573203FB0CF734BFA2EBC742B2EBC7427A
:104D800061EB57310CFB0EF7B0EBC70072EB5772BB
:104D90000CFB08F734BFA2EBC702B2EBC70261EB12
:104DA00057714FEA816141EA92114FEA826242EA09
:104DB00090124FEA806004EBCC04039F4FEAD13796
:104DC00006FB07FC4FEA1C4C0CFB0BF7D21B03FB4A
:104DD0000CF761EB07010CFB0EF7B0EB074072EB31
:104DE00017420CFB08F734BFA2EB0742B2EB0742B5
:104DF00061EB17414FEA8C5504EB9C244FEA910775
:104E000006FB07FC4FEA1C4C0CFB0BF7B0EBC74052
:104E100072EB573203FB0CF734BFA2EBC742B2EB85
:104E2000C74261EB57310CFB0EF7B0EBC70072EBDA
:104E300057720CFB08F734BFA2EBC702B2EBC702F4
:104E400061EB57714FEA816141EA92114FEA826248
:104E500042EA90124FEA806015EB4C2544F10004C1
:104E60004FEAD13706FB07FC4FEA1C4C0CFB0BF753
:104E7000D21B03FB0CF761EB07010CFB0EF7B0EB49
:104E8000074072EB17420CFB08F734BFA2EB074256
:104E9000B2EB074261EB17414FEA813141EA92419F
:104EA0004FEA823242EA90424FEA80304FEA0C7673
:104EB00015EB1C1544F1000448EA03434EEA0B4885
:104EC0004FF0000EB2EB080C71EB030724BF6246F3
:104ED00039464EEB0E0E4FF0000B0018524149417F
:104EE0004BEB0B0BB2EB080C71EB03077BF1000BE8
:104EF00024BF624639464EEB0E0E4FF0000B0018F1
:104F0000524149414BEB0B0BB2EB080C71EB030721
:104F10007BF1000B24BF624639464EEB0E0E51EA80
:104F2000020718BF46F0010616EB0E7655F1000297
:104F300054F1000103D5BDE88901BDE80088BDE852
:104F40008901BDE80048B619524141EB0101A3F1C6
:104F50000103704780807F7E7D7C7B7A79787776CD
:104F600076757473727171706F6E6E6D6C6C6B6A46
:104F70006A696868676666656464636362616160E4
:104F8000605F5F5E5E5D5D5C5C5B5B5A5A59595861
:104F900058575756565555555454535352525251CB
:104FA000515050504F4F4F4E4E4D4D4D4C4C4C4B21
:104FB0004B4B4A4A4A494949484848474747474668
:104FC00046464545454444444443434343424242A4
:104FD0004241414110B546EA06464FEA164646EAC6
:104FE00042564FEAD22242EA41524FEAD121A3F57A
:104FF0007053A3F1010300F02FF820F0004000F0FF
:10500000004700F1020CBCF5006F01EB00501146A7
:1050100040EA070000D210BDBAF1000F0AD01CB55B
:1050200003B44FF004004FF004014FF000000FBC38
:10503000BDE810404FF00001BBF1010FB9BF0448BB
:105040004FF0FF310348002140EA070010BD00BFC8
:10505000FFFFEF7F0000F07F9C46002B30D47700ED
:105060002BD04FEA37071CB503B44FF010004FF0B8
:105070001001BAF1000F06D0BCF1000FDCBF40F008
:10508000080040F008014FF000000FBCBDE81040E0
:105090000BF1010BBBF1010F08BF5FEA170722BF3D
:1050A00012F1010211F101014FF0004143F100033F
:1050B00000F0004043EA00007047F9D35708D0E7FA
:1050C00046EA06464FEA164613F1400F1FDD13F17C
:1050D000200FDFBF16430A46002120335B42BED0BB
:1050E000C3F1200746EA06464FEA164602FA07F7DA
:1050F00046EA070622FA03F2C3F1200701FA07F78E
:1051000042EA070221FA03F14FF00003A7E746EA5B
:10511000020646EA06464FEA164646EA0106BCBFC4
:1051200046EA0646360C4FF000034FF000024FF0FF
:10513000000194E72DE9804C70B49A46934691E8BB
:10514000380007C831EA400C48BF34EA430C03D5A5
:10515000FFF7A4FDFFF780FFF0BCBDE8008C2DE950
:10516000804C70B49A46934691E8380007C831EAFB
:10517000400C48BF34EA430C03D5FFF78FFDFFF71F
:1051800029FFF0BCBDE8008C2DE9804C70B49A4634
:10519000934691E8380007C810F0804F08BF13F01D
:1051A000804F03D100F01AF8FFF756FFF0BCBDE8BE
:1051B000008C2DE9804C70B49A46934691E83800F3
:1051C00007C810F0804F08BF13F0804F03D100F0E4
:1051D00005F8FFF7FFFEF0BCBDE8008C20F07F472C
:1051E00023F07F4C80EA030000F0004007EB0C0343
:1051F000A3F57C53A3F1FE0392F0000F00F0B380FF
:1052000095F0000F00F077802DE901494FEA114039
:1052100021EA00484FEA144624EA064700FB06FC50
:1052200008FB06F607FB08F818EB06484CEB164C93
:1052300000FB07F718EB07484CEB17404FEA124BFF
:1052400022EA0B4E4FEA154625EA06470BFB06FC01
:105250000EFB06F607FB0EFE1EEB064E4CEB164C45
:105260000BFB07F71EEB074E4CEB174B18EB0B082D
:1052700040F1000018EB0E0B58EB000840F1000065
:105280008F1A4FF000014FF000063CBFC943661B68
:1052900014BFB5EB040C00213CBFC943F61B4FEA19
:1052A000174427EA04454FEA1C472CEA074C04FB45
:1052B000076205FB07F70CFB05F616EB074642EB0A
:1052C000174204FB0CFC16EB0C4642EB1C421BEB9A
:1052D000060658EB020241414EEA8E0E46EA9E0651
:1052E00001D5BDE80189B619524141EB0101A3F195
:1052F0000103BDE801894FEA144524EA05464FEA57
:10530000114721EA074C05FB07F406FB07F70CFBE6
:1053100006F111EB074144EB174405FB0CFC11EBC4
:105320000C4144EB1C444FEA124722EA074C05FBB0
:1053300007F206FB07F70CFB06F616EB074642EBF7
:10534000174205FB0CFC16EB0C4642EB1C456A1899
:1053500054F1000148BF7047B619524141EB0101B9
:10536000A3F10103704795F0000F37D04FEA1142C7
:1053700021EA02464FEA144724EA074C02FB07F1F0
:1053800006FB07F70CFB06F414EB074441EB17414F
:1053900002FB0CFC14EB0C4441EB1C414FEA15479B
:1053A00025EA074C02FB07F506FB07F70CFB06F6A0
:1053B00016EB074645EB174502FB0CFC16EB0C46BB
:1053C00045EB1C42121951F1000148BF7047B61954
:1053D000524141EB0101A3F1010370474FEA14452B
:1053E00024EA05464FEA114721EA074C05FB07F17D
:1053F00006FB07F70CFB06F212EB074241EB1741E5
:1054000005FB0CFC12EB0C4251EB1C414FF000066B
:1054100048BF7047921841EB0101A3F101037047A7
:1054200003B401984100009850EAC12018BF04203D
:105430004A0D18BF40F0010040F2FF72B2EB515F1D
:1054400008BF40F00200012808BF052002B07047E5
:1054500030B52DED048B81B0B0EE408AF0EE608A5D
:105460006A4651EC180B00F027F900989FED329B2B
:105470007E300090002821DC53EC192B51EC180BE6
:1054800000F0D2F91AD0002140F608004FF00000D9
:10549000044651EC180B00F081F908EE100A40F6B2
:1054A000080004EA00014FF00000B5EEC08AF1EEFA
:1054B00010FA04BF0220FCF72FFA2DE00098FF2815
:1054C00030DB002108464FF0000000F4400553ECAB
:1054D000192B51EC180B00F089FB8CBF0024012420
:1054E0000220FCF719FA9FED168A4DB1002C0CBF73
:1054F0004FF400004FF48000A84218BF9FED118ABE
:10550000042108464FF00000002C01BFB1EE480A0C
:1055100001B0BDEC048B30BDB0EE480A01B0BDEC6B
:10552000048B30BD51EC180B00F038F901B000EEDF
:10553000100ABDEC048B30BD00000000000000002C
:105540000000807FFFFF7F7F30B540F2FF742DEDBC
:10555000048BF0EE608A18EE901A85B0B0EE408AA7
:105560009FED2B9B05468DED008B34EA115147D002
:1055700053EC192B51EC180B00F056F940D02A4689
:1055800051EC180B00F0DBFB41EC180B18EE900A05
:105590008DED008B34EA10501CD053EC192B51ECDC
:1055A000180B00F041F92BD10220FCF7B5F900F0FF
:1055B00057F810EE901A18EE900A8DED020B8DED53
:1055C000008B61F31E0003909DED020B05B0BDEC56
:1055D000048B30BD0220FCF79FF900F031F810EE8B
:1055E000901A18EE900A8DED020B8DED008B61F391
:1055F0001E0003909DED020B05B0BDEC048B30BD89
:1056000005B0B0EE480AF0EE680ABDEC048B30BD80
:10561000000000000000000000B583B09FED060B05
:105620000A4601468DED000B01236846FBF718FF83
:105630009DED000B03B000BD000000000000000065
:105640009FED050B10B553EC102B51EC100B00F037
:10565000CFF941EC100B10BD0000000000000070FD
:105660009FED050B10B553EC102B51EC100B00F017
:10567000BFF941EC100B10BD00000000000000104D
:1056800010B5044691ED000BFFF7E2FE84ED000A31
:1056900010BD10B5044690ED000B0846FFF754FF0F
:1056A00084ED000B10BD30380A2801D2012070476C
:1056B000002070470000000010B582B01446CDE90C
:1056C00000010023009A2360194B21F0004098420A
:1056D0002ADA024328D0B0F5801FA8BF226810DA6A
:1056E0009FED150B53EC102B9DED000B51EC100BA7
:1056F00000F07EF9CDE900016FF0350221F00040A5
:1057000022600F4B6FF31E5103EB205010442060BA
:1057100041F0FF5040F0005001909DED000B00BFA4
:1057200002B051EC100B10BD9DED000BF8E700002E
:105730000000F07F00000000000000000000504367
:1057400002FCFFFF10B500290AD00878002807D016
:1057500005487844FBF794F8002801D0002010BDDC
:105760000248784410BD0000CE070000C6070000C4
:1057700010B500290AD00878002807D005487844D9
:10578000FBF77EF8002801D0002010BD02487844C5
:1057900010BD0000B2080000AA08000021F000427D
:1057A00001F00043A2F16052B2F5801F28BFD2F190
:1057B0007F6C0BD95FEA001C43EAC20242EB5070D7
:1057C00018BF704728BF20F001007047B2F5801F56
:1057D000BCBF184670474FEA410C1CF5001F02D2AF
:1057E000084600F070BA70B500F0ACF9000000890E
:1057F000FFF7F6BF4FF00040A0F5800070470000B3
:1058000002494FF0000000F068BA00BF0000F87FC6
:10581000491058BFC1F140415B1058BFC3F140432C
:105820008B42EFF30080704751EA030C17D41CF54C
:10583000801F58BFBCF5801F00F10680994218BF39
:10584000704708BF9042704707D711F5801F58BFB7
:1058500013F5801F19D499427047894270471CF58F
:10586000801F08D5BCF5801FF7D58B4218BF704745
:1058700008BF824270474FF4001C1CEB410F38BF39
:105880001CEB430F01D28B42704770B500F05AF900
:10589000922449004FF000514FF08053FFF7B8BFFA
:1058A0004FEA41034FEA5353A3F58063D3F11E033C
:1058B000C8BFD3F1210C0CDD4FF0004242EAC122F7
:1058C00042EA505232FA03FC8CEAE17CACEBE17024
:1058D0007047102BC4BF0020704703F5787CBCF1E3
:1058E000FF3F04D06FF0004282EA2100704770B59C
:1058F00000F028F94992248000207047F2E7000068
:1059000051EA030C17D41CF5801F58BFBCF5801F4B
:1059100000F10680994218BF704708BF9042704757
:1059200007D711F5801F58BF13F5801F19D499426E
:105930007047894270471CF5801F08D5BCF5801F51
:10594000F7D58B4218BF704708BF824270474FF4AB
:10595000001C1CEB410F38BF1CEB430F01D28B42E4
:10596000704770B500F0EEF8922449004FF0805176
:105970004FF00053FFF74CBF51EA030C17D41CF54E
:10598000801F58BFBCF5801F00F10680994218BFE8
:10599000704708BF9042704707D711F5801F58BF66
:1059A00013F5801F19D499427047894270471CF53E
:1059B000801F08D5BCF5801FF7D58B4218BF7047F4
:1059C00008BF824270474FF4001C1CEB410F38BFE8
:1059D0001CEB430F01D28B42704770B500F0B2F858
:1059E000922449004FF000514FF08053FFF710BF51
:1059F00070B5DFF848C11CEA111E1EBF1CEA131562
:105A00009EEA0C0F95EA0C0F00F06F8081EA030408
:105A10004EEAD47EAE4421EA4C1123EA4C1341F401
:105A2000801143F48013AEF17F7EA1FB024CA0FBFA
:105A30000365361955EB0C05A1FB034C4CF1000333
:105A4000A0FB021C16EB0C06654153F10003094252
:105A500018BF46F0010613F4007F0BD14FEA033163
:105A60004FEA053041EA155140EA165034036FF011
:105A700003020AE04FEAC3214FEAC52041EA55512B
:105A800040EA5650F4026FF0020202EB2E4201EBA4
:105A9000025585EACE710AD05FEA440C18BF24F0A3
:105AA000004450F1000041F1000120EAD47040F2BE
:105AB000FE7C624500D270BDA84214BF4FF0804406
:105AC0004FF04044002E08BF0024BEF1806FA8BFF5
:105AD000A1F1C041BDE8704080F2828001F1C04177
