:020000040800F2
:1000000000000220F9310008B5120008B7120008FC
:10001000B9120008BB120008BD1200080000000061
:10002000000000000000000000000000BF120008F7
:10003000C112000800000000C3120008C512000829
:1000400049320008493200084932000849320008A4
:100050004932000849320008493200084932000894
:100060004932000849320008493200084932000884
:1000700049320008CD120008493200084932000810
:100080004932000849320008493200084932000864
:100090004932000849320008493200084932000854
:1000A00049320008DD1200084932000849320008D0
:1000B0004932000849320008493200084932000834
:1000C0004932000849320008493200084932000824
:1000D0004932000849320008493200084932000814
:1000E0004932000849320008493200084932000804
:1000F00049320008493200084932000849320008F4
:1001000049320008493200084932000849320008E3
:10011000ED1200084932000849320008493200084F
:1001200049320008493200084932000849320008C3
:1001300049320008493200084932000849320008B3
:1001400049320008493200084932000849320008A3
:100150004932000849320008493200084932000893
:100160004932000849320008493200084932000883
:1001700049320008493200084932000800000000F6
:08018000493200084932000871
:1001900010B5054C237833B9044B13B10448AFF3C1
:1001A00000800123237010BD7000002000000000BB
:1001B0003C42000808B5034B1BB103490348AFF3A9
:1001C000008008BD00000000740000203C420008D0
:1001D00001F0FF01102A2BDB10F0070F08D010F8F8
:1001E000013B013A8B422DD010F0070F42B3F6D1FC
:1001F000F0B441EA012141EA014122F007047FF015
:1002000000070023F0E80256083C85EA010586EA6B
:10021000010685FA47F5A3FA87F586FA47F6A5FAA7
:1002200087F68EB9EED1F0BC01F0FF0102F00702B3
:1002300032B110F8013B013A83EA010313B1F8D15E
:100240000020704701387047002D06BF354603383F
:10025000073815F0010F07D1013015F4807F02BF78
:10026000013015F4C03F0130F0BC0138704700BFC9
:1002700070B54FF0FF0C4CF4E06C1CEA11541DBF3C
:100280001CEA135594EA0C0F95EA0C0F00F0DEF807
:100290002C4481EA030621EA4C5123EA4C5350EAEC
:1002A000013518BF52EA033541F4801143F480133D
:1002B00038D0A0FB02CE4FF00005E1FB02E506F0CE
:1002C0000042E0FB03E54FF00006E1FB03569CF023
:1002D000000F18BF4EF0010EA4F1FF04B6F5007F29
:1002E00064F5407404D25FEA4E0E6D4146EB06069B
:1002F00042EAC62141EA55514FEAC52040EA5E5024
:100300004FEACE2EB4F1FD0C88BFBCF5E06F1ED8CD
:10031000BEF1004F08BF5FEA500E50F1000041EB04
:10032000045170BD06F0004646EA010140EA0200B1
:1003300081EA0301B4EB5C04C2BFD4EB0C0541EAD3
:10034000045170BD41F480114FF0000E013C00F3E8
:10035000AB8014F1360FDEBF002001F0004170BD0C
:10036000C4F10004203C35DA0C341BDC04F1140425
:10037000C4F1200500FA05F320FA04F001FA05F2B1
:1003800040EA020001F0004221F0004110EBD3707E
:1003900021FA04F642EB06015EEA430E08BF20EAAA
:1003A000D37070BDC4F10C04C4F1200500FA04F34D
:1003B00020FA05F001FA04F240EA020001F00041DF
:1003C00010EBD37041F100015EEA430E08BF20EA52
:1003D000D37070BDC4F1200500FA05F24EEA020E9A
:1003E00020FA04F301FA05F243EA020321FA04F0C9
:1003F00001F0004121FA04F220EA020000EBD37080
:100400005EEA430E08BF20EAD37070BD94F0000F7F
:100410000FD101F00046400041EB010111F4801FB3
:1004200008BF013CF7D041EA060195F0000F18BF64
:10043000704703F00046520043EB030313F4801FA0
:1004400008BF013DF7D043EA0603704794EA0C0F5A
:100450000CEA135518BF95EA0C0F0CD050EA410670
:1004600018BF52EA4306D1D181EA030101F00041ED
:100470004FF0000070BD50EA410606BF1046194615
:1004800052EA430619D094EA0C0F02D150EA013621
:1004900013D195EA0C0F05D152EA03361CBF104662
:1004A00019460AD181EA030101F0004141F0FE4101
:1004B00041F470014FF0000070BD41F0FE4141F485
:1004C000780170BD81F0004102E000BF83F000437D
:1004D00030B54FEA41044FEA430594EA050F08BFDF
:1004E00090EA020F1FBF54EA000C55EA020C7FEAA3
:1004F000645C7FEA655C00F0E2804FEA5454D4EB20
:100500005555B8BF6D420CDD2C4480EA020281EAE9
:10051000030382EA000083EA010180EA020281EA21
:100520000303362D88BF30BD11F0004F4FEA013173
:100530004FF4801C4CEA113102D0404261EB410182
:1005400013F0004F4FEA03334CEA133302D0524208
:1005500063EB430394EA050F00F0A780A4F10104C4
:10056000D5F1200E0DDB02FA0EFC22FA05F28018FE
:1005700041F1000103FA0EF2801843FA05F35941E4
:100580000EE0A5F120050EF1200E012A03FA0EFC63
:1005900028BF4CF0020C43FA05F3C01851EBE3718D
:1005A00001F0004507D54FF0000EDCF1000C7EEBAA
:1005B00000006EEB0101B1F5801F1BD3B1F5001FE8
:1005C0000CD349085FEA30004FEA3C0C04F1010407
:1005D0004FEA445212F5800F80F09A80BCF1004F30
:1005E00008BF5FEA500C50F1000041EB045141EAB2
:1005F000050130BD5FEA4C0C404141EB0101013C7B
:1006000028BFB1F5801FE9D291F0000F04BF014669
:100610000020B1FA81F308BF2033A3F10B03B3F13B
:1006200020020CDA0C3208DD02F1140CC2F10C02CB
:1006300001FA0CF021FA02F10CE002F11402D8BF29
:10064000C2F1200C01FA02F120FA0CFCDCBF41EAF5
:100650000C019040E41AA2BF01EB0451294330BDC4
:100660006FEA04041F3C1CDA0C340EDC04F11404A1
:10067000C4F1200220FA04F001FA02F340EA030078
:1006800021FA04F345EA030130BDC4F10C04C4F1BE
:10069000200220FA02F001FA04F340EA030029469E
:1006A00030BD21FA04F0294630BD94F0000F83F4E8
:1006B000801306BF81F480110134013D4EE77FEACB
:1006C000645C18BF7FEA655C29D094EA050F08BF17
:1006D00090EA020F05D054EA000C04BF19461046F8
:1006E00030BD91EA030F1EBF0021002030BD5FEA3C
:1006F000545C05D14000494128BF41F0004130BD64
:1007000014F580043CBF01F5801130BD01F00045B7
:1007100045F0FE4141F470014FF0000030BD7FEA2A
:10072000645C1ABF194610467FEA655C1CBF0B4625
:10073000024650EA013406BF52EA033591EA030F3C
:1007400041F4002130BD00BF90F0000F04BF002134
:10075000704730B54FF4806404F132044FF0000567
:100760004FF0000150E700BF90F0000F04BF0021E0
:10077000704730B54FF4806404F1320410F0004546
:1007800048BF40424FF000013EE700BF42004FEA41
:10079000E2014FEA31014FEA02701FBF12F07F43BE
:1007A00093F07F4F81F06051704732F07F4208BF75
:1007B000704793F07F4F04BF41F40021704730B57C
:1007C0004FF4607401F0004521F000411CE700BFC8
:1007D00050EA010208BF704730B54FF000050AE04B
:1007E00050EA010208BF704730B511F0004502D54C
:1007F000404261EB41014FF4806404F132045FEA4E
:10080000915C3FF4D8AE4FF003025FEADC0C18BFF6
:1008100003325FEADC0C18BF033202EBDC02C2F1E8
:10082000200300FA03FC20FA02F001FA03FE40EA7A
:100830000E0021FA02F11444BDE600BF4FEA410266
:10084000B2F1E04324BFB3F5001CDCF1FE5C0DD92E
:1008500001F0004C4FEAC0024CEA5070B2F1004F78
:1008600040EB830008BF20F00100704711F0804F7B
:1008700021D113F13872BCBF01F00040704741F440
:1008800080114FEA5252C2F11802C2F1200C10FA44
:100890000CF320FA02F018BF40F001004FEAC12328
:1008A0004FEAD32303FA0CFC40EA0C0023FA02F3CC
:1008B0004FEA4303CCE77FEA625307D150EA0133A2
:1008C0001EBF4FF0FE4040F44000704701F0004072
:1008D00040F0FE4040F40000704700BF53B94AB9F1
:1008E000002908BF00281CBF4FF0FF314FF0FF3038
:1008F00000F074B9ADF1080C6DE904CE00F006F813
:10090000DDF804E0DDE9022304B070472DE9F0478B
:10091000089D04468E46002B4DD18A42944669D9E3
:10092000B2FA82F252B101FA02F3C2F1200120FAC6
:1009300001F10CFA02FC41EA030E94404FEA1C4814
:10094000210CBEFBF8F61FFA8CF708FB16E341EA10
:10095000034306FB07F199420AD91CEB030306F196
:10096000FF3080F01F81994240F21C81023E6344B7
:100970005B1AA4B2B3FBF8F008FB103344EA03445B
:1009800000FB07F7A7420AD91CEB040400F1FF3370
:1009900080F00A81A74240F207816444023840EAAD
:1009A0000640E41B00261DB1D4400023C5E90043E6
:1009B0003146BDE8F0878B4209D9002D00F0EF8069
:1009C0000026C5E9000130463146BDE8F087B3FA9C
:1009D00083F6002E4AD18B4202D3824200F2F98084
:1009E000841A61EB030301209E46002DE0D0C5E987
:1009F000004EDDE702B9FFDEB2FA82F2002A40F0D3
:100A00009280A1EB0C014FEA1C471FFA8CFE0126D5
:100A1000200CB1FBF7F307FB131140EA01410EFB79
:100A200003F0884208D91CEB010103F1FF3802D220
:100A3000884200F2CB804346091AA4B2B1FBF7F01A
:100A400007FB101144EA01440EFB00FEA64508D93D
:100A50001CEB040400F1FF3102D2A64500F2BB807A
:100A60000846A4EB0E0440EA03409CE7C6F12007C9
:100A7000B34022FA07FC4CEA030C20FA07F401FA0F
:100A800006F31C43F9404FEA1C4900FA06F3B1FB98
:100A9000F9F8200C1FFA8CFE09FB181140EA0141FD
:100AA00008FB0EF0884202FA06F20BD91CEB01019A
:100AB00008F1FF3A80F08880884240F28580A8F1F2
:100AC00002086144091AA4B2B1FBF9F009FB101144
:100AD00044EA014100FB0EFE8E4508D91CEB0101E2
:100AE00000F1FF346CD28E456AD90238614440EA85
:100AF0000840A0FB0294A1EB0E01A142C846A64605
:100B000056D353D05DB1B3EB080261EB0E0101FA8D
:100B100007F722FA06F3F1401F43C5E900710026EA
:100B20003146BDE8F087C2F12003D8400CFA02FC40
:100B300021FA03F3914001434FEA1C471FFA8CFE50
:100B4000B3FBF7F007FB10360B0C43EA064300FB40
:100B50000EF69E4204FA02F408D91CEB030300F1DE
:100B6000FF382FD29E422DD9023863449B1B89B295
:100B7000B3FBF7F607FB163341EA034106FB0EF31E
:100B80008B4208D91CEB010106F1FF3816D28B42CB
:100B900014D9023E6144C91A46EA004638E72E4697
:100BA000284605E70646E3E61846F8E64B45A9D28F
:100BB000B9EB020864EB0C0E0138A3E74646EAE7FE
:100BC000204694E74046D1E7D0467BE7023B6144AC
:100BD00032E7304609E76444023842E7704700BF15
:100BE00030B58BB0002405940694079408940994BA
:100BF00001941E4B1A6B42F080021A631A6B02F0CA
:100C000080020192019A02941A6B42F001021A6367
:100C10001A6B02F001020292029A03941A6B42F0DC
:100C200008021A631A6B02F008020392039A0494F2
:100C30001A6B42F004021A631B6B03F00403049363
:100C4000049B0B4D22464FF47041284601F0C4FC32
:100C50004FF470430593012306930793089405A965
:100C6000284601F0D1FB0BB030BD00BF0038024078
:100C7000000C024000B583B000210191094B1A6BB2
:100C800042F400121A631B6B03F400130193019BDF
:100C90000A460D2001F0DEFE0D2001F013FF03B027
:100CA0005DF804FB003802400B5CA3F13002431CEA
:100CB000CB5C303B03EB83035B004FF0640C0CFB1D
:100CC0000233821C8A5C303A134407EE903AC31C0C
:100CD000CB5C303B07EE103AB8EEC77AF2EE046A0E
:100CE00087EE260AF8EEE77A77EE807A04300B5C1E
:100CF000303B07EE103AB8EEC77ADFED036A87EEB5
:100D0000260A37EE800A70470000C8420268144B7A
:100D10001B689A4200D0704710B5124C4FF4005136
:100D2000204601F05FFC4FF40041204601F05AFCE0
:100D30000D4C21460020FFF7B7FF0C4B83ED000A56
:100D400021460520FFF7B0FF094B83ED000A21463D
:100D50001920FFF7A9FF074B83ED000A10BD00BF64
:100D6000F0010020000C0240A4000020300200200E
:100D70009C0000203802002070EE600A284BC3ED72
:100D8000000A284BD3ED006A70EEE67A67EE817AAE
:100D9000254B93ED001A77EE817A9FED246A61EE80
:100DA000861A30EEA67A61EE871AB6EE007A61EE08
:100DB000871A77EEA17A36EEA67A30EEC77A1C4B08
:100DC000D3ED005A37EE257A27EE027AC7EE065A9F
:100DD00077EEA57A174BC3ED007A9FED177AF4EE04
:100DE000C77AF1EE10FA01DD83ED007A114B93ED35
:100DF000007ADFED127AB4EEE77AF1EE10FA01D55F
:100E0000C3ED007A0B4B93ED000A074B83ED000A0C
:100E1000074BC3ED006A034BC3ED000A704700BFE8
:100E2000C4000020C8000020440200200AD7233C50
:100E3000CC0000204002002000C0794400C079C4EA
:100E400008B502681E4B1B689A4200D008BD1D4BB6
:100E5000D3ED007AF5EE407AF1EE10FA0AD09FED6C
:100E60001A7AF4EE477AF1EE10FA18D1174B0022F5
:100E70001A60EBE7164BD3ED000A164B93ED002AF0
:100E8000154BD3ED001A154B93ED001A144B93ED4F
:100E9000000AFFF771FF0D4B83ED000AD6E7B7EEAE
:100EA000007AF4EE477AF1EE10FACFD1074B002228
:100EB0001A6000230B4A13800B4A12685362C5E77D
:100EC000300100209C0000200000DE423C02002097
:100ED000340200208C0000209000002094000020AC
:100EE00038020020A000002070010020FDEEC07A32
:100EF00017EE903A0D4AC2ED007A002B06DD0C4A3F
:100F00001268C2ED0D7A002393637047002B05DB56
:100F1000074B1B6800225A639A637047044A1268A1
:100F2000002151635B429363704700BF980000202B
:100F3000B001002072B6FEE700B58DB0242200217A
:100F400003A802F0A7F900230193029311484FF080
:100F500080420260436083604FF0FF32C2600361F1
:100F600083610323039301230593099303A900F0ED
:100F700009FD50B900230193029301A9054800F02F
:100F8000C5FE20B90DB05DF804FBFFF7D3FFFFF7F6
:100F9000D1FF00BF7001002000B58BB00023089383
:100FA0000993019302930393049305930693079384
:100FB0001A481B4A026004224260836040F2E73212
:100FC000C2600361836100F0C3FCF8B90023089399
:100FD000099308A9114800F099FEC8B9602301934C
:100FE000002202920392059201A90C4800F054FDE0
:100FF00080B904220DEB0201084800F04DFD58B9FC
:10100000064800F003FA0BB05DF804FBFFF792FF0F
:10101000FFF790FFFFF78EFFFFF78CFFB001002076
:101020000004004008B50A480A4B03604FF4E1335E
:10103000436000238360C36003610C2242618361CB
:10104000C36101F0FBFE00B908BDFFF773FF00BFED
:10105000F0010020004C004000B587B0002302934F
:10106000039304930593009301931448144A026078
:101070004AF21042426083601322C26003614361FE
:10108000836100F04BFC90B94FF48053029302A9A6
:101090000A4800F07CFD60B9002300930193694683
:1010A000064800F033FE30B907B05DF804FBFFF7E7
:1010B00041FFFFF73FFFFFF73DFF00BF300100207A
:1010C0000000014000B595B03022002108A802F0D0
:1010D000E1F8002303930493059306930793019388
:1010E000204A116C41F080511164126C02F0805260
:1010F0000192019A02931C4B1A6842F480421A60D2
:101100001B6803F480430293029B012308934FF46E
:101110008033099302230E934FF480020F9208222A
:1011200010924FF4A872119212930423139308A8FB
:1011300000F034FE88B90F230393022304930023A5
:1011400005934FF4A05306930793052103A801F0DC
:1011500085F820B915B05DF804FBFFF7EBFEFFF74B
:10116000E9FE00BF00380240007000402DE9F04168
:1011700088B001F0EFFCFFF7A5FFFFF731FDFFF7A7
:1011800079FDFFF7D9FEFFF707FFFFF74BFFFFF7EA
:1011900063FF3A4800F08BFA394C0021204600F0FA
:1011A00093FD0421204600F08FFD364C002120469F
:1011B00000F06AFD0421204600F066FD1E2232493F
:1011C000324801F06BFE002305E02F49CA5C303243
:1011D000CA540133DBB21D2BF7D9002448E02C4C54
:1011E0004FF48051204601F0FDF94FF48041204634
:1011F00001F0F8F90024224B1B685B6A1BB2254AF8
:101200001380108800B2FFF7AFFA0022224BFFF7DD
:101210002FF8FFF713FB214B18601868204DD5F805
:101220000080FFF7B3FA06460F461E4B1868FFF71B
:10123000ADFACDE906011C4B1868FFF7A7FACDE916
:1012400004011A4B1868FFF7A1FACDE902014046E4
:10125000FFF79CFACDE9000132463B46144802F004
:1012600021F80A2001F0A2FC95ED000AFFF73EFEEE
:101270000134E4B2142CB2D0BDE700BF300100202D
:1012800070010020B0010020A4000020F001002027
:10129000000C0240A00000200000D03F34020020DB
:1012A0003C0200208C0000209000002094000020D0
:1012B00054420008FEE7FEE7FEE7FEE7FEE7704760
:1012C0007047704708B501F05FFC08BD08B50248DB
:1012D00001F0C0FA08BD00BFD000002008B50248E8
:1012E00000F0FAF908BD00BF3001002008B502483F
:1012F00001F0D8FE08BD00BFF001002082B000213F
:1013000000910B4B5A6C42F480425A645A6C02F4BE
:1013100080420092009A01911A6C42F080521A6445
:101320001B6C03F080530193019B02B0704700BF18
:101330000038024002680E4B9A4200D0704700B558
:1013400083B00021019103F59C335A6C42F00102F5
:101350005A645B6C03F001030193019B0A46192058
:1013600001F078FB192001F0ADFB03B05DF804FB40
:101370000000014000B589B0002303930493059356
:10138000069307930368B3F1804F02D009B05DF86C
:1013900004FB0021019103F50E331A6C42F00102A7
:1013A0001A641A6C02F001020192019A02911A6BFE
:1013B00042F001021A631B6B03F001030293029BCC
:1013C00003230393022304930123079303A90248F1
:1013D00001F01AF8DAE700BF000002400268094B8A
:1013E0009A4200D0704782B000230193064B1A6CDA
:1013F00042F002021A641B6C03F002030193019B8A
:1014000002B07047000400400038024000B587B0C9
:1014100000230193029303930493059302680E4BF8
:101420009A4202D007B05DF804FB002300930B4BF7
:101430001A6B42F001021A631B6B03F00103009365
:10144000009BC023019302230293059301A9044842
:1014500000F0DAFFE6E700BF000400400038024079
:101460000000024030B589B0002303930493059334
:10147000069307930268284B9A4201D009B030BD09
:1014800004460025019503F5F6331A6C42F4002258
:101490001A641A6C02F400220192019A02951A6BE6
:1014A00042F004021A631B6B03F004030293029BD5
:1014B0004FF4406303930223049301230593032312
:1014C00006930823079303A9144800F09DFF1448CE
:1014D000144B03604FF0006343608560C5604FF4B8
:1014E00080630361456185614FF48073C361056268
:1014F000456201F001F958B9094B63639C6300220E
:101500001146342001F0A6FA342001F0DBFAB5E7E9
:10151000FFF710FDF0E700BF004C0040000802405C
:10152000D00000204060024030B4036A23F0010381
:101530000362036A4268846924F073040D682C43D3
:1015400023F0020C8B6843EA0C03104DA84203D031
:1015500005F58065A84205D123F00803CD682B432B
:1015600023F00403094DA84203D005F58065A84285
:1015700005D122F440724D692A438D692A434260A5
:1015800084614A684263036230BC704700000140D6
:1015900030B4036A23F480730362036A4268C46947
:1015A00024F0730C0C6844EA0C0523F400738C6877
:1015B00043EA0423114CA04203D004F58064A04206
:1015C00006D123F40063CC6843EA042323F4806348
:1015D0000A4CA04203D004F58064A04207D122F453
:1015E00040524C6942EA04128C6942EA0412426099
:1015F000C5614A68C263036230BC704700000140A5
:1016000030B4036A23F480530362036A4468C269F6
:1016100022F4E6420D6842EA052223F400538D6865
:1016200043EA0533094DA84203D005F58065A84279
:1016300004D124F480444D6944EA85144460C261B5
:101640004A680264036230BC704700BF000001407A
:1016500010B4036A046A24F001040462846924F06B
:10166000F00C4CEA021223F00A030B43826103627E
:101670005DF8044B704710B4046A24F0100404624F
:101680008469036A24F4704C4CEA023223F0A0030C
:1016900043EA0113826103625DF8044B704783687B
:1016A00023F070030B4343F0070383607047026825
:1016B000D36843F00103D3600268936803F0070323
:1016C000062B03D0136843F001031360002070471A
:1016D000704770477047704710B5044603681A6931
:1016E00012F0020F11D0DA6812F0020F0DD06FF075
:1016F00002021A610123037703689B6913F0030F49
:1017000070D0FFF7E6FF0023237723681A6912F0F1
:10171000040F12D0DA6812F0040F0ED06FF004023A
:101720001A610223237723689B6913F4407F5FD0FB
:101730002046FFF7CEFF0023237723681A6912F0B3
:10174000080F12D0DA6812F0080F0ED06FF00802FE
:101750001A61042323772368DB6913F0030F4ED04B
:101760002046FFF7B6FF0023237723681A6912F09B
:10177000100F12D0DA6812F0100F0ED06FF01002B6
:101780001A61082323772368DB6913F4407F3DD077
:101790002046FFF79EFF0023237723681A6912F083
:1017A000010F03D0DA6812F0010F36D123681A69ED
:1017B00012F0800F03D0DA6812F0800F34D1236862
:1017C0001A6912F0400F03D0DA6812F0400F32D1DC
:1017D00023681A6912F0200F03D0DA6812F0200F84
:1017E00030D110BDFFF774FF2046FFF773FF8AE783
:1017F0002046FFF76DFF2046FFF76CFF9BE7204672
:10180000FFF766FF2046FFF765FFACE72046FFF7CE
:101810005FFF2046FFF75EFFBDE76FF001021A6130
:101820002046FFF70DFBC1E76FF080021A612046EA
:1018300000F0B3FAC3E76FF040021A612046FFF7E9
:101840004AFFC5E76FF020021A61204600F0A4FAB3
:10185000C7E700000368304A904212D0B0F1804FD1
:101860000FD0A2F57C4290420BD002F580629042EC
:1018700007D002F58062904203D002F57842904290
:1018800003D123F070034A681343234A90422AD0BD
:10189000B0F1804F27D0A2F57C42904223D002F5D0
:1018A000806290421FD002F5806290421BD002F508
:1018B0007842904217D002F57052904213D002F550
:1018C000806290420FD002F5806290420BD0A2F568
:1018D0009832904207D002F58062904203D002F520
:1018E0008062904203D123F44073CA68134323F00B
:1018F00080034A69134303608B68C3620B68836289
:10190000054B984203D003F58063984201D10B69DF
:10191000036301234361704700000140B0B110B57B
:10192000044690F83D3063B1022384F83D302146EF
:1019300051F8040BFFF78EFF012384F83D3000209F
:1019400010BD80F83C30FFF7F5FCEDE70120704753
:10195000B0B110B5044690F83D3063B1022384F86D
:101960003D30214651F8040BFFF774FF012384F842
:101970003D30002010BD80F83C30FFF72FFDEDE733
:101980000120704700284CD0F8B50C46054690F869
:101990003D30002B40D0022385F83D302A68936803
:1019A00023F4804323F007039360294651F8040B86
:1019B000FFF750FF29688A688B690E6A2068104318
:1019C00023F4407C2CF0030CA268A36942EA0323B1
:1019D00043EA0C0323F47C4323F0FC03E269E76849
:1019E00047EA022C4CEA030C226A1303226943EAF9
:1019F000021343EA0C0326F0AA066268646942EA0D
:101A000004123243886029688B612B681A620123B3
:101A100085F83D300020F8BD80F83C30FFF7AAFC87
:101A2000B9E701207047000030B4036A23F01003C7
:101A30000362036A4468826922F4E6420D6842EA5E
:101A4000052223F020038D6843EA0513114DA842B7
:101A500003D005F58065A84206D123F08003CD6848
:101A600043EA051323F040030A4DA84203D005F5CD
:101A70008065A84207D124F440644D6944EA850496
:101A80008D6944EA8504446082614A688263036226
:101A900030BC70470000014038B590F83C30012B55
:101AA00066D004460D46012380F83C30022380F8BE
:101AB0003D300C2A1AD8DFE802F00719191920194D
:101AC00019193419191947000068FFF72DFD22680C
:101AD000936943F0080393612268936923F0040338
:101AE00093612268936929690B439361012384F808
:101AF0003D30002084F83C0038BD0068FFF794FFBB
:101B00002268936943F4006393612268936923F424
:101B10008063936122689369296943EA0123936191
:101B2000E4E70068FFF734FD2268D36943F0080357
:101B3000D3612268D36923F00403D3612268D36997
:101B400029690B43D361D1E70068FFF759FD22688B
:101B5000D36943F40063D3612268D36923F48063BB
:101B6000D3612268D369296943EA0123D361BDE7C0
:101B70000220C1E710B4846824F47F4C42EA0322B7
:101B80000A4342EA0C0282605DF8044B704790F809
:101B90003C30012B66D010B50446012380F83C3060
:101BA000022380F83D300268936823F47F4323F0DA
:101BB000770393600B68602B40D022D8402B47D02E
:101BC0000BD9502B0ED1CA6849680068FFF740FD59
:101BD00050212068FFF763FD04E0202B0CD008D9CA
:101BE000302B09D0012384F83D30002084F83C00DC
:101BF00010BD0BB1102BF5D119462068FFF74FFD32
:101C0000F0E7702B0ED0B3F5005FEBD1CB684A68DC
:101C100089680068FFF7AEFF2268936843F4804349
:101C20009360DFE7CB684A6889680068FFF7A2FF26
:101C30002268936843F077039360D3E7CA684968E2
:101C40000068FFF718FD60212068FFF728FDC9E74D
:101C5000CA6849680068FFF7FBFC40212068FFF76D
:101C60001EFDBFE70220704701F01F01012303FAA8
:101C700001FC036A23EA0C030362036A02FA01F11E
:101C80000B4303627047000010B504460122006850
:101C9000FFF7EAFF23680B4A934203D002F5806204
:101CA000934203D15A6C42F400425A64226893680A
:101CB00003F00703062B03D0136843F001031360FE
:101CC000002010BD0000014010B5044661B1042998
:101CD00016D0012200210068FFF7C6FF012204216F
:101CE0002068FFF7C1FF04E0012200210068FFF730
:101CF000BBFF2268136843F001031360002010BD8E
:101D0000012204210068FFF7AFFFF2E790F83C30B2
:101D1000012B3DD010B4012380F83C30022380F821
:101D20003D3003685A689C6822F0700C0A6842EAE9
:101D30000C025A600368174A93421AD0B3F1804FDD
:101D400017D0A2F57C42934213D002F580629342F1
:101D50000FD002F5806293420BD002F57842934295
:101D600007D002F57052934203D0A2F59432934209
:101D700004D124F080044A6814439C60012380F855
:101D80003D30002380F83C3018465DF8044B704726
:101D9000022070470000014070477047002800F0A3
:101DA000DA8170B582B00446036813F0010F3BD0AE
:101DB0009F4B9B6803F00C03042B2CD09C4B9B681F
:101DC00003F00C03082B21D06368B3F5803F4FD09C
:101DD000B3F5A02F52D0964B1A6822F480321A60C5
:101DE0001A6822F480221A606368002B50D000F039
:101DF000D7FE05468E4B1B6813F4003F14D100F04C
:101E0000CFFE401B6428F5D90320ABE1884B5B680B
:101E100013F4800FD8D0864B1B6813F4003F03D017
:101E20006368002B00F09981236813F0020F54D0EF
:101E30007F4B9B6813F00C0F3ED07D4B9B6803F0EB
:101E40000C03082B33D0E368002B68D0794B0122B8
:101E50001A6000F0A5FE0546754B1B6813F0020FD3
:101E600054D100F09DFE401B0228F5D9032079E1F2
:101E70006F4A136843F480331360B5E76C4B1A68FC
:101E800042F480221A601A6842F480321A60ABE78A
:101E900000F086FE0546664B1B6813F4003FC3D076
:101EA00000F07EFE401B6428F5D903205AE1604B08
:101EB0005B6813F4800FC6D15D4B1B6813F0020FF3
:101EC00003D0E368012B40F04A81594A136823F09C
:101ED000F803216943EAC1031360236813F0080F74
:101EE00042D063696BB3534B0122C3F8802E00F0DC
:101EF00057FE05464E4B5B6F13F0020F34D100F0D6
:101F00004FFE401B0228F5D903202BE1484A1368F5
:101F100023F0F803216943EAC1031360DDE7454B71
:101F200000221A6000F03CFE0546414B1B6813F08E
:101F3000020FD2D000F034FE401B0228F5D9032056
:101F400010E13C4B0022C3F8802E00F029FE05462C
:101F5000374B5B6F13F0020F06D000F021FE401BE1
:101F60000228F5D90320FDE0236813F0040F77D091
:101F70002F4B1B6C13F0805F33D1002301932C4B4C
:101F80001A6C42F080521A641B6C03F08053019368
:101F9000019B0125284B1B6813F4807F23D0A36885
:101FA000012B34D0052B38D0214B1A6F22F00102BF
:101FB0001A671A6F22F004021A67A368002B3DD03B
:101FC00000F0EEFD06461A4B1B6F13F0020F46D1D0
:101FD00000F0E6FD801B41F288339842F3D90320DC
:101FE000C0E00025D6E7144A136843F480731360F9
:101FF00000F0D6FD0646104B1B6813F4807FCED14F
:1020000000F0CEFD801B0228F5D90320AAE0084A83
:10201000136F43F001031367CFE7054B1A6F42F0CC
:1020200004021A671A6F42F001021A67C5E700BF7F
:1020300000380240000047420070004000F0B0FD50
:1020400006464F4B1B6F13F0020F08D000F0A8FD9F
:10205000801B41F288339842F3D9032082E0E5B92E
:10206000A369002B7DD0464A926802F00C02082A30
:1020700051D0022B17D0434B00221A6600F090FD7E
:1020800004463F4B1B6813F0007F42D000F088FDF0
:10209000001B0228F5D9032064E0394A136C23F0B1
:1020A00080531364DCE7374B00221A6600F078FD9A
:1020B0000546334B1B6813F0007F06D000F070FD1F
:1020C000401B0228F5D903204CE0E369226A134340
:1020D000626A43EA8213A26A5208013A43EA02435F
:1020E000E26A43EA0263264A5360264B01221A66DB
:1020F00000F056FD0446224B1B6813F0007F06D10A
:1021000000F04EFD001B0228F5D903202AE0002034
:1021100028E0002026E0012B26D0194B5B6803F451
:102120008001E269914221D103F03F02216A8A4293
:102130001ED1616A47F6C0721A408A421AD103F46E
:102140004032A16A8A4217D103F07063E26A934277
:1021500014D1002006E001207047012002E0012098
:1021600000E0002002B070BD0120FBE70120F9E78C
:102170000120F7E70120F5E70120F3E70120F1E76F
:10218000003802400000474208B5314B9B6803F01D
:102190000C03042B57D0082B57D12D4B5A6802F053
:1021A0003F025B6813F4800F2AD0294B5968C1F3B2
:1021B000881C4FEA4C11B1EB0C006EEB0E0E4FEA8F
:1021C0008E1343EA90638101091A63EB0E03DB006F
:1021D00043EA5173C90011EB0C0C43F1000359029F
:1021E00000234FEA4C2041EADC51FEF777FB184B05
:1021F0005B68C3F3014301335B00B0FBF3F025E000
:10220000134B5968C1F3881C4FEA4C11B1EB0C0019
:102210006EEB0E0E4FEA8E1343EA90638101091AAA
:1022200063EB0E03DB0043EA5173C90011EB0C0CA6
:1022300043F10003990200234FEA8C2041EA9C51AC
:10224000FEF74CFBD3E7034800E0034808BD00BF9E
:102250000038024000127A000024F400002800F048
:102260009B8070B50D4604464F4B1B6803F00F036F
:102270008B4208D2CBB24C4A1370136803F00F03A1
:102280008B4240F08B80236813F0020F17D013F0BD
:10229000040F04D0454A936843F4E05393602368E5
:1022A00013F0080F04D0414A936843F460439360ED
:1022B0003E4A936823F0F003A1680B4393602368C0
:1022C00013F0010F32D06368012B21D09A1E012A2E
:1022D00025D9364A126812F0020F61D033498A6854
:1022E00022F0030213438B6000F05AFC06462F4B8A
:1022F0009B6803F00C036268B3EB820F16D000F00A
:102300004FFC801B41F288339842F0D9032042E011
:10231000264A126812F4003FE0D101203BE0234A34
:10232000126812F0007FD9D1012034E01E4B1B68E7
:1023300003F00F03AB4207D9EAB21B4B1A701B68BC
:1023400003F00F03AB422DD1236813F0040F06D026
:10235000164A936823F4E053E1680B4393602368C3
:1023600013F0080F07D0114A936823F460432169E2
:1023700043EAC1039360FFF707FF0C4B9B68C3F36D
:1023800003130B4AD35CD8400A4B18600A4B1868F9
:1023900000F0BAFB002070BD012070470120FAE771
:1023A0000120F8E70120F6E7003C02400038024037
:1023B000744200080800002004000020014B186847
:1023C000704700BF0800002008B5FFF7F7FF044B77
:1023D0009B68C3F38223034AD35CD84008BD00BF87
:1023E000003802408442000808B5FFF7E7FF044BBD
:1023F0009B68C3F34233034AD35CD84008BD00BF97
:10240000003802408442000800230F2B00F2DA80DB
:10241000F0B583B03AE0072200E00022AA40324340
:102420000234694D45F82420684A14686FEA0C02AA
:1024300024EA0C054E6816F4803F01D04CEA0405EE
:10244000624C2560646802EA04054E6816F4003F99
:1024500001D04CEA04055D4C6560A46802EA0405FD
:102460004E6816F4801F01D04CEA0405574CA56055
:10247000E46822404D6815F4001F01D04CEA0402C4
:10248000524CE26001330F2B00F29A8001229A40F5
:102490000C6804EA020C32EA0404F3D14C68651EAD
:1024A000012D03D9112C01D0122C12D185685E00A8
:1024B0000324B44025EA0405CC68B4402C4384606E
:1024C000456825EA02054C68C4F300129A402A4385
:1024D0004260C5684FEA430E032404FA0EF4E24357
:1024E00025EA04058C6804FA0EF42C43C4604C6899
:1024F000022C01D0122C0FD1DD08083550F82570C0
:1025000003F00704A6000F24B44027EA04070C696F
:10251000B4403C4340F82540046814404A6802F047
:10252000030202FA0EF2224302604A6812F0805F50
:10253000A8D000220192264A546C44F4804454648A
:10254000526C02F480420192019A9C08A51C1E4A1A
:1025500052F8256003F0030295000F22AA4026EAF4
:1025600002061C4A90423FF458AF02F58062904246
:102570001AD002F58062904218D002F58062904233
:1025800016D002F58062904214D002F5806290422B
:1025900012D002F58062904210D002F58062904223
:1025A0003FF439AF082239E7012237E7022235E745
:1025B000032233E7042231E705222FE706222DE725
:1025C00003B0F0BD704700BF00380140003C01403F
:1025D00000380240000002400AB1816170470904DE
:1025E00081617047436931EA030301D0816170471B
:1025F00009048161704730B405682C6824F4802494
:102600002C60046863608368402B05D00368996080
:102610000368DA6030BC704703689A600368D96069
:10262000F8E7000010B40368D9B210390C4AA2FBD5
:10263000014212090B4CA25CC2655F2909D923F43F
:102640007F7323F0030304338365806D5DF8044BCF
:10265000704723F47F7323F003038365F5E700BF1E
:10266000ABAAAAAA6C420008836A826992B9012BBC
:102670000AD0022B02D00BB100207047C36A13F0BE
:10268000807F28D100207047C36AB3F1C07F24D077
:1026900000207047B2F5005F09D0022B25D9032B2B
:1026A00025D1C36A13F0807F23D100207047032B0C
:1026B00003D8DFE803F01404140A00207047C36A4B
:1026C00013F0807F0DD100207047C36AB3F1C07F43
:1026D00009D0002070470120704701207047012079
:1026E000704701207047012070470120704700208B
:1026F000704701207047000070B5044600F050FAA2
:10270000002C5BD00546002384F83430022384F883
:1027100035302268136823F00103136023681A68B8
:1027200012F0010F0AD000F03BFA431B052BF5D93C
:1027300020236365032084F8350070BD1A682048A3
:1027400010406168A2680A43E1680A4321690A43AC
:1027500061690A43A1690A43E1690A43216A0A439C
:102760000243616A04291ED01A602668756925F043
:102770000705636A1D43042B07D1A36A1D43E36A5F
:102780001BB12046FFF770FF90B975612046FFF737
:1027900049FFE26D3F239340836000206065012381
:1027A00084F83530C9E7E16A206B01430A43DBE76F
:1027B00040236365012084F83500BEE70120BCE7B3
:1027C0003F8010F038B50446856D90F8340001283C
:1027D0002BD0012084F8340094F83500C0B20128D1
:1027E00004D0002384F83430022038BD022084F85D
:1027F0003500002060652046FFF7FDFEE26D3F23B7
:102800009340AB602268136843F016031360236C97
:1028100023B12268136843F0080313602268136829
:1028200043F0010313600020DFE70220DDE790F8AA
:102830003530DBB2022B03D0802343650120704783
:10284000052380F835300268136823F00103136014
:1028500000207047F0B583B0044600230193724B0B
:102860001D68724BA3FB0535AD0A876D3E68C26DCE
:1028700008239340334210D003681A6812F0040F03
:102880000BD01A6822F004021A60C26D082393402C
:10289000BB60436D43F001034365E26D0123934048
:1028A000334209D02268526912F0800F04D0BB6015
:1028B000636D43F002036365E26D0423934033428A
:1028C00009D02268126812F0020F04D0BB60636D59
:1028D00043F004036365E26D10239340334224D038
:1028E0002268126812F0080F1FD0BB6023681A68B4
:1028F00012F4802F0DD01B6813F4002F04D1236C29
:102900009BB12046984710E0A36C73B120469847CE
:102910000BE01A6812F4807F03D11A6822F00802D3
:102920001A60236C0BB120469847E26D2023934038
:10293000334255D02268126812F0100F50D0BB609D
:1029400094F83530DBB2052B0ED023681A6812F4E8
:10295000802F33D01B6813F4002F2AD1636C002B17
:102960003ED0204698473BE02268136823F01603C8
:1029700013602268536923F080035361236CA3B171
:102980002268136823F008031360E26D3F2393402D
:10299000BB60002384F83430012384F83530236D84
:1029A000002B3FD0204698473CE0A36C002BE7D19A
:1029B000EBE7E36BA3B12046984711E01A6812F4E5
:1029C000807F09D11A6822F010021A60002384F86F
:1029D0003430012384F83530E36B0BB1204698473F
:1029E000636DFBB1636D13F0010F17D0052384F8FD
:1029F00035302268136823F001031360019B013313
:102A00000193AB4204D823681B6813F0010FF5D182
:102A1000002384F83430012384F83530E36C0BB1A3
:102A20002046984703B0F0BD08000020B5814E1B3A
:102A3000074AD36823F4E0631B041B0C000200F474
:102A4000E060034343F0BF6343F40033D360704757
:102A500000ED00E000B5194BDB68C3F30223C3F1BE
:102A6000070CBCF1040F28BF4FF0040C03F1040E57
:102A7000BEF1060F18D9033B4FF0FF3E0EFA0CFCD7
:102A800021EA0C0199400EFA03F322EA03031943E9
:102A900000280BDB0901C9B200F1604000F561407C
:102AA00080F800135DF804FB0023E5E700F00F0059
:102AB0000901C9B2024B1954F4E700BF00ED00E070
:102AC00014ED00E0002807DB00F01F02400901239D
:102AD0009340024A42F82030704700BF00E100E016
:102AE0000138B0F1807F0BD24FF0E0235861054AE6
:102AF000F02182F823100020986107221A617047A4
:102B00000120704700ED00E010B504460E4B187828
:102B10004FF47A73B3FBF0F30C4A1068B0FBF3F098
:102B2000FFF7DEFF68B90F2C01D901200AE000226F
:102B300021464FF0FF30FFF78DFF054B1C60002052
:102B400000E0012010BD00BF0000002008000020B0
:102B50000400002008B50B4B1A6842F400721A609A
:102B60001A6842F480621A601A6842F480721A602D
:102B70000320FFF75DFF0020FFF7C6FFFEF7BEFB57
:102B8000002008BD003C0240034A1168034B1B783B
:102B90000B441360704700BF480200200000002073
:102BA000014B1868704700BF4802002038B5044642
:102BB000FFF7F6FF0546B4F1FF3F02D0044B1B7848
:102BC0001C44FFF7EDFF401BA042FAD338BD00BF05
:102BD000000000200268D36823F0C003D3602023E4
:102BE00080F8393070470268D36823F49073D3605B
:102BF0000268536923F001035361202380F83A30BF
:102C0000704790F83930DBB2212B01D00220704799
:102C10008368B3F5805F17D0036A5A1C02621A7882
:102C200003685A60C38C9BB2013B9BB2C3844BB90F
:102C30000268D36823F08003D3600268D36843F04E
:102C40004003D36000207047036A1B880268C3F307
:102C50000803536003691BB9036A02330362E1E7A7
:102C6000036A01330362DDE738B50446026813697D
:102C700023F44053C1680B43136183680269134313
:102C800042691343C2691A430168CB6823F41643AF
:102C900023F00C031343CB600268536923F44073A1
:102CA00081690B435361C369B3F5004F35D00368A5
:102CB000604A934200F0918002F58062934200F0F6
:102CC0008C80FFF781FB0021031849411B1841F15B
:102CD0000001C90041EA5371DB00181863684FEA2C
:102CE00083024FEA937341F10001FDF7F7FD524D66
:102CF000A5FB00325109642303FB11031B0132338E
:102D0000A5FB03235B0903F0F00202EB011203F0C1
:102D10000F03216813448B608AE00368454A93429D
:102D20002FD002F5806293422BD0FFF74DFB00239A
:102D3000021843EB0301121841F10001C90041EAF6
:102D40005271D200101841F10001626892185B4183
:102D5000FDF7C4FD384DA5FB00325109642303FB88
:102D60001103DB003233A5FB03235B095A0002F495
:102D7000F87202EB011203F00703216813448B6021
:102D800056E0FFF731FB0023021843EB0301121852
:102D900041F10001C90041EA5271D200101841F11D
:102DA0000001626892185B41FDF798FD224DA5FB7A
:102DB00000325109642303FB1103DB003233A5FB0E
:102DC00003235B095A0002F4F87202EB011203F0CC
:102DD0000703216813448B602AE0FFF705FB0021FD
:102DE000031849411B1841F10001C90041EA537120
:102DF000DB00181863684FEA83024FEA937341F1CE
:102E00000001FDF76BFD0C4DA5FB00325109642359
:102E100003FB11031B013233A5FB03235B0903F002
:102E2000F00202EB011203F00F03216813448B60E0
:102E300038BD00BF001001401F85EB5158B310B5DD
:102E4000044690F839300BB3242384F839302268D3
:102E5000D36823F40053D3602046FFF705FF2268B0
:102E6000136923F4904313612268536923F02A0302
:102E700053612268D36843F40053D3600020E063B9
:102E8000202384F8393084F83A3010BD80F8383087
:102E9000FEF7E8FAD8E701207047000030B583B0AC
:102EA000044690F83A00C0B220283CD100293DD019
:102EB000002A3DD094F83830012B3BD0012384F810
:102EC0003830A162A2850025E563222384F83A30D8
:102ED000636B1948D863636B18481864636B1848B0
:102EE000D864636B1D65206813460A46011D606B3C
:102EF000FFF768FC019523681A6801925A680192ED
:102F0000019A84F83850DA6842F48072DA602268F4
:102F1000536943F0010353612268536943F040034E
:102F20005361284600E0022003B030BD0120FBE7DA
:102F30000120F9E70220F7E7612F00083F30000881
:102F40004B300008704708B50168CA6822F040029B
:102F5000CA60202280F83920FFF7F4FF002008BD66
:102F600008B50346806B1B681B6813F4807F13D180
:102F70000023C3850268D36823F48073D36002689A
:102F8000536923F0010353610268536923F040033E
:102F90005361202380F83A30FDF7B8FE08BD08B52C
:102FA00090F83A30DBB2222B46D18368B3F5805FCC
:102FB0000FD003690BBB03685A68836A591C81628E
:102FC0001A70C38D9BB2013B9BB2C385F3B1002045
:102FD00008BD826A036943B903685B68C3F30803E9
:102FE0001380836A02338362EBE703685B68DBB2BA
:102FF0001380836A01338362E3E703685B68826A54
:10300000511C816203F07F031370DAE70268D36812
:1030100023F02003D3600268D36823F48073D36065
:103020000268536923F001035361202380F83A308A
:10303000FDF76CFE0020CBE70220C9E7704708B51A
:10304000806BFFF7FBFF08BD704710B5846B2368EA
:103050005A6994F83930DBB2212B10D023685A69B1
:1030600002F0400294F83A30DBB2222B11D0E36B2D
:1030700043F01003E3632046FFF7E6FF10BD02F0C4
:103080008002002AEAD00023E3842046FFF7A2FD55
:10309000E4E7002AEBD00023E3852046FFF7A3FDF9
:1030A000E5E7000010B5044602681368D16852696C
:1030B00013F00F0005D113F0200F02D011F0200FF4
:1030C00013D128B112F0010213D111F4907F10D165
:1030D00013F0800F02D011F0800F6CD113F0400F6D
:1030E00002D011F0400F6AD110BD2046FFF757FF04
:1030F000FAE713F0010F06D011F4807F03D0E06BE4
:1031000040F00100E06313F0040F04D01AB1E06B4B
:1031100040F00200E06313F0020F04D01AB1E06B3C
:1031200040F00400E06313F0080F07D011F0200F07
:1031300000D11AB1E26B42F00802E263E26B002AAE
:10314000D2D013F0200F02D011F0200F21D123682C
:103150005B6903F04003E26B12F0080F00D123B368
:103160002046FFF740FD23685A6912F0400F18D03F
:103170005A6922F040025A61636B73B1124A1A65B0
:10318000606BFFF754FB0028AED0606B036D98476F
:10319000AAE72046FFF703FFD9E72046FFF754FFD1
:1031A000A2E72046FFF750FF9EE72046FFF74CFFBF
:1031B0000023E36398E72046FFF723FD94E72046CA
:1031C000FFF7C1FE90E700BFCD31000808B5806B66
:1031D0000023C385C384FFF737FF08BD054BD3F831
:1031E000882042F47002C3F888204FF000629A6091
:1031F000704700BF00ED00E0DFF834D0002103E0AD
:103200000C4B5B58435004310B480C4B42189A420C
:10321000F6D30B4A02E0002342F8043B094B9A42E2
:10322000F9D3FFF7DBFF00F011F8FDF79FFF7047C0
:10323000000002203443000800000020700000203D
:103240007000002060020020FEE7000070B50D4D08
:103250000D4C641BA4100026A64209D10B4D0C4C4A
:1032600000F0ECFF641BA4100026A64205D170BD3F
:1032700055F8043B98470136EEE755F8043B98476C
:103280000136F2E72C4300082C4300082C430008C9
:103290003043000802440346934200D1704703F8CC
:1032A000011BF9E70FB40A4B13B51C6824B1A369DD
:1032B00013B9204600F066F805AB049AA1680193A3
:1032C000204600F0BDF902B0BDE8104004B07047E0
:1032D0000C000020002310B50446C0E90033C0E90B
:1032E0000433836081814366C28183611946082269
:1032F0005C30FFF7CFFF054B6362054BA362054BC4
:10330000E362054B2462236310BD00BFE93B000864
:103310000B3C0008433C0008673C0008014900F0F2
:10332000AFB800BF413F000870B568224D1E55433D
:103330000E4605F1740100F0E5F8044640B10021A5
:10334000C0E900160C30A06005F16802FFF7A2FF8B
:10335000204670BD014800F0B3B800BF4D02002008
:10336000014800F0AEB800BF4D020020014800F057
:10337000A7B800BF4E020020014800F0A2B800BF6D
:103380004E02002010B50446FFF7F0FFA3691BB101
:10339000BDE81040FFF7F0BFC4E912332365134BBB
:1033A000134A1B68A262A34204BF0123A361204603
:1033B00000F020F86060204600F01CF8A060204675
:1033C00000F018F80022E06004216068FFF782FF37
:1033D000A06801220921FFF77DFFE0680222122187
:1033E000FFF778FF0123A361D2E700BF8C420008FA
:1033F0001D330008F8B50746FFF7ACFF1E4B1E68EB
:10340000B36913B93046FFF7BDFF4836D6E901343A
:10341000013B03D533680BB33668F7E7B4F90C50BA
:10342000D5B9164BE36004F15800656600F047F823
:10343000FFF796FFC4E90155C4E904552560A5616D
:103440000822294604F15C00FFF724FFC4E90D556A
:10345000C4E912552046F8BD6834D9E7042138463E
:10346000FFF762FF044630600028D5D1FFF778FFF0
:103470000C233B60EEE700BF8C4200080100FFFF19
:103480002DE9F8430646884600F148040027D4E9B0
:103490000195B9F1010905D52468002CF7D138460A
:1034A000BDE8F883AB89012B07D9B5F90E3001339C
:1034B00003D029463046C04707436835E9E77047DF
:1034C0007047704770B50E4E0C463168054611B90D
:1034D00000F07AFB30602146284600F075FB431C63
:1034E0000AD0C41C24F00304A04207D0211A2846A5
:1034F00000F06AFB013001D14FF0FF34204670BD6F
:10350000540200202DE9F041CD1C25F003050835BB
:103510000C2D38BF0C25002D074601DBA94205D92B
:103520000C233B6000263046BDE8F0812E4E00F0B3
:10353000BBFD33681C4634BB29463846FFF7C2FF43
:10354000431C04464DD134682646002E40D12368E2
:103550003146384604EB030800F036FB80453AD18B
:10356000216803356D1A25F0030508350C2D38BF89
:103570000C2529463846FFF7A5FF01302BD02368DC
:103580002B4423600EE02268521B1ED40B2A16D94E
:103590006119A342256018BF5960636808BF316094
:1035A00062514B60384604F10B0600F083FD26F0B3
:1035B0000706231DF21AB6D09B1BA350B3E762681F
:1035C000A3420CBF32605A60ECE723466468B2E75E
:1035D00034467668B9E70C233B60384600F06AFD54
:1035E000A1E72560DEE700BF500200209368013BA1
:1035F000002B10B4936008DA9469A34201DB0A2916
:1036000003D15DF8044B00F033BB1368581C106005
:10361000197008465DF8044B7047F8B506460F462A
:103620001446D518AC4201D1002007E014F8011B64
:103630003A463046FFF7DAFF431CF3D1F8BD0000ED
:103640002DE9F04F0D469DB014469846064618B138
:1036500083690BB9FFF796FE894B9D421BD17568B4
:103660006B6ED90705D4AB899A0502D4A86DFFF714
:1036700027FFAB891B0701D52B69EBB929463046DB
:1036800000F05AFBC0B16B6EDC070ED54FF0FF3077
:103690001DB0BDE8F08F7B4B9D4201D1B568DFE7DF
:1036A000794B9D4208BFF568DAE7AB899805EDD400
:1036B000A86DFFF706FFE9E70023099320238DF8A3
:1036C0002930CDF80C803023DFF8C0818DF82A3006
:1036D0004FF0010923469A4613F8012B0AB1252A17
:1036E000F9D1BAEB040B0BD05B4622462946304693
:1036F000FFF793FF013000F0AA80099A5A4409921B
:103700009AF80030002B00F0A28000234FF0FF3227
:10371000CDE905230AF1010A049307938DF853308C
:103720001A935446052214F8011B5848FCF750FD23
:10373000049AD8B9D10644BF20238DF8533013071B
:1037400044BF2B238DF853309AF800302A2B15D024
:10375000079A544600204FF00A0C214611F8013B0D
:10376000303B092B4ED9B0B1079214E0A0EB08030F
:1037700009FA03F313430493A246D2E7039B191DEE
:103780001B680391002BBBBF5B4242F00202079310
:103790000793B8BF049223782E2B0CD163782A2B81
:1037A00035D1039B1A1D1B680392002BB8BF4FF045
:1037B000FF3302340593DFF8E4A02178032250465A
:1037C000FCF706FD40B14023A0EB0A0003FA00F02D
:1037D000049B03430134049314F8011B2C488DF817
:1037E00028100622FCF7F4FC00283FD0294B1BBB15
:1037F000039B073323F0070308330393099B3B44E0
:10380000099367E70CFB02320C460120A5E7002371
:103810000134059319464FF00A0C204610F8012B8D
:10382000303A092A03D9002BC5D00591C3E70CFB18
:10383000012104460123F0E703AB00932A46164B0F
:1038400004A93046AFF300800746781CD6D16B6ED2
:10385000D90705D4AB899A0502D4A86DFFF731FECC
:10386000AB895B063FF512AF099811E703AB0093F4
:103870002A46094B04A9304600F080F8E4E700BF6F
:10388000B0420008D042000890420008F042000810
:10389000FA420008000000001B360008F64200084B
:1038A0002DE9F047164699468A680B69DDF82080B5
:1038B0009342B8BF1346336091F8432007460C4645
:1038C0000AB1013333602368990642BF336802337B
:1038D0003360256815F0060506D104F1190AE3687E
:1038E00032689B1AAB4226DC94F84320131E2268F0
:1038F00018BF012392062BD404F1430249463846EF
:10390000C04701301ED02368E568326803F0060323
:10391000042B08BFAD1AA36822690CBF25EAE57520
:1039200000259342C4BF9B1AED1800261A34B542F5
:103930001AD1002008E00123524649463846C047C4
:10394000013003D14FF0FF30BDE8F0870135C6E705
:10395000E1185A1C302081F84300224494F84510A5
:1039600082F843100233C7E701232246494638460E
:10397000C0470130E6D00136D9E700002DE9FF4706
:103980000F7E0C9D782F914680460C469A4601F199
:10399000430207D8622F0AD8002F00F0D880582F92
:1039A00000F0A38004F1420584F842703AE0A7F1E8
:1039B0006303152BF6D801A151F823F0153A00083E
:1039C000293A0008A5390008A5390008A5390008DA
:1039D000A5390008293A0008A5390008A5390008CA
:1039E000A5390008A5390008353B0008593A0008F8
:1039F000173B0008A5390008A5390008573B000807
:103A0000A5390008593A0008A5390008A539000869
:103A10001F3B00082B681A1D1B682A6004F1420531
:103A200084F842300123A3E020682968060601F1EA
:103A300004030AD50E682B60002E03DA2D2376428C
:103A400084F843305E480A2319E00E682B6010F0BA
:103A5000400F18BF36B2EFE72B682068191D2960A8
:103A6000010601D51E6802E04606FBD51E885448B3
:103A70006F2F0CBF08230A23002184F843106568C8
:103A8000A560002DA2BF216821F0040121600EB9BC
:103A9000002D4DD01546B6FBF3F103FB1167C75D52
:103AA00005F8017D3746BB420E46F4D9082B0BD1F1
:103AB0002368DE0708D5236961689942DEBF302399
:103AC00005F8013C05F1FF35521B2261CDF800A03D
:103AD0004B4603AA21464046FFF7E2FE01304CD197
:103AE0004FF0FF3004B0BDE8F087354881F84570ED
:103AF0002968236851F8046B29601D0614D5DF0777
:103B000044BF43F0200323601EB9236823F0200341
:103B100023601023B0E7236843F020032360782359
:103B2000284884F84530E3E7590648BFB6B2E6E7CF
:103B30001546BBE72B6826686169181D28603506A5
:103B40001B6801D5196002E07006FBD519800023BF
:103B500023611546BAE72B681A1D2A601D68626842
:103B600000212846FCF734FB08B1401B6060636805
:103B70002361002384F84330A8E723692A46494695
:103B80004046D0470130ABD023689B0713D4E06890
:103B9000039B9842B8BF1846A4E701233246494622
:103BA0004046D04701309BD00135E36803995B1A4A
:103BB000AB42F2DCEBE7002504F11906F5E700BFA4
:103BC000014300081243000838B5064D002304469F
:103BD00008462B6000F01CFB431C02D12B6803B18C
:103BE000236038BD5802002010B50C46B1F90E1004
:103BF00000F0B2FA0028ABBF636DA3891B1823F451
:103C00008053ACBF6365A38110BD2DE9F0411F4611
:103C10008B89DB0505460C46164605D5B1F90E1015
:103C20000223002200F0C8F9A389B4F90E1023F48E
:103C30008053A38132463B462846BDE8F04100F060
:103C400069B810B50C46B1F90E1000F0B5F9431C77
:103C5000A38915BF606523F4805343F48053A38187
:103C600018BFA38110BDB1F90E1000F0D3B8000049
:103C7000F8B50E461446054618B183690BB9FFF72F
:103C800081FB214B9C422BD16C68A369A360A38963
:103C90001A072FD523696BB323692068C01A63699B
:103CA000F6B28342374604DC2146284600F048F944
:103CB00030BBA368013BA36023685A1C22601E70BE
:103CC00063690130834204D0A389DB0706D50A2E3D
:103CD00004D12146284600F033F988B93846F8BDAA
:103CE0000A4B9C4201D1AC68CFE7094B9C4208BF0C
:103CF000EC68CAE72146284600F01EF80028CBD021
:103D00004FF0FF37EAE700BFB0420008D04200089A
:103D10009042000838B5074D044608461146002277
:103D20002A601A4600F082FA431C02D12B6803B1C4
:103D3000236038BD58020020324B70B51D6806461E
:103D40000C4625B1AB6913B92846FFF71BFB2E4B78
:103D50009C420FD16C68A389B4F90C2019072CD4AC
:103D6000DD0611D40923336042F04003A3814FF0F4
:103D7000FF303EE0254B9C4201D1AC68EBE7244B81
:103D80009C4208BFEC68E6E7580712D5616B41B169
:103D900004F14403994202D0304600F091F9002327
:103DA0006363A38923F02403A38100236360236951
:103DB0002360A38943F00803A38123694BB9A38936
:103DC00003F42073B3F5007F03D02146304600F0A2
:103DD0002BF9A089B4F90C2010F001030AD00023BC
:103DE000A36063695B42A361236943B910F080005B
:103DF000BAD170BD810758BF6369A360F4E70020A2
:103E0000F7E700BF0C000020B0420008D0420008D5
:103E10009042000838B5064D0023044608462B6042
:103E200000F0CEF9431C02D12B6803B1236038BDEA
:103E3000580200208A892DE9F041054610070C46FA
:103E400058D44B68002B05DC0B6C002B02DC0020E7
:103E5000BDE8F081E66A002EF9D0002312F480520A
:103E60002F682B6032D0606DA3895A0705D563682F
:103E7000C01A636B0BB1236CC01A00230246E66ABA
:103E8000216A2846B047431CA38906D129681D2909
:103E90002CD82A4ACA40D60728D500226260D90405
:103EA0002269226004D5421C01D12B6803B96065E8
:103EB000616B2F600029CAD004F14403994202D0FB
:103EC000284600F0FDF800206063C1E7216A012365
:103ED0002846B047411CC7D12B68002BC4D01D2BEE
:103EE00001D0162B01D12F60B1E7A38943F0400325
:103EF000A381ADE70F69002FA9D093070E6808BF13
:103F00004B690F6018BF0023A6EB07088B60B8F160
:103F1000000F9CDD216AA66A43463A462846B04710
:103F2000002806DCA38943F04003A3814FF0FF3053
:103F30008EE70744A8EB0008E9E700BF0100402036
:103F400038B50B6905460C4613B90025284638BD1F
:103F500018B183690BB9FFF715FA144B9C421BD1BA
:103F60006C68B4F90C30002BEFD0626ED00704D42B
:103F7000990502D4A06DFFF7A3FA28462146FFF762
:103F800059FF636EDA070546E0D4A3899B05DDD4AB
:103F9000A06DFFF796FAD9E7054B9C4201D1AC68BA
:103FA000DFE7044B9C4208BFEC68DAE7B042000848
:103FB000D04200089042000838B5074D0446084634
:103FC000114600222A601A4600F012F9431C02D161
:103FD0002B6803B1236038BD5802002070B50E462F
:103FE000B1F90E10002996B014461D4608DAB6F94C
:103FF0000C3000222A601A0610D44FF480630EE0C1
:104000006A4600F0BBF80028F1DB019A02F4704226
:10401000A2F500535A425A412A60EEE7402300209D
:10402000236016B070BD00008B8973B59D070646EE
:104030000C4607D504F14703236023610123636124
:1040400002B070BD01AB6A46FFF7C8FF0099054694
:104050003046FFF757FA48B9B4F90C309A05EFD457
:1040600023F0030343F00203A381E3E70D4BB362A4
:10407000A389206043F08003A381009B6361019BBF
:1040800020615BB1B4F90E10304600F089F828B118
:10409000A38923F0030343F00103A381A08905430F
:1040A000A581CDE71D3300080148FFF709BA00BF1D
:1040B0004C0200200148FFF704BA00BF4C02002068
:1040C00037B5002944D051F8043C0190002BA1F1F0
:1040D0000404B8BFE418FFF7E7FF1E4A019813680D
:1040E00033B96360146003B0BDE83040FFF7E2BF4E
:1040F000A34208D9256861198B4201BF19685B6822
:1041000049192160EDE71A465B680BB1A342FAD961
:1041100011685518A5420BD1246821445418A342B4
:104120001160E0D11C685B68536021441160DAE7DC
:1041300002D90C230360D6E7256861198B4204BFBE
:1041400019685B68636004BF491921605460CAE75D
:1041500003B030BD5002002038B5074D0446084674
:10416000114600222A601A4600F04AF8431C02D188
:104170002B6803B1236038BD5802002038B5074DC5
:1041800000230446084611462B6000F021F8431C2A
:1041900002D12B6803B1236038BD00BF5802002054
:1041A00038B5064D0023044608462B6000F018F889
:1041B000431C02D12B6803B1236038BD5802002094
:1041C000024B58221A604FF0FF307047580200200F
:1041D000024B58221A604FF0FF30704758020020FF
:1041E000024B58221A600020704700BF580200207E
:1041F000024B58221A604FF0FF30704758020020DF
:10420000024B58221A604FF0FF30704758020020CE
:10421000044A05491368002B08BF0B461844106078
:10422000184670475C02002060020020024B5822B2
:104230001A604FF0FF30704758020020F8B500BFF9
:10424000F8BC08BC9E467047F8B500BFF8BC08BC77
:044250009E467047CF
:10425400256C667C256C667C256C667C256C667C8E
:10426400256C660D0A0000000006101600061016E4
:104274000000000000000000010203040607080912
:1042840000000000010203041000002000000000F0
:10429400000000000000000000000000000000001A
:1042A400000000000000000000000000000000000A
:1042B40000000000000000000000000000000000FA
:1042C40000000000000000000000000000000000EA
:1042D40000000000000000000000000000000000DA
:1042E400000000000000000000000000232D302B1F
:1042F4002000686C4C0065666745464700303132E3
:104304003334353637383941424344454600303139
:104314003233343536373839616263646566000098
:08432400E8C5FF7F0100000065
:04432C00B5010008CF
:0443300091010008EF
:1043340001000000100000000024F4001000002020
:1043440000000000B0420008D0420008904200087B
:104354000000000000000000000000000000000059
:104364000000000000000000000000000000000049
:104374000000000000000000000000000000000039
:104384000000000000000000000000000000000029
:104394000000000000000000000000000000000019
:04000005080031F9C5
:00000001FF
