:020000040800F2
:10000000788C002031020008390200083B02000809
:100010003D0200083F020008410200080000000005
:100020000000000000000000000000007102000855
:100030004502000800000000090300081903000839
:100040004B0200084B0200084B0200084B0200085C
:100050004B0200084B0200084B0200084B0200084C
:100060004B0200084B0200084B0200084B0200083C
:100070004B0200084B0200084B0200084B0200082C
:100080004B0200084B0200084B0200084B0200081C
:100090004B0200084B0200084B0200084B0200080C
:1000A0004B0200084B0200084B0200084B020008FC
:1000B000D50900084B0200084B0200084B0200085B
:1000C0004B0200084B0200084B0200084B020008DC
:1000D0004B0200084B0200084B0200084B020008CC
:1000E0004B0200084B0200084B0200084B020008BC
:1000F0004B0200084B0200084B0200084B020008AC
:100100004B0200084B0200084B0200084B0200089B
:100110004B0200084B0200084B0200084B0200088B
:100120004B0200084B0200084B0200084B0200087B
:100130004B0200084B0200084B0200084B0200086B
:100140004B0200084B0200084B0200084B0200085B
:100150004B0200084B0200084B0200084B0200084B
:100160004B0200084B0200084B0200084B0200083B
:100170004B0200084B0200084B0200084B0200082B
:100180004B0200084B02000800F002F800F03CF8B7
:100190000AA090E8000C82448344AAF10107DA45E2
:1001A00001D100F031F8AFF2090EBAE80F0013F0F8
:1001B000010F18BFFB1A43F001031847BC230000CE
:1001C000DC230000103A24BF78C878C1FAD852075F
:1001D00024BF30C830C144BF04680C6070470000C1
:1001E0000023002400250026103A28BF78C1FBD840
:1001F000520728BF30C148BF0B6070471FB502F0DF
:1002000015F91FBD10B510BD00F057F9114603B424
:1002100000F062FD03BCFFF7F1FF00F0B7FE00F055
:1002200071F903B4FFF7EEFF03BC00F079F90000A9
:100230000948804709480047FEE7FEE7FEE7FEE77A
:10024000FEE7FEE7FEE7FEE7FEE7FEE704480549B6
:10025000054A064B704700007D0900088901000827
:1002600078860020788C002078880020788800200C
:100270001EF0040F0CBFEFF30880EFF309808169D3
:1002800011F8021C91BB01B590E80F10E047BDE8E2
:1002900000508CE80300244B93E80600914208BF0D
:1002A000704741B91EF0100F10D12049086820F0A6
:1002B000010008600AE02CE9F00F1EF0100F08BFE3
:1002C0002CED108AC1F838C081F822E01A6092F84B
:1002D0002210906B61F0FF0E1EF0100F08BFB0EC03
:1002E000108AB0E8F00F80F309887047104A13684D
:1002F0009942FAD801B552F821C00FC8E047BDE8CD
:100300000050CCF80000704701B501F0EFF8BDE8EF
:100310000140EFF3098CBEE701B501F01DFBBDE81C
:100320000140EFF3098CB6E71800002034EF00E03D
:1003300008250008032A40F2308010F0030C00F07A
:10034000158011F8013BBCF1020F624498BF11F80F
:1003500001CB00F8013B38BF11F8013BA2F10402C8
:1003600098BF00F801CB38BF00F8013B11F0030340
:1003700000F07180083AC0F0088051F8043B083A58
:1003800051F804CBA0E80810F5E7121D5CBF51F846
:10039000043B40F8043BAFF30080D20724BF11F8C0
:1003A000013B11F801CB48BF11F8012B24BF00F825
:1003B000013B00F801CB48BF00F8012B70474FF01C
:1003C00000020429C0F0128010F0030C00F01B8022
:1003D000CCF1040CBCF1020F18BF00F8012BA8BF30
:1003E00020F8022BA1EB0C0100F00DB85FEAC17CF4
:1003F00024BF00F8012B00F8012B48BF00F8012BA7
:1004000070474FF0000200B51346944696462039D7
:1004100022BFA0E80C50A0E80C50B1F12001BFF4BD
:10042000F7AF090728BFA0E80C5048BF0CC05DF823
:1004300004EB890028BF40F8042B08BF704748BF71
:1004400020F8022B11F0804F18BF00F8012B7047E5
:1004500070477047704710B5203AC0F00B80B1E884
:100460001850A0E81850B1E81850A0E81850203AE9
:10047000BFF4F5AF5FEA027C24BFB1E81850A0E8F2
:10048000185044BF18C918C0BDE810405FEA827C0C
:1004900024BF51F8043B40F8043B08BF7047D20723
:1004A00028BF31F8023B48BF11F8012B28BF20F8C4
:1004B000023B48BF00F8012B7047754600F02CF84E
:1004C000AE4605006946534620F00700854618B041
:1004D00020B5FFF7BBFEBDE820404FF000064FF00F
:1004E00000074FF000084FF0000BAC46ACE8C00925
:1004F000ACE8C009ACE8C009ACE8C00921F00701CC
:100500008D46704710B50446AFF300802046BDE825
:100510001040FFF786BE000000487047A80000208A
:1005200001491820ABBEFEE726000200704700001C
:100530002DE9F041D1F8008000234FF0030C4FF07B
:10054000010E00240FE000BFC268AA43C260CA794E
:10055000C5689A402A43C2600134102C03F102039B
:1005600008BFBDE8F08128FA04F5ED07F4D006686D
:100570000CFA03F5AE4306600E79076806FA03F23B
:10058000013E3A43012E0260DED88268EE433240DB
:1005900082604A798E7987689A403A4382604268DD
:1005A0000EFA04F7BA43426006FA04F2466892B2C1
:1005B00032434260C8E700001C2303EA810C6FF05D
:1005C000030303EA510108440F23016A03FA0CF301
:1005D00099430162016A02FA0CF211430162704709
:1005E000418370470183704710B500F1280151E83D
:1005F000002F12B9BFF32F8F04E0531E41E80034DF
:1006000004B1F4E772B12C300121006850B1821CB2
:10061000D2E84F3FC2E8441F04B1F9E71A0602D0FE
:100620000830F2E7002010BD70B5024652F8305F86
:100630004DB1CC7800235DB12E46ED78A5420DD2A8
:1006400075683346F7E70023C1E90133C1620DE065
:100650000024C1E9014300F12C0403E0C1E9016376
:1006600006F108042160002B18BF1A1D1160283004
:1006700050E8001F4A1C40E8002303B1F8E770BDB2
:10068000D1E90123002A0EBFC36293608B68191D54
:10069000002B08BF00F130010A60704710B5C17827
:1006A00000294EF20011CEF200011CD04EF60C5281
:1006B000CEF200021268072323EA12220F23C2F1AE
:1006C000040C23FA02FE427884785FFA8CF390F8E7
:1006D00000C09A4004EA0E031A43120101EB0C0316
:1006E00083F8002300E080310078012300F01F022E
:1006F00003FA02F2C0F3421041F8202010BD0000BE
:100700001A480068704700BF19480178012905D1CF
:1007100005494FF080620A600021017013480168AA
:1007200041F001010160704704ED00E04FF0FF303F
:100730007047000040B10B490968B1FBF0F0411E61
:100740000020B0EB116F02D04FF0FF307047064A27
:10075000FF231370054A0623136051600449087093
:10076000906070470000002023ED00E010E000E002
:1007700008010020002943F63001C4F202010A6892
:100780000CBF22EA0000104308607047002943F6BE
:100790004001C4F202010A680CBF22EA00001043C3
:1007A0000860704710B543F60404C4F2020462689E
:1007B00002F00C0342F20042082BC0F2F40206D011
:1007C000042B20D141F20022C0F27A021BE0D4F8BF
:1007D00000C0236803F03F0E5FEA4C2341F2002380
:1007E000C0F27A0358BF13462268B3FBFEFCC2F383
:1007F0008812236802FB0CFCC3F30143022202EBC4
:100800004302BCFBF2F20260626842F2F843C2F3B8
:100810000312C0F600039A5C0168D140416062682F
:10082000C2F382229A5C21FA02F282606268C2F309
:1008300042329A5CD140C16010BD000082B043F6E4
:1008400008000021C4F202000191009150F8081C38
:1008500041F4803140F8081C50F8081C01F40031C4
:100860000091019901310191009919B90199B1F5EE
:10087000A04FF1D150F8081C890354BF0021012179
:1008800000910099012936D1816B41F0805181633B
:1008900047F20001C4F200010A6842F440420A60D3
:1008A00001680160016841F400410160016841F4A0
:1008B000A051016045F20841C0F2407140F8041CAB
:1008C00050F8081C41F0807140F8081C50F8081CD2
:1008D0008901FBD540F20571C0F8F813016821F0D9
:1008E00003010160016841F002010160016801F04B
:1008F0000C010829FAD102B07047000043F6040049
:10090000C4F20200416801F00C0242F20041082AE0
:10091000C0F2F40106D0042A1DD141F20021C0F238
:100920007A0118E002680368520241F20022C0F224
:100930007A0258BF0A46016803F03F03B2FBF3F2A4
:10094000C1F3881103685143C3F30142022303EB4F
:100950004202B1FBF2F140F20002C2F20002116069
:10096000406842F2E841C0F30310C0F60001085CA1
:10097000116821FA00F010607047000010B54EF6C3
:100980008854CEF2000420684FF6FF7340F47000E4
:10099000206043F60000C4F202000168CFF6F6635F
:1009A00041F0010101600021816002681A4002608B
:1009B00043F21002C2F200424260026822F4802236
:1009C0000260C160FFF73AFF4FF0006044F8800C0E
:1009D00010BD000080B54FF08040012100F02EF8DE
:1009E000002808BF80BD48F26C60C2F200000168B8
:1009F0000022002908BF5A22026048F27060C2F249
:100A00000000026048F27460C2F2000002604FF021
:100A10008040012100F002F880BD0000C94301823E
:100A2000704700000288002942F0010308BF22F04D
:100A30000103038070470000406A7047028A808982
:100A40000A4018BF0122084018BF0120104070471B
:100A5000002A82890CBF22EA01011143818170477B
:100A60004162704710B540F6FF32B0F800E0C4F2C2
:100A7000000240F2004C9042C4F2010C0FDCB0F1D5
:100A8000804F19D040F20042C4F20002904213D0CD
:100A900040F60002C4F2000290420DD011E040F690
:100AA0000042C4F20002904206D0604504D0002209
:100AB000C4F20102904204D14A882EF0700342EA47
:100AC000030E41F2004340F48062C4F200039A42F4
:100AD00004D00C892EF4407344EA030EA0F800E021
:100AE0004B686245C3620B88038504BF897A01861F
:100AF0000121818210BD10B5930712D400F12803A3
:100B0000D0071ED153E8000F084203D1BFF32F8F47
:100B1000002005E020EA010243E8002404B1F1E7E7
:100B200010BD806A00EA01038B42014618BF002114
:100B300012F0010208BF014653EA020018BF08463E
:100B400010BD53E8000F00EA01028A4203D0BFF350
:100B50002F8F002005E020EA010243E8002404B1C1
:100B6000EFE710BDB0B5104A0023443215462C689B
:100B70003CB12569A94209D3491B04F10C05234660
:100B8000F5E70024C0E90234016106E0C0E902345F
:100B90000161A0602569691A2161002B18BF03F16A
:100BA0000C021060B0BD00BF040000208289002943
:100BB00042F4005308BF22F40053838170470000C1
:100BC00070B584B00446008A0D46C98820F44050B0
:100BD00008432082A0894EF6F3110840A9882A898B
:100BE0006B89084310431843A081A08AA98920F487
:100BF000407008436E46A0823046FFF7D3FD41F2B5
:100C0000004144F48060C4F20101884214BF06F13F
:100C1000080006F10C0000681922B4F90C105043CA
:100C20002A680223002948BF012302FA03F1B0FB1E
:100C3000F1F048F21F51C5F2EB11A0FB01235A0954
:100C40006FF0630302FB0300B4F90C300426002BA1
:100C500048BF032600FA06F000F13200A0FB0101B4
:100C60004FF00F0048BF072000EA511040EA021081
:100C7000208104B070BD000010B5044600F002FFF2
:100C8000002808BF10BD20684FF0FF3100F06AFA5D
:100C900010BD000080B5006800F076FA80BD00004D
:100CA00010B50446002000F081FA002820601CBF27
:100CB000012010BD0520214600F09CFA002010BD47
:100CC00010B5044600F0DEFE002808BF10BD206805
:100CD00000F07EFA10BD000080B500F097F980BDED
:100CE00082B048F26C6540F20C1646F2B70940F645
:100CF0000044C2F20005C2F200064FF0C808CBF271
:100D00000B69C4F2020412E0012300FB08F059FB56
:100D100000004FF40062011201EBD0708700204602
:100D20004FF48061009700F0BDFE286830602868AD
:100D300031682A688842A2EB0100E5DCB0F1FF3F90
:100D4000F3DC28680023081ADFE7000082B048F2CD
:100D5000706540F2101646F2B70940F60044C2F240
:100D60000005C2F200064FF0C808CBF20B69C4F2CE
:100D7000020412E0012300FB08F059FB00004FF4CD
:100D80000052011201EBD070870020464FF48051D1
:100D9000009700F087FE28683060286831682A686C
:100DA0008842A2EB0100E5DCB0F1FF3FF3DC2868EC
:100DB0000023081ADFE7000082B048F2746540F2B1
:100DC000141646F2B70940F60044C2F20005C2F21A
:100DD00000064FF0C808CBF20B69C4F2020412E01F
:100DE000012300FB08F059FB00004FF40042011200
:100DF00001EBD070870020464FF48041009700F04F
:100E000051FE28683060286831682A688842A2EB61
:100E10000100E5D1B0F1FF3FF3DC28680023081A98
:100E2000DFE70000B0B5002808BFB0BD41F2000503
:100E30000446C4F2000500BF28460021FFF710FE5B
:100E40002846FFF7F9FD0228FAD3013CF4D1B0BDE2
:100E500010B584B010200121FFF798FC292041F241
:100E6000000401904FF6FF70C4F20004029001A943
:100E70002046FFF7F7FD20460121FFF7D3FD04B020
:100E800010BD000080B582B008200121FFF772FC80
:100E90004FF47C40009040F20130019040F6004059
:100EA000C4F202006946FFF743FB02B080BD0000B8
:100EB00080B584B001200121FFF768FC48F29F61F2
:100EC000C0F201010020029140F60F61ADF80C0064
:100ED00001918DF80E0001A94FF08040FFF7C2FD8F
:100EE0004FF0804001210122FFF7B2FD4FF080401A
:100EF0000121FFF797FD1C20C0F20010009068460A
:100F0000FFF7CCFB04B080BD70B586B00120012195
:100F10000125FFF72FFC4FF400200121FFF736FCDD
:100F20000024C4F202042046002108220026FFF714
:100F300043FB204601210822FFF73EFB40F202203E
:100F40000495C0F2001004AD059020462946FFF735
:100F5000EFFA022004908DF8140020462946FFF78E
:100F6000E7FA4FF4E130CDE900064FF44020A4F554
:100F7000DA34029069462046ADF80C60FFF720FE97
:100F800020460121FFF712FE06B070BDFFF7B6FC48
:100F9000FFF778FFFFF75CFFFFF78AFFFFF7B4FF6B
:100FA00000F034F840F6E140C0F6000000210022D5
:100FB00000F056FD40F64D50C0F600000021002222
:100FC00000F04EFD40F6B950C0F6000000210022AE
:100FD00000F046FD00F030F8FEE70000EFF305807A
:100FE00048B9EFF3108030B9EFF3118018B9EFF37F
:100FF0001480C00702D10448007A7047DFF804C0AB
:1010000000DF7047E91A00080400002080B500F0F6
:10101000F4F8EFF3058028B9EFF3108010B9EFF37F
:10102000118010B16FF0050080BDDFF808C000DF4F
:1010300080BD00BFF51A0008EFF3058028B9EFF373
:10104000108010B9EFF3118010B16FF005007047F8
:10105000DFF804C000DF7047451C0008F8B51446EF
:101060000E460546EFF3058028B9EFF3108010B95E
:10107000EFF31180F0B16FF003000DB303BBFEB1CD
:101080002978FA291CD12846FFF7AEFA78B16A6AA6
:10109000074600F10C013046FFF74CF90CB1F87827
:1010A00020703846FD6000F065FA0020F8BD6FF052
:1010B0000200F8BD2846DFF80CC03146224600DFAA
:1010C000F8BD00BFCD1C0008EFF305832BB9EFF38B
:1010D000108313B9EFF311830BB100207047DFF8D1
:1010E00008C000DF704700BFAD1D00082DE9F041CA
:1010F00090460D460646EFF3058028B9EFF31080C1
:1011000010B9EFF3118018B36FF00307EEB1E3B934
:10111000DDB13078FA2818D106F10C0000F0E7F8BC
:1011200088B1726A04460C302946FFF703F900279C
:10113000F920C4E9015684F80380A7702070204686
:1011400000F018FA01E06FF002073846BDE8F081C0
:101150003046DFF80CC02946424600DFBDE8F0818A
:10116000DD1E0008EFF305822AB9EFF3108212B9F1
:10117000EFF3118212B16FF005007047DFF804C081
:1011800000DF7047991F0008EFF3058129B9EFF3DD
:10119000108111B9EFF3118111B16FF005007047A3
:1011A000DFF804C000DF70472D200008EFF3058151
:1011B00029B9EFF3108111B9EFF3118109B10020C2
:1011C0007047DFF808C000DF704700BFD920000873
:1011D000EFF3058129B9EFF3108111B9EFF3118114
:1011E00011B16FF005007047DFF804C000DF7047F1
:1011F00041210008FEE70000FEE77047F0B500233C
:1012000090B389B3032A2FD8034653F8084F0F3100
:1012100021F007012546E61A5C6824F00307F61B57
:101220008E4205D22C682B46002CF3D100231BE004
:10123000D0E900650D444560304450F8046CAE427E
:1012400002D2083845605C6854B1186824F0030481
:10125000E05041EA0200E118486019600B4602E0E4
:1012600041EA0200586008331846F0BDB0B50022CC
:10127000E8B1E1B100F10804A1F1080200239442B1
:1012800006D0254624682B46002CF8D100220EE01B
:1012900051F8045C446825F00305641B446013B1F5
:1012A0001068186002E0002041F8040C012210468A
:1012B000B0BD08B1420702D000221046704700229C
:1012C0001829FAD311F00703F7D110B50A18A2F1C3
:1012D00008038360002342F8083C826810245460AD
:1012E0000122C0E90014C360BDE81040E5E710B575
:1012F000002817D0014600F1140252E8000F10B97F
:10130000BFF32F8F04E0036842E8003404B1F4E730
:1013100040B1043151E8002F531C41E8003404B1BE
:10132000F8E710BD002010BDB0B500281ED0C2687F
:101330008A421BD802698A4218D900F11402136844
:101340000B60BFF35F8F52E8003F0C689C42F6D100
:1013500042E8001505B1F2E7043050E8001F4A1ECC
:1013600040E8002303B1F8E70020B0BD6FF00300B0
:10137000B0BDB0B504460020ACB1A1B19AB193B1F3
:101380000020C4E9001004F1080002FB01352CC064
:10139000481E636120B19918196001380B46F9E7BE
:1013A000002018600120B0BDF8B50446807868B30D
:1013B000E56821462846FFF763F9002005F10C0691
:1013C000207030462146FFF7AFFFA868E8B13046ED
:1013D000FFF78DFFC8B10446284600F0E9F9002167
:1013E00000220646002700F09DFA304600F03EFA43
:1013F00081686A6A064604F10C00FEF79BFFF9203B
:10140000A7702070F068E07025E0F8BDA568A868B6
:1014100008B3407883281ED1284600F0C9F900217E
:1014200000220646002700F07DFA304600F01EFA42
:10143000064680686A6A04F10C01FEF77BFFF068DB
:1014400008B1E1780170277005F10C002146BDE874
:10145000F840FFF769BF28462146BDE8F840FFF78E
:10146000E3B82DE9F041044600274FF00108D4B15C
:101470002546E87864690007F9D52F76A868002822
:10148000F5D0284600F094F900210022064600F02D
:1014900049FAC5E90367F06A686100B1056185F83A
:1014A0001880F562E3E7BDE8F081B0B5C278920735
:1014B00015D5C068C36A90F821209C688C4208BF8B
:1014C0008C682CB194F9204055B2AC42C8BFE2B24E
:1014D0005B69002BF1D190F82010914200D1B0BD92
:1014E00080F82020BDE8B04000F091B970B5EC4C18
:1014F00004F1560504F15A06B4F85400D5E85F1F0C
:1015000011B9BFF32F8F04E04A1EC5E8532F03B172
:10151000F4E7090429D0D6E85F1F4A1C904200D89E
:101520000022C6E8532F03B1F5E788B2E16D51F808
:101530002000D0B10178F1390829DDD8DFE801F0C9
:1015400006050905050C0F051200D5E7216E884731
:10155000D2E7616E8847CFE7A16E8847CCE7E16E9E
:101560008847C9E7216F8847C6E70020BDE870407B
:1015700000F0CAB870B50146E94800F15603B0F86A
:101580005420D3E85F4FA24202D8BFF32F8F04E06C
:10159000651CC3E8565F06B1F3E7A3B2934214D2C9
:1015A00000F15803D3E85F4F651CAA4200D800251C
:1015B000C3E8565F06B1F5E7C36DA2B243F8221047
:1015C000417A39B10121817270BD0220BDE87040BD
:1015D000FFF710BE02484FF08051016070BD00BFA0
:1015E00004ED00E010B501214170CD4990F92030A3
:1015F0001C310A46896841B191F920409C42F8DCCF
:10160000C0E9021290600C3104E00021C0E902122E
:1016100002F10801086010BDB0B54A1C0DD0E94ABE
:1016200000242C3215462B68DBB1DD69A9421AD3A0
:10163000491B03F110051C46F5E7EF490023303143
:101640000C461A46236803F11004002BF9D14FF021
:10165000FF33C3610023C0E904329AB102F11001E3
:1016600010E0002500E00125002CC0E90434C16130
:1016700018BF04F1100210602DB1DA69511AD96156
:1016800003F114010860B0BDC2690169531C0AD09E
:1016900021B143694B61CB691A44CA6142693AB9C5
:1016A000EB48C162704709B142694A6142691AB1A7
:1016B0000023436111617047E5480163704700BF33
:1016C00070B5E34DEC6A1CB1E0690138E06100D00F
:1016D00070BD042660781338B6EB301F05D1204664
:1016E00000F08FF82146FFF7E0FE204600F07FF87B
:1016F000204600F0B3F8246924B1E0690028E9D05D
:1017000000206061EC6270BDB0B50546D048446908
:10171000017A65B1022905D194F9200095F92010CC
:10172000814211DC2846BDE8B04000F097B802299C
:1017300012D1456A85B194F9200095F920108142B3
:101740000ADD284600F053F82046FFF74BFF2846F5
:10175000BDE8B04000F0C4B8B0BD00BF10B504464D
:1017600000202080A07881070DD5C00605D4E04870
:10177000216B406FFFF77AFD05E0DD48216BD0F863
:101780008400FFF7D1FDA078C00708BF10BDD8497D
:10179000D1F8880020B12146BDE81040FFF7C4BD54
:1017A000D1F880002146BDE81040FFF75FBD00BFC3
:1017B0000146806882688A6002B1D1600021C16000
:1017C000704710B591F920300246806840B190F919
:1017D00020409C42F8DAC1E9020291600C3004E03A
:1017E0000020C1E9020202F10800016010BDC168D9
:1017F00031B182688A60826802B1D1600021C16023
:1018000070470178F12918BF7047C068F9E7B0B593
:101810000446054625B12878F12802D1ED68F9E79C
:10182000B0BD2046FFF7E3FF28462146BDE8B040A3
:10183000FFF7C7BF10B50446407833280DD194F8A0
:101840002320616A2046FFF756F930B10146204651
:101850000022BDE8104000F065B810BD014601202F
:101860004870F5481C30FFF7ACBF00BF90F822105D
:10187000C9064FF0200158BF6021806B08447047B3
:10188000ED48416939B1086B8A6B824204D900681E
:10189000044A904200D170470120FFF7ABBC00BF63
:1018A00004000020A52E5AE270B5E44C0A48A26D4F
:1018B000666E002100F0D2FCDF4DA8624EB1E26DF1
:1018C0000648002100F0CAFCA864002818BF0120C7
:1018D00070BD012070BD00BFF9110008C9190008D2
:1018E000F649886102214170FFF7CABF10B5F34C79
:1018F0000246237A0020022B11D1636A7BB1606912
:101900004270FFF789FE606A8168616211B104F17B
:101910001C02CA600021C160FFF7E2FF012010BD78
:1019200004000020B0B5044690F822001546C00619
:101930004FF0200058BF6020A26B81502046FFF777
:10194000A3FE20461DB1BDE8B040FFF7DDBEBDE8F7
:10195000B040FFF783BF0000B0B5FEF7D1FED74D12
:10196000E968286D0131E96000B18047FFF7A8FE02
:101970000020FFF7C9FE296C11B3AA69A86B904239
:101980001CBFC5E90E21B0BDE96B11B10139E96396
:1019900016D1297A022913D16C6A8CB190F82000F3
:1019A00094F8201081420BD12046FFF720FFA86B4E
:1019B000FFF754FF2046FFF793FF286CC5E90E4060
:1019C000B0BD00BF0400002082B0BE480821D0E9AD
:1019D0001820FFF779FBF44D08496C46C5E913015F
:1019E000214600224FF0FF33FFF738FB10B9DDE945
:1019F00000108847E86CF3E704000020011A000893
:101A000070B5E94D6C6C14B3206901260138206172
:101A1000ECB12069D8B9E06808B1A1688160686458
:101A2000E86C04F1180100220023FFF75FFB18B1F6
:101A300003202146FFF7DEFBE078012804D161692D
:101A40002046FFF78FF800E066706C6CE0E770BD31
:101A500004000020DFF804C000DFFEE7F5210008E5
:101A6000EFF305832BB9EFF3108313B9EFF3118371
:101A70000BB100207047DFF808C000DF704700BFDF
:101A80005D22000810B548F26864C2F200042078B4
:101A900028B9FFF7A3FA0228A4BF012020702078FC
:101AA00010BD000070B5049E1446054613B1FEF744
:101AB00099FD01E0FEF794FD012EB8BF70BD00BF97
:101AC00028462146FEF78EFD4FF4FA70FFF7AAF97B
:101AD00028462146FEF784FD4FF4FA70FFF7A2F97D
:101AE000013EEDD170BD0000FA48007A704700BF9A
:101AF000040000202DE9F843F64F387A30B1012870
:101B000000F096804FF0FF30BDE8F88307F1080041
:101B10009C21FEF776FCDFF80489B8F81000D8E9BC
:101B20000B41A7F85400D8E90202FA653864204650
:101B3000FFF7BFFB08B1C7F88040D8E90541DFF8DF
:101B40000091D8E907562046C847D7F880100028EA
:101B500018BF2146796728463146C847D7F8801014
:101B6000002818BF2946B967D8E909412046C84767
:101B7000D7F88010002818BF2146D8F83440F967FC
:101B80003CB12168D4E902232046FFF7F2FBC7F8F5
:101B90008440D8F838403CB12168D4E9022320467B
:101BA000FFF7E7FBC7F88840D8F83C403CB1216814
:101BB000D4E902232046FFF7DCFBC7F88C40D8F8B5
:101BC00040403CB12168D4E902232046FFF7D1FB15
:101BD000C7F89040D8F844403CB12168D4E90223CA
:101BE0002046FFF7C6FBC7F89440D8F848403CB100
:101BF0002168D4E902232046FFF7BBFBC7F89840D1
:101C0000D8F84C403CB12168D4E902232046FFF7C4
:101C1000B0FBC7F89C40D8F850403CB12168D4E9EB
:101C200002232046FFF7A5FBC7F8A0400120387229
:101C30000020BDE8F88300BF04000020482400080D
:101C4000B3120008B0B5F84C207A01281CD1FFF778
:101C50002BFEC8B11A48FF218175817D026881F091
:101C6000FF01B1FA81F1C1F12001C2F302228A42DF
:101C700028BF511CFE2202FA01F1124DC17468689E
:101C80001149FEF757FD10B14FF0FF30B0BDFEF720
:101C90004DFD2061FEF738FD04F11C00FFF788FDC3
:101CA000FFF71EFE2878C0070CBF0320022080F338
:101CB0001488022020720020B0BD00BF0400002064
:101CC0000CED00E048240008190300082DE9F84352
:101CD00000284CD00F466FF00305002949D0044678
:101CE0000078FA2845D1204699469046FEF77CFCBC
:101CF000002841D0064620463146FEF7C1FC626A04
:101D000006F10C013846FEF715FBB8F1000F1CBFB9
:101D1000F07888F8000004F10C07002538463146B9
:101D20003570FFF701FBA06818B33846FFF7DFFAFC
:101D30000025F0B106462046FFF73AFD00210122BA
:101D40000746FFF7EFFD3846FFF790FD8168626AAE
:101D5000074606F10C00FEF7EDFAF920B570307079
:101D6000F8683146F0702046FEF75EFC01E06FF047
:101D700003052846BDE8F883B9F1000F10D0832091
:101D80004946FFF7B3FD40B1EC4841692046FFF7F3
:101D900018FDEFF30980C0E902786FF00105E8E76C
:101DA0006FF00205E5E700BF040000202DE9F84FC1
:101DB000002770B10D4661B105F10F0121F0030656
:101DC0000446B0FA80F0B6FA86F10844202803D21F
:101DD00000273846BDE8F88F06FB04F872B1D2F848
:101DE00008A01368D2E90490BAF1000F11D05FEA9D
:101DF0008A71EDD1D1683429EAD30DE000234FF088
:101E00000009FB490093D1F8A00078B1FFF76FFA01
:101E100012E0D1680029DBD1B9F1000F2FD00027E3
:101E20004045D6D319F003002BD0D2E7D1F880007B
:101E300034210122FFF7E2F982464FF0010BB9F19C
:101E4000000F10D1BAF1000F0DD0E94F4146F86FE5
:101E50000022FFF7D3F9814638B148464146FEF7E4
:101E6000AEFA57461AE057461AE0BBF1000F14D0FD
:101E7000D7F8A00060B15146FFF756FA0DE00028F0
:101E8000A6D1BAF1000FBCD000934FF0000BD6E7FB
:101E9000D7F880005146FFF7E9F900270BF1020B54
:101EA000002F3FF496AF0020C7E90950C7E90B00A7
:101EB00000993246C7E90110FA2087F802B038705D
:101EC00007F10C0021464B46FFF753FAE24802495E
:101ED00001677EE704000020A91300082DE9F843FC
:101EE00038B30E466FF00307002951D0054600783D
:101EF000FA284DD1A86899469046E8B140788328E1
:101F00001AD12846FFF754FC00210122044600277D
:101F1000FFF708FD2046FFF7A9FC044680686A6ABF
:101F20003146FEF707FAE06890B380F8008000279A
:101F30002EE06FF003072BE005F10C00FFF7D7F957
:101F400080B16A6A04460C303146FEF7F3F9002787
:101F5000F92084F80380A770207028462146FEF7F8
:101F600063FB15E0B9F1000F10D093204946FFF74D
:101F7000BDFC40B1B84841692846FFF722FCEFF3A9
:101F80000980C0E902686FF0010701E06FF0020705
:101F90003846BDE8F88300BF70B50446AE484569D1
:101FA0004DB32CB32078F52822D1207E30B30E46D5
:101FB000E178CA0702D0E268AA422BD066B388074C
:101FC0000AD5E06895F9201090F920208A4203DABA
:101FD00080F82010FFF71BFC53203146FFF786FCEA
:101FE00018B120462946FFF7ECFB6FF0010070BDE9
:101FF0006FF0030070BD4FF0FF3070BD0020C4E9EA
:102000000350E86A606100B104610120207600207D
:10201000EC6270BDFF2802D16FF0020070BD01308C
:102020002076002070BD00BF04000020B0B520B3B2
:1020300004460078F52820D1207EC0B36169E068AD
:1020400009B122690A6100F12C0223691546002BAF
:1020500018BF03F114052960E178890721D590F8AC
:102060002110126862B193682BB193F920304DB200
:10207000AB42C8BFD9B21432F3E76FF00300B0BD72
:1020800090F820208A420CD080F82010FFF7BFFB88
:1020900007E02046FFF78CFB6FF002010022FFF7FC
:1020A00041FCA0680028F4D10020FFF72DFB0020A0
:1020B0002070A178C9070DD0D749D1F8940018B184
:1020C0002146FFF731F904E0D1F880002146FFF7FF
:1020D000CDF80020B0BD00BF70B550B18468D0E924
:1020E00000657CB1A10710D1C16800201C2917D25E
:1020F00070BD00250026C849D1F8940038B1FFF71B
:10210000F6F80AE0C0680028F5D0002070BDD1F8CC
:1021100080001C210122FFF771F8044658B101200C
:102120006660E570A070F520207004F108001121B0
:10213000FEF767F900E00024204670BD040000208F
:1021400070B50446B448406970B154B12178F5299E
:1021500007D1217E11B1E268824209D06FF00204FA
:1021600004E06FF0030401E04FF0FF34204670BD3F
:1021700001392176090601D00024F7E7616909B128
:1021800022690A6100F12C0223691546002B18BF51
:1021900003F114052960E17889070FD590F8211023
:1021A00012684AB193682BB193F920304DB2AB421B
:1021B000C8BF19461432F3E780F82010A06888B130
:1021C0002046FFF7F5FA0021002205460026FFF71A
:1021D000A9FBC4E90356E86A606100B1046101200B
:1021E0002076EC6200200024FFF78EFABEE700BFE5
:1021F0000400002070B5884D287A02282AD1686A28
:1022000040B36C69E06AFFF72CF9A06918B10021AE
:102210000022FFF787FBEFF30980A063686A8168FB
:10222000696211B105F11C02CA600026C660FFF7A1
:1022300057FB6E61E078C00704D12046BDE87040CE
:10224000FFF78CBA0420E6606070686BA06000B194
:10225000C4606C6370BD00BF040000202DE9FE4F18
:1022600018B380466AB102F1100A96689AE88006AF
:10227000D2E90053BEB1B00717D1D068442814D3B7
:1022800017E001244FF0180A002300274FF000093F
:102290000025614A0293D2F88800CDE90015C0B14B
:1022A000FFF725F81BE0D06818B100242046BDE8F0
:1022B000FE8F37B10024B9F1000FF7D017F00700F7
:1022C000F4D1BAF1000F24D0AAF101003728ECD8DC
:1022D00021E0D2F8800044210122FEF78FFF06465C
:1022E0004FF0010B87B97EB184B14B494B4AD1F80D
:1022F0008400D2F85490C8B1FEF7F9FF07460028D1
:1023000018BF0BF1100B17E0344635E04248406F20
:102310000DE04FF0180AB9F1000F1BD00024B9F1FD
:10232000480FC3D319F0070015D0BFE7486F4946DF
:102330000022FEF763FF07460FB134461AE05FEA5A
:10234000CB7016D03449D1F8880068B13146FEF719
:10235000EBFF0EE00124002E3FF49BAFCDE900150A
:1023600002934FF0000BBDE7D1F880003146FEF735
:102370007DFF00244BF0020B002C3FF497AF019837
:10238000182160600298E07040F2F11084F802B009
:10239000208004F10800FEF734F807EB0901002063
:1023A0004039FD22C4F82300C4F82700C4F82B00EC
:1023B00084F82F0084F8222084F821A084F820A03B
:1023C000C4E90C79C4E90E181549009D3960134918
:1023D000097849070AD56FF0100101EB99013A1D00
:1023E0004FF0CC3311B108C20139FBE7A16B0022D9
:1023F0000D2A03D041F822000132F9E7094A4FF0D3
:102400008070C1E90D28C8630D6203480649016662
:102410002046FFF779F949E7040000204824000826
:10242000A52E5AE2551A000835180008F1EE100AD8
:102430004FF6FF71C0F2C03120EA010040F0407059
:10244000E1EE100A7047000003000000E8030000FE
:10245000050000001801002010000000000000002E
:10246000000000000000000000000000000000006C
:102470000000000058010020008000000000000063
:10248000000000000000000000000000000000004C
:10249000000000000000000000000000000C000030
:1024A0000C2500084825000830250008040000001D
:1024B000DC81002064820020000000000000000099
:1024C000000000000000000000000000000000000C
:1024D00000000000000000000000000000000000FC
:1024E000588100208C8100200000000000000000C6
:1024F00001020304060708090000000001020304AA
:1025000001020304060708090000000000000000A3
:1025100000000000DC8100204400000068820020F0
:1025200000020000010000000000000000000000A8
:10253000000000000000000058810020340000006E
:102540008C8100205000000000000000000000000E
:102550002082002044000000688400200002000067
:102560002800000000000000000000005254582025
:1025700056352E352E320000982500080000002028
:10258000A8000000C401000840260008A8000020A0
:10259000D08B0000E0010008007A030A6C250008D7
:1025A000D2B3FB02000000000000000000000000A9
:1025B000000000000000000000000000000000001B
:1025C000000000000000000000000000000000000B
:1025D00000000000000000000000000000000000FB
:1025E00000000000000000000000000000000000EB
:1025F00000000000000000000000000000000000DB
:1026000000000000000000000000000000000000CA
:1026100000000000000000000000000000000000BA
:1026200000000000000000000000000000000000AA
:10263000000000000000000000000000000000009A
:0400000508000231BC
:00000001FF
