:020000040800F2
:10000000000002204198000889980008899800089B
:100010008998000889980008899800080000000065
:1000200000000000000000000000000089980008A7
:100030008998000800000000899800088998000845
:10004000899800088998000889980008899800080C
:1000500089980008899800088998000889980008FC
:1000600089980008899800088998000889980008EC
:1000700089980008899800088998000889980008DC
:1000800089980008899800088998000889980008CC
:1000900089980008899800088998000889980008BC
:1000A00089980008899800088998000889980008AC
:1000B0001D20000889980008899800088998000880
:1000C000899800088998000889980008899800088C
:1000D000899800088998000889980008899800087C
:1000E000899800088998000889980008899800086C
:1000F000899800088998000889980008899800085C
:10010000899800088998000889980008899800084B
:10011000899800088998000889980008899800083B
:10012000899800088998000889980008899800082B
:10013000899800088998000889980008899800081B
:10014000899800088998000889980008899800080B
:1001500089980008899800088998000889980008FB
:1001600089980008899800088998000889980008EB
:100170008998000889980008899800080000000004
:08018000899800088998000825
:1001C000A3F5803A704700BF174B002B08BF134BB5
:1001D0009D46FFF7F5FF00218B460F461348144A52
:1001E000121A01F053FA0E4B002B00D098470D4B1A
:1001F000002B00D098470020002104000D000D487E
:10020000002802D00C48AFF3008001F01BFA200058
:10021000290002F001F901F005FA00BF0000080012
:10022000000000000000000000000000000A0020A4
:100230000C0F00200000000000000000AC0B0208C2
:1002400000000020000A0020000A00200C0F0020FF
:1002500070B54FF0FF0C4CF4E06C1CEA11541DBF5C
:100260001CEA135594EA0C0F95EA0C0F00F0DEF827
:100270002C4481EA030621EA4C5123EA4C5350EA0C
:10028000013518BF52EA033541F4801143F480135D
:1002900038D0A0FB02CE4FF00005E1FB02E506F0EE
:1002A0000042E0FB03E54FF00006E1FB03569CF043
:1002B000000F18BF4EF0010EA4F1FF04B6F5007F49
:1002C00064F5407404D25FEA4E0E6D4146EB0606BB
:1002D00042EAC62141EA55514FEAC52040EA5E5044
:1002E0004FEACE2EB4F1FD0C88BFBCF5E06F1ED8EE
:1002F000BEF1004F08BF5FEA500E50F1000041EB25
:10030000045170BD06F0004646EA010140EA0200D1
:1003100081EA0301B4EB5C04C2BFD4EB0C0541EAF3
:10032000045170BD41F480114FF0000E013C00F308
:10033000AB8014F1360FDEBF002001F0004170BD2C
:10034000C4F10004203C35DA0C341BDC04F1140445
:10035000C4F1200500FA05F320FA04F001FA05F2D1
:1003600040EA020001F0004221F0004110EBD3709E
:1003700021FA04F642EB06015EEA430E08BF20EACA
:10038000D37070BDC4F10C04C4F1200500FA04F36D
:1003900020FA05F001FA04F240EA020001F00041FF
:1003A00010EBD37041F100015EEA430E08BF20EA72
:1003B000D37070BDC4F1200500FA05F24EEA020EBA
:1003C00020FA04F301FA05F243EA020321FA04F0E9
:1003D00001F0004121FA04F220EA020000EBD370A0
:1003E0005EEA430E08BF20EAD37070BD94F0000FA0
:1003F0000FD101F00046400041EB010111F4801FD4
:1004000008BF013CF7D041EA060195F0000F18BF84
:10041000704703F00046520043EB030313F4801FC0
:1004200008BF013DF7D043EA0603704794EA0C0F7A
:100430000CEA135518BF95EA0C0F0CD050EA410690
:1004400018BF52EA4306D1D181EA030101F000410D
:100450004FF0000070BD50EA410606BF1046194635
:1004600052EA430619D094EA0C0F02D150EA013641
:1004700013D195EA0C0F05D152EA03361CBF104682
:1004800019460AD181EA030101F0004141F0FE4121
:1004900041F470014FF0000070BD41F0FE4141F4A5
:1004A000780170BD81F0004102E000BF83F000439D
:1004B00030B54FEA41044FEA430594EA050F08BFFF
:1004C00090EA020F1FBF54EA000C55EA020C7FEAC3
:1004D000645C7FEA655C00F0E2804FEA5454D4EB40
:1004E0005555B8BF6D420CDD2C4480EA020281EA0A
:1004F000030382EA000083EA010180EA020281EA42
:100500000303362D88BF30BD11F0004F4FEA013193
:100510004FF4801C4CEA113102D0404261EB4101A2
:1005200013F0004F4FEA03334CEA133302D0524228
:1005300063EB430394EA050F00F0A780A4F10104E4
:10054000D5F1200E0DDB02FA0EFC22FA05F280181E
:1005500041F1000103FA0EF2801843FA05F3594104
:100560000EE0A5F120050EF1200E012A03FA0EFC83
:1005700028BF4CF0020C43FA05F3C01851EBE371AD
:1005800001F0004507D54FF0000EDCF1000C7EEBCA
:1005900000006EEB0101B1F5801F1BD3B1F5001F08
:1005A0000CD349085FEA30004FEA3C0C04F1010427
:1005B0004FEA445212F5800F80F09A80BCF1004F50
:1005C00008BF5FEA500C50F1000041EB045141EAD2
:1005D000050130BD5FEA4C0C404141EB0101013C9B
:1005E00028BFB1F5801FE9D291F0000F04BF01468A
:1005F0000020B1FA81F308BF2033A3F10B03B3F15C
:1006000020020CDA0C3208DD02F1140CC2F10C02EB
:1006100001FA0CF021FA02F10CE002F11402D8BF49
:10062000C2F1200C01FA02F120FA0CFCDCBF41EA15
:100630000C019040E41AA2BF01EB0451294330BDE4
:100640006FEA04041F3C1CDA0C340EDC04F11404C1
:10065000C4F1200220FA04F001FA02F340EA030098
:1006600021FA04F345EA030130BDC4F10C04C4F1DE
:10067000200220FA02F001FA04F340EA03002946BE
:1006800030BD21FA04F0294630BD94F0000F83F408
:10069000801306BF81F480110134013D4EE77FEAEB
:1006A000645C18BF7FEA655C29D094EA050F08BF37
:1006B00090EA020F05D054EA000C04BF1946104618
:1006C00030BD91EA030F1EBF0021002030BD5FEA5C
:1006D000545C05D14000494128BF41F0004130BD84
:1006E00014F580043CBF01F5801130BD01F00045D8
:1006F00045F0FE4141F470014FF0000030BD7FEA4B
:10070000645C1ABF194610467FEA655C1CBF0B4645
:10071000024650EA013406BF52EA033591EA030F5C
:1007200041F4002130BD00BF90F0000F04BF002154
:10073000704730B54FF4806404F132044FF0000587
:100740004FF0000150E700BF90F0000F04BF002100
:10075000704730B54FF4806404F1320410F0004566
:1007600048BF40424FF000013EE700BF42004FEA61
:10077000E2014FEA31014FEA02701FBF12F07F43DE
:1007800093F07F4F81F06051704732F07F4208BF95
:10079000704793F07F4F04BF41F40021704730B59C
:1007A0004FF4607401F0004521F000411CE700BFE8
:1007B00050EA010208BF704730B54FF000050AE06B
:1007C00050EA010208BF704730B511F0004502D56C
:1007D000404261EB41014FF4806404F132045FEA6E
:1007E000915C3FF4D8AE4FF003025FEADC0C18BF17
:1007F00003325FEADC0C18BF033202EBDC02C2F109
:10080000200300FA03FC20FA02F001FA03FE40EA9A
:100810000E0021FA02F11444BDE600BF70B54FF09E
:10082000FF0C4CF4E06C1CEA11541DBF1CEA13557C
:1008300094EA0C0F95EA0C0F00F0DEF82C4481EAE4
:10084000030621EA4C5123EA4C5350EA013518BF04
:1008500052EA033541F4801143F4801338D0A0FBF1
:1008600002CE4FF00005E1FB02E506F00042E0FB9E
:1008700003E54FF00006E1FB03569CF0000F18BFA4
:100880004EF0010EA4F1FF04B6F5007F64F540744C
:1008900004D25FEA4E0E6D4146EB060642EAC621DF
:1008A00041EA55514FEAC52040EA5E504FEACE2E4C
:1008B000B4F1FD0C88BFBCF5E06F1ED8BEF1004F4F
:1008C00008BF5FEA500E50F1000041EB045170BDCB
:1008D00006F0004646EA010140EA020081EA03010F
:1008E000B4EB5C04C2BFD4EB0C0541EA045170BD0B
:1008F00041F480114FF0000E013C00F3AB8014F185
:10090000360FDEBF002001F0004170BDC4F10004CD
:10091000203C35DA0C341BDC04F11404C4F120054E
:1009200000FA05F320FA04F001FA05F240EA0200A9
:1009300001F0004221F0004110EBD37021FA04F6DF
:1009400042EB06015EEA430E08BF20EAD37070BD99
:10095000C4F10C04C4F1200500FA04F320FA05F0F8
:1009600001FA04F240EA020001F0004110EBD370FA
:1009700041F100015EEA430E08BF20EAD37070BD6A
:10098000C4F1200500FA05F24EEA020E20FA04F343
:1009900001FA05F243EA020321FA04F001F00041F2
:1009A00021FA04F220EA020000EBD3705EEA430E63
:1009B00008BF20EAD37070BD94F0000F0FD101F092
:1009C0000046400041EB010111F4801F08BF013CCB
:1009D000F7D041EA060195F0000F18BF704703F009
:1009E0000046520043EB030313F4801F08BF013D90
:1009F000F7D043EA0603704794EA0C0F0CEA13554C
:100A000018BF95EA0C0F0CD050EA410618BF52EA05
:100A10004306D1D181EA030101F000414FF000000B
:100A200070BD50EA410606BF1046194652EA430619
:100A300019D094EA0C0F02D150EA013613D195EA8D
:100A40000C0F05D152EA03361CBF104619460AD1D5
:100A500081EA030101F0004141F0FE4141F47001DF
:100A60004FF0000070BD41F0FE4141F4780170BDCF
:100A700070B54FF0FF0C4CF4E06C1CEA11541DBF34
:100A80001CEA135594EA0C0F95EA0C0F00F0A7F836
:100A9000A4EB050481EA030E52EA03354FEA013163
:100AA00000F088804FEA03334FF0805545EA131376
:100AB00043EA12634FEA022245EA111545EA10653E
:100AC0004FEA00260EF000419D4208BF964244F1D5
:100AD000FD0404F5407402D25B084FEA3202B61AF4
:100AE00065EB03055B084FEA32024FF480104FF4C8
:100AF000002CB6EB020E75EB030E22BFB61A75463C
:100B000040EA0C005B084FEA3202B6EB020E75EBCE
:100B1000030E22BFB61A754640EA5C005B084FEA36
:100B20003202B6EB020E75EB030E22BFB61A754603
:100B300040EA9C005B084FEA3202B6EB020E75EB0E
:100B4000030E22BFB61A754640EADC0055EA060ECF
:100B500018D04FEA051545EA16754FEA06164FEA12
:100B6000C30343EA52734FEAC2025FEA1C1CC0D1BE
:100B700011F4801F0BD141EA00014FF000004FF04B
:100B8000004CB6E711F4801F04BF01430020B4F10C
:100B9000FD0C88BFBCF5E06F3FF6AFAEB5EB030CC4
:100BA00004BFB6EB020C5FEA500C50F1000041EBC1
:100BB000045170BD0EF0004E4EEA113114EB5C048E
:100BC000C2BFD4EB0C0541EA045170BD41F4801161
:100BD0004FF0000E013C90E645EA060E8DE60CEA69
:100BE000135594EA0C0F08BF95EA0C0F3FF43BAF86
:100BF00094EA0C0F0AD150EA01347FF434AF95EA3D
:100C00000C0F7FF425AF104619462CE795EA0C0F20
:100C100006D152EA03353FF4FDAE1046194622E7ED
:100C200050EA410618BF52EA43067FF4C5AE50EAC7
:100C300041047FF40DAF52EA43057FF4EBAE12E7B7
:100C40004FF0FF3C06E000BF4FF0010C02E000BF98
:100C50004FF0010C4DF804CD4FEA410C7FEA6C5C7B
:100C60004FEA430C18BF7FEA6C5C1BD001B050EA1E
:100C7000410C0CBF52EA430C91EA030F02BF90EA09
:100C8000020F0020704710F1000F91EA030F58BFC8
:100C9000994208BF90422CBFD8176FEAE37040F02A
:100CA000010070474FEA410C7FEA6C5C02D150EAC8
:100CB000013C07D14FEA430C7FEA6C5CD6D152EA83
:100CC000033CD3D05DF8040B704700BF8446104648
:100CD00062468C461946634600E000BF01B5FFF747
:100CE000B7FF002848BF10F1000F01BD4DF808ED17
:100CF000FFF7F4FF0CBF012000205DF808FB00BFE8
:100D00004DF808EDFFF7EAFF34BF012000205DF841
:100D100008FB00BF4DF808EDFFF7E0FF94BF01208E
:100D200000205DF808FB00BF4DF808EDFFF7CEFF8F
:100D300094BF012000205DF808FB00BF4DF808EDCE
:100D4000FFF7C4FF34BF012000205DF808FB00BF9F
:100D50004FEA410212F5001215D211D56FF47873E3
:100D6000B3EB625212D94FEAC12343F0004343EA86
:100D7000505311F0004F23FA02F018BF4042704761
:100D80004FF00000704750EA013005D111F00040EB
:100D900008BF6FF0004070474FF00000704700BF81
:100DA000844641EA000313F003036DD1403A41D376
:100DB00051F8043B40F8043B51F8043B40F8043B35
:100DC00051F8043B40F8043B51F8043B40F8043B25
:100DD00051F8043B40F8043B51F8043B40F8043B15
:100DE00051F8043B40F8043B51F8043B40F8043B05
:100DF00051F8043B40F8043B51F8043B40F8043BF5
:100E000051F8043B40F8043B51F8043B40F8043BE4
:100E100051F8043B40F8043B51F8043B40F8043BD4
:100E200051F8043B40F8043B51F8043B40F8043BC4
:100E3000403ABDD2303211D351F8043B40F8043B64
:100E400051F8043B40F8043B51F8043B40F8043BA4
:100E500051F8043B40F8043B103AEDD20C3205D374
:100E600051F8043B40F8043B043AF9D2043208D06C
:100E7000D2071CBF11F8013B00F8013B01D30B88DE
:100E800003806046704700BF082A13D38B078DD0BC
:100E900010F003038AD0C3F10403D21ADB071CBF8E
:100EA00011F8013B00F8013B80D331F8023B20F8F8
:100EB000023B7BE7043AD9D3013A11F8013B00F831
:100EC000013BF9D20B7803704B7843708B788370B9
:100ED00060467047000000000000000000000000B5
:100EE000A2EB0300704700BF02780B78012A28BFED
:100EF0009A42F5D16DE9044540EA0104CDE9026763
:100F00006FF0000C4FEA447212B380EA010414F04F
:100F1000070F6AD100F0070420F0070004F0030572
:100F200021F007014FEAC505F0E8042314F0040F8F
:100F3000F1E804670CFA05F462EA040266EA0406C2
:100F40000AD063EA0403624667EA0407664603E0E0
:100F5000F0E80423F1E8046782FA4CF582EA06041B
:100F6000A4FA8CF46CBB83FA4CF583EA0705A5FA66
:100F70008CF595B950E9022351E9026782FA4CF5E4
:100F800082EA0604A4FA8CF483FA4CF583EA070596
:100F9000A5FA8CF52543DBD09CB92DBAB5FA85F4BA
:100FA00024F0070427FA04F1DDE9026723FA04F3C9
:100FB00003F0FF0001F0FF01FDE80445A0EB010094
:100FC000704724BAB4FA84F424F0070426FA04F132
:100FD000DDE9026722FA04F202F0FF0001F0FF01EE
:100FE000FDE80445A0EB0100704714F0030F3CD16D
:100FF00010F0030428D150F8082B51F8083B82FA6E
:101000004CF582EA0305A5FA8CF55DB950F8042C7D
:1010100051F8043C82FA4CF582EA0305A5FA8CF5F6
:10102000002DE8D02DBAB5FA85F424F0070423FA90
:1010300004F122FA04F202F0FF0001F0FF01FDE8E2
:101040000445A0EB010070474FEAC40420F0030000
:1010500050F8082B21F0030151F8083B0CFA04F476
:1010600062EA040263EA0403C9E710F003041AD039
:10107000A1EB040120F00300E40750F8042B06D094
:101080000FD28B785FFAA2F4E41A06D12BB1CB7899
:101090005FFAB2F4E41A00D11BB920465DF8104B98
:1010A000704701F1040150F8042BCC0721F0030133
:1010B00051F8043B48D824D222F07F4482FA4CF500
:1010C00094EA1325A5FA8CF50AD165B951F8043BC9
:1010D00084EA0204B4EB036F0ED150F8042BEBE763
:1010E0004FEA132355E035F07F454DD10878FDE8F0
:1010F0000445C0F1000070474FEA126203F0FF039D
:1011000047E002EA1C4482FA4CF594EA1345A5FA3A
:101110008CF50AD165B951F8043B84EA0204B4EBBA
:10112000034F0CD150F8042BEBE74FEA134330E0A8
:1011300015EA1C4528D10B884FEA124229E04FEAF4
:10114000124203EA1C4324E002F0FF0482FA4CF549
:1011500094EA1365A5FA8CF50AD165B951F8043BF8
:1011600084EA0204B4EB032F09D150F8042BEBE717
:101170004FEA13630DE015F0FF0F05D10B684FEA3E
:10118000122223F07F4304E04FF00000FDE8044505
:10119000704712BA1BBA82FA4CF482EA0304A4FA2A
:1011A0008CF5B5FA85F402FA04F203FA04F34FEA77
:1011B0001260FDE80445A0EB1360704700000000DA
:1011C00090F800F06DE9024520F007016FF0000C87
:1011D00010F0070491F820F040F049804FF000042F
:1011E0006FF00700D1E9002391F840F000F108000A
:1011F00082FA4CF2A4FA8CF283FA4CF3A2FA8CF342
:101200004BBBD1E9022382FA4CF200F10800A4FAA8
:101210008CF283FA4CF3A2FA8CF3E3B9D1E90423FC
:1012200082FA4CF200F10800A4FA8CF283FA4CF333
:10123000A2FA8CF37BB9D1E9062301F1200182FAED
:101240004CF200F10800A4FA8CF283FA4CF3A2FAF3
:101250008CF3002BC6D0002A04BF04301A4612BA01
:10126000B2FA82F2FDE8024500EBD2007047D1E904
:10127000002304F00305C4F100004FEAC50514F093
:10128000040F91F840F00CFA05F562EA05021CBF64
:1012900063EA050362464FF00004A9E7000000007E
:1012A00001F0FF01102A2BDB10F0070F08D010F817
:1012B000013B013A8B422DD010F0070F42B3F6D11B
:1012C000F0B441EA012141EA014122F007047FF034
:1012D00000070023F0E80256083C85EA010586EA8B
:1012E000010685FA47F5A3FA87F586FA47F6A5FAC7
:1012F00087F68EB9EED1F0BC01F0FF0102F00702D3
:1013000032B110F8013B013A83EA010313B1F8D17D
:101310000020704701387047002D06BF354603385E
:10132000073815F0010F07D1013015F4807F02BF97
:10133000013015F4C03F0130F0BC0138704700BFE8
:101340004FEA410C7FEA6C5C02D150EA013C0AD1C1
:101350004FEA430C7FEA6C5C02D152EA033C02D1B3
:101360004FF0000070474FF0010070474A0011D263
:1013700012F5001211D20DD56FF47873B3EB6252EF
:101380000ED44FEAC12343F0004343EA505323FAFB
:1013900002F070474FF00000704750EA013002D170
:1013A0004FF0FF3070474FF0000070474FEA4102A6
:1013B000B2F1E04324BFB3F5001CDCF1FE5C0DD9B3
:1013C00001F0004C4FEAC0024CEA5070B2F1004FFD
:1013D00040EB830008BF20F00100704711F0804F00
:1013E00021D113F13872BCBF01F00040704741F4C5
:1013F00080114FEA5252C2F11802C2F1200C10FAC9
:101400000CF320FA02F018BF40F001004FEAC123AC
:101410004FEAD32303FA0CFC40EA0C0023FA02F350
:101420004FEA4303CCE77FEA625307D150EA013326
:101430001EBF4FF0FE4040F44000704701F00040F6
:1014400040F0FE4040F40000704700BF4FF0FF3C0A
:1014500006E000BF4FF0010C02E000BF4FF0010CAE
:101460004DF804CD4FEA40024FEA41037FEA226C77
:1014700018BF7FEA236C11D001B052EA530C18BF99
:1014800090EA010F58BFB2EB030088BFC81738BFFE
:101490006FEAE17018BF40F0010070477FEA226CEC
:1014A00002D15FEA402C05D17FEA236CE4D15FEAE8
:1014B000412CE1D05DF8040B704700BF844608461C
:1014C0006146FFE70FB5FFF7C9FF002848BF10F1DD
:1014D000000F0FBD4DF808EDFFF7F4FF0CBF012022
:1014E00000205DF808FB00BF4DF808EDFFF7EAFFAC
:1014F00034BF012000205DF808FB00BF4DF808ED67
:10150000FFF7E0FF94BF012000205DF808FB00BF5B
:101510004DF808EDFFF7D2FF94BF012000205DF8E1
:1015200008FB00BF4DF808EDFFF7C8FF34BF0120EE
:1015300000205DF808FB00BF4FEA40024FEA41037C
:101540007FEA226C02D15FEA402C08D17FEA236C4B
:1015500002D15FEA412C02D14FF0000070474FF0FA
:101560000100704753B94AB9002908BF00281CBFC1
:101570004FF0FF314FF0FF3000F00CB8ADF1080C28
:101580006DE904CE18F076F8DDF804E0DDE9022319
:1015900004B07047704700BF0348044B834202D039
:1015A000034B03B118477047000A0020000A0020CF
:1015B000000000000548064B1B1AD90F01EBA301E0
:1015C000491002D0034B03B118477047000A0020AE
:1015D000000A00200000000010B5064C237843B933
:1015E000FFF7DAFF044B13B10448AFF30080012387
:1015F000237010BD000A002000000000DC990108E3
:1016000008B5054B1BB105490548AFF30080BDE89F
:101610000840FFF7CFBF00BF00000000040A002011
:10162000DC99010808B50021044600F081F8044B5C
:101630001868C36B03B19847204618F0CDF900BF76
:10164000F89A010870B50D4E0D4D761BB61006D0F8
:10165000002455F8043B01349847A642F9D1094EBD
:10166000094D761B18F0BCF9B61006D0002455F8C9
:10167000043B01349847A642F9D170BDA40B02087F
:10168000A40B0208A80B0208A40B0208830730B5BC
:1016900048D0541E002A3FD0CAB2034601E0013CA4
:1016A0003AD303F8012B9D07F9D1032C2DD9CDB2E4
:1016B00045EA05250F2C45EA054536D9A4F1100267
:1016C00022F00F0C03F1200EE6444FEA121C03F146
:1016D000100242E9045542E9025510327245F8D130
:1016E0000CF1010214F00C0F03EB021204F00F0CCA
:1016F00013D0ACF1040323F003030433134442F882
:10170000045B9342FBD10CF003042CB1C9B21C441E
:1017100003F8011B9C42FBD130BD64461346002CEC
:10172000F4D1F9E703461446BFE71A46A446E0E7BA
:101730002DE9F04F294B1F6883B0D7F8486101901D
:10174000B6B18B464FF001084FF000097468651E72
:101750000ED4013406EB8404BBF1000F0BD0D4F897
:1017600000315B4507D0013D6B1CA4F10404F3D1AB
:1017700003B0BDE8F08F73682268013BAB420CBF39
:101780007560C4F80090002AEDD0D6F88801D6F82C
:1017900004A008FA05F101420BD190477268524546
:1017A00012D1D7F84831B342DDD01E46002ECDD13C
:1017B000DEE7D6F88C0101420BD1D4F880100198F5
:1017C000904772685245ECD0D7F84861002EBDD1E1
:1017D000CEE7D4F880009047E0E700BFF89A010810
:1017E00080B582B000AF7860396000BF80210B48BF
:1017F00005F059FF0346002B0CBF01230023DBB289
:10180000002BF3D17B68DBB29BB21946034805F08D
:101810006BFD7B6818460837BD4680BD004400401C
:1018200080B588B000AF0121012005F031F8012119
:101830004FF4003005F086F8072202212D4806F00B
:10184000F9F9072203212B4806F0F4F90423BB61C0
:1018500002233B770023BB770123FB7703237B77AE
:1018600007F118031946234806F076F80823BB61F0
:1018700002233B7703237B7707F1180319461D48A2
:1018800006F06AF84FF4A06004F06EFB26233B716B
:1018900001237B710023BB710123FB713B1D1846A3
:1018A00004F074FB0021144805F0A3FC124805F075
:1018B000F9FA4FF4E133BB600023BB810023FB81C5
:1018C00000233B820023BB820C237B8207F10803A9
:1018D0001946094805F072FB012240F225510648DD
:1018E00005F09AFE0121044805F083FC00BF203773
:1018F000BD4680BD000002400044004080B500AFFE
:1019000040F22551134805F0FEFE0346002B14BF9C
:1019100001230023DBB2002B19D00E4805F0F5FCA3
:101920000346DAB20C4B1A700B4B1B780A2B09D00A
:101930000A4B1B685A1C09490A60074A1178084A71
:10194000D15404E0064800F00DF800F065F800BF3F
:1019500080BD00BF00440040700B00209C0A0020A6
:101960001C0A002080B582B000AF7860786801F072
:10197000B1FF0346234A1360224B1B6822491846D5
:1019800002F0E1FE0346002B14BF01230023DBB26B
:10199000002B0FD01B4B1B681B49184602F0D3FECF
:1019A00003461B69184607F075FF02460B461749A8
:1019B000C1E90023134B1B681549184602F0C3FE0A
:1019C0000346002B14BF01230023DBB2002B0FD0F2
:1019D0000C4B1B680E49184602F0B5FE03461B6906
:1019E000184607F057FF02460B460A49C1E9002393
:1019F000044B1B68184600F0CBFE00BF0837BD46FD
:101A000080BD00BFA00A0020F8990108E80B002063
:101A1000049A0108F00B002080B483B000AF0023CB
:101A20007B6007E0094A7B68134400221A707B68D8
:101A300001337B607B687F2BF4DD054B00221A604D
:101A400000BF0C37BD4680BC704700BF1C0A002099
:101A50009C0A002080B582B000AF0346FB7100BF36
:101A600080210A4805F01FFE0346002B0CBF01230E
:101A70000023DBB2002BF3D1FB799BB2194603485C
:101A800005F032FC00BF0837BD4680BD0044004071
:101A900080B582B000AF786006E07B685A1C7A603F
:101AA0001B781846FFF7D6FF7B681B78002BF4D114
:101AB00000BF00BF0837BD4680BD80B584B000AF11
:101AC00078600023FB73786800F044F9B860BB6865
:101AD000DB88002B1BD0BB685A89BB689B889A4265
:101AE00002D1BB6800225A81BB681B68BA68528960
:101AF00013441B78FB73BB685B8901339AB2BB68E4
:101B00005A81BB68DB88013B9AB2BB68DA80FB7BF9
:101B100018461037BD4680BD90B587B000AFF8605D
:101B2000B9601346FB800023FB82F86800F03BF8A5
:101B30000346002B0CD10A21F86800F071F8034627
:101B4000002B07D1F86800F041F80346002B01D1C3
:101B5000012300E00023002B16D000231FE0FB8AA6
:101B6000BA68D418F868FFF7A8FF03462370FB8A09
:101B7000BA6813441B780A2B03D1FB8A0133FB821A
:101B800007E0FB8A0133FB82FA8AFB88013B9A4219
:101B9000E5DBFB8ABA68134400221A70FB8A1846F8
:101BA0001C37BD4690BD80B584B000AF78607868C2
:101BB00000F0D0F8F860FB68DB88002B0CBF012335
:101BC0000023DBB218461037BD4680BD80B584B017
:101BD00000AF7860786800F0BDF8F860FB68DA88DC
:101BE000FB689B889A420CBF01230023DBB2184696
:101BF0001037BD4680BD80B584B000AF786078688E
:101C000000F0A8F8F860FB680022DA80FB68002288
:101C10001A81FB6800225A8100BF1037BD4680BD83
:101C200080B584B000AF78600B46FB70786800F038
:101C300091F8B860BB68DB88FB81BB685B89BB81BE
:101C40001EE0BB689B88BA899A4201D10023BB8100
:101C5000BB681A68BB89134493F900301A46FB78B5
:101C6000DBB29A420CBF01230023DBB2002B01D070
:101C7000012309E0BB890133BB81FB89013BFB8167
:101C8000FB89002BDDD1002318461037BD4680BDEF
:101C900080B582B000AF7860396007E03B685A1CBD
:101CA0003A601B781946786800F009F83B681B78A1
:101CB000002BF3D100BF00BF0837BD4680BD80B503
:101CC00082B000AF78600B46FB7000BF802178685F
:101CD00005F0E9FC0346002B0CBF01230023DBB217
:101CE000002BF3D1FB78DBB29AB27B689A8000BFFD
:101CF0000837BD4680BD80B483B000AF78600B4626
:101D0000FB707B68DA887B689B889A421CD27B6870
:101D10001A897B689B889A4202D17B6800221A81CB
:101D20007B681B687A681289134497F903201A703C
:101D30007B681B8901339AB27B681A817B68DB88D8
:101D400001339AB27B68DA8000BF0C37BD4680BC95
:101D50007047000080B485B000AF78607B68054AAA
:101D6000934201D1044BFB60FB6818461437BD4613
:101D700080BC7047004400403004002080B485B02F
:101D800000AF78607B68054A934201D10423FB735E
:101D9000FB7B18461437BD4680BC704700440040AA
:101DA00080B58AB000AF0121082004F0E9FD0121CF
:101DB000042004F0C7FD022387F824304FF4704359
:101DC0003B62032387F8253007F1200319461948A1
:101DD00005F0C2FD0023FB82A723BB826323BB6106
:101DE00007F114031946144806F04CF80121124873
:101DF00006F0BDF960233B800023BB810023BB605C
:101E000001237B803B4619460B4806F0CFF93B4641
:101E10001946094806F044FA3B461946064806F0BA
:101E2000C7FA3B461946044806F048FB00BF28376E
:101E3000BD4680BD000C02400008004080B584B063
:101E400000AFC7E90201C7E90023D7E90023D7E9BA
:101E50000201FEF72DFB02460B461046194600F024
:101E600011F8D7E90023D7E90201FEF71FFB02466C
:101E70000B461046194600F051F800BF1037BD461A
:101E800080BD000080B582B000AFC7E900014FF00F
:101E900000024FF00003D7E90001FEF731FF0346CF
:101EA000002B13D04FF000021A4BD7E90001FEF7C8
:101EB000B5FC02460B4610461946FEF749FF02469E
:101EC000154B5A63144B00229A631EE04FF0000238
:101ED0004FF00003D7E90001FEF730FF0346002B67
:101EE00000D112E00C4B00225A634FF00002094B64
:101EF000D7E90001FEF792FC02460B461046194650
:101F0000FEF726FF0246044B9A6300BF0837BD4622
:101F100080BD00BF000059400008004080B582B07D
:101F200000AFC7E900014FF000024FF00003D7E90E
:101F30000001FEF7E5FE0346002B13D04FF0000230
:101F40001A4BD7E90001FEF769FC02460B46104622
:101F50001946FEF7FDFE0246154BDA63144B0022CC
:101F60001A641EE04FF000024FF00003D7E90001B1
:101F7000FEF7E4FE0346002B00D112E00C4B0022DA
:101F8000DA634FF00002094BD7E90001FEF746FC87
:101F900002460B4610461946FEF7DAFE0246044B8F
:101FA0001A6400BF0837BD4680BD00BF000059401D
:101FB0000008004080B584B000AF0121012004F08A
:101FC000C1FC0023BB810023FB8042F20F73BB6086
:101FD00040F60F63BB800023BB733B1D19464FF0D7
:101FE000804005F04FFF012201214FF0804007F0B3
:101FF00061F801214FF0804006F0B9F81C233B70D6
:1020000000237B700023BB700123FB703B46184606
:1020100003F0BCFF00BF1037BD4680BD80B500AFE8
:1020200001214FF0804007F0A6F80346002B14BFB3
:1020300001230023DBB2002B06D000F009F80121B8
:102040004FF0804007F0C0F800BF80BD00000000E6
:102050002DE9B04F00AFB64BD3E90023B549C1E934
:102060000023B54BD3E90023B149C1E90023B34BA9
:10207000D3E900234FF00000B149FEF717FA0246FA
:102080000B46AD49C1E90023AE4BD3E90023AE496D
:10209000C1E90023A84BD3E90001A54BD3E90023F4
:1020A000FEF704FA02460B4610461946A74BD3E941
:1020B0000023FEF7B3FB02460B4610461946A24B1F
:1020C000D3E90023FEF7F4F902460B4614461D46F9
:1020D0009F4BD3E9000194A3D3E90023FEF79EFBB5
:1020E00002460B46104619464FF000024FF080435F
:1020F000FEF7BEFC02460B46904699468E4BD3E94E
:1021000000018B4BD3E90023FEF7D2F902460B46C0
:1021100040464946FEF782FB02460B4620462946CA
:10212000FEF7C6F902460B4690469946894BD3E91D
:1021300000017DA3D3E90023FEF79AFC02460B467B
:1021400092469B467C4BD3E90045794BD3E900018D
:1021500002460B46FEF7ACF902460B4620462946DE
:10216000FEF7A4F902460B4610461946714BD3E917
:102170000023FEF79DF902460B4650465946FEF7EE
:102180004DFB02460B4640464946FEF791F9024692
:102190000B466C49C1E900236A4BD3E900014FF0BB
:1021A00000026D4BFEF7CAFD0346002B05D06549C2
:1021B0004FF00002684BC1E90023624BD3E90001F4
:1021C0004FF00002654BFEF79BFD0346002B05D048
:1021D0005C494FF00002614BC1E90023604BD3E939
:1021E00000236049C1E900235F4BD3E900235C4928
:1021F000C1E900235D4BD3E900234FF000004FF00D
:102200000001FEF753F902460B465749C1E9002386
:10221000574BD3E900235749C1E90023524BD3E977
:1022200000014F4BD3E90023FEF740F902460B466D
:1022300010461946504BD3E90023FEF7EFFA024649
:102240000B46104619464B4BD3E90023FEF730F9F5
:1022500002460B4614461D46484BD3E9000132A303
:10226000D3E90023FEF7DAFA02460B461046194678
:102270004FF000024FF08043FEF7FAFB02460B4698
:1022800090469946384BD3E90001354BD3E90023FA
:10229000FEF70EF902460B4640464946FEF7BEFAE7
:1022A00002460B4620462946FEF702F902460B4637
:1022B00090469946324BD3E900011BA3D3E9002392
:1022C000FEF7D6FB02460B4692469B46264BD3E9C9
:1022D0000045234BD3E9000102460B46FEF7E8F820
:1022E00002460B4620462946FEF7E0F802460B461A
:1022F000104619461B4BD3E90023FEF7D9F80246D6
:102300000B4650465946FEF789FA02460B464046B0
:102310004946FEF7CDF802460B461549C1E90023B0
:1023200030E000BFAFF30080FCA9F1D24D62503F16
:10233000A00B0020A80B0020980B0020E80B002029
:1023400000003440F80B0020900B0020780B002098
:10235000800B0020880B00200000F03F0000F0BF41
:10236000D80B0020E00B0020D00B0020F00B002049
:10237000000C0020C80B0020B00B0020B80B002080
:10238000C00B0020124BD3E900014FF00002114BAB
:10239000FEF7D4FC0346002B05D00D494FF0000298
:1023A0000C4BC1E900230A4BD3E900014FF00002B6
:1023B000094BFEF7A5FC0346002B00D105E00449BC
:1023C0004FF00002044BC1E9002300BFBDE8B08F0D
:1023D000000C00200000F03F0000F0BF80B582B08C
:1023E00000AF0121082004F053FA4FF470433B6022
:1023F00001233B710023BB710023FB7103237B711D
:102400003B461946034805F0A7FA00BF0837BD460A
:1024100080BD00BF000C024080B500AF03F018FD86
:1024200000F03AF8FFF7C6FDFFF7FAF9FFF7B8FC3E
:10243000114BD3E90023114807F004FD104BD3E9F9
:102440000023104807F0FEFC0F4BD3E900230F4890
:1024500007F0F8FC0E4BD3E900230E4807F0F2FC1E
:10246000094BD3E900010A4BD3E90023FFF7E6FC4F
:10247000642000F053F8DBE7E80B00200C9A010819
:10248000F00B00202C9A0108F80B0020489A010854
:10249000000C0020689A010880B584B000AF0121CB
:1024A000102004F04FFA0023BB800023FB804FF67E
:1024B000FF73BB603B1D1946054805F0E3FC012195
:1024C000034805F054FE00BF1037BD4680BD00BF75
:1024D0000010004080B582B000AF786014E00021A9
:1024E0000D4805F080FD00BF0B4805F096FD034642
:1024F00044F61F62934294BF01230023DBB2002BFA
:10250000F2D17B68013B7B607B68002BE7D100BF89
:1025100000BF0837BD4680BD0010004080B582B0C6
:1025200000AF786012E000210C4805F05CFD00BFB0
:102530000A4805F072FD0346012B94BF01230023D6
:10254000DBB2002BF4D17B68013B7B607B68002B06
:10255000E9D100BF00BF0837BD4680BD0010004074
:1025600080B400AF044B1A68034B5B6813441846F1
:10257000BD4680BC704700BF080C002080B582B00B
:1025800000AF7860786803F096FA0346002B0CBF22
:1025900001230023DBB2002B01D0002301E07B6884
:1025A0001B6918460837BD4680BD000080B582B063
:1025B00000AF7860786803F068FA0346002B0CBF20
:1025C00001230023DBB2002B03D04FF00002054BA8
:1025D00002E07B68D3E90623104619460837BD465A
:1025E00080BD00BF0000F87F80B582B002AF0F232E
:1025F0000093072301220449044807F05DFE034BC2
:102600001846BD4680BD00BF889A0108100C002006
:1026100090B583B000AF786039607B68002B02D042
:102620003B68002B01D101232CE07A683B689A4279
:102630000DD1002326E07B681B78002B01D10023FD
:1026400020E07B6801337B603B6801333B607B6843
:102650001B7818460CF0F4F904463B681B781846C2
:102660000CF0EEF903469C42E5D07B681B781846D7
:102670000CF0E6F904463B681B7818460CF0E0F9CC
:102680000346E31A18460C37BD4690BD80B584B0AA
:1026900000AF786039600023FB600023BB607B687B
:1026A000002B01D1002315E07868FEF789FD034671
:1026B0000133FB603B681B68F8689847B860BB68EB
:1026C000002B01D1002305E0FA687968B868FEF7AD
:1026D00067FBBB6818461037BD4680BD80B483B029
:1026E00000AF78607B68002B09D11A4B1A4A1A6038
:1026F000184B1A4A5A60174B194A9A6025E0154B35
:10270000154A1A607B681B68002B03D07B681B6826
:10271000104A13600F4B114A5A607B685B68002BAC
:1027200003D07B685B680B4A53600A4B00229A60B7
:10273000084B1B68084A934207D1064B5B68074A5F
:10274000934202D1034B064A9A600C37BD4680BCC7
:10275000704700BF3C0400209D980008AD98000819
:102760006D9E000880B584B000AF78607B681B6800
:1027700028209847F860FB68002B04D0282200210D
:10278000F868FEF783FFFB6818461037BD4680BD2A
:1027900080B584B000AF78600023FB6037E07B68D1
:1027A0001B68FB607B68DB6803F48073002B08D137
:1027B0007B689B68002B04D07B689B681846FFF7FA
:1027C000E7FF7B68DB6803F48073002B09D17B682B
:1027D0001B69002B05D0124B5B687A6812691046A2
:1027E00098477B68DB6803F40073002B09D17B6892
:1027F0001B6A002B05D00A4B5B687A68126A104688
:102800009847074B5B6878689847FB687B607B68F4
:10281000002BC4D100BF00BF1037BD4680BD00BF34
:102820003C04002080B400AF2E231846BD4680BC77
:10283000704700000000000080B598B000AF7860DD
:1028400039604FF000024FF00003C7E91423002362
:10285000BB64FFF7E7FF034687F84F300023FB65B3
:102860003B68002B03D03B681B68002B01D1002381
:10287000A0E00023FB653DE03B681A683B6899686F
:10288000FB6D0B4413441B78452B17DC2B2B40DBD3
:102890002B3B01229A404C4B1340002B14BF0123C9
:1028A0000023DBB2002B0BD102F00803002B14BF76
:1028B00001230023DBB2002B11D12AE0652B28D1A4
:1028C0003B681A683B689968FB6D0B4413441978A0
:1028D00007F10802FB6D13440A461A7007E007F17E
:1028E0000802FB6D134497F84F201A7000BFFB6D70
:1028F0000133FB65FB6D3E2B0DD83B68002B0AD0E6
:102900003B689A68FB6D1A443B685B689A42B3D394
:1029100001E000BF00E000BF07F10802FB6D1344B7
:1029200000221A7007F1480207F108031146184601
:1029300008F0EAFDC7E91401BA6C07F108039A42EE
:1029400001D1002336E07968D7E91423C1E90623D1
:102950001BA3D3E90023D7E91401FEF7E5F90346E9
:10296000002B04D07B686FF000425A6115E04FF0F5
:102970000002164BD7E91401FEF7CCF90346002BF1
:1029800004D07B684FF000425A6106E0D7E9140199
:10299000FEF7DEF902467B685A617B680822DA603E
:1029A0003B689B68B96C07F108028A1A1A443B68B5
:1029B0009A60012318466037BD4680BDAFF30080A2
:1029C0000000C0FFFFFFDF41E57F00040000E0C121
:1029D00080B584B000AFF860C7E9002318A3D3E93D
:1029E0000023D7E90001FEF79FF90346002B04D02E
:1029F000FB686FF000425A6115E04FF00002124B85
:102A0000D7E90001FEF786F90346002B04D0FB68E6
:102A10004FF000425A6106E0D7E90001FEF798F94D
:102A20000246FB685A61F968D7E90023C1E9062329
:102A3000FB68D3E90623104619461037BD4680BD12
:102A40000000C0FFFFFFDF410000E0C190B585B08E
:102A500000AF786039600023FB607B68DB6803F0BF
:102A60001003002B05D07B68DB6803F48073002B18
:102A700001D000232BE03868FEF7A2FB04467B68F8
:102A80001B691846FEF79CFB03469C4208D87B68EE
:102A90001B693968184607F0CBFC7B681B6916E098
:102AA0000D493868FFF7F2FDF860FB68002B01D193
:102AB00000230CE07B681B69002B04D07B681B693A
:102AC000184603F0B7F97B68FA681A61FB68184684
:102AD0001437BD4690BD00BF3C04002080B584B0D3
:102AE00000AF786039600023FB600023BB607B6827
:102AF000002B03D07B681B68002B01D1002383E0EF
:102B00007B685B68002B07D07B689A687B685B6892
:102B10009A4201D3002377E03B68002B01DA0023BF
:102B200072E07B689A683B68134401333B607B68C2
:102B30005B683A689A4205D87B681A687B689B682C
:102B4000134461E07B681B69002B01D000235BE02C
:102B50003B68B3F1804F08D33B68002B03DB6FF079
:102B60000043BB6004E000234EE03B685B00BB60B9
:102B70007B681B6A002B18D07B681B6A7A68126816
:102B8000B96810469847F860FB68002B32D17B6823
:102B9000DB697A681268104698477B6800225A60A1
:102BA0007B6800221A6000232EE07B689B69B8686E
:102BB0009847F860FB68002B0DD17B68DB697A6869
:102BC0001268104698477B6800225A607B68002292
:102BD0001A60002318E07B6819687B689B680133E2
:102BE0001A46F868FEF7DCF87B68DB697A681268D9
:102BF000104698477B68BA685A607B68FA681A6022
:102C00007B689B68FA68134418461037BD4680BD40
:102C100090B585B000AF78600023FB607B68002B27
:102C200013D07B681B68002B0FD07B681A687B6809
:102C30009B681344FB607B689C68F868FEF7C0FAE9
:102C40000346E2187B689A6000E000BF1437BD4677
:102C500090BD00002DE9B0438AB000AFC7E906017E
:102C6000C7E90423BB69BB60FB6923F00043FB6039
:102C70003B693B607B6923F000437B60D7E900231D
:102C8000D7E90201FEF75AF80346002B04D0BC69CD
:102C9000FB6923F0004503E03C697B6923F00045B4
:102CA000C7E90845D7E90423D7E90601FDF7FEFB8C
:102CB00002460B46904623F000494FF000020C4BB1
:102CC000D7E90801FDF7AAFD02460B4601210C4693
:102CD00040464946FEF71EF80346002B01D100236B
:102CE0001C46E3B218462837BD46BDE8B08300BF96
:102CF0000000B03CB0B592B000AF786039600023FE
:102D0000FB637B68D3E90623C7E90C2300237B64BC
:102D100000233B6400237B6107F1180300221A6043
:102D20005A609A60DA601A619A82FFF77BFD034667
:102D300087F82F304FF000024FF00003C7E902235D
:102D40003B68002B01D10023B5E0D7E90C23D7E97C
:102D50000C01FDF7CBFF0346002B21D0D7E90C2354
:102D6000D7E90C01FDF7A2FB02460B4614461D46AF
:102D7000D7E90C23D7E90C01FDF798FB02460B4677
:102D800020462946FDF7B2FF0346002B10D1D7E9B4
:102D90000C23D7E90C01FDF7A9FF0346002B07D050
:102DA00007F114034649184607F086FA786440E0B4
:102DB0007B685B691846FDF7C7FC02460B46D7E9FE
:102DC0000C01FDF793FF0346002B09D07B685A697D
:102DD00007F114033B49184607F06EFA786428E0BF
:102DE00007F11400D7E90C23374907F065FA786436
:102DF00007F1080207F114033449184607F07CFA7A
:102E00000346012B08D1D7E90201D7E90C23FFF7CC
:102E100021FF0346002B01D1012300E00023002BFA
:102E200007D007F11400D7E90C23294907F044FA29
:102E300078647B6C002B02DB7B6C192B01DD00239B
:102E400039E07B6C013319463868FFF747FEF863B9
:102E5000FB6B002B01D100232DE000233B641AE023
:102E600007F114023B6C13441B7897F82F209A4209
:102E700005D1FA6B3B6C13442E221A7008E0FA6BF2
:102E80003B6C134407F114013A6C0A4412781A702F
:102E90003B6C01333B647B6C3A6C9A42E0D3FA6B37
:102EA0003B6C134400221A703B689A687B6C1A448E
:102EB0003B689A60012318464837BD46B0BD00BF45
:102EC000949A01089C9A0108A09A0108A89A0108FE
:102ED000AC9A010880B485B000AF78600023FB6035
:102EE0000023BB600023BB604CE07A68BB681344DE
:102EF0001B782F2B0FD97A68BB6813441B78392BAA
:102F000009D87A68BB6813441B781A46FB681344D7
:102F1000303BFB602DE07A68BB6813441B78402B84
:102F20000FD97A68BB6813441B78462B09D87A6896
:102F3000BB6813441B781A46FB681344373BFB609D
:102F400017E07A68BB6813441B78602B0FD97A6846
:102F5000BB6813441B78662B09D87A68BB68134496
:102F60001B781A46FB681344573BFB6001E00023C3
:102F70000CE0BB68022B02D8FB681B01FB60BB683E
:102F80000133BB60BB68032BAFD9FB68184614370D
:102F9000BD4680BC7047000080B58AB000AFF860C5
:102FA000B9607A6000237B620023FB61FB68BB6130
:102FB000002387F82330002387F82230002387F886
:102FC0002130002387F82030BA68BB69D31A052B5B
:102FD00040F3B780BB6902331846FFF77BFFF86107
:102FE000FB69B3F55C4F04D3FB69B3F5604FC0F0E8
:102FF000AA80FB69B3F5584F37D3FB69B3F55C4F33
:1030000033D2BB6906337B6100233B610C2387F815
:103010002130BA687B69D31A052B40F396807B690F
:103020001B785C2B40F093807B6901331B78752BF8
:1030300040F08D807B6902331846FFF74BFF386103
:103040003B69B3F55C4FC0F084803B69B3F5604FDA
:103050007FD2FB699A02434B13403A69C2F30902DB
:10306000134303F580337B6204E0062387F82130A5
:10307000FB697B627B6A7F2B03D8012387F82330AF
:103080001FE07B6AB3F5006F06D2022387F8233076
:10309000C02387F8203014E07B6AB3F5803F06D266
:1030A000032387F82330E02387F8203009E07B6A88
:1030B000B3F5881F4FD2042387F82330F02387F815
:1030C000203097F82330013B87F8223015E07B6AE7
:1030D000DBB203F03F03DAB27B68196897F822305D
:1030E0000B4462F07F02D2B21A707B6A9B097B624A
:1030F00097F82230013B87F8223097F82230002BD6
:10310000E5D197F82330012B09D97B6AD9B27B68C6
:103110001B6897F820200A43D2B21A7007E07B6A36
:10312000DAB27B681B6802F07F02D2B21A707B6849
:103130001A6897F823301A447B681A6097F8213090
:103140000BE000BF08E000BF06E000BF04E000BFE6
:1031500002E000BF00E000BF002318462837BD464C
:1031600080BD00BF00FC0F0080B58AB000AF786062
:1031700039603B681A683B689B68013313447B6283
:103180003B681A683B689B68013313443B62002329
:10319000FB600023FB613B681A683B689B68134433
:1031A0001B78222B40F0038100233B610023BB618D
:1031B00017E03B6A1B785C2B10D13B6A5A1C3B68BA
:1031C0001B68D31A1A463B685B689A4280F0F1800C
:1031D000BB690133BB613B6A01333B623B6A01332C
:1031E0003B623B681B683A6AD31A1A463B685B68C5
:1031F0009A4203D23B6A1B78222BDAD13B681B68C8
:103200003A6AD31A1A463B685B689A4280F0D380C8
:103210003B6A1B78222B40F0CE803B681A683B68E3
:103220009B6813443A6AD31A1A46BB69D31A3B61A6
:103230003B681B693A69013210469847F861FB699F
:10324000002B00F0BA80FB69FB6094E07B6A1B787E
:103250005C2B08D07A6A531C7B62FB68591CF960AE
:1032600012781A7087E00223FB753A6A7B6AD31AD8
:10327000002B40F3A4807B6A01331B78752B00F38D
:10328000A0805C2B04DA222B5CD02F2B5AD098E044
:103290005C3B192B00F2958001A252F823F000BF8D
:1032A00045330008C3330008C3330008C3330008A4
:1032B000C3330008C333000809330008C3330008D0
:1032C000C3330008C333000815330008C3330008B4
:1032D000C3330008C3330008C3330008C3330008F6
:1032E000C3330008C333000821330008C333000888
:1032F000C3330008C33300082D330008C33300086C
:103300003933000855330008FB685A1CFA6008225C
:103310001A702CE0FB685A1CFA600C221A7026E026
:10332000FB685A1CFA600A221A7020E0FB685A1CDB
:10333000FA600D221A701AE0FB685A1CFA60092222
:103340001A7014E07B6A5A1CFB68591CF9601278E9
:103350001A700CE007F10C031A46396A786AFFF715
:103360001BFE0346FB75FB7D002B2CD000BFFB7DB5
:103370007A6A13447B627A6A3B6A9A42FFF466AFC8
:10338000FB6800221A707B681022DA607B68FA6999
:103390001A613B681B683A6AD31A1A463B689A60FE
:1033A0003B689B685A1C3B689A6001231EE000BF83
:1033B0000AE000BF08E000BF06E000BF04E000BF75
:1033C00002E000BF00E000BFFB69002B03D03B68B8
:1033D0005B69F86998477B6A002B06D03B681B68DD
:1033E0007A6AD31A1A463B689A600023184628372F
:1033F000BD4680BD80B588B000AF786039600023DD
:10340000FB6100233B610023BB610023FB600023C1
:103410007B613B68002B01D1002310E17B68002B0E
:1034200011D103213868FFF759FB38613B69002B44
:1034300001D1002303E13B69834A11889278198006
:103440009A700123FBE07B68FB6124E0FB691B7839
:10345000222B0FDC082B13DB083B7C4A22FA03F3F8
:1034600003F00103002B14BF01230023DBB2002B68
:1034700002D105E05C2B03D17B6901337B6107E05E
:10348000FB691B781F2B02D87B6905337B6100BF6A
:10349000FB690133FB61FB691B78002BD6D1FA690C
:1034A0007B68D31A1A467B691344FB60FB680333BD
:1034B00019463868FFF712FB38613B69002B01D1D0
:1034C0000023BCE07B69002B17D13B6922221A70D4
:1034D0003B690133FA6879681846FDF761FCFB68BF
:1034E00001333A69134422221A70FB6802333A69A5
:1034F000134400221A700123A1E03B6922221A70B2
:103500003B690133BB617B68FB6186E0FB691B782B
:103510001F2B0CD9FB691B78222B08D0FB691B7869
:103520005C2B04D0FB691A78BB691A706FE0BB6929
:103530005A1CBA615C221A70FB691B78222B3DDC95
:10354000082B59DB083B1A2B56D801A252F823F05E
:10355000D1350008F1350008E1350008F9350008DB
:10356000D9350008E9350008F9350008F9350008B3
:10357000F9350008F9350008F9350008F935000873
:10358000F9350008F9350008F9350008F935000863
:10359000F9350008F9350008F9350008F935000853
:1035A000F9350008F9350008F9350008F935000843
:1035B000F9350008F9350008C93500085C2B1BD126
:1035C000BB695C221A7022E0BB6922221A701EE0DD
:1035D000BB6962221A701AE0BB6966221A7016E093
:1035E000BB696E221A7012E0BB6972221A700EE07B
:1035F000BB6974221A700AE0FB691B781A461449E9
:10360000B86906F059FEBB690433BB6100BFFB69B2
:103610000133FB61BB690133BB61FB691B78002B84
:103620007FF474AFFB6801333A69134422221A70A5
:10363000FB6802333A69134400221A7001231846CA
:103640002037BD4680BD00BFB49A01083700000492
:10365000B89A010880B582B000AF786039607B68A5
:103660001B6939681846FFF7C5FE03461846083738
:10367000BD4680BD80B483B000AF78607B68002B0E
:1036800003D07B681B68002B01D100232CE07B68F2
:10369000002B05D07B689A687B685B689A4206D3EA
:1036A0007B6821E07B689B685A1C7B689A607B681A
:1036B000002B0DD07B689A687B685B689A4207D2C2
:1036C0007B681A687B689B6813441B78202BE9D9B8
:1036D0007B689A687B685B689A4204D17B689B68C8
:1036E0005A1E7B689A607B6818460C37BD4680BCC2
:1036F0007047000080B582B000AF78607B68002B17
:1037000007D07B681B68002B03D07B689B68002B6D
:1037100001D000231CE07B68002B18D07B689B68DD
:103720001A1D7B685B689A4211D27B681A687B68B5
:103730009B68134403220849184606F0D7FE034647
:10374000002B04D17B689B68DA1C7B689A607B68DD
:1037500018460837BD4680BDC09A010880B586B0BE
:1037600000AFF860B9607A60FB68002B01D10023DC
:103770000DE0F868FDF724FD034601337B617B68AB
:10378000BA687969F86800F007F8034600BF184680
:103790001837BD4680BD000080B58EB000AFF86020
:1037A000B9607A603B6007F1180300221A605A6022
:1037B0009A60DA601A615A619A6100237B63434B15
:1037C00000221A60414B00225A60FB68002B47D050
:1037D000BB68002B44D0FB68BB61BB68FB61002366
:1037E0003B623B4A07F1280307CA83E807003848D1
:1037F000FEF7B8FF78637B6B002B33D007F118031B
:103800001846FFF777FF03461846FFF733FF0346D6
:103810001946786B00F09EF90346002B0CBF01237C
:103820000023DBB2002B1FD13B68002B0ED007F129
:1038300018031846FFF71EFF3A6AFB699A4215D231
:10384000BA693B6A13441B78002B0FD17B68002BAD
:1038500004D0BA693B6A1A447B681A607B6B31E01A
:1038600000BF04E000BF02E000BF00E000BF7B6BD0
:10387000002B02D0786BFEF78BFFFB68002B20D06B
:10388000FB683B6100237B613A6AFB699A4202D282
:103890003B6A7B6105E0FB69002B02D0FB69013BC1
:1038A0007B617B68002B04D03A697B691A447B6892
:1038B0001A60064B1A4607F1100393E8030082E8EA
:1038C0000300002318463837BD4680BD080C002091
:1038D0003C04002080B582B000AF78600022002157
:1038E0007868FFF73BFF034618460837BD4680BDA2
:1038F00080B582B000AF786039600023002239685B
:103900007868FFF749FF034618460837BD4680BD73
:1039100080B58EB000AFF860B9607A6000237B6339
:1039200007F11003242200211846FDF7AFFE7B6843
:103930001B684FF48070984703463B614FF48073D7
:103940007B61BB687B627A6807F1280307CA83E85A
:1039500007003B69002B45D007F110031946F868B2
:1039600000F0E4F90346002B0CBF01230023DBB277
:10397000002B39D107F110031846FFF749F97B688E
:103980009B68002B0DD07B689B683869BA6901324F
:103990001146984778637B6B002B27D000233B614F
:1039A0001EE07B681B68BA6901321046984778634D
:1039B0007B6B002B1CD03969BB695A1C7B69934215
:1039C00028BF13461A46786BFDF7EAF9BB697A6B94
:1039D000134400221A707B685B683A691046984766
:1039E0007B6B16E000BF04E000BF02E000BF00E018
:1039F00000BF3B69002B04D07B685B683A691046C6
:103A000098477B6B002B03D07B685B68786B98478B
:103A1000002318463837BD4680BD000080B582B00F
:103A200000AF7860044A01217868FFF771FF034610
:103A300018460837BD4680BD3C04002080B582B0E2
:103A400000AF7860044A00217868FFF761FF034601
:103A500018460837BD4680BD3C04002080B58EB0B6
:103A600000AFF860B9607A6007F1140324220021E6
:103A70001846FDF70BFEBB68002B01DA00232FE090
:103A8000194B1B68BA681046984703467B617B69EF
:103A9000002B01D1002323E0BB68BB610023FB6145
:103AA00000237B627B68BB620F4A07F12C0307CAC5
:103AB00083E8070007F114031946F86800F036F9A7
:103AC0000346002B0CBF01230023DBB2002B06D0E2
:103AD000054B5B687A6910469847002300E07B69D4
:103AE00018463837BD4680BD3C04002080B58EB0F6
:103AF00000AFF860B9607A603B6007F114032422DC
:103B000000211846FDF7C2FD7B68002B02DBBB6875
:103B1000002B01D1002317E0BB687B617B68BB6190
:103B20000023FB6101237B623B68BB62084A07F10B
:103B30002C0307CA83E8070007F114031946F86845
:103B400000F0F4F8034600BF18463837BD4680BD84
:103B50003C04002080B582B000AF786039603B68DB
:103B6000002B03D03B681B68002B01D10023D2E05F
:103B70003B68002B1DD03B689B681A1D3B685B6847
:103B80009A4216D83B681A683B689B681344042223
:103B90006349184606F0AAFC0346002B09D17B684E
:103BA0000422DA603B689B681A1D3B689A60012317
:103BB000B1E03B68002B1DD03B689B685A1D3B68F9
:103BC0005B689A4216D83B681A683B689B68134446
:103BD00005225449184606F089FC0346002B09D1FA
:103BE0007B680122DA603B689B685A1D3B689A60DB
:103BF000012390E03B68002B20D03B689B681A1D96
:103C00003B685B689A4219D83B681A683B689B68B6
:103C1000134404224449184606F068FC0346002B6E
:103C20000CD17B680222DA607B6801225A613B6812
:103C30009B681A1D3B689A6001236CE03B68002B6F
:103C400013D03B689A683B685B689A420DD23B6828
:103C50001A683B689B6813441B78222B05D139688E
:103C60007868FFF781FA034655E03B68002B23D0C4
:103C70003B689A683B685B689A421DD23B681A6849
:103C80003B689B6813441B782D2B0FD03B681A6848
:103C90003B689B6813441B782F2B0DD93B681A682F
:103CA0003B689B6813441B78392B05D839687868C2
:103CB000FEF7C2FD03462EE03B68002B13D03B68A5
:103CC0009A683B685B689A420DD23B681A683B6809
:103CD0009B6813441B785B2B05D13968786800F02A
:103CE00009F9034617E03B68002B13D03B689A683C
:103CF0003B685B689A420DD23B681A683B689B68D8
:103D000013441B787B2B05D13968786800F046FA9C
:103D1000034600E0002318460837BD4680BD00BFBB
:103D2000949A0108C49A0108CC9A010880B584B01D
:103D300000AF786039600023FB607B68002B02D005
:103D40003B68002B01D10023C9E07B68DB68DBB254
:103D5000802B00F08E80802B00F3C080202B49DC6C
:103D6000002B40F3BB80013B1F2B00F2B78001A268
:103D700052F823F01F3E0008433E0008DD3E0008D5
:103D8000FB3D0008DD3E0008DD3E0008DD3E00088A
:103D9000673E0008DD3E0008DD3E0008DD3E00080D
:103DA000DD3E0008DD3E0008DD3E0008DD3E000887
:103DB000B93E0008DD3E0008DD3E0008DD3E00089B
:103DC000DD3E0008DD3E0008DD3E0008DD3E000867
:103DD000DD3E0008DD3E0008DD3E0008DD3E000857
:103DE000DD3E0008DD3E0008DD3E0008DD3E000847
:103DF000C53E0008402B6BD070E005213868FEF707
:103E00006DFEF860FB68002B01D1002367E0FB68C2
:103E1000354A1068186012791A7101235FE0062193
:103E20003868FEF75BFEF860FB68002B01D10023C9
:103E300055E0FB682D4A1068186092889A8001232B
:103E40004DE005213868FEF749FEF860FB68002B5D
:103E500001D1002343E0FB68254A106818601279FD
:103E60001A7101233BE039687868FEF743FF034687
:103E700035E00023BB607B681B69002B01D1002368
:103E80002DE07B681B691846FDF79AF9034601335C
:103E9000BB60B9683868FEF721FEF860FB68002B4C
:103EA00001D100231BE07B681B69BA681946F868DA
:103EB000FCF776FF012312E039687868FFF7CAFB48
:103EC00003460CE03968786800F0DDF8034606E048
:103ED0003968786800F06BFA034600E00023184662
:103EE0001037BD4680BD00BF949A0108C49A0108EE
:103EF000CC9A010880B586B000AF786039600023A5
:103F00007B6100233B613B68DB68B3F57A7F01D3BB
:103F10000023B4E03B68DB685A1C3B68DA603B680E
:103F20001A683B689B6813441B785B2B40F09980B0
:103F30003B689B685A1C3B689A603868FFF79AFB9D
:103F40003B68002B0DD03B689A683B685B689A42DF
:103F500007D23B681A683B689B6813441B785D2B4B
:103F600066D03B68002B05D03B689A683B685B686D
:103F70009A4205D33B689B685A1E3B689A6077E07B
:103F80003B689B685A1E3B689A603B681033184632
:103F9000FEF7E8FBF860FB68002B64D07B69002B20
:103FA00004D1FB687B617B693B6107E03B69FA6890
:103FB0001A60FB683A695A60FB683B613B689B6822
:103FC0005A1C3B689A603868FFF754FB39683869B7
:103FD000FFF7C0FD0346002B0CBF01230023DBB21B
:103FE000002B42D13868FFF745FB3B68002B0DD012
:103FF0003B689A683B685B689A4207D23B681A68DC
:104000003B689B6813441B782C2BBED03B68002B6D
:104010002DD03B689A683B685B689A4227D23B6820
:104020001A683B689B6813441B785D2B1FD100E026
:1040300000BF3B68DB685A1E3B68DA607B69002B77
:1040400002D07B693A695A607B682022DA607B681B
:104050007A699A603B689B685A1C3B689A600123A6
:104060000DE000BF04E000BF02E000BF00E000BFC1
:104070007B69002B02D07869FEF78AFB0023184683
:104080001837BD4680BD80B586B000AF7860396016
:1040900000237B610023FB607B689B683B613B687E
:1040A000002B01D1002375E001213868FEF716FDD1
:1040B00078617B69002B01D100236BE07B695B2277
:1040C0001A703B689B685A1C3B689A603B68DB68C7
:1040D0005A1C3B68DA6042E039683869FFF726FE0F
:1040E0000346002B0CBF01230023DBB2002B01D0C1
:1040F00000234FE03868FEF78BFD3B691B68002BFF
:104100002AD03B685B69002B01D0022300E0012329
:10411000FB60FB68013319463868FEF7DFFC786105
:104120007B69002B01D1002334E07B695A1C7A6142
:104130002C221A703B685B69002B04D07B695A1CE7
:104140007A6120221A707B6900221A703B689A6893
:10415000FB681A443B689A603B691B683B613B699A
:10416000002BB9D102213868FEF7B8FC78617B6971
:10417000002B01D100230DE07B695A1C7A615D227E
:104180001A707B6900221A703B68DB685A1E3B6814
:10419000DA60012318461837BD4680BD80B586B069
:1041A00000AF7860396000237B6100233B613B688E
:1041B000DB68B3F57A7F01D30023F4E03B68DB686A
:1041C0005A1C3B68DA603B68002B00F0DA803B68E1
:1041D0009A683B685B689A4280F0D3803B681A68B3
:1041E0003B689B6813441B787B2B40F0CA803B687C
:1041F0009B685A1C3B689A603868FFF73BFA3B683B
:10420000002B0ED03B689A683B685B689A4208D2E4
:104210003B681A683B689B6813441B787D2B00F051
:1042200097803B68002B05D03B689A683B685B68C9
:104230009A4205D33B689B685A1E3B689A60ABE084
:104240003B689B685A1E3B689A603B68103318466F
:10425000FEF788FAF860FB68002B00F094807B6919
:10426000002B04D1FB687B617B693B6107E03B6904
:10427000FA681A60FB683A695A60FB683B613B6800
:104280009B685A1C3B689A603868FFF7F3F93968F5
:104290003869FEF769FF0346002B0CBF012300239A
:1042A000DBB2002B71D13868FFF7E4F93B691A697A
:1042B0003B691A623B6900221A613B68002B66D099
:1042C0003B689A683B685B689A4260D23B681A68B0
:1042D0003B689B6813441B783A2B58D13B689B681A
:1042E0005A1C3B689A603868FFF7C4F93968386926
:1042F000FFF730FC0346002B0CBF01230023DBB289
:10430000002B46D13868FFF7B5F93B68002B0DD07C
:104310003B689A683B685B689A4207D23B681A68B8
:104320003B689B6813441B782C2B8ED03B68002B7A
:1043300031D03B689A683B685B689A422BD23B68F5
:104340001A683B689B6813441B787D2B23D100E0DF
:1043500000BF3B68DB685A1E3B68DA607B69002B54
:1043600002D07B693A695A607B684022DA607B68D8
:104370007A699A603B689B685A1C3B689A60012383
:1043800011E000BF08E000BF06E000BF04E000BF8E
:1043900002E000BF00E000BF7B69002B02D078691B
:1043A000FEF7F6F9002318461837BD4680BD80B5E4
:1043B00088B000AF786039600023FB610023FB60A8
:1043C0007B689B68BB613B68002B01D1002312E135
:1043D0003B685B69002B01D0022300E00123FB60F6
:1043E000FB68013319463868FEF778FBF861FB6912
:1043F000002B01D10023FEE0FB695A1CFA617B22ED
:104400001A703B68DB685A1C3B68DA603B685B6982
:10441000002B04D0FB695A1CFA610A221A703B680F
:104420009A68FB681A443B689A60AAE03B685B693B
:10443000002B22D03B68DB6819463868FEF74EFB3C
:10444000F861FB69002B01D10023D4E000237B61DC
:1044500007E0FB695A1CFA6109221A707B69013373
:104460007B613B68DB687A699A42F2D33B689A6861
:104470003B68DB681A443B689A60BB691B6A396811
:104480001846FEF7B7FF0346002B0CBF012300239D
:10449000DBB2002B01D00023ADE03868FEF7B8FB9B
:1044A0003B685B69002B01D0022300E00123FB6025
:1044B000F9683868FEF712FBF861FB69002B01D13F
:1044C000002398E0FB695A1CFA613A221A703B6893
:1044D0005B69002B04D0FB695A1CFA6109221A702F
:1044E0003B689A68FB681A443B689A603968B86907
:1044F000FFF71CFC0346002B0CBF01230023DBB29B
:10450000002B01D0002376E03868FEF781FB3B6882
:104510005B69002B01D0012200E00022BB691B680F
:10452000002B01D0012300E000231344FB60FB6853
:10453000013319463868FEF7D1FAF861FB69002BA0
:1045400001D1002357E0BB691B68002B04D0FB6935
:104550005A1CFA612C221A703B685B69002B04D04C
:10456000FB695A1CFA610A221A70FB6900221A7050
:104570003B689A68FB681A443B689A60BB691B6891
:10458000BB61BB69002B7FF451AF3B685B69002BBB
:1045900003D03B68DB68013300E00223194638682A
:1045A000FEF79CFAF861FB69002B01D1002322E0A1
:1045B0003B685B69002B10D000233B6107E0FB697F
:1045C0005A1CFA6109221A703B6901333B613B684E
:1045D000DB68013B3A699A42F1D3FB695A1CFA61E4
:1045E0007D221A70FB6900221A703B68DB685A1E34
:1045F0003B68DA60012318462037BD4680BD80B491
:1046000085B000AF78600023FB600023BB607B684F
:10461000002B01D100230DE07B689B68FB6005E067
:10462000BB680133BB60FB681B68FB60FB68002B49
:10463000F6D1BB6818461437BD4680BC704780B4BD
:1046400085B000AF786039600023FB607B68002B89
:1046500001D1002310E07B689B68FB6005E03B68AC
:10466000013B3B60FB681B68FB60FB68002B02D0D2
:104670003B68002BF3D1FB6818461437BD4680BC5D
:10468000704780B582B000AF786039603B68002B1E
:1046900001DA002306E03B6819467868FFF7CFFF90
:1046A000034600BF18460837BD4680BD80B586B0BA
:1046B00000AFF860B9607A6000237B61FB68002B73
:1046C00002D0BB68002B01D1002338E0FB689B6857
:1046D0007B617B68002B17D002E07B691B687B61E4
:1046E0007B69002B21D07B691B6A002B1DD07B6965
:1046F0001B6A1946B868FCF7F7FB0346002BECD1A0
:1047000013E07B691B687B617B69002B0AD07B69A6
:104710001B6A1946B868FDF77BFF0346002B01D0E2
:10472000012300E00023002BEBD17B69002B03D099
:104730007B691B6A002B01D1002300E07B691846CE
:104740001837BD4680BD80B582B000AF7860396053
:10475000002239687868FFF7A9FF03461846083732
:10476000BD4680BD80B582B000AF7860396001225F
:1047700039687868FFF79AFF034618460837BD4640
:1047800080BD80B582B000AF7860396039687868E4
:10479000FFF7D9FF0346002B01D0012300E00023DF
:1047A00018460837BD4680BD80B483B000AF78603E
:1047B00039607B683A681A603B687A685A6000BF63
:1047C0000C37BD4680BC704780B584B000AF7860C0
:1047D00039600023FB607B68002B01D100231EE0C1
:1047E0003868FDF7BFFFF860FB68002B01D100239C
:1047F00015E028227968F868FCF7D2FAFB680022F5
:104800001A62FB68DB6843F48072FB68DA60FB685D
:1048100000225A60FB685A68FB681A60FB681846F9
:104820001037BD4680BD80B584B000AF7860396078
:104830000023FB603B68002B06D07B68002B03D075
:104840007A683B689A4201D100231EE07B689B682E
:10485000FB60FB68002B09D17B683A689A603B6873
:104860003A685A603B6800221A600DE0FB685B689A
:10487000002B09D0FB685B6839681846FFF794FF86
:104880007B689B683A685A60012318461037BD461A
:1048900080BD80B582B000AF7860396039687868D3
:1048A000FFF7C1FF034618460837BD4680BD80B4F8
:1048B00083B000AF78607B6818460C37BD4680BC7B
:1048C000704780B586B000AFF860B9607A603B6031
:1048D00000237B6100233B61FB68002B09D0BB6890
:1048E000002B06D07B68002B03D0FA687B689A42C5
:1048F00001D1002337E03B6A002B09D0B868FFF7ED
:10490000D6FF78617B68DB6843F400733B610EE09F
:104910003968B868FDF7BAFE78617B69002B01D170
:10492000002320E07B68DB6823F400733B617B6835
:10493000DB6803F40073002B09D17B681B6A002B32
:1049400005D03B685B687A68126A104698477B68B6
:104950007A691A627B683A69DA607968F868FFF701
:1049600062FF034600BF18461837BD4680BD0000F1
:1049700080B586B002AFF860B9607A60002300931A
:10498000054B7A68B968F868FFF79BFF034618463D
:104990001037BD4680BD00BF3C04002080B586B006
:1049A00002AFF860B9607A6001230093054B7A6822
:1049B000B968F868FFF785FF034618461037BD460B
:1049C00080BD00BF3C04002080B582B000AF78609D
:1049D00039607B68002B01D100230AE00749386861
:1049E000FFF7F2FE034619467868FFF71CFF0346FF
:1049F00000BF18460837BD4680BD00BF3C040020FC
:104A000080B586B002AFF860B9607A60FB68002BB1
:104A100002D0BB68002B01D100230DE00849786863
:104A2000FFF7D2FE024600230093054BB968F868F1
:104A3000FFF747FF034600BF18461037BD4680BD4D
:104A40003C04002080B586B002AF7860396000F089
:104A500005FBF860002300930B4BFA68396878680F
:104A6000FFF72FFF0346002B14BF01230023DBB207
:104A7000002B01D0FB6803E0F868FDF789FE0023F6
:104A800018461037BD4680BD3C04002080B586B076
:104A900002AF7860396000F0F5FAF8600023009307
:104AA0000B4BFA6839687868FFF70BFF0346002B59
:104AB00014BF01230023DBB2002B01D0FB6803E00D
:104AC000F868FDF765FE002318461037BD4680BD27
:104AD0003C04002080B586B002AF7860396000F0F9
:104AE000E5FAF860002300930B4BFA6839687868A0
:104AF000FFF7E7FE0346002B14BF01230023DBB2C0
:104B0000002B01D0FB6803E0F868FDF741FE0023AD
:104B100018461037BD4680BD3C04002080B588B0E3
:104B200002AFF860B9607A60786800F0D3FA786113
:104B3000002300930B4B7A69B968F868FFF7C1FE50
:104B40000346002B14BF01230023DBB2002B01D04E
:104B50007B6903E07869FDF71BFE002318461837D0
:104B6000BD4680BD3C04002080B588B002AFF8602F
:104B7000B960C7E90023D7E9000100F0C5FA786100
:104B8000002300930B4B7A69B968F868FFF799FE28
:104B90000346002B14BF01230023DBB2002B01D0FE
:104BA0007B6903E07869FDF7F3FD002318461837A9
:104BB000BD4680BD3C04002080B588B002AFF860DF
:104BC000B9607A60786800F0E7FA786100230093B2
:104BD0000B4B7A69B968F868FFF773FE0346002B40
:104BE00014BF01230023DBB2002B01D07B6903E05B
:104BF0007869FDF7CDFD002318461837BD4680BD06
:104C00003C04002080B588B002AFF860B9607A60DB
:104C1000786800F03BFB7861002300930B4B7A69C6
:104C2000B968F868FFF74DFE0346002B14BF012357
:104C30000023DBB2002B01D07B6903E07869FDF72C
:104C4000A7FD002318461837BD4680BD3C04002050
:104C500080B586B002AF7860396000F051FBF86033
:104C6000002300930B4BFA6839687868FFF729FE38
:104C70000346002B14BF01230023DBB2002B01D01D
:104C8000FB6803E0F868FDF783FD00231846103742
:104C9000BD4680BD3C04002080B586B002AF786080
:104CA000396000F019FBF860002300930B4BFA68A1
:104CB00039687868FFF705FE0346002B14BF01230F
:104CC0000023DBB2002B01D0FB6803E0F868FDF79E
:104CD0005FFD002318461037BD4680BD3C04002010
:104CE00080B483B000AF786039607B68002B02D05D
:104CF0003B68002B01D100232CE07B689B683A685D
:104D00009A4204D03B685B683A6812681A603B6854
:104D10001B68002B04D03B681B683A6852685A60D5
:104D20007B689B683A689A4204D13B681A687B6842
:104D30009A6008E03B681B68002B04D17B689B6885
:104D40003A6852685A603B6800225A603B68002209
:104D50001A603B6818460C37BD4680BC704780B56A
:104D600082B000AF786039603B68002B01DA002325
:104D70000BE03B6819467868FFF761FC034619466B
:104D80007868FFF7ADFF034600BF18460837BD46F9
:104D900080BD80B582B000AF7860396039687868CE
:104DA000FFF7DDFF03461846FDF7F2FC00BF0837AA
:104DB000BD4680BD80B584B000AF78603960396889
:104DC0007868FFF7C0FCF860F9687868FFF788FF3B
:104DD000034618461037BD4680BD80B584B000AF8D
:104DE0007860396039687868FFF7BCFCF860F9686A
:104DF0007868FFF775FF034618461037BD4680BD3B
:104E000080B582B000AF7860396039687868FFF7A4
:104E1000D1FF03461846FDF7BBFC00BF0837BD466F
:104E200080BD80B582B000AF78603960396878683D
:104E3000FFF7D3FF03461846FDF7AAFC00BF08376B
:104E4000BD4680BD80B586B000AFF860B9607A60BD
:104E500000237B61BB68002B01DA002326E0BB68DE
:104E60001946F868FFF7EBFB78617B69002B05D1E9
:104E70007968F868FFF7D7FC034617E07B687A6922
:104E80001A607B695A687B685A607B697A685A60E5
:104E9000FB689B687A699A4203D1FB687A689A60DA
:104EA00003E07B685B687A681A600123184618374C
:104EB000BD4680BD80B584B000AFF860B9607A604F
:104EC000FB68002B05D07B68002B02D0BB68002B51
:104ED00001D1002342E07A68BB689A4201D10123E4
:104EE0003CE0BB681A687B681A60BB685A687B68DC
:104EF0005A607B681B68002B03D07B681B687A684C
:104F00005A60FB689B68BA689A420DD1FB689B683F
:104F10005A68FB689B689A4202D17B687A685A603B
:104F2000FB687A689A600FE07B685B68002B03D0AF
:104F30007B685B687A681A607B681B68002B03D10A
:104F4000FB689B687A685A60BB6800221A60BB687D
:104F500000225A60B868FDF71BFC01231846103781
:104F6000BD4680BD80B584B000AFF860B9607A609E
:104F7000BB68002B01DA00230CE0BB681946F86817
:104F8000FFF75DFB03467A681946F868FFF792FF62
:104F9000034600BF18461037BD4680BD80B584B0BB
:104FA00000AFF860B9607A603B607B68002B02D08C
:104FB000BB68002B01D1002328E07B68DB6803F489
:104FC0000073002B08D17B681B6A002B04D07B6820
:104FD0001B6A184600F02EFF0E49B868FDF756FB15
:104FE00002467B681A627B68DB6823F400727B6888
:104FF000DA603A68B968F868FFF758FB03467A68E0
:105000001946F868FFF756FF034600BF18461037E9
:10501000BD4680BD3C04002080B584B000AFF86080
:10502000B9607A6000237A68B968F868FFF7B6FF5C
:10503000034618461037BD4680BD80B584B000AF2A
:10504000F860B9607A6001237A68B968F868FFF798
:10505000A5FF034618461037BD4680BD80B582B017
:1050600000AF0748FDF77EFB78607B68002B02D01D
:105070007B680422DA607B6818460837BD4680BD2D
:105080003C04002080B582B000AF0748FDF76AFB02
:1050900078607B68002B02D07B680222DA607B6834
:1050A00018460837BD4680BD3C04002080B582B05C
:1050B00000AF0748FDF756FB78607B68002B02D0F5
:1050C0007B680122DA607B6818460837BD4680BDE0
:1050D0003C04002080B584B000AF78600948FDF73B
:1050E00041FBF860FB68002B07D07B68002B01D0E8
:1050F000022200E00122FB68DA60FB6818461037E4
:10510000BD4680BD3C04002080B584B000AFC7E937
:1051100000011F48FDF726FBF860FB68002B2CD030
:10512000FB680822DA60F968D7E90023C1E90623A1
:1051300015A3D3E90023D7E90001FBF7F5FD0346EA
:10514000002B04D0FB686FF000425A6115E04FF06D
:105150000002104BD7E90001FBF7DCFD0346002BF2
:1051600004D0FB684FF000425A6106E0D7E9000125
:10517000FBF7EEFD0246FB685A61FB6818461037E4
:10518000BD4680BDAFF300800000C0FFFFFFDF41E0
:105190003C0400200000E0C180B584B000AF78601E
:1051A0000F48FDF7DFFAF860FB68002B12D0FB68B0
:1051B0001022DA600A497868FDF768FA0246FB684F
:1051C0001A61FB681B69002B04D1F868FDF7E0FA4F
:1051D000002300E0FB6818461037BD4680BD00BFC5
:1051E0003C04002080B584B000AF78600A48FDF729
:1051F000B9FAF860FB68002B09D0FB684FF488729D
:10520000DA607868FFF753FB0246FB681A61FB68B7
:1052100018461037BD4680BD3C04002080B584B0E0
:1052200000AF78600A48FDF79DFAF860FB68002B34
:1052300009D0FB684FF4A072DA607868FFF737FB9B
:105240000246FB689A60FB6818461037BD4680BD71
:105250003C04002080B584B000AF78600A48FDF7B8
:1052600081FAF860FB68002B09D0FB684FF490725C
:10527000DA607868FFF71BFB0246FB689A60FB6800
:1052800018461037BD4680BD3C04002080B584B070
:1052900000AF78600F48FDF765FAF860FB68002BF7
:1052A00012D0FB688022DA600A497868FDF7EEF9CF
:1052B0000246FB681A61FB681B69002B04D1F86881
:1052C000FDF766FA002300E0FB6818461037BD467C
:1052D00080BD00BF3C04002080B582B000AF07480D
:1052E000FDF740FA78607B68002B02D07B682022B3
:1052F000DA607B6818460837BD4680BD3C04002054
:1053000080B582B000AF0748FDF72CFA78607B6863
:10531000002B02D07B684022DA607B681846083791
:10532000BD4680BD3C04002080B586B000AF7860EB
:10533000396000237B6100233B610023FB60002375
:10534000BB603B68002B02DB7B68002B01D1002394
:105350003FE0FFF7C1FFB86000237B6126E07B6977
:105360009B007A6813441B681846FBF7EDF9024668
:105370000B4610461946FFF7C7FE38613B69002B04
:1053800004D1B868FDF704FA002322E07B69002B02
:1053900003D1BB683A699A6003E03969F868FFF79E
:1053A00003FA3B69FB607B6901337B61BB68002BBF
:1053B00003D03B687A699A42D1D3BB68002B07D0EF
:1053C000BB689B68002B03D0BB689B683A695A6036
:1053D000BB6818461837BD4680BD80B586B000AFA3
:1053E0007860396000237B6100233B610023FB6010
:1053F0000023BB603B68002B02DB7B68002B01D1E4
:1054000000233FE0FFF768FFB86000237B6126E0E0
:105410007B699B007A6813441B681846FBF7A6F962
:1054200002460B4610461946FFF76EFE38613B698F
:10543000002B04D1B868FDF7ABF9002322E07B69AB
:10544000002B03D1BB683A699A6003E03969F868B8
:10545000FFF7AAF93B69FB607B6901337B61BB689D
:10546000002B03D03B687A699A42D1D3BB68002BEA
:1054700007D0BB689B68002B03D0BB689B683A6968
:105480005A60BB6818461837BD4680BD80B586B0E7
:1054900000AF7860396000237B6100233B6100230B
:1054A000FB600023BB603B68002B02DB7B68002BAA
:1054B00001D100233BE0FFF70FFFB86000237B61C1
:1054C00022E07B69DB007A681344D3E900231046AD
:1054D0001946FFF719FE38613B69002B04D1B86803
:1054E000FDF756F9002322E07B69002B03D1BB684E
:1054F0003A699A6003E03969F868FFF755F93B6942
:10550000FB607B6901337B61BB68002B03D03B6888
:105510007A699A42D5D3BB68002B07D0BB689B68D9
:10552000002B03D0BB689B683A695A60BB68184679
:105530001837BD4680BD80B586B000AF7860396051
:1055400000237B6100233B610023FB600023BB60E1
:105550003B68002B02DB7B68002B01D1002339E084
:10556000FFF7BAFEB86000237B6120E07B699B00F7
:105570007A6813441B681846FFF70EFE38613B69D2
:10558000002B04D1B868FDF703F9002322E07B6902
:10559000002B03D1BB683A699A6003E03969F86867
:1055A000FFF702F93B69FB607B6901337B61BB68F4
:1055B000002B03D03B687A699A42D7D3BB68002B93
:1055C00007D0BB689B68002B03D0BB689B683A6917
:1055D0005A60BB6818461837BD4680BD80B586B096
:1055E00000AF7860396000237B6100233B610023BA
:1055F000FB600023BB607B68002B76D04548FDF73D
:10560000B1F878617B69002B71D07B68DB6823F48B
:1056100080727B69DA607B685A697B695A617B6852
:10562000D3E906237969C1E906237B681B69002B4E
:105630000CD07B681B6937491846FDF727F80246EE
:105640007B691A617B691B69002B52D07B681B6ADE
:10565000002B15D07B68DB6803F40073002B02D0AD
:105660007B681B6A06E07B681B6A2A491846FDF7BF
:105670000DF803467A6913627B691B6A002B3AD0E6
:105680003B68002B01D17B693FE07B689B683B61F5
:105690001BE001213869FFF7A1FFB860BB68002B50
:1056A0002BD0FB68002B08D0FB68BA681A60BB6877
:1056B000FA685A60BB68FB6004E07B69BA689A606C
:1056C000BB68FB603B691B683B613B69002BE0D119
:1056D0007B69002B07D07B699B68002B03D07B691B
:1056E0009B68BA685A607B690FE000BF06E000BFA4
:1056F00004E000BF02E000BF00E000BF7B69002BB8
:1057000002D07869FDF744F8002318461837BD46E3
:1057100080BD00BF3C04002080B483B000AF78603F
:105720007B681B689A1C7B681A600FE07B681B68AB
:105730001B780A2B05D17B681B685A1C7B681A6092
:1057400009E07B681B685A1C7B681A607B681B68D1
:105750001B78002BEAD10C37BD4680BC704780B463
:1057600083B000AF78607B681B689A1C7B681A6006
:1057700015E07B681B681B782A2B0BD17B681B68A4
:1057800001331B782F2B05D17B681B689A1C7B6823
:105790001A6009E07B681B685A1C7B681A607B688A
:1057A0001B681B78002BE4D10C37BD4680BC7047CA
:1057B00080B483B000AF786039607B681A683B685A
:1057C0001B6812781A707B681B685A1C7B681A6009
:1057D0003B681B685A1C3B681A603FE07B681A688C
:1057E0003B681B6812781A707B681B681B78222B39
:1057F0000ED13B681B6822221A707B681B685A1CFA
:105800007B681A603B681B685A1C3B681A602AE078
:105810007B681B681B785C2B16D17B681B68013387
:105820001B78222B10D17B681A683B681B680133F8
:1058300052781A707B681B685A1C7B681A603B6838
:105840001B685A1C3B681A607B681B685A1C7B6883
:105850001A603B681B685A1C3B681A607B681B68AF
:105860001B78002BBAD10C37BD4680BC70470000B6
:1058700080B584B000AF78607B68FB607B68002BEC
:1058800000F08F8084E07B681B78093B262B75D85D
:1058900001A252F823F000BF35590008355900081D
:1058A0007D5900087D590008355900087D590008C8
:1058B0007D5900087D5900087D5900087D59000870
:1058C0007D5900087D5900087D5900087D59000860
:1058D0007D5900087D5900087D5900087D59000850
:1058E0007D5900087D5900087D5900087D59000840
:1058F0007D590008355900087D5900086D59000888
:105900007D5900087D5900087D5900087D5900081F
:105910007D5900087D5900087D5900087D5900080F
:105920007D5900087D5900087D5900087D590008FF
:105930003D5900087B6801337B6029E07B680133B7
:105940001B782F2B04D13B1D1846FFF7E5FE1FE007
:105950007B6801331B782A2B04D13B1D1846FFF7C7
:10596000FEFE15E07B6801337B6011E007F10C025D
:105970003B1D11461846FFF71BFF09E07A68FB68DC
:1059800012781A707B6801337B60FB680133FB601F
:105990007B681B78002B7FF476AFFB6800221A70BF
:1059A00000E000BF1037BD4680BD00BF80B483B0AB
:1059B00000AF78607B68002B01D1002307E07B6893
:1059C000DB68DBB2002B0CBF01230023DBB21846DF
:1059D0000C37BD4680BC704780B483B000AF7860A0
:1059E0007B68002B01D1002307E07B68DB68DBB21A
:1059F000012B0CBF01230023DBB218460C37BD4638
:105A000080BC704780B483B000AF78607B68002BA7
:105A100001D1002307E07B68DB68DBB2022B0CBFFF
:105A200001230023DBB218460C37BD4680BC70470B
:105A300080B483B000AF78607B68002B01D1002375
:105A400008E07B68DB6803F00303002B14BF01232D
:105A50000023DBB218460C37BD4680BC704780B4CB
:105A600083B000AF78607B68002B01D1002307E092
:105A70007B68DB68DBB2042B0CBF01230023DBB2A5
:105A800018460C37BD4680BC704780B483B000AF69
:105A900078607B68002B01D1002307E07B68DB681E
:105AA000DBB2082B0CBF01230023DBB218460C37F6
:105AB000BD4680BC704780B483B000AF78607B681F
:105AC000002B01D1002307E07B68DB68DBB2102BE1
:105AD0000CBF01230023DBB218460C37BD4680BC47
:105AE000704780B483B000AF78607B68002B01D131
:105AF000002307E07B68DB68DBB2202B0CBF0123AF
:105B00000023DBB218460C37BD4680BC704780B41A
