:020000040800F2
:100000005807002069020008710200087302000806
:10001000750200087702000879020008000000005D
:100020000000000000000000000000007B0200084B
:100030007D020008000000007F0200088102000825
:10004000830200088302000883020008830200087C
:10005000830200088302000883020008830200086C
:10006000830200088302000883020008830200085C
:10007000830200088302000883020008830200084C
:10008000830200088302000883020008830200083C
:10009000830200088302000883020008830200082C
:1000A000830200088302000883020008830200081C
:1000B000C91E0008830200088302000883020008AA
:1000C00083020008830200088302000883020008FC
:1000D0008302000883020008B51F0008830200089D
:1000E00083020008830200088302000883020008DC
:1000F00083020008830200088302000883020008CC
:1001000083020008830200088302000883020008BB
:1001100083020008830200088302000883020008AB
:10012000830200088302000883020008830200089B
:10013000830200088302000883020008830200088B
:10014000830200088302000883020008830200087B
:10015000830200088302000883020008830200086B
:10016000830200088302000883020008830200085B
:1001700083020008830200088302000800000000D8
:10018000830200088302000800F002F800F05CF827
:100190000AA090E8000C82448344AAF10107DA45E2
:1001A00001D100F051F8AFF2090EBAE80F0013F0D8
:1001B000010F18BFFB1A43F001031847404000002D
:1001C00060400000103A24BF78C878C1FAD85207BE
:1001D00024BF30C830C144BF04680C6070470000C1
:1001E0000023002400250026103A28BF78C1FBD840
:1001F000520728BF30C148BF0B607047672903F022
:100200000687692900F04A81642900F0478178292E
:1002100000F08081002070471FB503F0E3FE9DE8E9
:10022000030000F037FB01F027F904000020002153
:1002300003F024FC401C60600020002103F034FC2B
:10024000E0601FBD10B510BD01F058FA1146FFF770
:10025000E3FF02F019FA01F0ABFC03B4FFF7F2FF81
:1002600003BC01F0DBFC0000094880470948004757
:10027000FEE7FEE7FEE7FEE7FEE7FEE7FEE7FEE756
:10028000FEE7FEE704480549054A064B70470000B3
:10029000AD1E000889010008580100205807002001
:1002A000580300205803002070B5064600F0D6FA27
:1002B000056806F10B0020F00704B4429CBF002043
:1002C00070BD2B466A68BAB11068A04210D304F121
:1002D000080188423CBF5068586007D35168101924
:1002E00041601168091B016058601460101D70BDE9
:1002F00013465268002AE7D12146284600F0B6FA94
:100300000028DED170BD70B50446051F00F0A6FAC6
:100310000068002C14BF446870BD002C18BFAC42AC
:100320003CBF20466468F8D301680A18AA4218BF87
:10033000456003D12A6805461144016028684119C7
:10034000A1421CBF6C6070BD61686960216808448F
:10035000286070BD70B50D460646041F00F07EFA99
:100360000268BDB1DEB105F10B0020F00701A94222
:100370003CBF002070BD23688B4238BF506813D348
:100380005A1A082A36D3601840F8042B2160FFF768
:10039000BAFF2FE03046FFF7B6FF002070BD2846B9
:1003A000BDE87040FFF780BF002818BFA0423CBFE7
:1003B00002464068F8D303EB040C84451CD1D0F806
:1003C00000C06344994217D8A3EB010CBCF1080F9D
:1003D0000DD3D0F804C06318C3F804C0D4F800C02B
:1003E00000686044401A18602160536002E0236096
:1003F00040685060201D70BD2846FFF755FF05007E
:1004000008D031462068021F284600F0FFFF201D5B
:10041000FFF779FF284670BD10B5044600F016FAC4
:100420000068005DC00602D504F1200010BD204622
:1004300010BD00000FB4044910B503AA029800F0E3
:10044000DFFC10BC5DF814FB7400002070B504469E
:1004500085690068C10601D5302600E02026C00766
:1004600007D070BDD4E9012130469047206A401C76
:1004700020626D1EF6D570BD70B5044685690078A2
:10048000C00707D170BDD4E9012120209047206A20
:10049000401C20626D1EF6D570BD00002DE9F041B4
:1004A0000646002410687529314616A510D0AFF312
:1004B0000080002802DA404213A507E031688A076D
:1004C00001D512A502E0490704D511A5012401E0D8
:1004D000AFF3008000210A2206F1240709E0B0FBF7
:1004E000F2FCB0FBF2F302FB1C00303078541846EB
:1004F000491C0028F3D123462A463046BDE8F04186
:1005000000F0FEB9000000002D0000002B000000EC
:100510002000000070B504460D4621461068AFF378
:1005200000802188090502D50F4A7A4402E00E4A6C
:100530007A440E32002104F1240305E000F00F0696
:100540000009965D5E54491C0028F7D120780023ED
:10055000000704D5702D02D009B1022311322046C4
:10056000BDE8704000F0CCB9E03B00002DE9F05F41
:10057000894604464FF0000ADFF824B1FB44C0F876
:1005800020A02046E168884700287DD0252806D095
:10059000D4E901219047206A401C2062F1E7002540
:1005A0005F462046E16888472028064607DB312E53
:1005B00005D2B81910F8200C08B10543F1E7A807D7
:1005C00001D525F00405C4F81CA00027C4F818A024
:1005D0002A2E09D0304603F002FA38B304EB87081C
:1005E000303EC8F8186019E059F8041B204604EBA7
:1005F00087029161E1688847012F064618D1E069BA
:10060000002820DA25F020051DE0D8F8180000EBBE
:10061000800006EB40003038C8F818002046E1683A
:100620008847064603F0DBF90028EED1012F0AD0F7
:100630002E2E08D12046E16888477F1C0646022FEF
:1006400045F02005C4DBA069002803DA404245F0EC
:100650000105A061E80701D025F01005A6B1A6F1BB
:100660004100192802D8203645F400654A46314633
:10067000204625604D46FFF7C1FD60B1012807D037
:10068000ED1D25F0070000E007E000F1080978E71C
:1006900005F1040975E730467AE7206ABDE8F09F66
:1006A000B63B000010B5431C02E010F8011B71B10D
:1006B0008107FAD14FF0013202C88C1A8C4314EA38
:1006C000C211F9D0C01A0A0603D0C01E10BDC01A4C
:1006D00010BD0A0401D0801E10BD0902FCD0401ECE
:1006E00010BD40EA010370B59B072ED14FF00136D3
:1006F000042A2AD308C810C99D1B9D43121F15EA5E
:10070000C61517D0D8B2E1B2401A50EA056110D12F
:1007100098B2A1B2401A50EA05410AD123F07F40B5
:1007200024F07F41401A50EA052102D1180EA0EBB7
:10073000146070BDA342DBD018BA21BA884201D937
:10074000012070BD4FF0FF3070BD0AB9002070BDB0
:1007500010F8013B11F8014B63B1A3420AD1521EBC
:1007600008D010F8013B11F8014B1BB1A34201D195
:10077000521EEDD1181B70BD4FF0000200B513469C
:1007800094469646203922BFA0E80C50A0E80C50B1
:10079000B1F12001BFF4F7AF090728BFA0E80C5062
:1007A00048BF0CC05DF804EB890028BF40F8042B5B
:1007B00008BF704748BF20F8022B11F0804F18BFC8
:1007C00000F8012B7047000030B44FF0013C50F8A6
:1007D000042B51F8043BCCFA52F4D51A20D1FCB9C1
:1007E00050F8042B51F8043BCCFA52F4D51A17D127
:1007F000B4B950F8042B51F8043BCCFA52F4D51A92
:100800000ED16CB950F8042B51F8043BCCFA52F4D9
:10081000D51A05D1002CDAD030BC4FF0000070475B
:1008200029BAB1FA81F111F01801D1F12000844008
:10083000F2D1CA40CB4012F0FF0213F0FF0330BCEC
:10084000D01A7047704770477047000010B500F02D
:1008500013FE001D10BD00BF253200000048704788
:1008600018000020704770477047704738B504463D
:100870000A4600206946AFF30080002808BF38BD53
:1008800002460099204600F0FFFD012038BD0120FE
:1008900000F02CBFF8B5AFF30080054600200C46F1
:1008A000102000BF0646A819A0420DD9324669465D
:1008B0000020AFF30080070008BF00F017FF00988A
:1008C000A04218BF0546C419FFF7C8FF05600746D8
:1008D000F01D20F007004619284600F00AF8B4423F
:1008E00008BFF8BDA21B31463868BDE8F84000F0EB
:1008F000CBBD00210160C0E9011070471020704796
:100900002DE9F0470D4699469246044600F1240829
:100910000168880604D5E06921F01001216000E03B
:100920000120A84201DD471B00E00027A1697A19D8
:1009300002EB0900081AA0612078C00602D4204604
:10094000FFF784FD002608E0D4E901211AF806002B
:100950009047206A401C761C20624E45F4DB2078CC
:10096000C0060AD52046FFF771FD06E0D4E9012153
:1009700030209047206A401C2062381EA7F10107F2
:10098000F4DC07E0D4E9012118F805009047206A5B
:10099000401C2062281EA5F10105F3DC2046FFF76C
:1009A0006BFD2078000602D50220BDE8F08701200B
:1009B000FBE72DE9FF4F0C461E464FF0FF378BB08B
:1009C000D2E90001DDF860800A908A46C1F30A5539
:1009D00005B93D46002108464FF00000BAF1000F6E
:1009E00000F4400005DA00EB80004FF4400101EA1A
:1009F00050004FEA9059B9F1010F00DDB9460A984D
:100A000050EA4A000ED044F61050A5F2FF35454397
:100A10002F14B8F1000F1ED07542291E1EDDC9F13A
:100A200000021CE0B8F1010F4FF0000001D03021AE
:100A300003E0F24305E02154401CB042FBDB3046AA
:100A40000022002121540B99C1F80880C1E900203F
:100A50000FB0BDE8F08FBD1B6D1CDEE74A4600DA23
:100A6000694206A800F0CCFD06AB93E8070003AB93
:100A700083E8070050460A9902F03AFA8DE8070029
:100A8000A0F500501F3800900398002D0ADD42F2B7
:100A90001F014A460844002303A90390684602F058
:100AA000E5FC09E0A0F500504A461F38002303A9E1
:100AB0000390684602F004FD8DE807000004000C76
:100AC00003D04FF0FF30410800E01046B8F1000FAE
:100AD00003D00022009215461EE0751E05D400F0DA
:100AE00000FD303262556D1EF9D5B3460122084330
:100AF00002D000227F1C04E02078302801D100229F
:100B00007F1E002A099784D01DE0112D07DA00F01E
:100B1000E8FC303262556D1C50EA0102F5D1084301
:100B200002D00098C8B10EE00021681E05E0235CE9
:100B3000625C63542254401E491C8142F7DBAB4681
:100B4000A81B401E0990002004F80B000B98099A7E
:100B5000C0F80880C0E9002B7AE711264FF00008A2
:100B600057E72DE9F04F88460446D21D22F00701D1
:100B700091B0D1E90001CDE90A0102F0EDFD024694
:100B80000B98C00F01D02D2007E02068810701D508
:100B90002B2002E0202101EAC000032A099001D0A5
:100BA000072A05DB03464146204600F0E9FC0BE13D
:100BB0002078800601D5E06900E00620B8F1650FD5
:100BC000814606D0B8F1660F18D0B8F1670F70D122
:100BD00031E00020B9F1110F009001DB112301E099
:100BE00009F101030AAA01A90CA8FFF7E2FEDDE959
:100BF0000C70002609F10105834647E001204B46B1
:100C000000904FF000470AAA01A90CA8FFF7D1FEF7
:100C1000DDE90DB00C995D46002610B909F101001F
:100C20000D18B9EB050003D4C0F1FF3609F1010539
:100C3000A5EB09002BE0B9F1010F01DA4FF0010932
:100C40000020B9F1110F0090484601DD112300E0AA
:100C500003460AAA01A90CA8FFF7ABFEDDE90C7058
:100C60004D4600268346207800070AD4AB4500DABB
:100C70005D4601A8012D04DD411911F8011C302940
:100C800007D04F4502DA17F1040F04DA012082463B
:100C90000FE06D1EEEE7002F02DCED1B3E4403E08B
:100CA000781CA84200DD7D1CB81B00F1010A4FF042
:100CB00000472078000703D4AA4501DB4FF0FF3A34
:100CC0000021B7F1004F0DF143088DF8431024D0F7
:100CD00002202B23002F01DA7F422D230A21021E3E
:100CE000A0F1010000DC5FB197FBF1FC97FBF1F292
:100CF00001FB1C7C17460CF1300C08F801CDEEE727
:100D0000A8F1010003702188090501D5452100E003
:100D10006521A0F1010800F8011C09980FA9A1EBB9
:100D20000807FF1D00B10120411901EBEA70A1691C
:100D30003844081A401EA0612078C00602D420461C
:100D4000FFF784FB099828B1D4E901219047206A74
:100D5000401C20622078C00622D52046FFF776FB93
:100D60001EE0002E04DBB34502DD01A8805D00E03B
:100D70003020D4E901219047206A401C2062761C73
:100D8000AAF101005FEA000A0AD100F075FBC06811
:100D90000168405CD4E901219047206A401C206230
:100DA000281EA5F10105DCDC07E0D4E9012118F8D3
:100DB000010B9047206A401C2062381EA7F10107F2
:100DC000F3DC2046FFF758FB032011B041E600009A
:100DD00001694A1C02610878704700B58FB0CDE9FF
:100DE00001310021059105497944CDE903101146EF
:100DF0006846FFF7BBFB0FB000BD0000E5FFFFFF3B
:100E0000074B70B50D467B44FFF7E7FF04462846C5
:100E100000F068FC10B14FF0FF3070BD204670BD8F
:100E2000D31600002DE9FF4F06468BB00878FF2847
:100E300006D0491C2D2805D000244FF0000908E0F9
:100E400000200CE00124F8E709EB8903491C00EBC2
:100E500043090878FF28F7D114B1C9F10000814691
:100E6000107800252C46AA4629462D2801D02B288B
:100E700004D1521C2D2813D0002082468B461078B6
:100E8000FF280FD04FF0000C0A21521CA5FB01785F
:100E900004FB018105FB0C11C5194BEB0104EEE7C6
:100EA0000120EAE7002108464FF00000BAF1000FE8
:100EB00002D000EB80004008C0F38157012F01DD14
:100EC0004FF0FF370E9955EA040009EB01080BD0EB
:100ED0004FF0020918F5FA7F16DA4FEACA70002FB0
:100EE000706008DD012007E04FEACA70C6E900B073
:100EF0000FB0BDE8F08F0020306000F0C1FAC0F8FC
:100F000000901821084616E0B8F5FA7F18DD002F8A
:100F100002DAF748784401E0F6487844D0E9001056
:100F2000C6E9001040EACA70706000F0A9FAC0F883
:100F30000090142108460FB0BDE8F04F03F064B8EC
:100F4000002108464FF00000B8F10001099002DAD4
:100F5000C7F1000200E03A4601DAC8F1000106A834
:100F600000F04EFB06AB93E8070003AB83E80700F5
:100F700044F23E005BEA04010090584604D144F27A
:100F80001E012C465D460091210C0904014306D147
:100F90000099240444EA15442D041039009104F00A
:100FA0007F41014306D10099240244EA15642D02D1
:100FB0000839009104F07041014306D100992401E1
:100FC00044EA15742D01091F009104F040410143CA
:100FD00006D10099A40044EA9574AD00891E0091E1
:100FE00004F00041084304D100986D196441401E8B
:100FF00000904FF001033A466846B8F1000FCDE982
:10100000014503A902DD02F070FA01E002F043FAA3
:10101000BAF1000F04460D4601D084F000440021CF
:1010200008464FF00000099940F2FF77484010F061
:101030000C0F07D124F00040284303D0C4F30A501A
:10104000B84212D100F01CFAC0F80090C4F30A5064
:10105000B8420AD1A8487844D0E90010C6E9001087
:1010600004F000410843706042E7C6E900543FE7DE
:101070002DE9FF4F1F464FF0000A4FF0FF3845465D
:1010800091B0D7E90146CDF83CA000F0F5F9C06871
:101090000168405C1090B96912986D1C8847396AE4
:1010A000814688470028F6D1B9F1FF3F0AD0002ECB
:1010B00024F4D06411DDB9F12B0F08D0B9F12D0F54
:1010C0000BD102E0404615B013E744F48064B969DF
:1010D00012986D1C8847761E8146600504A901D5CB
:1010E0002D2000E02B20002E01F1010B0DF1300826
:1010F0008DF810003FDDB9F1690F08D0B9F1490F43
:1011000005D0B9F16E0F02D0B9F14E0F1CD13B469C
:1011100001A8009580E85002DDE912126FF002008C
:1011200002F0DBFFC11CCED10EE0B96912986D1C34
:10113000884781461398761E44F4007405600F9822
:10114000401C002E0F9016DDB9F1300FEDD0B9F133
:10115000780F02D0B9F1580F0DD10F9801280AD19C
:101160003B46CDE90054DDE91212001F029602F061
:10117000B2FFC11CA7D1109989453ED144F080042B
:1011800006E01399681CAAF1010A44F4007408608F
:10119000B9696D1C1298761E884730288146F0D0B8
:1011A0002BE01099894505D1200603D4761E44F022
:1011B000800418E0484602F012FC08B3761E0DF1D8
:1011C00023029345A9F1300044F4007406D20BF8D1
:1011D000010B200607D5AAF1010003E0200602D486
:1011E0000AF101008246A00502D51399681C086027
:1011F000B96912986D1C88478146002ED1DC53E0F6
:10120000002E51DDB9F1650F02D0B9F1450F4BD178
:10121000A00549D5B9696D1C1298761E24F4407456
:101220008847002E81460CDD2B2804D0B9F12D0F04
:1012300007D144F48074B96912986D1C8847761EF2
:101240008146E00501D52D2100E02B2108F8011B86
:10125000CDF8008021E0761E0DF13901884544F477
:1012600000740CD2A9F1300010F0FF0088F80000E3
:1012700002D10099884509D908F1010806E0E00586
:1012800001D51E4801E042F20F708246B9691298FA
:101290006D1C8847814613980560002E04DD484682
:1012A00002F09DFB0028D6D1F96912988847FF20EB
:1012B00053468BF8000088F8000000200A900B903D
:1012C00004AA0CA90AA8FFF7ADFDA00502D46FF08F
:1012D0000100F8E614F0240F12D0E0071CD13868A2
:1012E000DDE90A12031D3B600068C0E9001213E04B
:1012F0000C330000FE320000C2310000F1D8FFFFC5
:101300000AA9684602F058FBE00705D13868009A40
:10131000011D3960006802602846D4E6426842B187
:10132000016811F8013B23B1521EC0E900121846B2
:1013300070470121C160881E704742685AB1C36876
:10134000016843B983688B4205D0491E521CC0E92D
:101350000012002070474FF0FF3070470FB40B00B1
:1013600010B54FF000048AB00FA900910E99CC601F
:10137000234C7C44234A7A44CDE9064200D004231E
:101380006FF00042CDE901321F4A7A446B46089261
:101390000246002002F09DFE0AB010BC5DF814FB6E
:1013A000F0B507464FF0FF301E4615460C463B464B
:1013B00085B06A460091CDE90101314600200490D4
:1013C00004A8FFF7CBFF04990346601825B109B1C3
:1013D000024600E022462A6000290ED0002B02DDE2
:1013E0000099814209D03B466A463146001B009471
:1013F000CDE9010404A8FFF7B1FF05B0F0BD00007E
:10140000A7FFFFFFC1FFFFFFDF01000010B5203A7B
:10141000C0F00B80B1E81850A0E81850B1E818509F
:10142000A0E81850203ABFF4F5AF5FEA027C24BF71
:10143000B1E81850A0E8185044BF18C918C0BDE85A
:1014400010405FEA827C24BF51F8043B40F8043B23
:1014500008BF7047D20728BF31F8023B48BF11F8D8
:10146000012B28BF20F8023B48BF00F8012B704732
:1014700000487047100000200048704730000020EE
:101480000048704710000020034640688C46002842
:1014900018BF88423CBF03464068F8D31868184418
:1014A000884207D00CF1030020F00700001D411A0C
:1014B000521A0146081D0A60FEF725BFB2F120034B
:1014C0000AD5C2F1200301FA02F120FA03F341EA3E
:1014D000030100FA02F0704700FA03F14FF0000038
:1014E000704730B5B0F10A0271F100034FEA900E77
:1014F0004EEA817EB0EB0E0061EB91014FEA101EC7
:101500004EEA017E10EB0E0041EB11114FEA102E56
:101510004EEA016E10EB0E0041EB11214FEA104E26
:101520004EEA014E10EB0E0041EB1141401841F123
:1015300000014FEAD00040EA41704FEAD1014FEA82
:10154000810444EA907410EB800544EB01046D19AA
:1015500044EB0404521BA3414FF0000348BF0A327E
:1015600000D530BD401C41F1000130BD10B504462E
:10157000FFF76CF90068005D00F0010010BD00008D
:101580002DE9F0411F46044603260168072A01F4AD
:10159000006004DB08B116A505E016A503E008B15C
:1015A00015A500E015A521F010002060A069C01E5F
:1015B000A0610FB1401EA0612046FEF747FF4FB16A
:1015C000D4E9012138469047206A401C2062C01CA3
:1015D000206206E0206AFAE7D4E9012115F8010B40
:1015E0009047761EF8D22046FEF746FFBDE8F08110
:1015F0004E414E006E616E00494E4600696E6600B7
:101600002DE9F047814616468AB0354878440DC822
:101610008DE80D0032487844801C03AC0DC884E886
:101620000D0041F69B300844372190FBF1F290FB0E
:10163000F1F5A5F1800501FB12041B3C02D56442C3
:10164000012000E00020DFF898A080460027FA443F
:10165000AAF1BE0A0EE0E0070AD03246684607EB60
:10166000470101230AEB810101F02AFF8DE8070001
:1016700064107F1C002CEED1194F7F44AE3F19E05F
:10168000E80715D007EB04100DF1180A90E80E00DA
:101690008AE80E00C068F04201D1981908903246DD
:1016A000012306A903A801F00BFF03AB83E80700A1
:1016B0006D10641C002DE3D14FF0010332466946E2
:1016C000B8F1000F03A802D001F0D0FE01E001F054
:1016D000F7FEC9E90001C9F808200AB0BDE8F087A3
:1016E000B42B0000007B00F08000704710B500F0C4
:1016F0006DFABDE8104000F064BA70477546FFF718
:10170000B7FEAE4605006946534620F00700854601
:1017100018B020B5FEF7B6FDBDE820404FF000063A
:101720004FF000074FF000084FF0000BAC46ACE85C
:10173000C009ACE8C009ACE8C009ACE8C00921F0B8
:1017400007018D46704710B5FFF79AFE006810BD7F
:1017500010B50446FFF794FE046010BD2DE9FF4F5D
:101760001F464FF03C0987B04FF00042DDE91410EE
:1017700001F10108DDF858A002EA40500390002072
:1017800005908346054604460490B969461E0898AC
:101790008847AAF1010A0290BAF1000F3BDD0298D6
:1017A0002E2815D0102100F03FFA00282EDB4FF034
:1017B000010B0599014317D0B9F1000F0BDB4A4625
:1017C000C117FFF77BFE05430C43A9F1040905E0AF
:1017D000012004900BE008B145F0010501200590BF
:1017E000049820B9361D02E0049800B1361FB9698B
:1017F000089808F101088847BBF1000FAAF1010A17
:101800000290C9D00999C1F80080C5E702987028F4
:1018100008D0502806D0F96908988847BBF1000F16
:1018200014D04FE0002002900120BBF1000F049083
:1018300009D0B969089808F101088847AAF1010997
:10184000B9F1000F07DCF969089888476FF00100CB
:101850000BB0BDE8F08F2B2804D02D280CD14FF011
:10186000FF300490B969089808F101088847A9F188
:101870000109B9F1000FE6DD411CE4D00A2100F0B6
:10188000D3F90028DFDB029908F1010801EB81019F
:1018900000EB41000290B969089888470A2100F0DE
:1018A000C3F9099AA9F10109B9F1000FC2F8008042
:1018B00001DD0028E7DAF969089888470499029859
:1018C00000FB016655EA040004D004F04041090021
:1018D00002D006E0039898E0A40044EA9574AD00B5
:1018E000B61E04F00041080002D16D196441761E55
:1018F000159810F0240F03D04FF00B095C4803E05B
:101900004FF028096FF07D008246564507DAAAEBB2
:1019100006018944B9F1410F01DD4FF04109012071
:101920000021A9F10102FFF7C9FD024628400B463C
:101930002140084301D0012100E00021501E029106
:1019400043F1FF3128402140084301D0012000E04D
:1019500000200299834651EA0B014FD0002108462E
:101960004FF00000039900F4400039B100EB800013
:101970004FF4400100EBD07001EA600080150128AF
:1019800002DD4FF0FF3000E013D0401C36D002984B
:1019900060B3BBF1000F0CD14A4601200021FFF7D4
:1019A0008DFD28402140084301D0012000E00020A7
:1019B000E0B101204A460021FFF780FD03464019AF
:1019C0000A4661412D1A8C4111D3B9F1400F09DD4E
:1019D000159810F0240F02D0AAF1340603E0AAF102
:1019E000170600E0761C00254FF0004406E05B1E61
:1019F00042F1FF3220EA030521EA0204CAF10100A4
:101A0000B04206DA1B490398084301900020009079
:101A10000EE0039AC4F3D321E80A0A43164940EAC8
:101A200044500A433146CDE90002684601F0CDFF3B
:101A3000159810F0240F0BD01598C00715D13868F1
:101A4000DDE90012031D3B600068C0E900120CE0F4
:101A500002A8694601F0B0FF1598C00705D13868A3
:101A6000029A011D3960006802604046F0E60000FD
:101A700002FCFFFF0000F07F0000F03F2DE9FF4F68
:101A800092461D4685B04FF00041DDE9124BDDE97D
:101A900014727F1E01EA4B50414940F0FF4940EA71
:101AA0000108002122F020004928049102D04E288C
:101AB00028D04CE03BA0012607C88DE80700A969A3
:101AC0000698641C88477F1E014606D41DF8060050
:101AD00018B121F0200181420BD0E96906988847AE
:101AE000032E34D0082E32D06FF0010009B0BDE8CB
:101AF000F08F761C032E01D0082EE0D1601CCAF8AE
:101B00000000DCE7A9690698641C88477F1E2AD478
:101B100020F02000412826D1A9690698641C884736
:101B20007F1E20D420F020004E281CD1A9690698E1
:101B3000641C88477F1E48F4002849F48009CAF8CD
:101B4000004001D4282806D0E969069888475FEA52
:101B5000CB7012D022E0A9690698641C88477F1ECA
:101B600001D4002803DAE96906988847BCE72928E8
:101B7000F1D1641CCAF80040E9E71BF0240F07D03C
:101B800028680499031D2B600068C0E9001805E06F
:101B90002868021D2A600068C0F800902046A5E76A
:101BA0000000F07F494E46494E495459000000005C
:101BB00010B50446AFF300802046BDE81040FEF7A4
:101BC0004CBB002801D000F029B8704710B501289F
:101BD00005D0002103A000F035F8012010BD09A1B7
:101BE000F8E7000053494752544D454D3A204F7590
:101BF00074206F662068656170206D656D6F727905
:101C0000000000003A2048656170206D656D6F72BC
:101C10007920636F727275707465640001491820D1
:101C2000ABBEFEE7260002003A2800D2303820F092
:101C30002002412A01D3A2F13700884201D34FF09C
:101C4000FF30704770B505460C460A2000E06D1C59
:101C500000F011F835B128780028F8D102E0641CB2
:101C600000F009F814B120780028F8D1BDE87040E0
:101C70000A20AFF3008008B569468DF80000032004
:101C8000ABBE08BD2DE9F041D1F8008000234FF034
:101C9000030C4FF0010E00240FE000BFC268AA43FE
:101CA000C260CA79C5689A402A43C2600134102CC8
:101CB00003F1020308BFBDE8F08128FA04F5ED073F
:101CC000F4D006680CFA03F5AE4306600E79076897
:101CD00006FA03F2013E3A43012E0260DED8826822
:101CE000EE43324082604A798E7987689A403A435F
:101CF000826042680EFA04F7BA43426006FA04F2C0
:101D0000466892B232434260C8E700001C2303EAEF
:101D1000810C6FF0030303EA510108440F23016AA9
:101D200003FA0CF399430162016A02FA0CF21143BF
:101D300001627047418370470183704710B5C178D5
:101D400000294EF20011CEF200011CD04EF60C52CA
:101D5000CEF200021268072323EA12220F23C2F1F7
:101D6000040C23FA02FE427884785FFA8CF390F830
:101D700000C09A4004EA0E031A43120101EB0C035F
:101D800083F8002300E080310078012300F01F0277
:101D900003FA02F2C0F3421041F8202010BD000007
:101DA00040F080604EF60C5140F0FD70CEF2000124
:101DB00008607047002943F63001C4F202010A6846
:101DC0000CBF22EA0000104308607047002943F668
:101DD0004001C4F202010A680CBF22EA000010436D
:101DE00008607047002943F62001C4F202010A6826
:101DF0000CBF22EA0000104308607047002943F638
:101E00002401C4F202010A680CBF22EA0000104358
:101E10000860704710B543F60404C4F20204626817
:101E200002F00C0342F20042082BC0F2F40206D08A
:101E3000042B20D147F64002C0F27D121BE0D4F8FB
:101E400000C0236803F03F0E5FEA4C2347F64003CF
:101E5000C0F27D1358BF13462268B3FBFEFCC2F3E9
:101E60008812236802FB0CFCC3F30143022202EB3D
:101E70004302BCFBF2F20260626844F2DC13C2F37C
:101E80000312C0F600039A5C0168D14041606268A9
:101E9000C2F382229A5C21FA02F282606268C2F383
:101EA00042329A5CD140C16010BD00004EF68850AD
:101EB000CEF20000016841F4700101604FF0006152
:101EC00040F8801C7047000080B54FF08040012131
:101ED00000F01AF8002808BF80BD4FF080400121B3
:101EE00000F002F880BD0000C94301827047000085
:101EF0000288002942F0010308BF22F00103038099
:101F000070470000406A7047028A80890A4018BF03
:101F10000122084018BF01201040704741627047FD
:101F200010B540F6FF32B0F800E0C4F2000240F213
:101F3000004C9042C4F2010C0FDCB0F1804F19D07C
:101F400040F20042C4F20002904213D040F6000278
:101F5000C4F2000290420DD011E040F60042C4F2FB
:101F60000002904206D0604504D00022C4F2010273
:101F7000904204D14A882EF0700342EA030E41F2E7
:101F8000004340F48062C4F200039A4204D00C89FA
:101F90002EF4407344EA030EA0F800E04B6862455B
:101FA000C3620B88038504BF897A0186012181827F
:101FB00010BD000010B544F20044C4F200042046F5
:101FC00040F2255100F0BEF8002808BF10BD2046A1
:101FD00000F04AF9C1B240F27002C2F200020A29CE
:101FE000107008D140F2D400C2F2000000F03AFBB9
:101FF00000F04CFA10BD40F25410C2F2000002682A
:10200000531C036040F2D400C2F20000815410BDA2
:102010008289002942F4005308BF22F400538381CF
:102020007047000080B547F2FF71C4F2000188429A
:1020300019DC44F6FF31C4F2000188422DDC44F281
:102040000041C4F2000188424ED044F60001C4F2BF
:10205000000188425AD14FF480200121FFF7C2FECF
:102060004FF480205AE040F6FF71C4F2010188422B
:1020700027DC47F60001C4F2000188423CD047F655
:102080000041C4F20001884240D14FF000400121DC
:10209000FFF7A8FE4FF0004040E044F60041C4F2D4
:1020A0000001884233D045F20001C4F200018842A9
:1020B0002CD14FF480100121FFF794FE4FF48010D3
:1020C0002CE041F20041C4F2010188422AD041F2E1
:1020D0000001C4F20101884218BF80BD1020012117
:1020E000FFF78CFE102022E04FF400300121FFF7B3
:1020F00079FE4FF4003011E04FF080400121FFF7EE
:1021000071FE4FF080400021FFF76CFE80BD4FF460
:1021100000200121FFF766FE4FF400200021FFF7A9
:1021200061FE80BD20200121FFF768FE20200021F4
:10213000FFF764FE80BD00000088084018BF012042
:102140007047000001F01F024FF0010CC1F3421371
:10215000022B0CFA02F206D0012B14BF00F114037B
:1021600000F10C0301E000F110031B880088090A4C
:102170001A4020FA01F018BF0122104070470000F9
:10218000C1F3421301F01F0C1421022B08BF1021D0
:10219000012B4FF0010308BF0C21002A03FA0CF2B7
:1021A00043580CBF23EA02021A4342507047000012
:1021B00070B584B00446008A0D46C98820F44050AA
:1021C00008432082A0894EF6F3110840A9882A8985
:1021D0006B89084310431843A081A08AA98920F481
:1021E000407008436E46A0823046FFF713FE41F26E
:1021F000004144F48060C4F20101884214BF06F13A
:10220000080006F10C0000681922B4F90C105043C4
:102210002A680223002948BF012302FA03F1B0FB18
:10222000F1F048F21F51C5F2EB11A0FB01235A094E
:102230006FF0630302FB0300B4F90C300426002B9B
:1022400048BF032600FA06F000F13200A0FB0101AE
:102250004FF00F0048BF072000EA511040EA02107B
:10226000208104B070BD000080886FF35F2070474C
:102270006FF35F2181807047B8B10368ABB1D0E9DB
:1022800001C2624528BF70478268624508D200BF1C
:10229000995C202904D8013294458260F8D16246C5
:1022A000624504BF511E81607047002070470000E6
:1022B00070B5002808BF70BD40F200060446C2F2A7
:1022C000000603E0716828468847CCB1607B25464C
:1022D0002468C00704D1A868002818BFFFF7E8FFEA
:1022E000687BC00703D1286908B171688847687B9B
:1022F0008007E7D4286A0028E4D071688847E1E7BE
:1023000070BD000080B5002200F0FAF880BD00002A
:1023100010B5016828208847044618B120462821B6
:10232000FEF72AFA204610BD80B50021002200F0F9
:102330006FF880BD2DE9F04387B040F2C80840F245
:10234000CC09144605460026C2F20008C2F2000974
:1023500000280696CDE90466CDE90266CDE900665F
:10236000C8F80060C9F8006018BF00291CD116B178
:102370003046FFF79DFF95B1DDE9011200260029E7
:10238000084618BF01388A4238BF1046002C1CBFCF
:1023900029182160C8F80050C9F8000000E00026A4
:1023A000304607B0BDE8F0830020CDE9005102902F
:1023B00040F20000C2F200001F4690E80E000DF14E
:1023C000100C8CE80E00FFF7A3FFF0B1064668463C
:1023D00000F0F8FCFFF750FF0146304600F070FCBB
:1023E0000028C4D057B16846FFF746FFDDE9011069
:1023F0008842BCD20099085C0028B8D1002CCFD00C
:102400000098029908442060CAE70026AFE7000060
:10241000002804BF0020704770B5144606460D46DC
:10242000FEF740F9411C30462A462346FFF782FF5B
:1024300070BD0000F0B581B0054600284FF00100E6
:102440001FD00F46E9B1BD421DD02C782046FDF7C4
:10245000E3FF397806460846FDF7DEFF86420FD1D6
:10246000013701357CB115F8014B2046FDF7D4FF4B
:1024700017F8011B06460846FDF7CEFF8642F1D04D
:10248000301A01B0F0BD002001B0F0BD80B540F2BF
:10249000D400C2F200008021FEF76EF940F2541021
:1024A000C2F200000021016080BD000070B500286C
:1024B00008BF70BD41F200050446C4F2000544F6B1
:1024C000206600BF28460021FFF728FD2846FFF7B9
:1024D00019FDB042FAD3013CF4D170BDB0B544F25D
:1024E00000450446C4F2000528468021FFF724FE7B
:1024F0000028F9D0E1B22846FFF7BAFE2046B0BD69
:10250000B0B5F0B10C46E1B185688AB195B1296AE0
:1025100089B12046FEF758F968B12D68002DF6D133
:1025200008E000BF296A2046FFF784FF18B12D6834
:10253000002DF7D1002525B1286A002818BF2846AC
:10254000B0BD0020B0BD000010B584B01020012146
:10255000FFF73CFC002041F2000401904FF6FF70B1
:10256000C4F20004029001A92046FFF7D9FC2046DE
:102570000121FFF7BDFC04B010BD000080B582B0A2
:1025800008200121FFF716FC4FF47040009040F244
:102590000130019040F60040C4F202006946FFF7A6
:1025A00071FB02B080BD000070B588B00120012130
:1025B000FFF700FC4FF400300121FFF707FC44F265
:1025C0000044C4F2000404F5DE3528460221072247
:1025D000FFF79CFB284603210722FFF797FB042007
:1025E000069040F20230C0F2001006AE0790284676
:1025F0003146FFF747FB0820069040F20230ADF865
:102600001C0028463146FFF73DFB4FF4A060FFF762
:10261000C7FB40F22610C0F20010019001A8FFF79E
:102620008DFB204600210025FFF7F2FC2046FFF736
:10263000F9FC4FF4E130CDE902054FF4402004905D
:1026400002A92046ADF81450FFF7B2FD204640F233
:1026500025510122FFF794FD20460121FFF7D8FC08
:1026600008B070BD10B5FFF75FFE40F2D004C2F2B3
:10267000000404A12060FFF745FE2068FFF718FE64
:1026800010BD00BF7474310040F60044C4F202046F
:10269000FFF70CFCFFF772FFFFF756FFFFF784FF11
:1026A0001EA500BF20464FF48051FFF745FB642074
:1026B000FFF7FCFE20464FF48051FFF73DFB20461C
:1026C0004FF48041FFF738FB20464FF40051FFF7ED
:1026D00031FB20464FF40041FFF72CFB4FF47A709A
:1026E000FFF7E4FE20464FF48051FFF723FB20461E
:1026F0004FF48041FFF71EFB20464FF40051FFF7D7
:102700001BFB20464FF40041FFF716FB4FF47A7095
:10271000FFF7CCFE2846FDF78DFEC3E778696E20F3
:102720006368616F2063686F7070657200000000FD
:102730002DE9F0470C46C968CA087C2A6ED8824643
:1027400001312268A068E160115C5B2961D1013030
:10275000A0602046FFF790FD002C57D0D4E901106F
:10276000884253D22268125C5D2A14D100264FF0B1
:102770000009E068002EA0F10100E0604FF02000A9
:1027800018BFC6F80490CAE90260A0680130A060D2
:102790000120BDE8F087884238D2013804F11008E2
:1027A00000264FF00009A0604046FFF7B1FDC0B120
:1027B00005460746002E1EBFC9F80070C7F80490F2
:1027C0003546A0680130A0602046FFF755FD384629
:1027D000214600F075FA30B12046FFF74DFD01208B
:1027E00002E0002002E000202E46B94690B1D4E974
:1027F000011088420ED22268125C2C2AD4D0884262
:1028000008D22168085C5D28B3D003E0A0680138D5
:10281000A060002616B13046FFF74AFD0020BDE853
:10282000F08700008446002200200BE06FF02F01AB
:1028300019440844032A02F1010238BF0001042AA6
:1028400008BF70471CF80230A3F130010A29EDD30C
:10285000A3F14101062903D26FF03601E8E700BF7A
:10286000A3F16101052984BF002070476FF0560174
:10287000DEE70000000000002DE9F04391B00027E2
:102880000029109700F07880804608680C460028E0
:1028900000F03980D4E90121E9464318002000BF47
:1028A0000F18974280F032801F5CA7F12B053A2D5C
:1028B00000F22C80DFE805F01E2A1E252A1E1E1EAF
:1028C0001E1E1E1E1E1E1E2A2A2A2A2A2A2A2A2ABC
:1028D0002A2A1E2A2A2A2A2A2A2A2A2A2A2A2A2A64
:1028E0002A2A2A2A2A2A2A2A2A2A2A2A2A2A2A2A48
:1028F0002A2A1E0009F8007001303F287FF4D0AF6B
:1029000003E02E27F6E7002736E03F20002709F8EE
:10291000007010A9484601F01BF8109881452BD093
:102920009FED171B57EC105B53EC112B28463946D3
:1029300088ED060B01F041FB68B99FED130B2846AB
:1029400053EC102B394601F03FFB38B92846394685
:1029500001F042F904E06FF0004001E04FF0004068
:10296000C8F814000820C8F80C001098A168A0EB63
:10297000090008440127A060384611B0BDE8F08383
:102980000000C0FFFFFFDF41000000000000E0C1C9
:102990002DE9F04F81B00C46C968CA087C2A00F2C4
:1029A00097800546481C002CE06000F08C80D4E93C
:1029B0000110884280F087802168095C7B2940F003
:1029C00082800130A0602046FFF756FCD4E9011058
:1029D000884219D22268125C7D2A18D100274FF054
:1029E0000009E068002FA0F10100E0604FF0400016
:1029F00018BFC7F80490C5E90270A0680130A06054
:102A0000012001B0BDE8F08F0138A0605BE0421EFC
:102A10008842A26057D204F1100800274FF0000945
:102A20004046FFF775FCA0B382460646002F1EBF46
:102A3000C9F80060C6F80490BA46A0680130A060EA
:102A40002046FFF719FC3046214600F045F84FF0CC
:102A5000000B18B32046FFF70FFCD4E901203169C1
:102A600090423162C6F810B018D22168095C3A2948
:102A700012D10130A0602046FFF7FEFB3046214610
:102A800000F01EF940B12046FFF7F6FB4FF0010BB6
:102A900004E04FF0000B03E04FF0000B5746B14647
:102AA000BBF1000F10D0D4E9011088420CD222688B
:102AB000125C2C2AB4D0884206D22168085C7D289A
:102AC0003FF48FAF00E0002717B13846FFF7F0FB67
:102AD000002001B0BDE8F08F2DE9F04F81B0D1F8B2
:102AE00000C08A6886460CEB0206B04618F8010B57
:102AF00089464FF0000B2228CDF800B040F0C0808E
:102B0000D9E90032A8EB0300904217D20127002038
:102B1000454608E0222C14D00137D9E90032F519D6
:102B2000E91A91420DD2F45D5C2CF3D17C1C311971
:102B3000C91A91421AD201302746EDE70020012739
:102B40004546A5EB0C01914210D2F15D22290DD131
:102B5000AA1BD9F81010101A013074468847A646EF
:102B60008346002818BF012030B989E04FF0000BE0
:102B70000020002800F08480022FCDF800B0C0F2C1
:102B80008C8006EB070A4FF0080C0C240A260D2750
:102B900009E000BF009908F1010801F8010B00915C
:102BA000D04580F07A8098F800005C28F2D1A5EB3F
:102BB00008000128C0F2608098F801100020A1F1FF
:102BC0002202532A00F24680DFE802F02A444444FD
:102BD0004444444444444444442A444444444444CF
:102BE00044444444444444444444444444444444A5
:102BF0004444444444444444444444444444444495
:102C00004444444444442A44444444442C444444B6
:102C100030444444444444443444444438443C48A8
:102C2000009811E0009800F801CB0FE0009800F840
:102C3000014B0BE0009800F8016B07E0009800F8EA
:102C4000017B03E00098092100F8011B009002209D
:102C50008044012000287FF4A3AF11E04046514694
:102C60006A46774600F0C6F80A260C244FF0080C96
:102C7000BE460D270028EBD1002000287FF490AF3E
:102C8000BBF1000F03D0D9F8141058468847D9F883
:102C90000000A8EB000100200CE00098002101706A
:102CA0001020CEF80C00D9F80000CEF810B0281A89
:102CB000411C0120C9F8081001B0BDE8F08F0000E8
:102CC0002DE9F04700297AD00E680C46002E76D008
:102CD000D4E901A7804607F10409D14509D844F297
:102CE000F711F019C0F6000104220425FDF7F9FCE4
:102CF000E8B37D1D554508D844F2EC11F019C0F633
:102D000000010522FDF7EDFCC0B3D14508D844F21F
:102D1000F211F019C0F600010422FDF7E2FCC8B37D
:102D2000574524BF0020BDE8F087F05D222805D17B
:102D300040462146FFF7D0FEBDE8F087574524BF47
:102D40000020BDE8F087F05D2D281DD0303809281F
:102D50001AD9574524BF0020BDE8F087F05D5B28F5
:102D600022D140462146FFF7E3FCBDE8F087012071
:102D7000C8F80C50C4F80890BDE8F0870120C8F8E6
:102D80000C00A560BDE8F08740462146FFF774FDC2
:102D9000BDE8F0870220C8F80C000120C8F8140034
:102DA000C4F80890BDE8F087574508D2F05D7B284D
:102DB00005D140462146FFF7EBFDBDE8F087002036
:102DC000BDE8F087B0B520B10446006808B1A56839
:102DD0000DB10020B0BD6168052907D304A103220D
:102DE000FDF77FFC002804BFE81CA0602046B0BDB2
:102DF000EFBBBF00F0B581B00646081A062874DBA9
:102E0000B01C0F461446FFF70DFD054640F2FF309B
:102E100025EA0000B0F55C4F67D0B0F5584F21D1DE
:102E2000B01D391A062926DB00785C2823D1F079F9
:102E3000752820D106F10800FFF7F4FC40F2FF31BD
:102E400020EA0101B1F55C4F15D14FF60041C0F207
:102E50000F0101EA85216FF39F20084400F58035BA
:102E600001200AE00620802D0BD24FF0000C012239
:102E7000531E17D12BE000250020B0B30C20802D6D
:102E8000F3D3B5F5006F05D24FF0C00C0222531EEC
:102E900008D11CE0B5F5803F11D24FF0E00C0322C1
:102EA000531E14D0DFB202262168AB0966F39F15CA
:102EB000CD55F9B2013F01291D46F5D108E0290C95
:102EC000102912D84FF0F00C0422531EEAD12B46E1
:102ED000276803F07F01012A88BF43EA0C0139709B
:102EE00021681144216001B0F0BD002001B0F0BDA7
:102EF0005FEA400C08BF91F0000F4FEA8C234FEAC5
:102F0000C12243EA51514FEA1C5018BF00F5F0406E
:102F10004FEA300018BF41F000415FEA6C5C00F0FE
:102F20002980BCF1FF3F08BF40F080407047130C80
:102F300006BF12044FF0100C4FF0000C130E04BF2C
:102F400012020CF1080C130F04BF12010CF1040C57
:102F5000930F04BF92000CF1020CD30F04BF520078
:102F60000CF1010C11464FF00002A0F11F00A0EB84
:102F70000C00704711F0004F08BF704731F000415E
:102F80003FF4D5AF0B0C06BF09044FF0100C4FF007
:102F9000000C0B0E04BF09020CF1080C0B0F04BF50
:102FA00009010CF1040C8B0F04BF89000CF1020C19
:102FB000CB0F04BF49000CF1010CCCF1200322FA25
:102FC00003F341EA030102FA0CF2A0EB0C0000F15A
:102FD0000100704723F07F4720F07F4C80EA030018
:102FE00000F00040ACEB070303F57C5303F1FF0353
:102FF0002DE9804909B44FEA144324EA03484FEA13
:10300000154B25EA0B4E0FF2042606EB13273E78EC
:1030100003FB0667C7F5000707FB06F64FEAD6462F
:1030200006F102064FEA543707FB066CCCF1005C50
:103030004FEA1C472CEA074C0CFB06F507FB06F48D
:1030400004EB15464FEA961649085FEA320234BF90
:1030500000204FF000404FEAD13706FB07FC4FEA53
:103060001C4C0CFB0BF7D21B03FB0CF761EB0701AD
:103070000CFB0EF7B0EB074072EB17420CFB08F7A6
:1030800034BFA2EB0742B2EB074261EB17414FEAB4
:103090000C444FEA910706FB07FC4FEA1C4C0CFB63
:1030A0000BF7B0EBC74072EB573203FB0CF734BFA2
:1030B000A2EBC742B2EBC74261EB57310CFB0EF7F4
:1030C000B0EBC70072EB57720CFB08F734BFA2EBF2
:1030D000C702B2EBC70261EB57714FEA816141EA67
:1030E00092114FEA826242EA90124FEA806004EB4A
:1030F000CC04039F4FEAD13706FB07FC4FEA1C4C78
:103100000CFB0BF7D21B03FB0CF761EB07010CFB6D
:103110000EF7B0EB074072EB17420CFB08F734BF19
:10312000A2EB0742B2EB074261EB17414FEA8C5525
:1031300004EB9C244FEA910706FB07FC4FEA1C4C6A
:103140000CFB0BF7B0EBC74072EB573203FB0CF7ED
:1031500034BFA2EBC742B2EBC74261EB57310CFB65
:103160000EF7B0EBC70072EB57720CFB08F734BFD9
:10317000A2EBC702B2EBC70261EB57714FEA816164
:1031800041EA92114FEA826242EA90124FEA80606D
:1031900015EB4C2544F100044FEAD13706FB07FC40
:1031A0004FEA1C4C0CFB0BF7D21B03FB0CF761EB3B
:1031B00007010CFB0EF7B0EB074072EB17420CFB5C
:1031C00008F734BFA2EB0742B2EB074261EB1741AD
:1031D0004FEA813141EA92414FEA823242EA90421B
:1031E0004FEA80304FEA0C7615EB1C1544F10004D1
:1031F00048EA03434EEA0B484FF0000EB2EB080CCE
:1032000071EB030724BF624639464EEB0E0E4FF0BA
:10321000000B0018524149414BEB0B0BB2EB080C71
:1032200071EB03077BF1000B24BF624639464EEB7E
:103230000E0E4FF0000B0018524149414BEB0B0BA7
:10324000B2EB080C71EB03077BF1000B24BF624665
:1032500039464EEB0E0E51EA020718BF46F0010642
:1032600016EB0E7655F1000254F1000103D5BDE8CE
:103270008901BDE80088BDE88901BDE80048B619AC
:10328000524141EB0101A3F10103704780807F7E31
:103290007D7C7B7A797877767675747372717170CC
:1032A0006F6E6E6D6C6C6B6A6A696868676666657E
:1032B0006464636362616160605F5F5E5E5D5D5C0C
:1032C0005C5B5B5A5A59595858575756565555557D
:1032D0005454535352525251515050504F4F4F4EDD
:1032E0004E4D4D4D4C4C4C4B4B4B4A4A4A4949492B
:1032F000484848474747474646464545454444446D
:1033000044434343434242424241414110B546EAAD
:1033100006464FEA164646EA42564FEAD22242EAAB
:1033200041524FEAD121A3F57053A3F1010300F0FC
:103330002FF820F0004000F0004700F1020CBCF52F
:10334000006F01EB0050114640EA070000D210BDAB
:10335000BAF1000F0AD01CB503B44FF004004FF0CF
:1033600004014FF000000FBCBDE810404FF0000119
:10337000BBF1010FB9BF04484FF0FF3103480021F2
:1033800040EA070010BD00BFFFFFEF7F0000F07FA5
:103390009C46002B30D477002BD04FEA37071CB562
:1033A00003B44FF010004FF01001BAF1000F06D037
:1033B000BCF1000FDCBF40F0080040F008014FF006
:1033C00000000FBCBDE810400BF1010BBBF1010F79
:1033D00008BF5FEA170722BF12F1010211F10101D4
:1033E0004FF0004143F1000300F0004043EA0000C9
:1033F0007047F9D35708D0E746EA06464FEA164623
:1034000013F1400F1FDD13F1200FDFBF16430A46F3
:10341000002120335B42BED0C3F1200746EA0646B6
:103420004FEA164602FA07F746EA070622FA03F2BF
:10343000C3F1200701FA07F742EA070221FA03F174
:103440004FF00003A7E746EA020646EA06464FEABF
:10345000164646EA0106BCBF46EA0646360C4FF061
:1034600000034FF000024FF0000194E72DE9804C7B
:1034700070B49A46934691E8380007C831EA400C88
:1034800048BF34EA430C03D5FFF7A4FDFFF780FFE4
:10349000F0BCBDE8008C2DE9804C70B49A46934690
:1034A00091E8380007C831EA400C48BF34EA430CC1
:1034B00003D5FFF78FFDFFF729FFF0BCBDE8008CB7
:1034C0002DE9804C70B49A46934691E8380007C8BD
:1034D00010F0804F08BF13F0804F03D100F01AF8AE
:1034E000FFF756FFF0BCBDE8008C2DE9804C70B4AE
:1034F0009A46934691E8380007C810F0804F08BFFD
:1035000013F0804F03D100F005F8FFF7FFFEF0BC89
:10351000BDE8008C20F07F4723F07F4C80EA030059
:1035200000F0004007EB0C03A3F57C53A3F1FE036E
:1035300092F0000F00F0B38095F0000F00F077805C
:103540002DE901494FEA114021EA00484FEA1446AB
:1035500024EA064700FB06FC08FB06F607FB08F812
:1035600018EB06484CEB164C00FB07F718EB074826
:103570004CEB17404FEA124B22EA0B4E4FEA15462E
:1035800025EA06470BFB06FC0EFB06F607FB0EFEC4
:103590001EEB064E4CEB164C0BFB07F71EEB074ED3
:1035A0004CEB174B18EB0B0840F1000018EB0E0B1F
:1035B00058EB000840F100008F1A4FF000014FF067
:1035C00000063CBFC943661B14BFB5EB040C0021C9
:1035D0003CBFC943F61B4FEA174427EA04454FEAAC
:1035E0001C472CEA074C04FB076205FB07F70CFBA2
:1035F00005F616EB074642EB174204FB0CFC16EBF4
:103600000C4642EB1C421BEB060658EB0202414102
:103610004EEA8E0E46EA9E0601D5BDE80189B6192E
:10362000524141EB0101A3F10103BDE801894FEAD9
:10363000144524EA05464FEA114721EA074C05FBE9
:1036400007F406FB07F70CFB06F111EB074144EB0F
:10365000174405FB0CFC11EB0C4144EB1C444FEAF6
:10366000124722EA074C05FB07F206FB07F70CFBA3
:1036700006F616EB074642EB174205FB0CFC16EB71
:103680000C4642EB1C456A1854F1000148BF7047D4
:10369000B619524141EB0101A3F10103704795F0C6
:1036A000000F37D04FEA114221EA02464FEA144791
:1036B00024EA074C02FB07F106FB07F70CFB06F4B4
:1036C00014EB074441EB174102FB0CFC14EB0C44D8
:1036D00041EB1C414FEA154725EA074C02FB07F571
:1036E00006FB07F70CFB06F616EB074645EB1745FE
:1036F00002FB0CFC16EB0C4645EB1C42121951F177
:10370000000148BF7047B619524141EB0101A3F1D6
:10371000010370474FEA144524EA05464FEA114772
:1037200021EA074C05FB07F106FB07F70CFB06F245
:1037300012EB074241EB174105FB0CFC12EB0C426C
:1037400051EB1C414FF0000648BF7047921841EB07
:103750000101A3F10103704703B4019841000098EF
:1037600050EAC12018BF04204A0D18BF40F00100E4
:1037700040F2FF72B2EB515F08BF40F00200012837
:1037800008BF052002B0704730B52DED048B81B025
:10379000B0EE408AF0EE608A6A4651EC180B00F0F9
:1037A00027F900989FED329B7E300090002821DCA5
:1037B00053EC192B51EC180B00F0D2F91AD0002160
:1037C00040F608004FF00000044651EC180B00F0E2
:1037D00081F908EE100A40F6080004EA00014FF0F3
:1037E0000000B5EEC08AF1EE10FA04BF0220FDF72A
:1037F000AFFF2DE00098FF2830DB002108464FF096
:10380000000000F4400553EC192B51EC180B00F0AC
:1038100089FB8CBF002401240220FDF799FF9FED56
:10382000168A4DB1002C0CBF4FF400004FF48000FD
:10383000A84218BF9FED118A042108464FF00000EE
:10384000002C01BFB1EE480A01B0BDEC048B30BDC5
:10385000B0EE480A01B0BDEC048B30BD51EC180B42
:1038600000F038F901B000EE100ABDEC048B30BD59
:1038700000000000000000000000807FFFFF7F7F4D
:1038800030B540F2FF742DED048BF0EE608A18EE37
:10389000901A85B0B0EE408A9FED2B9B05468DEDCA
:1038A000008B34EA115147D053EC192B51EC180B13
:1038B00000F056F940D02A4651EC180B00F0DBFB23
:1038C00041EC180B18EE900A8DED008B34EA105085
:1038D0001CD053EC192B51EC180B00F041F92BD1F3
:1038E0000220FDF735FF00F057F810EE901A18EEA1
:1038F000900A8DED020B8DED008B61F31E0003909D
:103900009DED020B05B0BDEC048B30BD0220FDF730
:103910001FFF00F031F810EE901A18EE900A8DEDAE
:10392000020B8DED008B61F31E0003909DED020BE9
:1039300005B0BDEC048B30BD05B0B0EE480AF0EE2A
:10394000680ABDEC048B30BD0000000000000000E0
:1039500000B583B09FED060B0A4601468DED000BC6
:1039600001236846FDF71CFD9DED000B03B000BD73
:1039700000000000000000009FED050B10B553ECA7
:10398000102B51EC100B00F0CFF941EC100B10BDD7
:1039900000000000000000709FED050B10B553EC17
:1039A000102B51EC100B00F0BFF941EC100B10BDC7
:1039B000000000000000001010B5044691ED000B5F
:1039C000FFF7E2FE84ED000A10BD10B5044690ED4D
:1039D000000B0846FFF754FF84ED000B10BD303894
:1039E0000A2801D201207047002070470000000023
:1039F00010B582B01446CDE900010023009A23607F
:103A0000194B21F0004098422ADA024328D0B0F541
:103A1000801FA8BF226810DA9FED150B53EC102B06
:103A20009DED000B51EC100B00F07EF9CDE900018B
:103A30006FF0350221F0004022600F4B6FF31E51F2
:103A400003EB20501044206041F0FF5040F0005044
:103A500001909DED000B00BF02B051EC100B10BDAA
:103A60009DED000BF8E700000000F07F0000000073
:103A7000000000000000504302FCFFFF10B50029C9
:103A80000AD00878002807D005487844FCF79CFE47
:103A9000002801D0002010BD0248784410BD00006D
:103AA000A20700009A07000010B500290AD0087884
:103AB000002807D005487844FCF786FE002801D08E
:103AC000002010BD0248784410BD000086080000A8
:103AD0007E08000021F0004201F00043A2F1605294
:103AE000B2F5801F28BFD2F17F6C0BD95FEA001CB2
:103AF00043EAC20242EB507018BF704728BF20F063
:103B000001007047B2F5801FBCBF184670474FEAEE
:103B1000410C1CF5001F02D2084600F070BA70B5C7
:103B200000F0ACF900000089FFF7F6BF4FF000404D
:103B3000A0F580007047000002494FF0000000F03F
:103B400068BA00BF0000F87F491058BFC1F140417A
:103B50005B1058BFC3F140438B42EFF300807047C6
:103B600051EA030C17D41CF5801F58BFBCF5801F09
:103B700000F10680994218BF704708BF9042704715
:103B800007D711F5801F58BF13F5801F19D499422C
:103B90007047894270471CF5801F08D5BCF5801F0F
:103BA000F7D58B4218BF704708BF824270474FF469
:103BB000001C1CEB410F38BF1CEB430F01D28B42A2
:103BC000704770B500F05AF9922449004FF0005147
:103BD0004FF08053FFF7B8BF4FEA41034FEA53530A
:103BE000A3F58063D3F11E03C8BFD3F1210C0CDD14
:103BF0004FF0004242EAC12242EA505232FA03FC3C
:103C00008CEAE17CACEBE1707047102BC4BF002064
:103C1000704703F5787CBCF1FF3F04D06FF00042A1
:103C200082EA2100704770B500F028F9499224809B
:103C300000207047F2E7000051EA030C17D41CF58E
:103C4000801F58BFBCF5801F00F10680994218BF45
:103C5000704708BF9042704707D711F5801F58BFC3
:103C600013F5801F19D499427047894270471CF59B
:103C7000801F08D5BCF5801FF7D58B4218BF704751
:103C800008BF824270474FF4001C1CEB410F38BF45
:103C90001CEB430F01D28B42704770B500F0EEF879
:103CA000922449004FF080514FF00053FFF74CBF72
:103CB00051EA030C17D41CF5801F58BFBCF5801FB8
:103CC00000F10680994218BF704708BF90427047C4
:103CD00007D711F5801F58BF13F5801F19D49942DB
:103CE0007047894270471CF5801F08D5BCF5801FBE
:103CF000F7D58B4218BF704708BF824270474FF418
:103D0000001C1CEB410F38BF1CEB430F01D28B4250
:103D1000704770B500F0B2F8922449004FF000519E
:103D20004FF08053FFF710BF70B5DFF848C11CEAB1
:103D3000111E1EBF1CEA13159EEA0C0F95EA0C0F0C
:103D400000F06F8081EA03044EEAD47EAE4421EA9B
:103D50004C1123EA4C1341F4801143F48013AEF16B
:103D60007F7EA1FB024CA0FB0365361955EB0C05C9
:103D7000A1FB034C4CF10003A0FB021C16EB0C064C
:103D8000654153F10003094218BF46F0010613F4E0
:103D9000007F0BD14FEA03314FEA053041EA15515C
:103DA00040EA165034036FF003020AE04FEAC321E1
:103DB0004FEAC52041EA555140EA5650F4026FF0EF
:103DC000020202EB2E4201EB025585EACE710AD0C7
:103DD0005FEA440C18BF24F0004450F1000041F1A8
:103DE000000120EAD47040F2FE7C624500D270BD32
:103DF000A84214BF4FF080444FF04044002E08BF4B
:103E00000024BEF1806FA8BFA1F1C041BDE87040A1
:103E100080F2828001F1C04101F000414FF00000CA
:103E200070470CEA13159EEA0C0F18BF95EA0C0FA9
:103E300006D081EA030E4FF000000EF0004170BD85
:103E400000F01CF88900013E00F007B800F009B846
:103E50004FEA430C5FEA5C5C08D081EA030100F0A2
:103E60005BB84FEA410C5FEA5C5CF6D102494FF067
:103E7000000070470000FF070000F87F0EF1020EFF
:103E80002EF0030E5EF8046B364205D4012A43EB94
:103E9000030515F5001F12D8012841EB010C1CF594
:103EA000001F0CD80ED14FEAD17C0CEB4C0C0CF15E
:103EB000020C15F5001F08BF4CEBD37C04E04FF05B
:103EC000080C01E04FEAD37C0CEB4C0526FA05F612
:103ED00006F00706B6F1040C06D20EEB860CBDE820
:103EE00070404CF0010C6047DFE80CF0090B020257
:103EF0004FF00041A1F500214FF0000070BD1946C0
:103F00001046012851EB010418BFD4F5001484BFFA
:103F1000002001F0004170BD0808A0F500114FEA33
:103F20003101704753EA010C17D41CF5801F58BFAC
:103F3000BCF5801F00F106808B4218BF704708BF98
:103F40008242704707D713F5801F58BF11F5801FB5
:103F500019D48B4270479B4270471CF5801F08D5CF
:103F6000BCF5801FF7D5994218BF704708BF904233
:103F700070474FF4001C1CEB430F38BF1CEB410F84
:103F800001D2994270470FB40CBC03BCFFF7C1BE0D
:103F900010B5FFF7E5FD0CBF0120002010BD10B5E6
:103FA000FFF7DEFD14BF0120002010BD10B5FFF7A4
:103FB00043FE8CBF0120002010BD10B5FFF73CFE72
:103FC0002CBF0120002010BD10B5FFF771FE94BF7B
:103FD0000120002010BD10B5FFF76AFE34BF01209C
:103FE000002010BDF1EE100A4FF6FF71C0F2C03193
:103FF00020EA010040F04070E1EE100A7047FF2116
:1040000041EAD050C00570474FF000007047FCF700
:10401000A8BD0CF00F03092B08BF082000F05F803B
:104020000A2B0BD0082B18BF704708BF1CF0400F9D
:104030000AD04FF000004FF0000170471CF0400F15
:1040400018BF4FF0004070471CF0100F08D000F070
:104050007F4220F0704342EAD3014FEA4370704739
:1040600000F0604021F07F4242EA000201F07F4010
:1040700040EA727070474FF0FF0C4CF4E06C1CEAA1
:1040800011531CBF9CEA030C9445C2BFDA4201EBFA
:1040900002517047002B0DD0BCF1000F0FD001F082
:1040A0000041002AA4BF41F0E04141F07F614FF0A0
:1040B0000000704701F000414FF00000704750EAE7
:1040C00001334FF09B0C18BF4CF0806C7FF434AD83
:1040D0007047FCF7CDBFFDF741BBFDF7CFBC1CF42B
:1040E000801F11D01CF4E02F03D06FEACC314900BF
:1040F00070474FF04050EFF3008222F0704242EAE6
:10410000000282F3008870474FF0000070473031A2
:1041100032333435363738394142434445464030EE
:1041200058003031323334353637383961626364A0
:1041300065664030780004000008000000000000C0
:10414000000200010000100002400000000000A07A
:104150000000000005400000000000C80000000052
:104160000C4000000000409C0000000019400000CE
:104170000020BCBE0000000034400000BFC91B8E00
:1041800000000004B5400000504BCFD06607E2CFDE
:10419000010000006C4100003E8251AADFEEA7340E
:1041A00001000000D9420000DCB5A0E23A301F97C0
:1041B000FFFFFFFFB4450000FD25A0C8E9A3C14FE4
:1041C000FFFFFFFFFF3F0000000000800000000035
:1041D000FF3F000000000080000000000000000021
:1041E00001020304010203040607080966616C73F7
:1041F000650074727565006E756C6C00584300083C
:10420000000000200C000000C40100086443000806
:104210001000002048070000E00100080000000036
:104220000000F07FFFFFFFFFFFFFEF7F10010000A6
:1042300043000000F8FFFFFF004040404040404086
:104240004040414141414140404040404040404069
:10425000404040404040404040050202020202020D
:10426000020202020202020202202020202020205C
:104270002020200202020202020290909090909070
:10428000101010101010101010101010101010102E
:1042900010101010020202020202888888888888A2
:1042A000080808080808080808080808080808088E
:1042B0000808080802020202400000000000000096
:1042C00000000000000000000000000000000000EE
:1042D00000000000000000000000000000000000DE
:1042E00000000000000000000000000000000000CE
:1042F00000000000000000000000000000000000BE
:1043000000000000000000000000000000000000AD
:10431000000000000000000000000000000000009D
:10432000000000000000000000000000000000008D
:104330000000000000000000000000001C00000061
:1043400043000000F8FFFFFF0C0000000E0000001B
:104350000F0000002E000000A9020008070300085B
:0443600055030008F9
:040000050800026984
:00000001FF
