:020000040800F2
:10000000781E002029020008010B0008F90A0008E8
:10001000FD0A00086B0400083D0F00080000000006
:10002000000000000000000000000000C90C0008F3
:10003000210A0008000000007D0B0008B90D00082F
:10004000430200084302000843020008430200087C
:10005000430200084302000843020008430200086C
:10006000430200084302000843020008430200085C
:10007000430200087104000843020008430200081C
:10008000430200084302000843020008430200083C
:10009000430200084302000843020008430200082C
:1000A000430200084302000843020008430200081C
:1000B000430200084302000843020008430200080C
:1000C00043020008430200084302000843020008FC
:1000D00043020008430200084302000843020008EC
:1000E00043020008430200084302000843020008DC
:1000F00043020008430200084302000843020008CC
:1001000043020008430200084302000843020008BB
:1001100043020008430200084302000843020008AB
:10012000DD040008430200084302000843020008FF
:10013000430200084302000843020008430200088B
:10014000430200084302000843020008430200087B
:10015000430200084302000843020008430200086B
:10016000430200084302000843020008430200085B
:10017000430200084302000843020008430200084B
:10018000430200084302000800F002F800F03CF8C7
:100190000AA090E8000C82448344AAF10107DA45E2
:1001A00001D100F031F8AFF2090EBAE80F0013F0F8
:1001B000010F18BFFB1A43F001031847E8160000AF
:1001C00008170000103A24BF78C878C1FAD852073F
:1001D00024BF30C830C144BF04680C6070470000C1
:1001E0000023002400250026103A28BF78C1FBD840
:1001F000520728BF30C148BF0B6070471FB501F0E0
:1002000046FB1FBD10B510BD00F031F81146FFF7D9
:10021000F5FF00F0EDFF00F04FF803B4FFF7F2FF39
:1002200003BC00F057F80000094880470948004720
:10023000FEE7FEE7FEE7FEE7FEE7FEE7FEE7FEE796
:10024000FEE7FEE704480549054A064B70470000F3
:10025000D50D00088901000878180020781E0020BC
:10026000781A0020781A002070477047704775464A
:1002700000F02CF8AE4605006946534620F0070012
:10028000854618B020B5FFF7DDFFBDE820404FF0F0
:1002900000064FF000074FF000084FF0000B21F070
:1002A0000701AC46ACE8C009ACE8C009ACE8C0093D
:1002B000ACE8C0098D46704710B50446AFF3008026
:1002C0002046BDE81040FFF7A8BF00000048704777
:1002D0001818002001491820ABBEFEE726000200D6
:1002E000704721B1826842F00102826003E08268B7
:1002F00022F00102826070470021084A1168084A12
:100300001140D0E900231A4383681A43C3681A4393
:100310001143044AC2F8041370470000042301404B
:10032000E030FCFF0020014021B1826842F480727D
:10033000826003E0826822F480728260704721B19B
:10034000826842F40072826003E0826822F40072E4
:100350008260704730B50246002000235068104C80
:1003600020400D790C6844EA0524204350609068D1
:100370000C4C2040D1E903542C438D682C434D791B
:1003800044EA450420439060D06A20F470000C7D5C
:10039000641EE4B2234340EA0350D06230BD000043
:1003A000FFFEFFFCFDF7FFC0F0B504460D46002040
:1003B0000021092D11DDE068A5F10A0606EB4607CC
:1003C000072606FA07F18843A5F10A0606EB46065A
:1003D00003FA06F10843E0600CE0206905EB4507ED
:1003E000072606FA07F1884305EB450603FA06F1EE
:1003F00008432061072A0FDA606B561E06EB86075A
:100400001F2606FA07F18843561E06EB860605FAF4
:1004100006F10843606322E00D2A0FDA206BD61F35
:1004200006EB86071F2606FA07F18843D61F06EB60
:10043000860605FA06F10843206310E0E06AA2F19F
:100440000D0606EB86071F2606FA07F18843A2F180
:100450000D0606EB860605FA06F10843E062F0BDDC
:10046000816841F080418160704700BFFEE7000075
:1004700010B51649164800F065FA002406E0154844
:10048000005D303813490855601C84B2042CF6DB3B
:10049000104800784FF47A7110FB01F00D4949784B
:1004A00001EBC10202EB011100EB810009498978DF
:1004B00001EB810100EB41010648C0780844064980
:1004C00008600121024800F057FA10BD008020109A
:1004D000406002401C000020240000202DE9F04173
:1004E0002DED068B0025002600BFF549F54800F0EC
:1004F00029FA00242FE0F44830F8140000EE100A26
:10050000B8EE400AF148D0ED000A30EE200A80ED46
:10051000000A601C86B2EC4830F8160000EE100AA3
:10052000B8EE400AEA48D0ED000A30EE200A80ED2D
:10053000000AA01C85B2E44830F8150000EE100A4D
:10054000B8EE400AE348D0ED000A30EE200A80ED14
:10055000000AE01C84B240F6B6308442CBDBDB48B4
:1005600090ED000ADFEDDC0A80EE201A11EE107A21
:10057000384601F01BF99FEDD90B53EC102B01F01D
:1005800017F89FEDD80B53EC102B00F0B9FE00F0DC
:1005900085FED64908607C20D54908700D2048703A
:1005A000D24890ED000ABDEEC00A10EE100A3030BD
:1005B00088702C20C8700846807800EE100AB8EECB
:1005C000400ACA48D0ED000A30EEC00ADFEDC90A81
:1005D00030EE200AF2EE040A20EE200ABDEEC00A38
:1005E00010EE100A303008710846807830386421E7
:1005F00010FB01F000EE100AB8EEC00ABB48D0EDC7
:10060000000A9FEDBD1A10EE810AB9480079303812
:1006100000EB8000400000EE900AF8EEE00A30EEB9
:10062000600ABDEEC00A10EE100A3030B0494871C1
:100630007C2088710D20C871A54890ED000ADFED7F
:10064000A60A80EE201A11EE107A384601F0AEF8B4
:100650009FEDA20B53EC102B00F0AAFF9FEDA10B16
:1006600053EC102B00F04CFE00F018FEA34908607C
:10067000084690ED000ABDEEC00A10EE100A3030B8
:100680009B4908722C2048720846007A00EE100A36
:10069000B8EE400A9948D0ED000A30EEC00ADFED0E
:1006A000950A30EE200AF2EE040A20EE200ABDEE92
:1006B000C00A10EE100A303088720846007A3038CE
:1006C000642110FB01F000EE100AB8EEC00A8B485E
:1006D000D0ED000A9FED881A10EE810A8448807AD6
:1006E000303800EB8000400000EE900AF8EEE00A9F
:1006F00030EE600ABDEEC00A10EE100A30307C49C0
:10070000C8727C2008730D204873724890ED000A6F
:10071000DFED710A80EE201A11EE107A384601F0F2
:1007200045F89FED6E0B53EC102B00F041FF9FED51
:100730006D0B53EC102B00F0E3FD00F0AFFD7049A2
:100740000860084690ED000ABDEEC00A10EE100ADF
:100750003030674988732C20C8730846807B00EED0
:10076000100AB8EE400A6648D0ED000A30EEC00A22
:10077000DFED600A30EE200AF2EE040A20EE200AD5
:10078000BDEEC00A10EE100A303008740846807BB7
:100790003038642110FB01F000EE100AB8EEC00AF8
:1007A0005748D0ED000A9FED541A10EE810A5048C8
:1007B000007C303800EB8000400000EE900AF8EE3C
:1007C000E00A30EE600ABDEEC00A10EE100A3030CA
:1007D000474948747C2088740D20C87449480068D3
:1007E0004FF47A7190FBF1F03030414908750846BA
:1007F000007D303800EB4001C1EBC0104149096871
:10080000A1EBC000642190FBF1F03030384948750D
:100810000846007D303800EB4001C1EBC01039497B
:100820000968A1EBC0013248407D303800EBC002BE
:1008300002EB0010A1EB80000A2190FBF1F03030B8
:100840002B4988750846007D303800EB4001C1EB2C
:10085000C0102C490968A1EBC0012548407D303803
:1008600000EBC00202EB0010A1EB80000A2190FB1C
:10087000F1F201FB120030301D49C8750A200876DC
:1008800001202149088000BF9FED200A0F4880ED1C
:10089000000A9FED1E0A0E4880ED000A9FED1B0A1C
:1008A0000C4880ED000A0121064800F065F800229E
:1008B0001021044800F06BF8BDEC068BBDE8F08118
:1008C00000802010106402407C00002040000020C6
:1008D000440000204800002000007A44000000008E
:1008E000000008400000000000FEAF40280000208B
:1008F000EC170020000040420000C84230000020F9
:1009000034000020240000203800002000000000F7
:100910000246094B9A4201D2084801E006481038C5
:1009200001F000531BB1064B0B40C36002E0044BC7
:100930000B4083607047000010640240006002407A
:100940007D0F7D0F0246094B9A4201D2084801E013
:100950000648103801F000531BB1064B0B40C36032
:1009600002E0044B0B4083607047000010640240BB
:10097000006002407D0F7D0F21B1026842F001024C
:10098000026003E0026822F001020260704710B5C5
:1009900001F080034BB122B1436943F0800343610E
:1009A00003E0436923F08003436180290BD02AB11F
:1009B000036801F01E042343036004E0036801F0B0
:1009C0001E04A343036010BD10B500220268134B40
:1009D0001A40CC680B6823434C6923438C6923433A
:1009E000CC6923430C6A23434C6A23438C6A234318
:1009F0004C6B23438C6B23431A430260426922F001
:100A00000702D1E90B3423431A4342610B69436067
:100A10004B6883608B68C36010BD00003F801CF092
:100A20007047F0B50A4600210023002400BF3DE0D6
:100A3000012505FA01F3156805EA03049C4234D147
:100A400005684F000326BE40B543056015794E008A
:100A5000B5400668354305601579012D02D015793A
:100A6000022D16D185684F000326BE40B543856030
:100A700055794E00B5408668354385604568012646
:100A80008E40B5434560456896798E40B6B2354391
:100A90004560C5684F000326BE40B543C560D579A3
:100AA0004E00B540C6683543C560491C1029BFD308
:100AB000F0BDF0B5002300244D07ED0E02FA05F35A
:100AC000CE1000F1200555F826504E07F70E0F26E0
:100AD000BE40B543CF1000F1200646F82750CE1097
:100AE00000F1200555F8265045EA0304CE1000F128
:100AF000200545F82640F0BD00BFFEE700BFFEE739
:100B00007047000070B5002100230F22C4781CB389
:100B1000174C246804F4E064C4F5E064C4F30721CE
:100B2000C1F10404E3B20A4144789C40E1B2847804
:100B3000144021430C07210E0E4C057861550478B2
:100B400004F01F050124AC4005786D11AD0005F1DE
:100B5000E025C5F8004109E0047804F01F050124F0
:100B6000AC40054D0678761145F8264070BD000072
:100B70000CED00E000E400E080E100E070470000E0
:100B800029B1064A12680243044B1A6004E0034A82
:100B900012688243014B1A607047000030380240EF
:100BA00029B1064A12680243044B1A6004E0034A62
:100BB00012688243014B1A607047000040380240BF
:100BC00029B1064A12680243044B1A6004E0034A42
:100BD00012688243014B1A6070470000443802409B
:100BE000F0B5002100220024022500260223324F06
:100BF0003F6807F00C0121B1042905D0082937D13D
:100C000005E02E4F076036E02D4F076033E02A4F96
:100C10003F1F3F68C7F38056274F3F1F3F6807F0CD
:100C20003F036EB1264FB7FBF3F7DFF88CC0ACF192
:100C3000040CDCF800C0CCF3881C07FB0CF40CE0BF
:100C40001E4FB7FBF3F7DFF870C0ACF1040CDCF813
:100C500000C0CCF3881C07FB0CF4174F3F1F3F6804
:100C6000C7F301477F1C7D00B4FBF5F7076002E086
:100C7000124F076000BF00BF0F4F3F6807F0F00141
:100C80000909104F7A5C0768D74047600A4F3F68F0
:100C900007F4E051890A0B4F7A5C4768D7408760B8
:100CA000054F3F6807F46041490B064F7A5C47687F
:100CB000D740C760F0BD0000083802400024F400AF
:100CC00000127A004C000020704700000CB5002094
:100CD000019000903448006840F480303249086048
:100CE00000BF3148006800F4003000900198401CBB
:100CF0000190009818B90198B0F5A04FF1D12A4899
:100D0000006800F4003010B10120009001E00020E4
:100D100000900098012846D123484030006840F0F8
:100D200080502149403108602048006840F440402C
:100D30001E4908601C48083000681B4908310860DB
:100D40000846006840F4004008600846006840F427
:100D5000A05008601648091F0860081F006840F08E
:100D60008070091F086000BF0F48006800F0007025
:100D70000028F9D040F205700E4908600A48083092
:100D8000006820F003000849083108600846006840
:100D900040F00200086000BF03480830006800F01F
:100DA0000C000828F8D10CBD00380240007000404B
:100DB00008544007003C02400120044908600448F0
:100DC0000068401C024908607047000018000020BD
:100DD0001400002010B51548006840F47000134955
:100DE00008601348006840F00100114908600020C5
:100DF0000F49083108600E4800680E4908400C4948
:100E000008600D48091D0860081F006820F4802054
:100E1000091F0860002006490C310860FFF756FFE3
:100E20004FF0006001498039086010BD88ED00E096
:100E300000380240FFFFF6FE1030002421B1828905
:100E400042F40052828104E082894DF6FF731A4019
:100E5000828170471AB1838A0B43838202E0838ABE
:100E60008B438382704700002DE9FF4705460E46FD
:100E70000024A14600BFA046B08900B100BF2C8A63
:100E800024F44054F08804432C82AC8941F20C6075
:100E90008443B08831890843718908430443AC8195
:100EA000AC8A24F44074B0890443AC826846FFF7EE
:100EB00097FE2048854202D01F48854202D1DDF8C6
:100EC0000C9001E0DDF80890A88900F4004040B1E2
:100ED00009EBC90000EB091031684900B0FBF1F7DC
:100EE00007E009EBC90000EB091031688900B0FB8D
:100EF000F1F76420B7FBF0F004012009642101FB45
:100F00001078A88900F4004040B1322000EBC800FE
:100F1000B0FBF1F000F00700044308E0322000EBE2
:100F200008106421B0FBF1F000F00F0004432C81A5
:100F3000BDE8FF87001001400014014000BFFEE73C
:100F400000B5A1B001210420FFF71AFE0121C80459
:100F5000FFF726FE01214805FFF712FE0121880553
:100F6000FFF70EFE01210802FFF72AFE08220A21E0
:100F70009748FFF79EFD08220B219548FFF799FD42
:100F80004FF480601F9002208DF8800000208DF8C3
:100F9000820001208DF8830002208DF881001FA9B6
:100FA0008B48FFF73EFD4FF400601F9002208DF844
:100FB00080001FA98648FFF734FD4FF4E1301B90F5
:100FC0000020ADF87000ADF87200ADF87400ADF817
:100FD00078000C20ADF876001BA97E48FFF744FF8F
:100FE00001217C48FFF72AFF012280217948FFF781
:100FF00031FF4FF000600C907648001D0D90764850
:101000000E9040200F904FF47A70109000201190B5
:101010004FF48060129000201390149015904FF4BC
:101020000030169000201790012018900020199091
:101030001A900CA96948FFF7C7FC01216748FFF720
:101040009BFC012240216348FFF704FF4FF0006042
:101050000C906048001D0D9061480E9000200F908C
:1010600004201090002011904FF480601290002016
:101070001390149015904FF40030169000201790A4
:1010800001201890002019901A900CA9534830386C
:10109000FFF79AFC012151483038FFF76DFC0D2015
:1010A0008DF8040000208DF805008DF80600012061
:1010B0008DF8070001A8FFF725FD01221021474800
:1010C0003038FFF764FC2C201F9003208DF880003F
:1010D00000208DF883001FA93D48FFF7A2FC0020E7
:1010E0000C9040480E9040480D9000200F9040F624
:1010F000B8301090002011904FF4806012904000A2
:101100001390800014904011159000201690042038
:10111000179001201890002019901A900CA93348BC
:10112000FFF752FC01213148FFF726FC38208DF8EB
:10113000040000208DF805008DF8060001208DF8D0
:10114000070001A8FFF7DEFC002002900390049046
:10115000059002A8FFF7D0F80020069001208DF836
:101160001C008DF81D00002008900A9003208DF8C7
:101170002C0006A91C484C38FFF7ECF80323022288
:101180000C2119484C38FFF70FF9032301220D21D8
:1011900015484C38FFF708F903231A460F21124867
:1011A0004C38FFF701F901210F484C38FFF7BCF824
:1011B00001210D484C38FFF7C2F801210A484C388C
:1011C000FFF78FF808484C38FFF74AF921B000BD07
:1011D00000080240004C0040EC1700207060024004
:1011E0001C0000207C0000204C20014010640240C4
:1011F000224800684FF47A72B0FBF2F1481EB0F159
:10120000807F00D31BE0481E4FF0E0225061501752
:101210000F22002804DB13071C0E194B1C5406E098
:1012200013071D0E174B00F00F04241F1D5500BFA0
:1012300000204FF0E02290610720106100BFFFF70F
:101240007FFE1AE01048006810490968884214D3EC
:1012500000200D4908600E490E48FFF759FB4FF476
:101260007A700C497039486701210A48FFF784FBFE
:10127000012210210848FFF78AFBE3E70000002065
:1012800000E400E018ED00E014000020240000203D
:1012900020000020706002401064024021F00042F3
:1012A000A2F16052B2F5801F01F0004328BFD2F1D5
:1012B0007F6C0BD95FEA001C43EAC20242EB50701C
:1012C00018BF704728BF20F001007047B2F5801F9B
:1012D000BCBF184670474FEA410C1CF5001F02D2F4
:1012E000084600F0D9BA70B500F00CFA0000008989
:1012F000FFF7F6BF4FF00040A0F5800070470000F8
:101300002DE9C04130B4DFF8A0C23CEA111418BF87
:101310003CEA131400F0EC8081EA03051CEA111486
:1013200044EAD57418BF1CEA131500F0C780A4EB7B
:1013300005044FF0004545EAC12145EAC32341EACF
:10134000505143EA525304F17F74994204F500343A
:101350004FEAC0204FEAC22208BF904200F09C80B2
:101360004FEA13650FF24016765D4FEA134506FB10
:1013700005F7C7F1807706FB07F74FEAD737A7FBDA
:1013800003687642C8F58038A7FB06CE38BFA8F1BF
:10139000010807FB08E64FF0000EA6FB028CE6FBF7
:1013A00003CEDCF1000CCEF1004E38BFAEF1010EE1
:1013B000A6FB0C584FF000074FF00005E6FB0E8728
:1013C000A1FB08C6A0FB07CE16EB0E0645F10005F3
:1013D000E1FB076515F1E04E7EBFA4F580345FEABE
:1013E00046066D4116F1800745F100054FEA1727C3
:1013F0004FEA066647EA0567A6F1DE46B6F1805F6A
:101400004FEA15251FD9384624F0010C05EBC471AD
:10141000BCF1FE6F01EB0C1102D8F0BCBDE80081FD
:1014200024425CBF01F5801E9EEAC47F02D4F0BC5A
:10143000BDE80081244238D4F0BCA1F1C041BDE830
:10144000004100F0ADB94FEAD22242EA43524FEADE
:10145000D323A7FB02864FEAD02040EA415007FB86
:1014600003661EEA0E0F4FEAD12105FB026658BF44
:10147000A6EB0056B6EB00564FEA520E4EEAC37E7C
:1014800018EB0E0E56EB530EBDD518EB02085E415D
:101490007F1C55F10005B6E74FF480154FF00007AB
:1014A0004FF000064FF00008ADE7F0BC4FF0000031
:1014B00001F1C04101F00041BDE8008111EA0C1FBB
:1014C0000CEA131500D00CE013EA0C1F00F0258085
:1014D0004FF00000F0BC81EA030101F00041BDE8DB
:1014E0000081F0BCBDE8004181EA030100F058B979
:1014F000F0BCBDE8004170B500F004F9097EFC3E87
:1015000000F007B881EA03014FF0000001F000414C
:10151000704781EA030100F043B9F0BCBDE8004127
:101520004FF0000021497047FFFDFBF9F7F5F4F299
:10153000F0EEEDEBE9E8E6E4E3E1E0DEDDDBDAD86E
:10154000D7D5D4D3D1D0CFCDCCCBCAC8C7C6C5C4CC
:10155000C2C1C0BFBEBDBCBBBAB9B8B7B6B5B4B3E3
:10156000B2B1B0AFAEADACABAAA9A8A8A7A6A5A4CE
:10157000A3A3A2A1A09F9F9E9D9C9C9B9A99999892
:101580009797969595949393929191908F8F8E8E35
:101590008D8C8C8B8B8A89898888878786858584C2
:1015A00084838382828181800000FF070000F87FAE
:1015B000DFF848C170B51CEA111E1EBF1CEA1315E6
:1015C0009EEA0C0F95EA0C0F00F06F8081EA03048D
:1015D00023EA4C134EEAD47E21EA4C1141F48011E7
:1015E00043F48013AE44A1FB024CA0FB0365AEF1B3
:1015F0007F7E361955EB0C05A1FB034C4CF1000323
:10160000A0FB021C16EB0C06654153F100030942D6
:1016100018BF46F0010613F4007F0BD14FEA0331E7
:101620004FEA0530340341EA155140EA16506FF095
:1016300003020AE04FEAC3214FEAC520F40241EA5F
:10164000555140EA56506FF0020202EB2E4201EB78
:10165000025585EACE710AD05FEA440C18BF24F027
:10166000004450F1000041F1000120EAD47040F242
:10167000FE7C624500D270BDA84214BF4FF080448A
:101680004FF04044002E08BF0024BEF1806FA8BF79
:10169000A1F1C041BDE8704080F282804FF00000AF
:1016A00001F1C04101F0004170479EEA0C0F0CEAC5
:1016B000131518BF95EA0C0F06D04FF0000081EA11
:1016C000030E0EF0004170BD00F01CF88900013ED1
:1016D00000F007B800F009B84FEA430C5FEA5C5C21
:1016E00008D081EA030100F05BB84FEA410C5FEAE1
:1016F0005C5CF6D14FF00000014970470000FF0725
:101700000000F87F0EF1020E2EF0030E5EF8046B5F
:10171000364205D4012A43EB030515F5001F12D804
:10172000012841EB010C1CF5001F0CD80ED14FEA2B
:10173000D17C15F5001F0CEB4C0C0CF1020C08BF12
:101740004CEBD37C04E04FF0080C01E04FEAD37C73
:101750000CEB4C0526FA05F606F00706B6F1040C6C
:1017600006D20EEB860CBDE870404CF0010C6047D1
:10177000DFE80CF0090B02024FF000414FF00000CF
:10178000A1F5002170BD19461046012851EB010456
:1017900018BFD4F5001484BF002001F0004170BDD3
:1017A0000808A0F500114FEA3101704743004FEAE5
:1017B000D30C4FEA3C0C43401FBF40070CF1605173
:1017C00013F0FE4F70471CF0006F03D100200CF0A7
:1017D000004170470CF0004343EA507010B540EAF6
:1017E000CC0000F00EF800BF000000924FEA0001AC
:1017F000FFF7D6BF4FF000414FF00000A1F50021E8
:1018000070470EF1020E2EF0030E5EF8044B2442D8
:1018100004D44FEA4102B2F17F4F11D84FEA40039E
:10182000B3F17F4F0CD80ED14FEAD07CB2F17F4F8D
:101830000CEB4C0C0CF1020C08BF4CEBD17C04E01F
:101840004FF0080C01E04FEAD17C0CEB4C0324FA7A
:1018500003F404F00704B4F1040C06D20EEB840C7C
:10186000BDE810404CF0010C6047DFE80CF00708C1
:1018700002024FF00040A0F5800010BD0846420073
:1018800018BFD2F1807288BF00F0004010BD4FF049
:101890004070E1EE100A7047FF2141EAD050C005C8
:1018A00070470000C4180008000000205C00000021
:1018B000C4010008201900085C0000201C1E000064
:1018C000E0010008007A030A0000000000000000A8
:1018D00001020304060708090000000000000000E0
:1018E00000000000000000000500000000000000F3
:1018F00000000000000000000000000000000000E8
:1019000000000000000000000000000000000000D7
:101910000000000001020304010203040607080995
:0400000508000229C4
:00000001FF
