:020000040800F2
:10000000000002202D360008711800087D18000835
:10001000851800088D1800089518000800000000D9
:100020000000000000000000000000009D18000813
:10003000A918000800000000B5180008CD18000835
:1000400075360008753600087536000875360008E4
:1000500075360008753600087536000875360008D4
:1000600075360008753600087536000875360008C4
:1000700075360008753600087536000875360008B4
:1000800075360008753600087536000875360008A4
:100090007536000875360008753600087536000894
:1000A0007536000875360008753600087536000884
:1000B0007536000875360008753600087536000874
:1000C0007536000875360008753600087536000864
:1000D0007536000875360008753600087536000854
:1000E0007536000875360008753600087536000844
:1000F0007536000875360008753600087536000834
:100100007536000875360008753600087536000823
:100110007536000875360008753600087536000813
:100120007536000875360008753600087536000803
:1001300075360008753600087536000875360008F3
:1001400075360008753600087536000875360008E3
:1001500075360008753600087536000875360008D3
:1001600075360008753600087536000875360008C3
:100170007536000875360008753600080000000066
:08018000753600087536000811
:10018800A3F5803A704700BF174B002B08BF134BED
:100198009D46FFF7F5FF00218B460F461348144A8A
:1001A800121A00F019FA0E4B002B00D098470D4B8D
:1001B800002B00D098470020002104000D000D48B6
:1001C800002802D00C4800F0FFFA00F057FA20008F
:1001D800290001F00DFC00F061F800BF00000800E4
:1001E800000000000000000000000000740500206E
:1001F800D0080020D1070008F11100085C3700087A
:10020800000000207405002074050020D00800209C
:100218000348044B834202D0034B03B1184770478D
:100228007405002074050020000000000548064BF6
:100238001B1AD90F01EBA301491002D0034B03B1DC
:10024800184770477405002074050020000000005E
:1002580010B5064C237843B9FFF7DAFF044B13B106
:100268000448AFF300800123237010BD74050020FB
:1002780000000000E036000808B5054B1BB1054931
:100288000548AFF30080BDE80840FFF7CFBF00BFC7
:100298000000000078050020E036000808B50021BD
:1002A800044600F031FA034B1B6803B19847204617
:1002B80003F010FAC8060020024A0349034800F078
:1002C80069B900BF04000020590D0008180000207B
:1002D8000C4B4168994210B5044601D000F038FD36
:1002E800A168094B994202D0204600F031FDE1682F
:1002F800064B994204D02046BDE8104000F028BDC6
:1003080010BD00BF90050020F80500206006002001
:1003180008B54B6EDA0702D48B899B0501D50020FE
:1003280008BD886D00F0DCF9002008BD08B54B6EEB
:10033800DA0702D48B899B0501D5002008BD886D9A
:1003480000F0D6F9002008BD2DE9F843314A324CB7
:100358003249DFF8CC90DFF8CC80334F11600025AC
:1003680004232946082204F15C00C4E903352F4E12
:10037800A560C4E90055C4E90555656600F02CF987
:1003880004F15800C4E90749C4E90987E66200F0A6
:100398009FF92946264B6367082204F1C400C4E983
:1003A8001A55C4E91E552567C4F8CC50C4F88050C6
:1003B80000F012F904F1680304F1C000C4F88430B5
:1003C800C4E92298C4E9247600F082F9194BC4F8EC
:1003D800DC30294604F596700822C4E93455C4E98E
:1003E8003855C4F8D850C4F83451C4F8E85000F06F
:1003F800F3F804F1D003C4E93D87C4F8F09004F59C
:100408009470C4F8FC60C4F8EC30BDE8F84300F020
:100418005FB900BFC806002090050020C10200088F
:10042800191000084110000881100008A5100008E4
:100438000900010012000200F8B506462A4800F03B
:100448004FF92A4B1B68002B43D0294FD7E90134B9
:10045800013B04D524E05A1C04F1680420D0B4F907
:100468000C50013B002DF6D1224BE36004F15800FB
:10047800656600F02DF91C4800F03AF9C4E9015509
:10048800C4E9045508222560A561294604F15C00E9
:1004980000F0A2F8C4E90C55C4E911552046F8BD8E
:1004A8003D680DB12F46D1E74FF4D671304600F0C4
:1004B80091F9044680B10423C0E900530C30294661
:1004C800A0604FF4D072254600F086F83C602F46B5
:1004D800BCE7FFF739FFB8E703483C6000F008F9CC
:1004E8000C233360DAE700BFE8060020C8060020C6
:1004F800040000200100FFFF10B504460A4800F080
:10050800EFF8636B23B9094B094A1B68626323B18F
:10051800BDE81040044800F0EBB8FFF715FFBDE850
:100528001040014800F0E4B8E8060020C8060020A2
:10053800D9020008014800F0D3B800BFE80600203F
:10054800014800F0D5B800BFE806002008B5054806
:1005580000F0C6F8BDE80840034A0449002000F04E
:1005680019B800BFE806002004000020190300089D
:1005780008B5054A0549002000F00CF8BDE8084018
:10058800034800F0B5B800BF040000203503000898
:10059800E80600202DE9F8430746884616464FF03E
:1005A8000009D6E90154013D10D4A389012B08D9CB
:1005B800B4F90E3001332146384602D0C04749EA23
:1005C8000009013D6B1C04F16804EED13668002E69
:1005D800E7D14846BDE8F883830730B547D0541EB5
:1005E800002A3ED0CAB2034601E0013C39D303F8E1
:1005F800012B9D07F9D1032C2CD9CDB205EB05258C
:100608000F2C05EB054535D9A4F1100222F00F0C8B
:1006180003F1100EE6444FEA121C1A46C2E90055CF
:10062800C2E9025510327245F8D10CF1010214F0FA
:100638000C0F03EB021204F00F0C13D0ACF10403FF
:1006480023F003030433134442F8045B9342FBD1C1
:100658000CF003042CB1C9B21C4403F8011BA342DB
:10066800FBD130BD64461346002CF4D1F9E70346AC
:100678001446C0E71A46A446E0E700BF70B50F4B22
:100688000F4DAB42A3EB050607D0B610002455F872
:10069800043B01349847A642F9D803F01FF8094DE6
:1006A800094B5E1BAB424FEAA60606D0002455F85C
:1006B800043B01349847A642F9D870BD503700086A
:1006C800503700085037000858370008704700BFF7
:1006D800704700BF704700BF704700BF704700BF3A
:1006E800704700BF0120704701207047704700BF66
:1006F800704700BF024B13B1024800F065B870475D
:1007080000000000F11100082DE9F04F2C4B2D4F8F
:1007180083B082461868CDF804A08B46FFF7E0FF47
:100728003E684EB34FF000094FF001087468651E2B
:1007380022D4013406EB8404BBF1000F23D1736883
:100748002268013BAB420CBF7560C4F8009072B1DF
:10075800D6F88811D6F804A008FA05F30B421CD184
:10076800904773683A68534523D1B24221D1013D7D
:100778006B1CA4F10404DFD1114B186803B0BDE869
:10078800F04FFFF7B5BFD4F800315B45D7D0013D36
:100798006A1CA4F10404F6D1EEE7D6F88C01D4F86B
:1007A8008010034209D10198904773683A6853450D
:1007B800DBD0002AE0D01646B8E708469047D0E7D5
:1007C80038010020EC060020002301461A4618468E
:1007D80000F01EBD2DE9F04F01F10B05162D83B079
:1007E800064623D8102900F2AF8000F0A5FA10259C
:1007F80018230220B74F3B44A3F108025C689442D7
:1008080000F01F816368E268A16823F00303CA60EF
:100818002344304691605A6842F001025A6000F061
:1008280091FA0834204603B0BDE8F08F35F007058B
:1008380000F18A80A94200F2878000F07DFAB5F5C0
:10084800FC7FC0F06E816B0A00F08280042B00F2FE
:100858001E81AB0903F1390003F1380EC3009D4F27
:100868003B44A3F1080C5C68A44507D10DE0002ABD
:10087800E16880F2E0808C4507D00C46636823F07D
:1008880003035A1B0F2AF2DD7046DFF84C823C69DD
:10089800444500F0BD80636823F0030CACEB05030E
:1008A8000F2B00F34281002BC7E9048880F22D81C9
:1008B800BCF5007FD7F804E080F0C9804FEADC017E
:1008C80001314FEA5C1C012303FA0CF357F831207D
:1008D800A2604EEA030E07EBC103083BE360C7F8CA
:1008E80004E047F83140D46083104FF0010C0CFA53
:1008F80003FCF44532D81CEA0E0F08D120F003009F
:100908004FEA4C0C1CEA0E0F00F10400F8D007EB7C
:10091800C00AD6468146DEF80C300BE0596821F053
:1009280003014A1B0F2A1C46DB6800F3BC80002A1F
:1009380080F2DE809E45F1D109F1010919F0030F1B
:100948000EF1080EE7D119E10C233360002469E7A2
:100958004FF4007340204FF03F0E80E7BC68636897
:1009680023F00309A94503D3A9EB05030F2B52DC98
:100978005A4B1B68082003F1100804EB0903009385
:1009880000F024FC564A13680133A844834605D076
:1009980008F1FF388044434203EA080841463046DC
:1009A80000F0ECFBB0F1FF3F4D4A824600F0D880E2
:1009B80004EB0903834200F2D1804A4B1868404493
:1009C8000BF1FF311860844640F0FB801AEA010FF2
:1009D80040F0F780D7F808A0C84448F00102CAF8E8
:1009E8000420414B1968814238BF18603F4B196891
:1009F800814238BF1860544622F00308A845A8EB86
:100A0800050301D30F2B06DC304600F09BF99DE768
:100A1800D7F804E068E7621943F0010345F00105DF
:100A280065603046BA60536000F08CF9083420469F
:100A380003B0BDE8F08FA2682344D16030468A60D5
:100A4800E9E6DC68A3427FF4DDAE02301DE7BCF5C1
:100A5800206F4FEA5C227AD3142A00F2128102F145
:100A68005C03DB005B32F918FB580839994203D163
:100A7800ECE09B68994204D05A6822F00302624570
:100A8800F7D8D968C4E902318C60DC602CE7142BF4
:100A980069D9542B00F2FE802B0B03F16F0003F190
:100AA8006E0EC300DBE6D4F808C03046661945F080
:100AB80001056560CCF80C30C3F808C042F00103AA
:100AC800C7E90466C6E902887360625000F03AF923
:100AD8000834A7E648010020500100202007002024
:100AE8003C010020F00600201C0700201807002009
:100AF800214430464A6842F001024A6054F8082FFF
:100B0800D3609A6000F01EF98CE6A4443046DCF805
:100B1800043043F00103CCF8043000F013F9083432
:100B280080E6E80805F1080364E6621943F001016C
:100B380045F0010565603046C7E90422C2E902882C
:100B4800516044F80C3000F0FDF808346AE64FEACA
:100B58009C1202F13903DB00383284E7BC4228D00A
:100B6800BC68626848E703F15C0003F15B0EC300F0
:100B780075E65AF80839534540F0DA8010F0030F4B
:100B880000F1FF30F5D17B6823EA0C037B604FEA64
:100B98004C0C9C453FF6E2AEBCF1000F04D1DDE6FB
:100BA8004FEA4C0C09F104091CEA030FF8D0484637
:100BB800ADE6604B186808EB000C0BF1FF31C3F889
:100BC80000C0106801306FD004EB0902AAEB0202E2
:100BD80062441A601AF00702CDE9002340D0C2F13E
:100BE80008029244D04408EA01005A44121A02EA60
:100BF800010B5946304600F0C1FA421C019B6FD0E8
:100C0800A0EB0A0000EB0B081868C7F808A048F02A
:100C180001025844BC42CAF8042018603FF4E1AE0F
:100C2800B9F10F0F43D96168A9F10C0222F007024C
:100C380001F00101114361604FF0050CA1180F2A62
:100C4800C1E901CC54D8DAF80420CAE692104FF072
:100C5800010C0CFA02F24EEA020EC7F804E011E7A2
:100C68000AEB08020A40ABEB020202EA010B594602
:100C7800304600F083FA431C019BC1D1DDF800B077
:100C8800C2E7542A17D84FEA1C3202F16F03DB007F
:100C98006E32E8E6B3F5AA7F17D8EB0B03F17800BC
:100CA80003F1770EC300DAE5C2F800A092E701234A
:100CB800CAF80430A8E6B2F5AA7F24D84FEADC3295
:100CC80002F17803DB007732CDE640F254529342CA
:100CD80024D8AB0C03F17D0003F17C0EC300BEE504
:100CE800009A083A9044A8EB0A084FF0000B8BE7EB
:100CF800304604F10801009300F026FB009BD7F86A
:100D080008A018689FE740F254539A420CD84FEA5B
:100D18009C4202F17D03DB007C32A4E64FF47E7333
:100D28007F204FF07E0E9AE54FF47E737E229AE67E
:100D38007B682CE7F00600200148FFF7D1BC00BF14
:100D4800DC0600200148FFF7D3BC00BFDC0600200A
:100D580070B500293FD006460C4610B1436B002BF6
:100D68003CD0636EB4F90C20DD0732D4900538D539
:100D78002146304600F054F8E36A054633B1E1698C
:100D8800304698470028B8BF4FF0FF35A3891A06A8
:100D980039D4216B41B104F14003994202D0304665
:100DA80000F0D2FA00232363616C21B1304600F0D1
:100DB800CBFA00236364FFF7BDFB636E0022DB07F9
:100DC800A2811CD5A06DFFF787FCFFF7B9FB284669
:100DD80070BD002ACCD10025284670BDFFF78CFBDA
:100DE800BFE7A06DFFF77CFCB4F90C30002BBFD136
:100DF800636ED907EFD4A06DFFF77AFCEBE7A06D1F
:100E0800FFF776FCDEE72169304600F09DFAC0E77F
:100E1800024B01461868FFF79BBF00BF1000002077
:100E2800B1F90C20F8B516070C46074649D44968AD
:100E380042F400630029A3815FDDA56A002D3ED03E
:100E4800002112F480523E683960E16961D10123C2
:100E58003846A847451C02466BD0B4F90C30A56A41
:100E6800E169580705D56368D21A236B0BB1E36BA8
:100E7800D21A00233846A847411C4CD13968B4F926
:100E88000C301D293FD82F4ACA40D2073BD52269CA
:100E9800226023F40062A281DD044FF00002626048
:100EA80001D5002943D0216B3E6041B104F14003D4
:100EB800994202D0384600F047FA00232363002005
:100EC800F8BD0E69002EFAD00D680E6092070CBFAF
:100ED8004B690023AD1B8B600CE0D4F824C0E1699A
:100EE8002B4632463846E047B0F1000CA5EB0C051E
:100EF800664406DD002DF0DCE1E7E16B00299CDCAF
:100F0800DDE7B4F90C3043F04003A3814FF0FF3024
:100F1800F8BD226DA5E7B4F90C302269226023F4EC
:100F28000062A281DB044FF000026260BBD520653D
:100F3800B9E73B68002B90D01D2B01D0162BE0D1D0
:100F48003E60BCE70100402038B50C46054608B1B4
:100F5800436B03B3B4F90C0088B1636EDB0701D4AB
:100F680081050FD528462146FFF75AFF636EDA0739
:100F7800054602D4A3899B0508D5284638BD0546F1
:100F8800284638BDA06DFFF7ABFBEBE7A06DFFF778
:100F9800AFFB284638BDFFF7AFFADBE750B338B5EB
:100FA800174B1D6804460DB16B6BBBB1B4F90C004F
:100FB80088B1636EDB0701D4810513D52846214625
:100FC800FFF72EFF636EDA07054602D4A3899B0557
:100FD8000CD5284638BD0546284638BD2846FFF7B3
:100FE8008BFAE3E7A06DFFF77BFBE7E7A06DFFF760
:100FF8007FFBEEE7034A04490448FFF7CBBA00BF7A
:101008001000002004000020510F000818000020E4
:1010180010B50C46B1F90E1000F09AF8002803DB61
:10102800236D0344236510BDA38923F48053A38152
:1010380010BD00BF002070472DE9F0410C46B1F902
:101048000C101F46CB05054616460BD421F48051DB
:10105800A1813B46B4F90E1032462846BDE8F0415E
:1010680000F09EB8B4F90E100223002200F05AF8DE
:10107800B4F90C10EAE700BF10B50C46B1F90E1030
:1010880000F050F8B4F90C30421C0EBF23F4805322
:1010980043F480532065A38110BD00BFB1F90E1041
:1010A80000F000B838B5074D0022044608462A600B
:1010B80002F0E2FA431C00D038BD2B68002BFBD0AD
:1010C800236038BD24070020154B1B68834225D0B8
:1010D800416C70B5054681B100268C593CB121465A
:1010E8002468284600F030F9002CF8D1696C0436E1
:1010F800802EF2D1284600F027F9A96B11B12846B5
:1011080000F022F9E96C11B1284600F01DF96B6B6B
:101118001BB12846BDE87040184770BD704700BF36
:101128001000002038B50C46084D8446114620466C
:101138001A4600232B60644602F0A6FA431C00D02E
:1011480038BD2B68002BFBD0236038BD2407002056
:1011580038B50C46084D8446114620461A460023E9
:101168002B60644602F098FA431C00D038BD2B6807
:10117800002BFBD0236038BD2407002038B5074D6D
:101188000022044608462A6002F08EFA431C00D06A
:1011980038BD2B68002BFBD0236038BD2407002006
:1011A80038B50C46084D8446114620461A46002399
:1011B8002B60644602F086FA431C00D038BD2B68C9
:1011C800002BFBD0236038BD24070020082802D15B
:1011D8004FF48050704708B500F0B2F91623036049
:1011E8004FF0FF3008BD00BF38B5074D074C2C1B2A
:1011F800A41005D0013C55F8043D9847002CF9D1BE
:10120800BDE8384002F070BA5C370008583700086B
:101218002DE9F8431B4D0646286898460F46914627
:10122800FFF75EFA184B1C681CB3286865681F2D09
:1012380022DC4EB96B1C0235636044F82570FFF759
:1012480057FA0020BDE8F88304EB85010123C1F8B3
:101258008890D4F88821AB401A43022EC4F888211C
:10126800C1F80881E6D1D4F88C211A43C4F88C213E
:10127800E0E7064C1C60D8E7FFF73AFA4FF0FF307A
:10128800E0E700BF38010020EC0600202807002016
:101298002DE9F843064608208946FFF797FFDFF84F
:1012A8009C8005463046FFF747FDD8F808305F6850
:1012B80027F00307A7F11104A4EB09042C44B4FB9D
:1012C800F5F4013C05FB04F4A54208DC0021304696
:1012D800FFF754FFD8F808303B44984205D0304611
:1012E800FFF730FD0020BDE8F88361423046FFF784
:1012F80045FF01300FD0124AD8F808303F1B47F09D
:1013080001075F60136830461B1B1360FFF71AFD67
:101318000120BDE8F88300213046FFF72FFFD8F8F9
:101328000820831A0F2BDADD43F001035360054BC5
:1013380003491B68C01A0860D1E700BF48010020B4
:10134800F00600203C01002000297CD0F8B50C46AE
:101358000646FFF7F1FC54F8043C764FA4F1080563
:1013680023F001016818D7F808C04268844522F0C4
:10137800030200F08380DB07426000EB020C33D4E9
:1013880054F8084CDCF804302D1B2144AC6807F1F4
:10139800080C644503F0010364D0D5F80CE0C4F8E8
:1013A8000CE0CEF80840002B00F0818041F00103EA
:1013B8006B600160B1F5007F22D27868CB0801220A
:1013C800490901338A40024357F833107A6007EB22
:1013D800C302083AC5E9021247F83350CD603046D7
:1013E800BDE8F840FFF7AEBCDCF80430DB072BD5CE
:1013F80041F00103B1F5007F44F8043C0160DCD3FF
:10140800B1F5206F4FEA512353D28B0903F139000C
:1014180003F13802C300F818FB580838984203D182
:1014280061E09B68984204D05A6822F003028A421D
:10143800F7D8D868C5E902308560DD603046BDE878
:10144800F840FFF77FBC7047114407F1080C836828
:1014580063453FD0C268DA60936041F001036B6076
:101468006950A7E7002B5FD10A44D0E90213CB608B
:10147800996042F001036B60AA50B0E70A44D907AB
:1014880007D454F8083CED1A1A44D5E90213CB6086
:10149800996042F001036B60274BBD601B68934263
:1014A8009DD8264B30461968FFF7F2FE97E711449E
:1014B800CDE7142B08D9542B1DD80B0B03F16F0063
:1014C80003F16E02C300A6E703F15C0003F15B02BF
:1014D800C300A0E741F00103C7E90455C5E902CC00
:1014E8006B6069507BE779689210012404FA02F274
:1014F8000A437A609EE7B3F5AA7F06D8CB0B03F1BF
:10150800780003F17702C30085E740F25452934212
:1015180006D88B0C03F17D0003F17C02C3007AE747
:101528004FF47E737E2276E741F001036B60016021
:1015380055E700BF48010020400100202007002097
:10154800014B1868704700BF1000002080B500AF3D
:10155800124B1B68114A43F0010313600F4B002222
:101568009A600E4B1B680D4A23F0847323F4803372
:1015780013600A4B0A4A5A60084B1B68074A23F44F
:1015880080231360054B0022DA6000F08DF8054BCC
:101598004FF000629A6000BF80BD00BF0038024073
:1015A8001030002400ED00E080B487B000AF0023C5
:1015B8003B6100237B610223FB600023BB600223A5
:1015C8007B60344B9B6803F00C033B613B69082B41
:1015D80011D03B69082B44D83B69002B03D03B69E9
:1015E800042B04D03DE02C4B2C4A1A603DE02A4BDA
:1015F8002B4A1A6039E0274B5B689B0D03F0010307
:10160800BB60244B5B6803F03F037B60BB68002B27
:101618000CD0234A7B68B2FBF3F31E4A5268920946
:10162800C2F3080202FB03F37B610BE01B4A7B68F1
:10163800B2FBF3F3174A52689209C2F3080202FB9D
:1016480003F37B61134B5B681B0C03F0030301334B
:101658005B00FB607A69FB68B2FBF3F30E4A136028
:1016680003E00D4B0D4A1A6000BF0A4B9B681B092B
:1016780003F00F030B4AD35CDBB23B61064B1A68DD
:101688003B6922FA03F3044A136000BF1C37BD46C6
:1016980080BC704700380240500500200024F40048
:1016A80000127A005405002080B483B000AF0023F4
:1016B8007B6000233B60424B1B68414A43F4803304
:1016C80013603F4B1B6803F400333B607B680133B6
:1016D8007B603B68002B05D17B68B3F5A04F01D038
:1016E800012300E00023002BEBD1354B1B6803F4EA
:1016F8000033002B14BF01230023DBB2002B02D0E0
:1017080001233B6001E000233B603B68012B0CBFD9
:1017180001230023DBB2002B4CD0294B1B6C284A39
:1017280043F080531364274B1B68264A43F4404315
:101738001360234B224A9B689360214B9B68204A85
:1017480043F4004393601E4B9B681D4A43F4A05327
:1017580093601B4B1C4A5A60194B1B68184A43F08C
:101768008073136000BF164B1B6803F00073002BD7
:101778000CBF01230023DBB2002BF4D1134B40F242
:1017880005721A600E4B9B680D4A23F003039360A1
:101798000B4B9B680A4A43F00203936000BF084B57
:1017A8009B6803F00C03082B14BF01230023DBB252
:1017B800002BF4D100BF0C37BD4680BC704700BF7A
:1017C800003802400070004008544007003C0240C6
:1017D80080B483B000AF03463960FB7197F90730D6
:1017E800002B0BDA3B68DAB20C49FB7903F00F03E4
:1017F800043B1201D2B20B441A7609E03B68DAB214
:10180800074997F907301201D2B20B4483F8002335
:1018180000BF0C37BD4680BC704700BF00ED00E03C
:1018280000E100E080B582B000AF78607B68013BE2
:10183800B3F1807F01D301230FE00A4A7B68013BA3
:1018480053600F214FF0FF30FFF7C2FF054B002216
:101858009A60044B07221A60002318460837BD46D1
:1018680080BD00BF10E000E080B400AF00BFBD46FF
:1018780080BC704780B400AF00BFFDE780B400AF04
:1018880000BFFDE780B400AF00BFFDE780B400AF44
:1018980000BFFDE780B400AF00BFBD4680BC704705
:1018A80080B400AF00BFBD4680BC704780B400AFB5
:1018B80000BFBD4680BC704780B400AF00BFBD46C6
:1018C80080BC704780B400AF064B1B680133054AE3
:1018D8001360054B1B680133034A136000BFBD4604
:1018E80080BC7047C0080020C808002080B400AF42
:1018F800024B1B681846BD4680BC7047C0080020D4
:1019080080B582B000AFFFF7F1FF03464FF47A725B
:1019180003FB02F2094B1B680949A1FB0313990C4D
:10192800084B9B68CB1A0849A1FB03131B091344F6
:101938007B607B6818460837BD4680BD500500208F
:1019480083DE1B4310E000E0398EE33880B500AF3A
:10195800054B1B68054AA2FB03239B0C1846FFF79F
:1019680061FF00BF80BD00BF5005002083DE1B4320
:1019780080B582B000AF78607B684FF47A7202FB62
:1019880003F3184600F010F800BF0837BD4680BDC5
:1019980080B582B000AF7860786800F005F800BFC5
:1019A8000837BD4680BD000080B582B000AF7860C2
:1019B800094B00221A6000BFFFF798FF02467B68B8
:1019C80093428CBF01230023DBB2002BF4D100BF6C
:1019D80000BF0837BD4680BDC008002080B483B072
:1019E80000AF7860002318460C37BD4680BC7047AE
:1019F80080B500AFFFF7AAFF00F00EF84FF4704172
:101A0800044801F0B6FD4FF4FA70FFF7B1FF00BFCC
:101A1800F4E700BF000C024080B582B000AF01219E
:101A2800082000F0E5FB4FF470433B6001233B7155
:101A38000023BB710023FB7103237B713B461946CE
:101A4800034801F039FC00BF0837BD4680BD00BF20
:101A5800000C024080B400AF164B1B68154A43F0D7
:101A680001031360134B00229A60124B1B68114A42
:101A780023F0A85323F4102313600E4B0E4A5A6028
:101A88000C4B0E4AC3F884200A4B0D4AC3F8882031
:101A9800084B1B68074A23F480231360054B002278
:101AA800DA60044B0022C3F88C2000BFBD4680BC1E
:101AB800704700BF0038024010300024003000207A
:101AC8000030002480B483B000AF0346FB71054B9F
:101AD80000221A70034AFB79137000BF0C37BD4609
:101AE80080BC70470238024080B582B000AF002346
:101AF8003B600023FB710023BB71312000F060FDC7
:101B08000346BB713B6801333B603B68B3F5A04FAC
:101B180004D0BB79002B01D1012300E00023002B66
:101B2800EBD1312000F04CFD0346002B14BF0123FC
:101B38000023DBB2002B02D00123FB7101E000235C
:101B4800FB71FB7918460837BD4680BD80B485B067
:101B580000AF0346FB710023FB600A4B1B68FB6068
:101B6800FB6823F0F803FB60FB79DB00FA6813439A
:101B7800FB60044AFB68136000BF1437BD4680BC95
:101B8800704700BF0038024080B483B000AF0346FE
:101B9800FB71044AFB79136000BF0C37BD4680BC5B
:101BA800704700BF0000474280B483B000AF0346CF
:101BB800FB710C4B00221A700A4B00221A70FB7939
:101BC800012B02D0042B04D007E0064B01221A7027
:101BD80003E0044B05221A7000BF00BF0C37BD4656
:101BE80080BC70477038024080B483B000AF0346B1
:101BF800FB71044AFB79136000BF0C37BD4680BCFB
:101C0800704700BF800E474280B485B000AFF860CF
:101C1800B9607A603B607B689A01BB681A433B688D
:101C28005B08013B1B041A43FB681A43BB691B068C
:101C3800034913434B6000BF1437BD4680BC70474F
:101C48000038024080B483B000AF0346FB71044AF9
:101C5800FB79136000BF0C37BD4680BC704700BFDE
:101C68006000474280B483B000AF786039607B6819
:101C78009A013B681B0704491343C1F8843000BF2D
:101C88000C37BD4680BC70470038024080B483B032
:101C980000AF0346FB71044AFB79136000BF0C37A1
:101CA800BD4680BC704700BF6800474280B485B01D
:101CB80000AFF860B9607A60FB689A01BB681B06E0
:101CC8001A437B681B0704491343C1F8883000BFD7
:101CD8001437BD4680BC70470038024080B483B0DA
:101CE80000AF0346FB71044AFB79136000BF0C3751
:101CF800BD4680BC704700BF7000474280B483B0C7
:101D080000AF0346FB71044AFB79136000BF0C3730
:101D1800BD4680BC704700BF4C00474280B485B0C8
:101D280000AF786039600023FB600A4B9B68FB605A
:101D3800FB6823F0EC63FB607A683B681343FA683E
:101D48001343FB60034AFB68936000BF1437BD462A
:101D580080BC70470038024080B485B000AF78601E
:101D680039600023FB600A4B9B68FB60FB6823F02B
:101D78007843FB607A683B681343FA681343FB6057
:101D8800034AFB68936000BF1437BD4680BC7047A8
:101D98000038024080B485B000AF78600023FB6053
:101DA800094B9B68FB60FB6823F00303FB60FA6840
:101DB8007B681343FB60044AFB68936000BF1437D9
:101DC800BD4680BC704700BF0038024080B400AFF9
:101DD800044B9B68DBB203F00C03DBB21846BD462C
:101DE80080BC70470038024080B485B000AF78608E
:101DF8000023FB60094B9B68FB60FB6823F0F00342
:101E0800FB60FA687B681343FB60044AFB689360D5
:101E180000BF1437BD4680BC704700BF0038024081
:101E280080B485B000AF78600023FB60094B9B68E5
:101E3800FB60FB6823F4E053FB60FA687B6813439C
:101E4800FB60044AFB68936000BF1437BD4680BC42
:101E5800704700BF0038024080B485B000AF78609A
:101E68000023FB60094B9B68FB60FB6823F460431D
:101E7800FB607B68DB00FA681343FB60034AFB687E
:101E8800936000BF1437BD4680BC704700380240DD
:101E980080B489B000AF78600023BB6100237B6108
:101EA8000023FB6102233B610023FB600223BB602C
:101EB8004A4B9B6803F00C03BB61BB69082B11D02C
:101EC800BB69082B44D8BB69002B03D0BB69042B22
:101ED80004D03DE07B68424A1A603DE07B68414A95
:101EE8001A6039E03D4B5B689B0D03F00103FB6012
:101EF8003A4B5B6803F03F03BB60FB68002B0CD0D8
:101F0800384ABB68B2FBF3F3344A52689209C2F309
:101F1800080202FB03F3FB610BE0314ABB68B2FB2A
:101F2800F3F32E4A52689209C2F3080202FB03F344
:101F3800FB612A4B5B681B0C03F0030301335B0056
:101F48003B61FA693B69B2FBF3F27B681A6003E014
:101F58007B68234A1A6000BF204B9B6803F0F0039C
:101F6800BB61BB691B09BB611F4ABB6913441B7872
:101F7800DBB27B617B681A687B69DA407B685A60F0
:101F8800164B9B6803F4E053BB61BB699B0ABB61BA
:101F9800154ABB6913441B78DBB27B617B685A68BE
:101FA8007B69DA407B689A600C4B9B6803F460435A
:101FB800BB61BB695B0BBB610B4ABB6913441B78F4
:101FC800DBB27B617B685A687B69DA407B68DA60E0
:101FD80000BF2437BD4680BC704700BF00380240B0
:101FE8000024F40000127A006405002080B485B053
:101FF80000AF78600023FB607B6803F44073B3F59F
:10200800407F11D10F4B9B68FB60FB6823F4F813EA
:10201800FB607B6823F0704323F44073FA68134332
:10202800FB60084AFB689360064B1A6F7B68C3F332
:102038000B03044913430B6700BF1437BD4680BC2C
:10204800704700BF0038024080B483B000AF034639
:10205800FB71044AFB79136000BF0C37BD4680BC96
:10206800704700BF3C0E474280B483B000AF0346C0
:10207800FB71044AFB79136000BF0C37BD4680BC76
:10208800704700BF400E474280B483B000AF78600D
:10209800034A7B68136000BF0C37BD4680BC70479D
:1020A8005C01474280B485B000AF78600023FB60D4
:1020B8000A4BD3F88C30FB60FB6823F01F03FB60EE
:1020C8007B68013BFA681343FB60044AFB68C2F86B
:1020D8008C3000BF1437BD4680BC704700380240C2
:1020E80080B485B000AF78600023FB600B4BD3F859
:1020F8008C30FB60FB6823F4F853FB607B68013B82
:102108001B02FA681343FB60044AFB68C2F88C3070
:1021180000BF1437BD4680BC704700BF003802407E
:1021280080B485B000AF78600023FB600A4BD3F819
:102138008C30FB60FB6823F44013FB60FA687B6813
:102148001343FB60044AFB68C2F88C3000BF1437A5
:10215800BD4680BC704700BF0038024080B485B0DF
:1021680000AF78600023FB600A4BD3F88C30FB602B
:10217800FB6823F44003FB60FA687B681343FB6049
:10218800044AFB68C2F88C3000BF1437BD4680BCD7
:10219800704700BF0038024080B485B000AF786057
:1021A8000023FB600A4BD3F88C30FB60FB6823F4F8
:1021B8004033FB60FA687B681343FB60044AFB68A2
:1021C800C2F88C3000BF1437BD4680BC704700BFD2
:1021D8000038024080B483B000AF7860034A7B685F
:1021E800136000BF0C37BD4680BC7047E011474202
:1021F80080B483B000AF78600B46FB70FB78002B8F
:1022080006D0094B1A6B08497B6813430B6306E039
:10221800054B1A6B7B68DB43034913400B6300BF14
:102228000C37BD4680BC70470038024080B483B08C
:1022380000AF78600B46FB70FB78002B06D0094B8B
:102248005A6B08497B6813434B6306E0054B5A6B8E
:102258007B68DB43034913404B6300BF0C37BD4623
:1022680080BC70470038024080B483B000AF78600B
:102278000B46FB70FB78002B06D0094B9A6B08497C
:102288007B6813438B6306E0054B9A6B7B68DB43E3
:10229800034913408B6300BF0C37BD4680BC7047B1
:1022A8000038024080B483B000AF78600B46FB7002
:1022B800FB78002B06D0094B1A6C08497B6813433E
:1022C8000B6406E0054B1A6C7B68DB43034913403B
:1022D8000B6400BF0C37BD4680BC70470038024015
:1022E80080B483B000AF78600B46FB70FB78002B9E
:1022F80006D0094B5A6C08497B6813434B6406E0C7
:10230800054B5A6C7B68DB43034913404B6400BFA1
:102318000C37BD4680BC70470038024080B483B09B
:1023280000AF78600B46FB70FB78002B06D0094B9A
:102338001A6908497B6813430B6106E0054B1A6963
:102348007B68DB43034913400B6100BF0C37BD4674
:1023580080BC70470038024080B483B000AF78601A
:102368000B46FB70FB78002B06D0094B5A690849CD
:102378007B6813434B6106E0054B5A697B68DB4376
:10238800034913404B6100BF0C37BD4680BC704702
:102398000038024080B483B000AF78600B46FB7011
:1023A800FB78002B06D0094B9A6908497B681343D0
:1023B8008B6106E0054B9A697B68DB430349134050
:1023C8008B6100BF0C37BD4680BC704700380240A7
:1023D80080B483B000AF78600B46FB70FB78002BAD
:1023E80006D0094B1A6A08497B6813430B6206E05A
:1023F800054B1A6A7B68DB43034913400B6200BF35
:102408000C37BD4680BC70470038024080B483B0AA
:1024180000AF78600B46FB70FB78002B06D0094BA9
:102428005A6A08497B6813434B6206E0054B5A6AAF
:102438007B68DB43034913404B6200BF0C37BD4642
:1024480080BC70470038024080B483B000AF786029
:102458000B46FB70FB78002B06D0094B1A6D084918
:102468007B6813430B6506E0054B1A6D7B68DB43FD
:10247800034913400B6500BF0C37BD4680BC70474D
:102488000038024080B483B000AF78600B46FB7020
:10249800FB78002B06D0094B5A6D08497B6813431B
:1024A8004B6506E0054B5A6D7B68DB4303491340D7
:1024B8004B6500BF0C37BD4680BC704700380240F2
:1024C80080B483B000AF78600B46FB70FB78002BBC
:1024D80006D0094B9A6D08497B6813438B6506E063
:1024E800054B9A6D7B68DB43034913408B6500BF3E
:1024F8000C37BD4680BC70470038024080B483B0BA
:1025080000AF78600B46FB70FB78002B06D0094BB8
:102518001A6E08497B6813430B6606E0054B1A6E72
:102528007B68DB43034913400B6600BF0C37BD468D
:1025380080BC70470038024080B483B000AF786038
:102548000B46FB70FB78002B06D0094B5A6E0849E6
:102558007B6813434B6606E0054B5A6E7B68DB438A
:10256800034913404B6600BF0C37BD4680BC70471B
:102578000038024080B483B000AF03460A46FB71BE
:102588001346BB71BB79002B08D00C4B1B78DAB211
:102598000A49FB791343DBB20B7009E0074B1B7840
:1025A800DAB2FB79DB43DBB204491340DBB20B70D0
:1025B80000BF0C37BD4680BC704700BF0D380240D5
:1025C80080B487B000AF0346FB710023FB60002393
:1025D8007B610023FB74FB795B09DBB2FB60FB6862
:1025E800012B03D1124B1B687B6109E0FB68022BAE
:1025F80003D10F4B1B6F7B6102E00D4B5B6F7B615F
:10260800FB7903F01F03FB607A69FB6822FA03F386
:1026180003F00103002B02D00123FB7401E0002327
:10262800FB74FB7C18461C37BD4680BC704700BF56
:102638000038024080B400AF044B5B6F034A43F09C
:102648008073536700BFBD4680BC704700380240A6
:1026580080B485B000AF0346FB710023FB730B4BBE
:10266800DA68FB791340002B14BF01230023DBB287
:10267800002B02D00123FB7301E00023FB73FB7BDB
:1026880018461437BD4680BC704700BF003802406A
:1026980080B483B000AF0346FB71044AFB79137022
:1026A80000BF0C37BD4680BC704700BF0E380240E3
:1026B80080B500AF01214FF48040FFF7A7FE00214D
:1026C8004FF48040FFF7A2FE00BF80BD80B483B006
:1026D80000AF0346FB71044AFB79136000BF0C3757
:1026E800BD4680BC704700BF0038014080B483B04D
:1026F80000AF0346FB71044AFB79136000BF0C3737
:10270800BD4680BC704700BF2000274280B485B01A
:1027180000AF03460A46FB711346BB710023FB60FA
:10272800BB7903F003039B000F2202FA03F3FB605B
:10273800154ABB799B08DBB2023352F82320FB68A9
:10274800DB431148B9798908C9B21A408B1C40F893
:1027580023200D4ABB799B08DBB2023352F82320B1
:10276800F979BB7903F003039B0001FA03F30648E8
:10277800B9798908C9B21A438B1C40F8232000BFD5
:102788001437BD4680BC70470038014080B483B020
:1027980000AF7860034A7B68136000BF0C37BD4602
:1027A80080BC7047DC00274280B483B000AF03468A
:1027B800FB71044AFB79136000BF0C37BD4680BC2F
:1027C800704700BF0004274280B483B000AF0023E5
:1027D800FB710B4B1B6A03F48073002B14BF01239E
:1027E8000023DBB2002B02D00123FB7101E00023A0
:1027F800FB71FB7918460C37BD4680BC704700BF9B
:102808000038014080B582B000AF78607B683B4AF1
:10281800934208D101211020FFF7F8FD0021102074
:10282800FFF7F4FD65E07B68354A93420AD1012140
:102838004FF40030FFF7CCFD00214FF40030FFF7D4
:10284800C7FD56E07B682F4A93420AD101214FF415
:102858008020FFF7BDFD00214FF48020FFF7B8FD71
:1028680047E07B68284A93420AD101214FF40020AF
:10287800FFF7AEFD00214FF40020FFF7A9FD38E077
:102888007B68224A93420AD101214FF48010FFF756
:102898009FFD00214FF48010FFF79AFD29E07B6827
:1028A8001B4A934208D101212020FFF7AFFD0021E8
:1028B8002020FFF7ABFD1CE07B68164A93420AD143
:1028C80001214FF08040FFF783FD00214FF0804049
:1028D800FFF77EFD0DE07B680F4A934209D1012185
:1028E8004FF00040FFF774FD00214FF00040FFF764
:1028F8006FFD00BF0837BD4680BD00BF0010014016
:102908000044004000480040004C00400050004097
:102918000014014000780040007C004080B58AB077
:1029280000AF7860396000237B6200233B6200239C
:10293800FB610023BB617B681B8A9BB27B627B6A5D
:1029480023F440537B623B68DB881A467B6A134357
:102958007B627B6A9AB27B681A827B689B899BB28E
:102968007B627B6A23F4B05323F00C037B623B68E1
:102978009A883B681B8913439AB23B685B89134367
:102988009BB21A467B6A13437B627B6A9AB27B6866
:102998009A817B689B8A9BB27B627B6A23F4407333
:1029A8007B623B689B891A467B6A13437B627B6A1E
:1029B8009AB27B689A8207F108031846FFF768FA0B
:1029C8007B68334A934203D07B68324A934202D1F0
:1029D8007B693B6201E03B693B627B689B899BB2F8
:1029E8001BB29BB2DB0BDBB2002B0CD03A6A13464E
:1029F8009B0013449A001A443B681B685B00B2FBB7
:102A0800F3F3FB610BE03A6A13469B0013449A0008
:102A18001A443B681B689B00B2FBF3F3FB61FB693C
:102A28001D4AA2FB03235B091B017B627B6A1B090E
:102A3800642202FB03F3FA69D31ABB617B689B89A2
:102A48009BB21BB29BB2DB0BDBB2002B0CD0BB6979
:102A5800DB003233104AA2FB03235B0903F00703B0
:102A68007A6A13437B620BE0BB691B0132330A4A63
:102A7800A2FB03235B0903F00F037A6A13437B620B
:102A88007B6A9AB27B681A8100BF2837BD4680BD31
:102A980000100140001401401F85EB5180B483B041
:102AA80000AF78607B684FF416521A607B6800228A
:102AB8009A807B680022DA807B6800221A817B6812
:102AC8000C225A817B6800229A8100BF0C37BD46D0
:102AD80080BC704780B485B000AF7860396000234F
:102AE800FB607B681B8A9BB2FB60FB6823F4706306
:102AF800FB603B681A883B685B8813439AB23B6863
:102B08009B8813439AB23B68DB8813439BB21A46EF
:102B1800FB681343FB60FB689AB27B681A8200BFAC
:102B28001437BD4680BC704780B483B000AF78606E
:102B38007B6800221A807B6800225A807B6800220A
:102B48009A807B680022DA8000BF0C37BD4680BCC3
:102B5800704780B483B000AF78600B46FB70FB7899
:102B6800002B08D07B689B899BB243F400539AB230
:102B78007B689A8107E07B689B899BB223F40053AA
:102B88009AB27B689A8100BF0C37BD4680BC7047FB
:102B980080B483B000AF78600B46FB707B681B8BFA
:102BA8009BB223F0FF039AB27B681A837B681B8B66
:102BB8009AB2FB789BB213439AB27B681A8300BF20
:102BC8000C37BD4680BC704780B483B000AF7860D6
:102BD8000B46FB70FB78002B0AD07B689B899BB265
:102BE8006FEA43436FEA53439AB27B689A8107E0DE
:102BF8007B689B899BB2C3F30E039AB27B689A8168
:102C080000BF0C37BD4680BC704780B483B000AFAE
:102C180078600B46FB70FB78002B08D07B689B8A9A
:102C28009BB243F400639AB27B689A8207E07B68A0
:102C38009B8A9BB223F400639AB27B689A8200BF96
:102C48000C37BD4680BC704780B483B000AF786055
:102C58000B467B807B88C3F308039AB27B689A8013
:102C680000BF0C37BD4680BC704780B483B000AF4E
:102C780078607B689B889BB2C3F308039BB21846B5
:102C88000C37BD4680BC704780B483B000AF786015
:102C98000B46FB707B681B8A9BB223F00F039AB22A
:102CA8007B681A827B681B8A9AB2FB789BB21343B3
:102CB8009AB27B681A8200BF0C37BD4680BC704749
:102CC80080B483B000AF78600B46FB70FB78002BB4
:102CD80008D07B689B899BB243F002039AB27B6859
:102CE8009A8107E07B689B899BB223F002039AB222
:102CF8007B689A8100BF0C37BD4680BC704780B4A2
:102D080083B000AF78600B467B807B689B899BB261
:102D180023F400639AB27B689A817B689B899AB294
:102D28007B8813439AB27B689A8100BF0C37BD46F3
:102D380080BC704780B483B000AF78600B467B805E
:102D48007B681B8A9BB223F020039AB27B681A82A5
:102D58007B681B8A9AB27B8813439AB27B681A8273
:102D680000BF0C37BD4680BC704780B483B000AF4D
:102D780078600B46FB70FB78002B08D07B681B8AB9
:102D88009BB243F480439AB27B681A8207E07B685F
:102D98001B8A9BB223F480439AB27B681A8200BFD5
:102DA8000C37BD4680BC704780B483B000AF7860F4
:102DB8007B689B899BB243F001039AB27B689A8136
:102DC80000BF0C37BD4680BC704780B483B000AFED
:102DD80078600B46FB70FB78002B08D07B689B8AD9
:102DE8009BB243F008039AB27B689A8207E07B683B
:102DF8009B8A9BB223F008039AB27B689A8200BF31
:102E08000C37BD4680BC704780B483B000AF786093
:102E18000B46FB707B681B8B9BB2DBB29AB27B685C
:102E28001A837B681B8B9AB2FB789BB21B029BB2FE
:102E380013439AB27B681A8300BF0C37BD4680BC27
:102E4800704780B483B000AF78600B46FB70FB78A6
:102E5800002B08D07B689B8A9BB243F020039AB270
:102E68007B689A8207E07B689B8A9BB223F02003E9
:102E78009AB27B689A8200BF0C37BD4680BC704707
:102E880080B483B000AF78600B46FB70FB78002BF2
:102E980008D07B689B8A9BB243F010039AB27B6888
:102EA8009A8207E07B689B8A9BB223F010039AB250
:102EB8007B689A8200BF0C37BD4680BC704780B4DF
:102EC80083B000AF78600B467B807B689B8A9BB29F
:102ED80023F004039AB27B689A827B689B8A9AB231
:102EE8007B8813439AB27B689A8200BF0C37BD4631
:102EF80080BC704780B483B000AF78600B46FB702D
:102F0800FB78002B08D07B689B8A9BB243F00203B6
:102F18009AB27B689A8207E07B689B8A9BB223F00F
:102F280002039AB27B689A8200BF0C37BD4680BC08
:102F3800704780B483B000AF78600B467B8013463F
:102F48007B707B78002B08D07B689B8A9AB27B8841
:102F580013439AB27B689A8209E07B689B8A9AB28B
:102F68007B88DB439BB213409AB27B689A8200BF8E
:102F78000C37BD4680BC704780B487B000AF78601E
:102F88000B467B8013467B7000233B610023FB606C
:102F98000023BB6000237B617B687B617B88DBB29D
:102FA8005B09DBB23B617B8803F01F03FB600122F6
:102FB800FB6802FA03F3BB603B69012B03D17B6911
:102FC8000C337B6109E03B69022B03D17B69103329
:102FD8007B6102E07B6914337B617B78002B06D030
:102FE8007B6919687B69BA680A431A6006E07B69DD
:102FF8001968BB68DA437B690A401A6000BF1C374E
:10300800BD4680BC704780B485B000AF78600B4681
:103018007B800023FB737B681B889AB27B881340F4
:103028009BB2002B14BF01230023DBB2002B02D07C
:103038000123FB7301E00023FB73FB7B1846143765
:10304800BD4680BC704780B483B000AF78600B4643
:103058007B807B88DB439AB27B681A8000BF0C3781
:10306800BD4680BC704780B487B000AF78600B461F
:103078007B800023FB6000237B610023BB6000236F
:10308800FB747B88DBB25B09DBB2BB607B8803F037
:103098001F037B6101227B6902FA03F37B61BB6832
:1030A800012B07D17B689B899BB21A467B69134029
:1030B8007B6111E0BB68022B07D17B681B8A9BB23E
:1030C8001A467B6913407B6106E07B689B8A9BB24A
:1030D8001A467B6913407B617B881B0A9BB2FB60A5
:1030E8000122FB6802FA03F3FB607B681B889BB232
:1030F8001A46FB681340FB607B69002B05D0FB6810
:10310800002B02D00123FB7401E00023FB74FB7C3D
:1031180018461C37BD4680BC704780B485B000AFE8
:1031280078600B467B800023FB810023BB817B8872
:103138001B0AFB81FB89012202FA03F3BB81BB89CD
:10314800DB439AB27B681A8000BF1437BD4680BC47
:103158007047000080B582B000AF78607B684B4A4A
:10316800934208D101210120FFF7D8F8002101205E
:10317800FFF7D4F886E07B68454A934208D10121DD
:103188000220FFF7CBF800210220FFF7C7F879E00B
:103198007B68404A934208D101210420FFF7BEF81A
:1031A80000210420FFF7BAF86CE07B683A4A9342A2
:1031B80008D101210820FFF7B1F800210820FFF706
:1031C800ADF85FE07B68354A934208D101211020B1
:1031D800FFF7A4F800211020FFF7A0F852E07B6861
:1031E8002F4A934208D101212020FFF797F80021A8
:1031F8002020FFF793F845E07B682A4A934208D1DC
:1032080001214020FFF78AF800214020FFF786F8C7
:1032180038E07B68244A934208D101218020FFF7D7
:103228007DF800218020FFF779F82BE07B681F4AA2
:1032380093420AD101214FF48070FFF76FF8002103
:103248004FF48070FFF76AF81CE07B68184A9342D5
:103258000AD101214FF40070FFF760F800214FF404
:103268000070FFF75BF80DE07B68124A934209D1C2
:1032780001214FF48060FFF751F800214FF480607E
:10328800FFF74CF800BF0837BD4680BD000002407C
:103298000004024000080240000C024000100240F6
:1032A8000014024000180240001C024000200240A6
:1032B800002402400028024080B487B000AF786044
:1032C800396000237B6100233B610023FB600023FE
:1032D8007B6176E001227B6902FA03F33B613B687C
:1032E8001B683A691340FB60FA683B699A4265D1EA
:1032F8007B681A687B695B00032101FA03F3DB43EF
:103308001A407B681A607B681A683B681B79194603
:103318007B695B0001FA03F31A437B681A603B6818
:103328001B79012B03D03B681B79022B2ED17B68BC
:103338009A687B695B00032101FA03F3DB431A40B7
:103348007B689A607B689A683B685B7919467B69F9
:103358005B0001FA03F31A437B689A607B685A683A
:103368007B699BB2194601238B40DB431A407B687B
:103378005A607B685B683A68927911467A6992B2BA
:1033880001FA02F292B21A437B685A607B68DA68E3
:103398007B699BB25B00032101FA03F3DB431A400C
:1033A8007B68DA607B68DA683B68DB7919467B6999
:1033B8005B0001FA03F31A437B68DA607B69013327
:1033C8007B617B690F2B85D900BF00BF1C37BD46C9
:1033D80080BC704780B483B000AF78607B684FF6DC
:1033E800FF721A607B6800221A717B6800225A718A
:1033F8007B6800229A717B680022DA7100BF0C3763
:10340800BD4680BC704780B485B000AF78600B467D
:103418007B804FF48033FB607A88FB681343FB6042
:10342800FA687B68DA617A887B68DA61FA687B68AF
:10343800DA617B68DB69FB607B68DB69FB6000BF86
:103448001437BD4680BC704780B485B000AF786043
:103458000B467B800023FB737B681A697B881340CB
:10346800002B14BF01230023DBB2002B02D0012361
:10347800FB7301E00023FB73FB7B18461437BD4642
:1034880080BC704780B483B000AF78607B681B69EC
:103498009BB218460C37BD4680BC704780B485B0D7
:1034A80000AF78600B467B800023FB737B685A690A
:1034B8007B881340002B14BF01230023DBB2002BB1
:1034C80002D00123FB7301E00023FB73FB7B18464A
:1034D8001437BD4680BC704780B483B000AF7860B5
:1034E8007B685B699BB218460C37BD4680BC704749
:1034F80080B483B000AF78600B467B807B687A88A5
:103508001A8300BF0C37BD4680BC704780B483B0B7
:1035180000AF78600B467B807B687A885A8300BF4F
:103528000C37BD4680BC704780B483B000AF78606C
:103538000B467B8013467B707B78002B03D07B681F
:103548007A881A8302E07B687A885A8300BF0C372E
:10355800BD4680BC704780B483B000AF78600B462E
:103568007B807A887B685A6100BF0C37BD4680BC77
:10357800704780B483B000AF78600B467B807B686F
:103588005A697B885A407B685A6100BF0C37BD4630
:1035980080BC704780B485B000AF78600B467B80F4
:1035A80013467B700023FB600023BB607A787B881E
:1035B80003F007039B0002FA03F3FB607B88DB0838
:1035C8009BB21A467B68083253F822207B8803F0A6
:1035D80007039B000F2101FA03F3DB437988C9082D
:1035E80089B2084602EA03017B6800F1080243F841
:1035F80022107B88DB089BB21A467B68083253F896
:103608002230FA681343BB607B88DB089BB21A46FA
:103618007B680832B96843F8221000BF1437BD46EA
:1036280080BC704700200C490C4A0D4B02E01C5826
:103638000C5004300C189442F9D3002009490A4A66
:1036480001E0086004319142FBD3FDF77FFFFDF7ED
:1036580015F8FEF7CDF900000000002074050020E1
:103668005C37000874050020D0080020FEE7000041
:103678000010000000100000024B58221A604FF0A2
:10368800FF30704724070020024B58221A604FF081
:10369800FF30704724070020024B58221A604FF071
:1036A800FF30704724070020044A05491368002B9F
:1036B80008BF0B461844106018467047CC08002015
:1036C800D0080020024B58221A604FF0FF30704794
:1036D80024070020FEE700BF00000000F8B500BF87
:1036E800F8BC08BC9E467047F8B500BFF8BC08BCDB
:0436F8009E46704733
:1036FC00022905290729322934290E292D291229B5
:10370C0011291B293B2915293E29242920293D292A
:10371C002729000000010101022905290729322966
:10372C0034290E292D29122911291B293B29152948
:0C373C003E29242920293D2927290000CE
:0837480040CAFF7F01000000F0
:0837500081020008FD060008DB
:04375800590200080A
:10375C0000000000000000000300000090050020A5
:10376C001800002000000000000000009005002060
:10377C00F80500206006002000000000000000009A
:10378C00000000000000000000000000000000002D
:10379C00000000000000000000000000000000001D
:1037AC00000000000000000000000000000000000D
:1037BC0000000000000000000000000000000000FD
:1037CC0000000000000000000000000000000000ED
:1037DC0000000000000000000000000000000000DD
:1037EC0000000000000000000000000000000000CD
:1037FC0000000000000000000000000000000000BD
:10380C0001000000000000000E33CDAB34126DE659
:10381C00ECDE05000B0000000000000000000000C2
:10382C00000000000000000000000000000000008C
:10383C00000000000000000000000000000000007C
:10384C00000000000000000000000000000000006C
:10385C00000000000000000000000000000000005C
:10386C00000000000000000000000000000000004C
:10387C00000000000000000000000000000000003C
:10388C000000000000000000E4060020FFFFFFFF26
:10389C00000002000000000000000000000000001A
:1038AC004801002048010020500100205001002058
:1038BC005801002058010020600100206001002008
:1038CC0068010020680100207001002070010020B8
:1038DC007801002078010020800100208001002068
:1038EC008801002088010020900100209001002018
:1038FC009801002098010020A0010020A0010020C8
:10390C00A8010020A8010020B0010020B001002077
:10391C00B8010020B8010020C0010020C001002027
:10392C00C8010020C8010020D0010020D0010020D7
:10393C00D8010020D8010020E0010020E001002087
:10394C00E8010020E8010020F0010020F001002037
:10395C00F8010020F80100200002002000020020E5
:10396C000802002008020020100200201002002093
:10397C001802002018020020200200202002002043
:10398C0028020020280200203002002030020020F3
:10399C0038020020380200204002002040020020A3
:1039AC004802002048020020500200205002002053
:1039BC005802002058020020600200206002002003
:1039CC0068020020680200207002002070020020B3
:1039DC007802002078020020800200208002002063
:1039EC008802002088020020900200209002002013
:1039FC009802002098020020A0020020A0020020C3
:103A0C00A8020020A8020020B0020020B002002072
:103A1C00B8020020B8020020C0020020C002002022
:103A2C00C8020020C8020020D0020020D0020020D2
:103A3C00D8020020D8020020E0020020E002002082
:103A4C00E8020020E8020020F0020020F002002032
:103A5C00F8020020F80200200003002000030020E0
:103A6C00080300200803002010030020100300208E
:103A7C00180300201803002020030020200300203E
:103A8C0028030020280300203003002030030020EE
:103A9C00380300203803002040030020400300209E
:103AAC00480300204803002050030020500300204E
:103ABC0058030020580300206003002060030020FE
:103ACC0068030020680300207003002070030020AE
:103ADC00780300207803002080030020800300205E
:103AEC00880300208803002090030020900300200E
:103AFC009803002098030020A0030020A0030020BE
:103B0C00A8030020A8030020B0030020B00300206D
:103B1C00B8030020B8030020C0030020C00300201D
:103B2C00C8030020C8030020D0030020D0030020CD
:103B3C00D8030020D8030020E0030020E00300207D
:103B4C00E8030020E8030020F0030020F00300202D
:103B5C00F8030020F80300200004002000040020DB
:103B6C000804002008040020100400201004002089
:103B7C001804002018040020200400202004002039
:103B8C0028040020280400203004002030040020E9
:103B9C003804002038040020400400204004002099
:103BAC004804002048040020500400205004002049
:103BBC0058040020580400206004002060040020F9
:103BCC0068040020680400207004002070040020A9
:103BDC007804002078040020800400208004002059
:103BEC008804002088040020900400209004002009
:103BFC009804002098040020A0040020A0040020B9
:103C0C00A8040020A8040020B0040020B004002068
:103C1C00B8040020B8040020C0040020C004002018
:103C2C00C8040020C8040020D0040020D0040020C8
:103C3C00D8040020D8040020E0040020E004002078
:103C4C00E8040020E8040020F0040020F004002028
:103C5C00F8040020F80400200005002000050020D6
:103C6C000805002008050020100500201005002084
:103C7C001805002018050020200500202005002034
:103C8C0028050020280500203005002030050020E4
:103C9C003805002038050020400500204005002094
:103CAC00007A030A00000000000000000102030477
:103CBC0006070809000000000102030401020304C6
:043CCC0006070809D6
:040000050800362D8C
:00000001FF
